{
	"contracts/TwitterArray.sol": {
		"TwitterArray": {
			"abi": [
				{
					"inputs": [
						{
							"internalType": "address",
							"name": "_owner",
							"type": "address"
						}
					],
					"name": "AllTwits",
					"outputs": [
						{
							"internalType": "string[]",
							"name": "",
							"type": "string[]"
						}
					],
					"stateMutability": "view",
					"type": "function"
				},
				{
					"inputs": [
						{
							"internalType": "string",
							"name": "_twits",
							"type": "string"
						}
					],
					"name": "CreateTwits",
					"outputs": [],
					"stateMutability": "nonpayable",
					"type": "function"
				},
				{
					"inputs": [
						{
							"internalType": "address",
							"name": "",
							"type": "address"
						},
						{
							"internalType": "uint256",
							"name": "",
							"type": "uint256"
						}
					],
					"name": "MyMessage",
					"outputs": [
						{
							"internalType": "string",
							"name": "",
							"type": "string"
						}
					],
					"stateMutability": "view",
					"type": "function"
				},
				{
					"inputs": [
						{
							"internalType": "address",
							"name": "_owner",
							"type": "address"
						},
						{
							"internalType": "uint256",
							"name": "_i",
							"type": "uint256"
						}
					],
					"name": "OneTwits",
					"outputs": [
						{
							"internalType": "string",
							"name": "",
							"type": "string"
						}
					],
					"stateMutability": "view",
					"type": "function"
				}
			],
			"devdoc": {
				"kind": "dev",
				"methods": {},
				"version": 1
			},
			"evm": {
				"assembly": "    /* \"contracts/TwitterArray.sol\":186:966  contract TwitterArray {... */\n  mstore(0x40, 0x80)\n  callvalue\n  dup1\n  iszero\n  tag_1\n  jumpi\n  0x00\n  dup1\n  revert\ntag_1:\n  pop\n  dataSize(sub_0)\n  dup1\n  dataOffset(sub_0)\n  0x00\n  codecopy\n  0x00\n  return\nstop\n\nsub_0: assembly {\n        /* \"contracts/TwitterArray.sol\":186:966  contract TwitterArray {... */\n      mstore(0x40, 0x80)\n      callvalue\n      dup1\n      iszero\n      tag_1\n      jumpi\n      0x00\n      dup1\n      revert\n    tag_1:\n      pop\n      jumpi(tag_2, lt(calldatasize, 0x04))\n      shr(0xe0, calldataload(0x00))\n      dup1\n      0x1d465933\n      eq\n      tag_3\n      jumpi\n      dup1\n      0x8456425f\n      eq\n      tag_4\n      jumpi\n      dup1\n      0x8ff41ca1\n      eq\n      tag_5\n      jumpi\n      dup1\n      0xe30cf41e\n      eq\n      tag_6\n      jumpi\n    tag_2:\n      0x00\n      dup1\n      revert\n        /* \"contracts/TwitterArray.sol\":421:579  function CreateTwits(string memory _twits) public {... */\n    tag_3:\n      tag_7\n      0x04\n      dup1\n      calldatasize\n      sub\n      dup2\n      add\n      swap1\n      tag_8\n      swap2\n      swap1\n      tag_9\n      jump\t// in\n    tag_8:\n      tag_10\n      jump\t// in\n    tag_7:\n      stop\n        /* \"contracts/TwitterArray.sol\":634:746  function AllTwits(address _owner) public view returns (string[] memory){... */\n    tag_4:\n      tag_11\n      0x04\n      dup1\n      calldatasize\n      sub\n      dup2\n      add\n      swap1\n      tag_12\n      swap2\n      swap1\n      tag_13\n      jump\t// in\n    tag_12:\n      tag_14\n      jump\t// in\n    tag_11:\n      mload(0x40)\n      tag_15\n      swap2\n      swap1\n      tag_16\n      jump\t// in\n    tag_15:\n      mload(0x40)\n      dup1\n      swap2\n      sub\n      swap1\n      return\n        /* \"contracts/TwitterArray.sol\":303:349  mapping (address => string[]) public MyMessage */\n    tag_5:\n      tag_17\n      0x04\n      dup1\n      calldatasize\n      sub\n      dup2\n      add\n      swap1\n      tag_18\n      swap2\n      swap1\n      tag_19\n      jump\t// in\n    tag_18:\n      tag_20\n      jump\t// in\n    tag_17:\n      mload(0x40)\n      tag_21\n      swap2\n      swap1\n      tag_22\n      jump\t// in\n    tag_21:\n      mload(0x40)\n      dup1\n      swap2\n      sub\n      swap1\n      return\n        /* \"contracts/TwitterArray.sol\":838:964  function OneTwits(address _owner, uint256 _i) public view returns (string memory){... */\n    tag_6:\n      tag_23\n      0x04\n      dup1\n      calldatasize\n      sub\n      dup2\n      add\n      swap1\n      tag_24\n      swap2\n      swap1\n      tag_19\n      jump\t// in\n    tag_24:\n      tag_25\n      jump\t// in\n    tag_23:\n      mload(0x40)\n      tag_26\n      swap2\n      swap1\n      tag_22\n      jump\t// in\n    tag_26:\n      mload(0x40)\n      dup1\n      swap2\n      sub\n      swap1\n      return\n        /* \"contracts/TwitterArray.sol\":421:579  function CreateTwits(string memory _twits) public {... */\n    tag_10:\n        /* \"contracts/TwitterArray.sol\":481:490  MyMessage */\n      0x00\n        /* \"contracts/TwitterArray.sol\":481:502  MyMessage[msg.sender] */\n      dup1\n        /* \"contracts/TwitterArray.sol\":491:501  msg.sender */\n      caller\n        /* \"contracts/TwitterArray.sol\":481:502  MyMessage[msg.sender] */\n      0xffffffffffffffffffffffffffffffffffffffff\n      and\n      0xffffffffffffffffffffffffffffffffffffffff\n      and\n      dup2\n      mstore\n      0x20\n      add\n      swap1\n      dup2\n      mstore\n      0x20\n      add\n      0x00\n      keccak256\n        /* \"contracts/TwitterArray.sol\":508:514  _twits */\n      dup2\n        /* \"contracts/TwitterArray.sol\":481:515  MyMessage[msg.sender].push(_twits) */\n      swap1\n      dup1\n      0x01\n      dup2\n      sload\n      add\n      dup1\n      dup3\n      sstore\n      dup1\n      swap2\n      pop\n      pop\n      0x01\n      swap1\n      sub\n      swap1\n      0x00\n      mstore\n      keccak256(0x00, 0x20)\n      add\n      0x00\n      swap1\n      swap2\n      swap1\n      swap2\n      swap1\n      swap2\n      pop\n      swap1\n      dup2\n      tag_29\n      swap2\n      swap1\n      tag_30\n      jump\t// in\n    tag_29:\n      pop\n        /* \"contracts/TwitterArray.sol\":421:579  function CreateTwits(string memory _twits) public {... */\n      pop\n      jump\t// out\n        /* \"contracts/TwitterArray.sol\":634:746  function AllTwits(address _owner) public view returns (string[] memory){... */\n    tag_14:\n        /* \"contracts/TwitterArray.sol\":689:704  string[] memory */\n      0x60\n        /* \"contracts/TwitterArray.sol\":722:731  MyMessage */\n      0x00\n        /* \"contracts/TwitterArray.sol\":722:739  MyMessage[_owner] */\n      dup1\n        /* \"contracts/TwitterArray.sol\":732:738  _owner */\n      dup4\n        /* \"contracts/TwitterArray.sol\":722:739  MyMessage[_owner] */\n      0xffffffffffffffffffffffffffffffffffffffff\n      and\n      0xffffffffffffffffffffffffffffffffffffffff\n      and\n      dup2\n      mstore\n      0x20\n      add\n      swap1\n      dup2\n      mstore\n      0x20\n      add\n      0x00\n      keccak256\n        /* \"contracts/TwitterArray.sol\":715:739  return MyMessage[_owner] */\n      dup1\n      sload\n      dup1\n      0x20\n      mul\n      0x20\n      add\n      mload(0x40)\n      swap1\n      dup2\n      add\n      0x40\n      mstore\n      dup1\n      swap3\n      swap2\n      swap1\n      dup2\n      dup2\n      mstore\n      0x20\n      add\n      0x00\n      swap1\n    tag_32:\n      dup3\n      dup3\n      lt\n      iszero\n      tag_33\n      jumpi\n      dup4\n      dup3\n      swap1\n      0x00\n      mstore\n      keccak256(0x00, 0x20)\n      add\n      dup1\n      sload\n      tag_35\n      swap1\n      tag_36\n      jump\t// in\n    tag_35:\n      dup1\n      0x1f\n      add\n      0x20\n      dup1\n      swap2\n      div\n      mul\n      0x20\n      add\n      mload(0x40)\n      swap1\n      dup2\n      add\n      0x40\n      mstore\n      dup1\n      swap3\n      swap2\n      swap1\n      dup2\n      dup2\n      mstore\n      0x20\n      add\n      dup3\n      dup1\n      sload\n      tag_37\n      swap1\n      tag_36\n      jump\t// in\n    tag_37:\n      dup1\n      iszero\n      tag_38\n      jumpi\n      dup1\n      0x1f\n      lt\n      tag_39\n      jumpi\n      0x0100\n      dup1\n      dup4\n      sload\n      div\n      mul\n      dup4\n      mstore\n      swap2\n      0x20\n      add\n      swap2\n      jump(tag_38)\n    tag_39:\n      dup3\n      add\n      swap2\n      swap1\n      0x00\n      mstore\n      keccak256(0x00, 0x20)\n      swap1\n    tag_40:\n      dup2\n      sload\n      dup2\n      mstore\n      swap1\n      0x01\n      add\n      swap1\n      0x20\n      add\n      dup1\n      dup4\n      gt\n      tag_40\n      jumpi\n      dup3\n      swap1\n      sub\n      0x1f\n      and\n      dup3\n      add\n      swap2\n    tag_38:\n      pop\n      pop\n      pop\n      pop\n      pop\n      dup2\n      mstore\n      0x20\n      add\n      swap1\n      0x01\n      add\n      swap1\n      jump(tag_32)\n    tag_33:\n      pop\n      pop\n      pop\n      pop\n      swap1\n      pop\n        /* \"contracts/TwitterArray.sol\":634:746  function AllTwits(address _owner) public view returns (string[] memory){... */\n      swap2\n      swap1\n      pop\n      jump\t// out\n        /* \"contracts/TwitterArray.sol\":303:349  mapping (address => string[]) public MyMessage */\n    tag_20:\n      mstore(0x20, 0x00)\n      dup2\n      0x00\n      mstore\n      keccak256(0x00, 0x40)\n      dup2\n      dup2\n      sload\n      dup2\n      lt\n      tag_41\n      jumpi\n      0x00\n      dup1\n      revert\n    tag_41:\n      swap1\n      0x00\n      mstore\n      keccak256(0x00, 0x20)\n      add\n      0x00\n      swap2\n      pop\n      swap2\n      pop\n      pop\n      dup1\n      sload\n      tag_43\n      swap1\n      tag_36\n      jump\t// in\n    tag_43:\n      dup1\n      0x1f\n      add\n      0x20\n      dup1\n      swap2\n      div\n      mul\n      0x20\n      add\n      mload(0x40)\n      swap1\n      dup2\n      add\n      0x40\n      mstore\n      dup1\n      swap3\n      swap2\n      swap1\n      dup2\n      dup2\n      mstore\n      0x20\n      add\n      dup3\n      dup1\n      sload\n      tag_44\n      swap1\n      tag_36\n      jump\t// in\n    tag_44:\n      dup1\n      iszero\n      tag_45\n      jumpi\n      dup1\n      0x1f\n      lt\n      tag_46\n      jumpi\n      0x0100\n      dup1\n      dup4\n      sload\n      div\n      mul\n      dup4\n      mstore\n      swap2\n      0x20\n      add\n      swap2\n      jump(tag_45)\n    tag_46:\n      dup3\n      add\n      swap2\n      swap1\n      0x00\n      mstore\n      keccak256(0x00, 0x20)\n      swap1\n    tag_47:\n      dup2\n      sload\n      dup2\n      mstore\n      swap1\n      0x01\n      add\n      swap1\n      0x20\n      add\n      dup1\n      dup4\n      gt\n      tag_47\n      jumpi\n      dup3\n      swap1\n      sub\n      0x1f\n      and\n      dup3\n      add\n      swap2\n    tag_45:\n      pop\n      pop\n      pop\n      pop\n      pop\n      dup2\n      jump\t// out\n        /* \"contracts/TwitterArray.sol\":838:964  function OneTwits(address _owner, uint256 _i) public view returns (string memory){... */\n    tag_25:\n        /* \"contracts/TwitterArray.sol\":905:918  string memory */\n      0x60\n        /* \"contracts/TwitterArray.sol\":936:945  MyMessage */\n      0x00\n        /* \"contracts/TwitterArray.sol\":936:953  MyMessage[_owner] */\n      dup1\n        /* \"contracts/TwitterArray.sol\":946:952  _owner */\n      dup5\n        /* \"contracts/TwitterArray.sol\":936:953  MyMessage[_owner] */\n      0xffffffffffffffffffffffffffffffffffffffff\n      and\n      0xffffffffffffffffffffffffffffffffffffffff\n      and\n      dup2\n      mstore\n      0x20\n      add\n      swap1\n      dup2\n      mstore\n      0x20\n      add\n      0x00\n      keccak256\n        /* \"contracts/TwitterArray.sol\":954:956  _i */\n      dup3\n        /* \"contracts/TwitterArray.sol\":936:957  MyMessage[_owner][_i] */\n      dup2\n      sload\n      dup2\n      lt\n      tag_49\n      jumpi\n      tag_50\n      tag_51\n      jump\t// in\n    tag_50:\n    tag_49:\n      swap1\n      0x00\n      mstore\n      keccak256(0x00, 0x20)\n      add\n        /* \"contracts/TwitterArray.sol\":929:957  return MyMessage[_owner][_i] */\n      dup1\n      sload\n      tag_53\n      swap1\n      tag_36\n      jump\t// in\n    tag_53:\n      dup1\n      0x1f\n      add\n      0x20\n      dup1\n      swap2\n      div\n      mul\n      0x20\n      add\n      mload(0x40)\n      swap1\n      dup2\n      add\n      0x40\n      mstore\n      dup1\n      swap3\n      swap2\n      swap1\n      dup2\n      dup2\n      mstore\n      0x20\n      add\n      dup3\n      dup1\n      sload\n      tag_54\n      swap1\n      tag_36\n      jump\t// in\n    tag_54:\n      dup1\n      iszero\n      tag_55\n      jumpi\n      dup1\n      0x1f\n      lt\n      tag_56\n      jumpi\n      0x0100\n      dup1\n      dup4\n      sload\n      div\n      mul\n      dup4\n      mstore\n      swap2\n      0x20\n      add\n      swap2\n      jump(tag_55)\n    tag_56:\n      dup3\n      add\n      swap2\n      swap1\n      0x00\n      mstore\n      keccak256(0x00, 0x20)\n      swap1\n    tag_57:\n      dup2\n      sload\n      dup2\n      mstore\n      swap1\n      0x01\n      add\n      swap1\n      0x20\n      add\n      dup1\n      dup4\n      gt\n      tag_57\n      jumpi\n      dup3\n      swap1\n      sub\n      0x1f\n      and\n      dup3\n      add\n      swap2\n    tag_55:\n      pop\n      pop\n      pop\n      pop\n      pop\n      swap1\n      pop\n        /* \"contracts/TwitterArray.sol\":838:964  function OneTwits(address _owner, uint256 _i) public view returns (string memory){... */\n      swap3\n      swap2\n      pop\n      pop\n      jump\t// out\n        /* \"#utility.yul\":7:82   */\n    tag_58:\n        /* \"#utility.yul\":40:46   */\n      0x00\n        /* \"#utility.yul\":73:75   */\n      0x40\n        /* \"#utility.yul\":67:76   */\n      mload\n        /* \"#utility.yul\":57:76   */\n      swap1\n      pop\n        /* \"#utility.yul\":7:82   */\n      swap1\n      jump\t// out\n        /* \"#utility.yul\":88:205   */\n    tag_59:\n        /* \"#utility.yul\":197:198   */\n      0x00\n        /* \"#utility.yul\":194:195   */\n      dup1\n        /* \"#utility.yul\":187:199   */\n      revert\n        /* \"#utility.yul\":211:328   */\n    tag_60:\n        /* \"#utility.yul\":320:321   */\n      0x00\n        /* \"#utility.yul\":317:318   */\n      dup1\n        /* \"#utility.yul\":310:322   */\n      revert\n        /* \"#utility.yul\":334:451   */\n    tag_61:\n        /* \"#utility.yul\":443:444   */\n      0x00\n        /* \"#utility.yul\":440:441   */\n      dup1\n        /* \"#utility.yul\":433:445   */\n      revert\n        /* \"#utility.yul\":457:574   */\n    tag_62:\n        /* \"#utility.yul\":566:567   */\n      0x00\n        /* \"#utility.yul\":563:564   */\n      dup1\n        /* \"#utility.yul\":556:568   */\n      revert\n        /* \"#utility.yul\":580:682   */\n    tag_63:\n        /* \"#utility.yul\":621:627   */\n      0x00\n        /* \"#utility.yul\":672:674   */\n      0x1f\n        /* \"#utility.yul\":668:675   */\n      not\n        /* \"#utility.yul\":663:665   */\n      0x1f\n        /* \"#utility.yul\":656:661   */\n      dup4\n        /* \"#utility.yul\":652:666   */\n      add\n        /* \"#utility.yul\":648:676   */\n      and\n        /* \"#utility.yul\":638:676   */\n      swap1\n      pop\n        /* \"#utility.yul\":580:682   */\n      swap2\n      swap1\n      pop\n      jump\t// out\n        /* \"#utility.yul\":688:868   */\n    tag_64:\n        /* \"#utility.yul\":736:813   */\n      0x4e487b7100000000000000000000000000000000000000000000000000000000\n        /* \"#utility.yul\":733:734   */\n      0x00\n        /* \"#utility.yul\":726:814   */\n      mstore\n        /* \"#utility.yul\":833:837   */\n      0x41\n        /* \"#utility.yul\":830:831   */\n      0x04\n        /* \"#utility.yul\":823:838   */\n      mstore\n        /* \"#utility.yul\":857:861   */\n      0x24\n        /* \"#utility.yul\":854:855   */\n      0x00\n        /* \"#utility.yul\":847:862   */\n      revert\n        /* \"#utility.yul\":874:1155   */\n    tag_65:\n        /* \"#utility.yul\":957:984   */\n      tag_115\n        /* \"#utility.yul\":979:983   */\n      dup3\n        /* \"#utility.yul\":957:984   */\n      tag_63\n      jump\t// in\n    tag_115:\n        /* \"#utility.yul\":949:955   */\n      dup2\n        /* \"#utility.yul\":945:985   */\n      add\n        /* \"#utility.yul\":1087:1093   */\n      dup2\n        /* \"#utility.yul\":1075:1085   */\n      dup2\n        /* \"#utility.yul\":1072:1094   */\n      lt\n        /* \"#utility.yul\":1051:1069   */\n      0xffffffffffffffff\n        /* \"#utility.yul\":1039:1049   */\n      dup3\n        /* \"#utility.yul\":1036:1070   */\n      gt\n        /* \"#utility.yul\":1033:1095   */\n      or\n        /* \"#utility.yul\":1030:1118   */\n      iszero\n      tag_116\n      jumpi\n        /* \"#utility.yul\":1098:1116   */\n      tag_117\n      tag_64\n      jump\t// in\n    tag_117:\n        /* \"#utility.yul\":1030:1118   */\n    tag_116:\n        /* \"#utility.yul\":1138:1148   */\n      dup1\n        /* \"#utility.yul\":1134:1136   */\n      0x40\n        /* \"#utility.yul\":1127:1149   */\n      mstore\n        /* \"#utility.yul\":917:1155   */\n      pop\n        /* \"#utility.yul\":874:1155   */\n      pop\n      pop\n      jump\t// out\n        /* \"#utility.yul\":1161:1290   */\n    tag_66:\n        /* \"#utility.yul\":1195:1201   */\n      0x00\n        /* \"#utility.yul\":1222:1242   */\n      tag_119\n      tag_58\n      jump\t// in\n    tag_119:\n        /* \"#utility.yul\":1212:1242   */\n      swap1\n      pop\n        /* \"#utility.yul\":1251:1284   */\n      tag_120\n        /* \"#utility.yul\":1279:1283   */\n      dup3\n        /* \"#utility.yul\":1271:1277   */\n      dup3\n        /* \"#utility.yul\":1251:1284   */\n      tag_65\n      jump\t// in\n    tag_120:\n        /* \"#utility.yul\":1161:1290   */\n      swap2\n      swap1\n      pop\n      jump\t// out\n        /* \"#utility.yul\":1296:1604   */\n    tag_67:\n        /* \"#utility.yul\":1358:1362   */\n      0x00\n        /* \"#utility.yul\":1448:1466   */\n      0xffffffffffffffff\n        /* \"#utility.yul\":1440:1446   */\n      dup3\n        /* \"#utility.yul\":1437:1467   */\n      gt\n        /* \"#utility.yul\":1434:1490   */\n      iszero\n      tag_122\n      jumpi\n        /* \"#utility.yul\":1470:1488   */\n      tag_123\n      tag_64\n      jump\t// in\n    tag_123:\n        /* \"#utility.yul\":1434:1490   */\n    tag_122:\n        /* \"#utility.yul\":1508:1537   */\n      tag_124\n        /* \"#utility.yul\":1530:1536   */\n      dup3\n        /* \"#utility.yul\":1508:1537   */\n      tag_63\n      jump\t// in\n    tag_124:\n        /* \"#utility.yul\":1500:1537   */\n      swap1\n      pop\n        /* \"#utility.yul\":1592:1596   */\n      0x20\n        /* \"#utility.yul\":1586:1590   */\n      dup2\n        /* \"#utility.yul\":1582:1597   */\n      add\n        /* \"#utility.yul\":1574:1597   */\n      swap1\n      pop\n        /* \"#utility.yul\":1296:1604   */\n      swap2\n      swap1\n      pop\n      jump\t// out\n        /* \"#utility.yul\":1610:1758   */\n    tag_68:\n        /* \"#utility.yul\":1708:1714   */\n      dup3\n        /* \"#utility.yul\":1703:1706   */\n      dup2\n        /* \"#utility.yul\":1698:1701   */\n      dup4\n        /* \"#utility.yul\":1685:1715   */\n      calldatacopy\n        /* \"#utility.yul\":1749:1750   */\n      0x00\n        /* \"#utility.yul\":1740:1746   */\n      dup4\n        /* \"#utility.yul\":1735:1738   */\n      dup4\n        /* \"#utility.yul\":1731:1747   */\n      add\n        /* \"#utility.yul\":1724:1751   */\n      mstore\n        /* \"#utility.yul\":1610:1758   */\n      pop\n      pop\n      pop\n      jump\t// out\n        /* \"#utility.yul\":1764:2189   */\n    tag_69:\n        /* \"#utility.yul\":1842:1847   */\n      0x00\n        /* \"#utility.yul\":1867:1933   */\n      tag_127\n        /* \"#utility.yul\":1883:1932   */\n      tag_128\n        /* \"#utility.yul\":1925:1931   */\n      dup5\n        /* \"#utility.yul\":1883:1932   */\n      tag_67\n      jump\t// in\n    tag_128:\n        /* \"#utility.yul\":1867:1933   */\n      tag_66\n      jump\t// in\n    tag_127:\n        /* \"#utility.yul\":1858:1933   */\n      swap1\n      pop\n        /* \"#utility.yul\":1956:1962   */\n      dup3\n        /* \"#utility.yul\":1949:1954   */\n      dup2\n        /* \"#utility.yul\":1942:1963   */\n      mstore\n        /* \"#utility.yul\":1994:1998   */\n      0x20\n        /* \"#utility.yul\":1987:1992   */\n      dup2\n        /* \"#utility.yul\":1983:1999   */\n      add\n        /* \"#utility.yul\":2032:2035   */\n      dup5\n        /* \"#utility.yul\":2023:2029   */\n      dup5\n        /* \"#utility.yul\":2018:2021   */\n      dup5\n        /* \"#utility.yul\":2014:2030   */\n      add\n        /* \"#utility.yul\":2011:2036   */\n      gt\n        /* \"#utility.yul\":2008:2120   */\n      iszero\n      tag_129\n      jumpi\n        /* \"#utility.yul\":2039:2118   */\n      tag_130\n      tag_62\n      jump\t// in\n    tag_130:\n        /* \"#utility.yul\":2008:2120   */\n    tag_129:\n        /* \"#utility.yul\":2129:2183   */\n      tag_131\n        /* \"#utility.yul\":2176:2182   */\n      dup5\n        /* \"#utility.yul\":2171:2174   */\n      dup3\n        /* \"#utility.yul\":2166:2169   */\n      dup6\n        /* \"#utility.yul\":2129:2183   */\n      tag_68\n      jump\t// in\n    tag_131:\n        /* \"#utility.yul\":1848:2189   */\n      pop\n        /* \"#utility.yul\":1764:2189   */\n      swap4\n      swap3\n      pop\n      pop\n      pop\n      jump\t// out\n        /* \"#utility.yul\":2209:2549   */\n    tag_70:\n        /* \"#utility.yul\":2265:2270   */\n      0x00\n        /* \"#utility.yul\":2314:2317   */\n      dup3\n        /* \"#utility.yul\":2307:2311   */\n      0x1f\n        /* \"#utility.yul\":2299:2305   */\n      dup4\n        /* \"#utility.yul\":2295:2312   */\n      add\n        /* \"#utility.yul\":2291:2318   */\n      slt\n        /* \"#utility.yul\":2281:2403   */\n      tag_133\n      jumpi\n        /* \"#utility.yul\":2322:2401   */\n      tag_134\n      tag_61\n      jump\t// in\n    tag_134:\n        /* \"#utility.yul\":2281:2403   */\n    tag_133:\n        /* \"#utility.yul\":2439:2445   */\n      dup2\n        /* \"#utility.yul\":2426:2446   */\n      calldataload\n        /* \"#utility.yul\":2464:2543   */\n      tag_135\n        /* \"#utility.yul\":2539:2542   */\n      dup5\n        /* \"#utility.yul\":2531:2537   */\n      dup3\n        /* \"#utility.yul\":2524:2528   */\n      0x20\n        /* \"#utility.yul\":2516:2522   */\n      dup7\n        /* \"#utility.yul\":2512:2529   */\n      add\n        /* \"#utility.yul\":2464:2543   */\n      tag_69\n      jump\t// in\n    tag_135:\n        /* \"#utility.yul\":2455:2543   */\n      swap2\n      pop\n        /* \"#utility.yul\":2271:2549   */\n      pop\n        /* \"#utility.yul\":2209:2549   */\n      swap3\n      swap2\n      pop\n      pop\n      jump\t// out\n        /* \"#utility.yul\":2555:3064   */\n    tag_9:\n        /* \"#utility.yul\":2624:2630   */\n      0x00\n        /* \"#utility.yul\":2673:2675   */\n      0x20\n        /* \"#utility.yul\":2661:2670   */\n      dup3\n        /* \"#utility.yul\":2652:2659   */\n      dup5\n        /* \"#utility.yul\":2648:2671   */\n      sub\n        /* \"#utility.yul\":2644:2676   */\n      slt\n        /* \"#utility.yul\":2641:2760   */\n      iszero\n      tag_137\n      jumpi\n        /* \"#utility.yul\":2679:2758   */\n      tag_138\n      tag_59\n      jump\t// in\n    tag_138:\n        /* \"#utility.yul\":2641:2760   */\n    tag_137:\n        /* \"#utility.yul\":2827:2828   */\n      0x00\n        /* \"#utility.yul\":2816:2825   */\n      dup3\n        /* \"#utility.yul\":2812:2829   */\n      add\n        /* \"#utility.yul\":2799:2830   */\n      calldataload\n        /* \"#utility.yul\":2857:2875   */\n      0xffffffffffffffff\n        /* \"#utility.yul\":2849:2855   */\n      dup2\n        /* \"#utility.yul\":2846:2876   */\n      gt\n        /* \"#utility.yul\":2843:2960   */\n      iszero\n      tag_139\n      jumpi\n        /* \"#utility.yul\":2879:2958   */\n      tag_140\n      tag_60\n      jump\t// in\n    tag_140:\n        /* \"#utility.yul\":2843:2960   */\n    tag_139:\n        /* \"#utility.yul\":2984:3047   */\n      tag_141\n        /* \"#utility.yul\":3039:3046   */\n      dup5\n        /* \"#utility.yul\":3030:3036   */\n      dup3\n        /* \"#utility.yul\":3019:3028   */\n      dup6\n        /* \"#utility.yul\":3015:3037   */\n      add\n        /* \"#utility.yul\":2984:3047   */\n      tag_70\n      jump\t// in\n    tag_141:\n        /* \"#utility.yul\":2974:3047   */\n      swap2\n      pop\n        /* \"#utility.yul\":2770:3057   */\n      pop\n        /* \"#utility.yul\":2555:3064   */\n      swap3\n      swap2\n      pop\n      pop\n      jump\t// out\n        /* \"#utility.yul\":3070:3196   */\n    tag_71:\n        /* \"#utility.yul\":3107:3114   */\n      0x00\n        /* \"#utility.yul\":3147:3189   */\n      0xffffffffffffffffffffffffffffffffffffffff\n        /* \"#utility.yul\":3140:3145   */\n      dup3\n        /* \"#utility.yul\":3136:3190   */\n      and\n        /* \"#utility.yul\":3125:3190   */\n      swap1\n      pop\n        /* \"#utility.yul\":3070:3196   */\n      swap2\n      swap1\n      pop\n      jump\t// out\n        /* \"#utility.yul\":3202:3298   */\n    tag_72:\n        /* \"#utility.yul\":3239:3246   */\n      0x00\n        /* \"#utility.yul\":3268:3292   */\n      tag_144\n        /* \"#utility.yul\":3286:3291   */\n      dup3\n        /* \"#utility.yul\":3268:3292   */\n      tag_71\n      jump\t// in\n    tag_144:\n        /* \"#utility.yul\":3257:3292   */\n      swap1\n      pop\n        /* \"#utility.yul\":3202:3298   */\n      swap2\n      swap1\n      pop\n      jump\t// out\n        /* \"#utility.yul\":3304:3426   */\n    tag_73:\n        /* \"#utility.yul\":3377:3401   */\n      tag_146\n        /* \"#utility.yul\":3395:3400   */\n      dup2\n        /* \"#utility.yul\":3377:3401   */\n      tag_72\n      jump\t// in\n    tag_146:\n        /* \"#utility.yul\":3370:3375   */\n      dup2\n        /* \"#utility.yul\":3367:3402   */\n      eq\n        /* \"#utility.yul\":3357:3420   */\n      tag_147\n      jumpi\n        /* \"#utility.yul\":3416:3417   */\n      0x00\n        /* \"#utility.yul\":3413:3414   */\n      dup1\n        /* \"#utility.yul\":3406:3418   */\n      revert\n        /* \"#utility.yul\":3357:3420   */\n    tag_147:\n        /* \"#utility.yul\":3304:3426   */\n      pop\n      jump\t// out\n        /* \"#utility.yul\":3432:3571   */\n    tag_74:\n        /* \"#utility.yul\":3478:3483   */\n      0x00\n        /* \"#utility.yul\":3516:3522   */\n      dup2\n        /* \"#utility.yul\":3503:3523   */\n      calldataload\n        /* \"#utility.yul\":3494:3523   */\n      swap1\n      pop\n        /* \"#utility.yul\":3532:3565   */\n      tag_149\n        /* \"#utility.yul\":3559:3564   */\n      dup2\n        /* \"#utility.yul\":3532:3565   */\n      tag_73\n      jump\t// in\n    tag_149:\n        /* \"#utility.yul\":3432:3571   */\n      swap3\n      swap2\n      pop\n      pop\n      jump\t// out\n        /* \"#utility.yul\":3577:3906   */\n    tag_13:\n        /* \"#utility.yul\":3636:3642   */\n      0x00\n        /* \"#utility.yul\":3685:3687   */\n      0x20\n        /* \"#utility.yul\":3673:3682   */\n      dup3\n        /* \"#utility.yul\":3664:3671   */\n      dup5\n        /* \"#utility.yul\":3660:3683   */\n      sub\n        /* \"#utility.yul\":3656:3688   */\n      slt\n        /* \"#utility.yul\":3653:3772   */\n      iszero\n      tag_151\n      jumpi\n        /* \"#utility.yul\":3691:3770   */\n      tag_152\n      tag_59\n      jump\t// in\n    tag_152:\n        /* \"#utility.yul\":3653:3772   */\n    tag_151:\n        /* \"#utility.yul\":3811:3812   */\n      0x00\n        /* \"#utility.yul\":3836:3889   */\n      tag_153\n        /* \"#utility.yul\":3881:3888   */\n      dup5\n        /* \"#utility.yul\":3872:3878   */\n      dup3\n        /* \"#utility.yul\":3861:3870   */\n      dup6\n        /* \"#utility.yul\":3857:3879   */\n      add\n        /* \"#utility.yul\":3836:3889   */\n      tag_74\n      jump\t// in\n    tag_153:\n        /* \"#utility.yul\":3826:3889   */\n      swap2\n      pop\n        /* \"#utility.yul\":3782:3899   */\n      pop\n        /* \"#utility.yul\":3577:3906   */\n      swap3\n      swap2\n      pop\n      pop\n      jump\t// out\n        /* \"#utility.yul\":3912:4036   */\n    tag_75:\n        /* \"#utility.yul\":3989:3995   */\n      0x00\n        /* \"#utility.yul\":4023:4028   */\n      dup2\n        /* \"#utility.yul\":4017:4029   */\n      mload\n        /* \"#utility.yul\":4007:4029   */\n      swap1\n      pop\n        /* \"#utility.yul\":3912:4036   */\n      swap2\n      swap1\n      pop\n      jump\t// out\n        /* \"#utility.yul\":4042:4236   */\n    tag_76:\n        /* \"#utility.yul\":4151:4162   */\n      0x00\n        /* \"#utility.yul\":4185:4191   */\n      dup3\n        /* \"#utility.yul\":4180:4183   */\n      dup3\n        /* \"#utility.yul\":4173:4192   */\n      mstore\n        /* \"#utility.yul\":4225:4229   */\n      0x20\n        /* \"#utility.yul\":4220:4223   */\n      dup3\n        /* \"#utility.yul\":4216:4230   */\n      add\n        /* \"#utility.yul\":4201:4230   */\n      swap1\n      pop\n        /* \"#utility.yul\":4042:4236   */\n      swap3\n      swap2\n      pop\n      pop\n      jump\t// out\n        /* \"#utility.yul\":4242:4384   */\n    tag_77:\n        /* \"#utility.yul\":4319:4323   */\n      0x00\n        /* \"#utility.yul\":4342:4345   */\n      dup2\n        /* \"#utility.yul\":4334:4345   */\n      swap1\n      pop\n        /* \"#utility.yul\":4372:4376   */\n      0x20\n        /* \"#utility.yul\":4367:4370   */\n      dup3\n        /* \"#utility.yul\":4363:4377   */\n      add\n        /* \"#utility.yul\":4355:4377   */\n      swap1\n      pop\n        /* \"#utility.yul\":4242:4384   */\n      swap2\n      swap1\n      pop\n      jump\t// out\n        /* \"#utility.yul\":4390:4489   */\n    tag_78:\n        /* \"#utility.yul\":4442:4448   */\n      0x00\n        /* \"#utility.yul\":4476:4481   */\n      dup2\n        /* \"#utility.yul\":4470:4482   */\n      mload\n        /* \"#utility.yul\":4460:4482   */\n      swap1\n      pop\n        /* \"#utility.yul\":4390:4489   */\n      swap2\n      swap1\n      pop\n      jump\t// out\n        /* \"#utility.yul\":4495:4654   */\n    tag_79:\n        /* \"#utility.yul\":4569:4580   */\n      0x00\n        /* \"#utility.yul\":4603:4609   */\n      dup3\n        /* \"#utility.yul\":4598:4601   */\n      dup3\n        /* \"#utility.yul\":4591:4610   */\n      mstore\n        /* \"#utility.yul\":4643:4647   */\n      0x20\n        /* \"#utility.yul\":4638:4641   */\n      dup3\n        /* \"#utility.yul\":4634:4648   */\n      add\n        /* \"#utility.yul\":4619:4648   */\n      swap1\n      pop\n        /* \"#utility.yul\":4495:4654   */\n      swap3\n      swap2\n      pop\n      pop\n      jump\t// out\n        /* \"#utility.yul\":4660:4799   */\n    tag_80:\n        /* \"#utility.yul\":4749:4755   */\n      dup3\n        /* \"#utility.yul\":4744:4747   */\n      dup2\n        /* \"#utility.yul\":4739:4742   */\n      dup4\n        /* \"#utility.yul\":4733:4756   */\n      mcopy\n        /* \"#utility.yul\":4790:4791   */\n      0x00\n        /* \"#utility.yul\":4781:4787   */\n      dup4\n        /* \"#utility.yul\":4776:4779   */\n      dup4\n        /* \"#utility.yul\":4772:4788   */\n      add\n        /* \"#utility.yul\":4765:4792   */\n      mstore\n        /* \"#utility.yul\":4660:4799   */\n      pop\n      pop\n      pop\n      jump\t// out\n        /* \"#utility.yul\":4805:5162   */\n    tag_81:\n        /* \"#utility.yul\":4883:4886   */\n      0x00\n        /* \"#utility.yul\":4911:4950   */\n      tag_161\n        /* \"#utility.yul\":4944:4949   */\n      dup3\n        /* \"#utility.yul\":4911:4950   */\n      tag_78\n      jump\t// in\n    tag_161:\n        /* \"#utility.yul\":4966:5027   */\n      tag_162\n        /* \"#utility.yul\":5020:5026   */\n      dup2\n        /* \"#utility.yul\":5015:5018   */\n      dup6\n        /* \"#utility.yul\":4966:5027   */\n      tag_79\n      jump\t// in\n    tag_162:\n        /* \"#utility.yul\":4959:5027   */\n      swap4\n      pop\n        /* \"#utility.yul\":5036:5101   */\n      tag_163\n        /* \"#utility.yul\":5094:5100   */\n      dup2\n        /* \"#utility.yul\":5089:5092   */\n      dup6\n        /* \"#utility.yul\":5082:5086   */\n      0x20\n        /* \"#utility.yul\":5075:5080   */\n      dup7\n        /* \"#utility.yul\":5071:5087   */\n      add\n        /* \"#utility.yul\":5036:5101   */\n      tag_80\n      jump\t// in\n    tag_163:\n        /* \"#utility.yul\":5126:5155   */\n      tag_164\n        /* \"#utility.yul\":5148:5154   */\n      dup2\n        /* \"#utility.yul\":5126:5155   */\n      tag_63\n      jump\t// in\n    tag_164:\n        /* \"#utility.yul\":5121:5124   */\n      dup5\n        /* \"#utility.yul\":5117:5156   */\n      add\n        /* \"#utility.yul\":5110:5156   */\n      swap2\n      pop\n        /* \"#utility.yul\":4887:5162   */\n      pop\n        /* \"#utility.yul\":4805:5162   */\n      swap3\n      swap2\n      pop\n      pop\n      jump\t// out\n        /* \"#utility.yul\":5168:5364   */\n    tag_82:\n        /* \"#utility.yul\":5257:5267   */\n      0x00\n        /* \"#utility.yul\":5292:5358   */\n      tag_166\n        /* \"#utility.yul\":5354:5357   */\n      dup4\n        /* \"#utility.yul\":5346:5352   */\n      dup4\n        /* \"#utility.yul\":5292:5358   */\n      tag_81\n      jump\t// in\n    tag_166:\n        /* \"#utility.yul\":5278:5358   */\n      swap1\n      pop\n        /* \"#utility.yul\":5168:5364   */\n      swap3\n      swap2\n      pop\n      pop\n      jump\t// out\n        /* \"#utility.yul\":5370:5493   */\n    tag_83:\n        /* \"#utility.yul\":5450:5454   */\n      0x00\n        /* \"#utility.yul\":5482:5486   */\n      0x20\n        /* \"#utility.yul\":5477:5480   */\n      dup3\n        /* \"#utility.yul\":5473:5487   */\n      add\n        /* \"#utility.yul\":5465:5487   */\n      swap1\n      pop\n        /* \"#utility.yul\":5370:5493   */\n      swap2\n      swap1\n      pop\n      jump\t// out\n        /* \"#utility.yul\":5527:6518   */\n    tag_84:\n        /* \"#utility.yul\":5666:5669   */\n      0x00\n        /* \"#utility.yul\":5695:5759   */\n      tag_169\n        /* \"#utility.yul\":5753:5758   */\n      dup3\n        /* \"#utility.yul\":5695:5759   */\n      tag_75\n      jump\t// in\n    tag_169:\n        /* \"#utility.yul\":5775:5871   */\n      tag_170\n        /* \"#utility.yul\":5864:5870   */\n      dup2\n        /* \"#utility.yul\":5859:5862   */\n      dup6\n        /* \"#utility.yul\":5775:5871   */\n      tag_76\n      jump\t// in\n    tag_170:\n        /* \"#utility.yul\":5768:5871   */\n      swap4\n      pop\n        /* \"#utility.yul\":5897:5900   */\n      dup4\n        /* \"#utility.yul\":5942:5946   */\n      0x20\n        /* \"#utility.yul\":5934:5940   */\n      dup3\n        /* \"#utility.yul\":5930:5947   */\n      mul\n        /* \"#utility.yul\":5925:5928   */\n      dup6\n        /* \"#utility.yul\":5921:5948   */\n      add\n        /* \"#utility.yul\":5972:6038   */\n      tag_171\n        /* \"#utility.yul\":6032:6037   */\n      dup6\n        /* \"#utility.yul\":5972:6038   */\n      tag_77\n      jump\t// in\n    tag_171:\n        /* \"#utility.yul\":6061:6068   */\n      dup1\n        /* \"#utility.yul\":6092:6093   */\n      0x00\n        /* \"#utility.yul\":6077:6473   */\n    tag_172:\n        /* \"#utility.yul\":6102:6108   */\n      dup6\n        /* \"#utility.yul\":6099:6100   */\n      dup2\n        /* \"#utility.yul\":6096:6109   */\n      lt\n        /* \"#utility.yul\":6077:6473   */\n      iszero\n      tag_174\n      jumpi\n        /* \"#utility.yul\":6173:6182   */\n      dup5\n        /* \"#utility.yul\":6167:6171   */\n      dup5\n        /* \"#utility.yul\":6163:6183   */\n      sub\n        /* \"#utility.yul\":6158:6161   */\n      dup10\n        /* \"#utility.yul\":6151:6184   */\n      mstore\n        /* \"#utility.yul\":6224:6230   */\n      dup2\n        /* \"#utility.yul\":6218:6231   */\n      mload\n        /* \"#utility.yul\":6252:6336   */\n      tag_175\n        /* \"#utility.yul\":6331:6335   */\n      dup6\n        /* \"#utility.yul\":6316:6329   */\n      dup3\n        /* \"#utility.yul\":6252:6336   */\n      tag_82\n      jump\t// in\n    tag_175:\n        /* \"#utility.yul\":6244:6336   */\n      swap5\n      pop\n        /* \"#utility.yul\":6359:6429   */\n      tag_176\n        /* \"#utility.yul\":6422:6428   */\n      dup4\n        /* \"#utility.yul\":6359:6429   */\n      tag_83\n      jump\t// in\n    tag_176:\n        /* \"#utility.yul\":6349:6429   */\n      swap3\n      pop\n        /* \"#utility.yul\":6458:6462   */\n      0x20\n        /* \"#utility.yul\":6453:6456   */\n      dup11\n        /* \"#utility.yul\":6449:6463   */\n      add\n        /* \"#utility.yul\":6442:6463   */\n      swap10\n      pop\n        /* \"#utility.yul\":6137:6473   */\n      pop\n        /* \"#utility.yul\":6124:6125   */\n      0x01\n        /* \"#utility.yul\":6121:6122   */\n      dup2\n        /* \"#utility.yul\":6117:6126   */\n      add\n        /* \"#utility.yul\":6112:6126   */\n      swap1\n      pop\n        /* \"#utility.yul\":6077:6473   */\n      jump(tag_172)\n    tag_174:\n        /* \"#utility.yul\":6081:6095   */\n      pop\n        /* \"#utility.yul\":6489:6493   */\n      dup3\n        /* \"#utility.yul\":6482:6493   */\n      swap8\n      pop\n        /* \"#utility.yul\":6509:6512   */\n      dup8\n        /* \"#utility.yul\":6502:6512   */\n      swap6\n      pop\n        /* \"#utility.yul\":5671:6518   */\n      pop\n      pop\n      pop\n      pop\n      pop\n        /* \"#utility.yul\":5527:6518   */\n      swap3\n      swap2\n      pop\n      pop\n      jump\t// out\n        /* \"#utility.yul\":6524:6937   */\n    tag_16:\n        /* \"#utility.yul\":6687:6691   */\n      0x00\n        /* \"#utility.yul\":6725:6727   */\n      0x20\n        /* \"#utility.yul\":6714:6723   */\n      dup3\n        /* \"#utility.yul\":6710:6728   */\n      add\n        /* \"#utility.yul\":6702:6728   */\n      swap1\n      pop\n        /* \"#utility.yul\":6774:6783   */\n      dup2\n        /* \"#utility.yul\":6768:6772   */\n      dup2\n        /* \"#utility.yul\":6764:6784   */\n      sub\n        /* \"#utility.yul\":6760:6761   */\n      0x00\n        /* \"#utility.yul\":6749:6758   */\n      dup4\n        /* \"#utility.yul\":6745:6762   */\n      add\n        /* \"#utility.yul\":6738:6785   */\n      mstore\n        /* \"#utility.yul\":6802:6930   */\n      tag_178\n        /* \"#utility.yul\":6925:6929   */\n      dup2\n        /* \"#utility.yul\":6916:6922   */\n      dup5\n        /* \"#utility.yul\":6802:6930   */\n      tag_84\n      jump\t// in\n    tag_178:\n        /* \"#utility.yul\":6794:6930   */\n      swap1\n      pop\n        /* \"#utility.yul\":6524:6937   */\n      swap3\n      swap2\n      pop\n      pop\n      jump\t// out\n        /* \"#utility.yul\":6943:7020   */\n    tag_85:\n        /* \"#utility.yul\":6980:6987   */\n      0x00\n        /* \"#utility.yul\":7009:7014   */\n      dup2\n        /* \"#utility.yul\":6998:7014   */\n      swap1\n      pop\n        /* \"#utility.yul\":6943:7020   */\n      swap2\n      swap1\n      pop\n      jump\t// out\n        /* \"#utility.yul\":7026:7148   */\n    tag_86:\n        /* \"#utility.yul\":7099:7123   */\n      tag_181\n        /* \"#utility.yul\":7117:7122   */\n      dup2\n        /* \"#utility.yul\":7099:7123   */\n      tag_85\n      jump\t// in\n    tag_181:\n        /* \"#utility.yul\":7092:7097   */\n      dup2\n        /* \"#utility.yul\":7089:7124   */\n      eq\n        /* \"#utility.yul\":7079:7142   */\n      tag_182\n      jumpi\n        /* \"#utility.yul\":7138:7139   */\n      0x00\n        /* \"#utility.yul\":7135:7136   */\n      dup1\n        /* \"#utility.yul\":7128:7140   */\n      revert\n        /* \"#utility.yul\":7079:7142   */\n    tag_182:\n        /* \"#utility.yul\":7026:7148   */\n      pop\n      jump\t// out\n        /* \"#utility.yul\":7154:7293   */\n    tag_87:\n        /* \"#utility.yul\":7200:7205   */\n      0x00\n        /* \"#utility.yul\":7238:7244   */\n      dup2\n        /* \"#utility.yul\":7225:7245   */\n      calldataload\n        /* \"#utility.yul\":7216:7245   */\n      swap1\n      pop\n        /* \"#utility.yul\":7254:7287   */\n      tag_184\n        /* \"#utility.yul\":7281:7286   */\n      dup2\n        /* \"#utility.yul\":7254:7287   */\n      tag_86\n      jump\t// in\n    tag_184:\n        /* \"#utility.yul\":7154:7293   */\n      swap3\n      swap2\n      pop\n      pop\n      jump\t// out\n        /* \"#utility.yul\":7299:7773   */\n    tag_19:\n        /* \"#utility.yul\":7367:7373   */\n      0x00\n        /* \"#utility.yul\":7375:7381   */\n      dup1\n        /* \"#utility.yul\":7424:7426   */\n      0x40\n        /* \"#utility.yul\":7412:7421   */\n      dup4\n        /* \"#utility.yul\":7403:7410   */\n      dup6\n        /* \"#utility.yul\":7399:7422   */\n      sub\n        /* \"#utility.yul\":7395:7427   */\n      slt\n        /* \"#utility.yul\":7392:7511   */\n      iszero\n      tag_186\n      jumpi\n        /* \"#utility.yul\":7430:7509   */\n      tag_187\n      tag_59\n      jump\t// in\n    tag_187:\n        /* \"#utility.yul\":7392:7511   */\n    tag_186:\n        /* \"#utility.yul\":7550:7551   */\n      0x00\n        /* \"#utility.yul\":7575:7628   */\n      tag_188\n        /* \"#utility.yul\":7620:7627   */\n      dup6\n        /* \"#utility.yul\":7611:7617   */\n      dup3\n        /* \"#utility.yul\":7600:7609   */\n      dup7\n        /* \"#utility.yul\":7596:7618   */\n      add\n        /* \"#utility.yul\":7575:7628   */\n      tag_74\n      jump\t// in\n    tag_188:\n        /* \"#utility.yul\":7565:7628   */\n      swap3\n      pop\n        /* \"#utility.yul\":7521:7638   */\n      pop\n        /* \"#utility.yul\":7677:7679   */\n      0x20\n        /* \"#utility.yul\":7703:7756   */\n      tag_189\n        /* \"#utility.yul\":7748:7755   */\n      dup6\n        /* \"#utility.yul\":7739:7745   */\n      dup3\n        /* \"#utility.yul\":7728:7737   */\n      dup7\n        /* \"#utility.yul\":7724:7746   */\n      add\n        /* \"#utility.yul\":7703:7756   */\n      tag_87\n      jump\t// in\n    tag_189:\n        /* \"#utility.yul\":7693:7756   */\n      swap2\n      pop\n        /* \"#utility.yul\":7648:7766   */\n      pop\n        /* \"#utility.yul\":7299:7773   */\n      swap3\n      pop\n      swap3\n      swap1\n      pop\n      jump\t// out\n        /* \"#utility.yul\":7779:7948   */\n    tag_88:\n        /* \"#utility.yul\":7863:7874   */\n      0x00\n        /* \"#utility.yul\":7897:7903   */\n      dup3\n        /* \"#utility.yul\":7892:7895   */\n      dup3\n        /* \"#utility.yul\":7885:7904   */\n      mstore\n        /* \"#utility.yul\":7937:7941   */\n      0x20\n        /* \"#utility.yul\":7932:7935   */\n      dup3\n        /* \"#utility.yul\":7928:7942   */\n      add\n        /* \"#utility.yul\":7913:7942   */\n      swap1\n      pop\n        /* \"#utility.yul\":7779:7948   */\n      swap3\n      swap2\n      pop\n      pop\n      jump\t// out\n        /* \"#utility.yul\":7954:8331   */\n    tag_89:\n        /* \"#utility.yul\":8042:8045   */\n      0x00\n        /* \"#utility.yul\":8070:8109   */\n      tag_192\n        /* \"#utility.yul\":8103:8108   */\n      dup3\n        /* \"#utility.yul\":8070:8109   */\n      tag_78\n      jump\t// in\n    tag_192:\n        /* \"#utility.yul\":8125:8196   */\n      tag_193\n        /* \"#utility.yul\":8189:8195   */\n      dup2\n        /* \"#utility.yul\":8184:8187   */\n      dup6\n        /* \"#utility.yul\":8125:8196   */\n      tag_88\n      jump\t// in\n    tag_193:\n        /* \"#utility.yul\":8118:8196   */\n      swap4\n      pop\n        /* \"#utility.yul\":8205:8270   */\n      tag_194\n        /* \"#utility.yul\":8263:8269   */\n      dup2\n        /* \"#utility.yul\":8258:8261   */\n      dup6\n        /* \"#utility.yul\":8251:8255   */\n      0x20\n        /* \"#utility.yul\":8244:8249   */\n      dup7\n        /* \"#utility.yul\":8240:8256   */\n      add\n        /* \"#utility.yul\":8205:8270   */\n      tag_80\n      jump\t// in\n    tag_194:\n        /* \"#utility.yul\":8295:8324   */\n      tag_195\n        /* \"#utility.yul\":8317:8323   */\n      dup2\n        /* \"#utility.yul\":8295:8324   */\n      tag_63\n      jump\t// in\n    tag_195:\n        /* \"#utility.yul\":8290:8293   */\n      dup5\n        /* \"#utility.yul\":8286:8325   */\n      add\n        /* \"#utility.yul\":8279:8325   */\n      swap2\n      pop\n        /* \"#utility.yul\":8046:8331   */\n      pop\n        /* \"#utility.yul\":7954:8331   */\n      swap3\n      swap2\n      pop\n      pop\n      jump\t// out\n        /* \"#utility.yul\":8337:8650   */\n    tag_22:\n        /* \"#utility.yul\":8450:8454   */\n      0x00\n        /* \"#utility.yul\":8488:8490   */\n      0x20\n        /* \"#utility.yul\":8477:8486   */\n      dup3\n        /* \"#utility.yul\":8473:8491   */\n      add\n        /* \"#utility.yul\":8465:8491   */\n      swap1\n      pop\n        /* \"#utility.yul\":8537:8546   */\n      dup2\n        /* \"#utility.yul\":8531:8535   */\n      dup2\n        /* \"#utility.yul\":8527:8547   */\n      sub\n        /* \"#utility.yul\":8523:8524   */\n      0x00\n        /* \"#utility.yul\":8512:8521   */\n      dup4\n        /* \"#utility.yul\":8508:8525   */\n      add\n        /* \"#utility.yul\":8501:8548   */\n      mstore\n        /* \"#utility.yul\":8565:8643   */\n      tag_197\n        /* \"#utility.yul\":8638:8642   */\n      dup2\n        /* \"#utility.yul\":8629:8635   */\n      dup5\n        /* \"#utility.yul\":8565:8643   */\n      tag_89\n      jump\t// in\n    tag_197:\n        /* \"#utility.yul\":8557:8643   */\n      swap1\n      pop\n        /* \"#utility.yul\":8337:8650   */\n      swap3\n      swap2\n      pop\n      pop\n      jump\t// out\n        /* \"#utility.yul\":8656:8836   */\n    tag_90:\n        /* \"#utility.yul\":8704:8781   */\n      0x4e487b7100000000000000000000000000000000000000000000000000000000\n        /* \"#utility.yul\":8701:8702   */\n      0x00\n        /* \"#utility.yul\":8694:8782   */\n      mstore\n        /* \"#utility.yul\":8801:8805   */\n      0x22\n        /* \"#utility.yul\":8798:8799   */\n      0x04\n        /* \"#utility.yul\":8791:8806   */\n      mstore\n        /* \"#utility.yul\":8825:8829   */\n      0x24\n        /* \"#utility.yul\":8822:8823   */\n      0x00\n        /* \"#utility.yul\":8815:8830   */\n      revert\n        /* \"#utility.yul\":8842:9162   */\n    tag_36:\n        /* \"#utility.yul\":8886:8892   */\n      0x00\n        /* \"#utility.yul\":8923:8924   */\n      0x02\n        /* \"#utility.yul\":8917:8921   */\n      dup3\n        /* \"#utility.yul\":8913:8925   */\n      div\n        /* \"#utility.yul\":8903:8925   */\n      swap1\n      pop\n        /* \"#utility.yul\":8970:8971   */\n      0x01\n        /* \"#utility.yul\":8964:8968   */\n      dup3\n        /* \"#utility.yul\":8960:8972   */\n      and\n        /* \"#utility.yul\":8991:9009   */\n      dup1\n        /* \"#utility.yul\":8981:9062   */\n      tag_200\n      jumpi\n        /* \"#utility.yul\":9047:9051   */\n      0x7f\n        /* \"#utility.yul\":9039:9045   */\n      dup3\n        /* \"#utility.yul\":9035:9052   */\n      and\n        /* \"#utility.yul\":9025:9052   */\n      swap2\n      pop\n        /* \"#utility.yul\":8981:9062   */\n    tag_200:\n        /* \"#utility.yul\":9109:9111   */\n      0x20\n        /* \"#utility.yul\":9101:9107   */\n      dup3\n        /* \"#utility.yul\":9098:9112   */\n      lt\n        /* \"#utility.yul\":9078:9096   */\n      dup2\n        /* \"#utility.yul\":9075:9113   */\n      sub\n        /* \"#utility.yul\":9072:9156   */\n      tag_201\n      jumpi\n        /* \"#utility.yul\":9128:9146   */\n      tag_202\n      tag_90\n      jump\t// in\n    tag_202:\n        /* \"#utility.yul\":9072:9156   */\n    tag_201:\n        /* \"#utility.yul\":8893:9162   */\n      pop\n        /* \"#utility.yul\":8842:9162   */\n      swap2\n      swap1\n      pop\n      jump\t// out\n        /* \"#utility.yul\":9168:9309   */\n    tag_91:\n        /* \"#utility.yul\":9217:9221   */\n      0x00\n        /* \"#utility.yul\":9240:9243   */\n      dup2\n        /* \"#utility.yul\":9232:9243   */\n      swap1\n      pop\n        /* \"#utility.yul\":9263:9266   */\n      dup2\n        /* \"#utility.yul\":9260:9261   */\n      0x00\n        /* \"#utility.yul\":9253:9267   */\n      mstore\n        /* \"#utility.yul\":9297:9301   */\n      0x20\n        /* \"#utility.yul\":9294:9295   */\n      0x00\n        /* \"#utility.yul\":9284:9302   */\n      keccak256\n        /* \"#utility.yul\":9276:9302   */\n      swap1\n      pop\n        /* \"#utility.yul\":9168:9309   */\n      swap2\n      swap1\n      pop\n      jump\t// out\n        /* \"#utility.yul\":9315:9408   */\n    tag_92:\n        /* \"#utility.yul\":9352:9358   */\n      0x00\n        /* \"#utility.yul\":9399:9401   */\n      0x20\n        /* \"#utility.yul\":9394:9396   */\n      0x1f\n        /* \"#utility.yul\":9387:9392   */\n      dup4\n        /* \"#utility.yul\":9383:9397   */\n      add\n        /* \"#utility.yul\":9379:9402   */\n      div\n        /* \"#utility.yul\":9369:9402   */\n      swap1\n      pop\n        /* \"#utility.yul\":9315:9408   */\n      swap2\n      swap1\n      pop\n      jump\t// out\n        /* \"#utility.yul\":9414:9521   */\n    tag_93:\n        /* \"#utility.yul\":9458:9466   */\n      0x00\n        /* \"#utility.yul\":9508:9513   */\n      dup3\n        /* \"#utility.yul\":9502:9506   */\n      dup3\n        /* \"#utility.yul\":9498:9514   */\n      shl\n        /* \"#utility.yul\":9477:9514   */\n      swap1\n      pop\n        /* \"#utility.yul\":9414:9521   */\n      swap3\n      swap2\n      pop\n      pop\n      jump\t// out\n        /* \"#utility.yul\":9527:9920   */\n    tag_94:\n        /* \"#utility.yul\":9596:9602   */\n      0x00\n        /* \"#utility.yul\":9646:9647   */\n      0x08\n        /* \"#utility.yul\":9634:9644   */\n      dup4\n        /* \"#utility.yul\":9630:9648   */\n      mul\n        /* \"#utility.yul\":9669:9766   */\n      tag_207\n        /* \"#utility.yul\":9699:9765   */\n      0xffffffffffffffffffffffffffffffffffffffffffffffffffffffffffffffff\n        /* \"#utility.yul\":9688:9697   */\n      dup3\n        /* \"#utility.yul\":9669:9766   */\n      tag_93\n      jump\t// in\n    tag_207:\n        /* \"#utility.yul\":9787:9826   */\n      tag_208\n        /* \"#utility.yul\":9817:9825   */\n      dup7\n        /* \"#utility.yul\":9806:9815   */\n      dup4\n        /* \"#utility.yul\":9787:9826   */\n      tag_93\n      jump\t// in\n    tag_208:\n        /* \"#utility.yul\":9775:9826   */\n      swap6\n      pop\n        /* \"#utility.yul\":9859:9863   */\n      dup1\n        /* \"#utility.yul\":9855:9864   */\n      not\n        /* \"#utility.yul\":9848:9853   */\n      dup5\n        /* \"#utility.yul\":9844:9865   */\n      and\n        /* \"#utility.yul\":9835:9865   */\n      swap4\n      pop\n        /* \"#utility.yul\":9908:9912   */\n      dup1\n        /* \"#utility.yul\":9898:9906   */\n      dup7\n        /* \"#utility.yul\":9894:9913   */\n      and\n        /* \"#utility.yul\":9887:9892   */\n      dup5\n        /* \"#utility.yul\":9884:9914   */\n      or\n        /* \"#utility.yul\":9874:9914   */\n      swap3\n      pop\n        /* \"#utility.yul\":9603:9920   */\n      pop\n      pop\n        /* \"#utility.yul\":9527:9920   */\n      swap4\n      swap3\n      pop\n      pop\n      pop\n      jump\t// out\n        /* \"#utility.yul\":9926:9986   */\n    tag_95:\n        /* \"#utility.yul\":9954:9957   */\n      0x00\n        /* \"#utility.yul\":9975:9980   */\n      dup2\n        /* \"#utility.yul\":9968:9980   */\n      swap1\n      pop\n        /* \"#utility.yul\":9926:9986   */\n      swap2\n      swap1\n      pop\n      jump\t// out\n        /* \"#utility.yul\":9992:10134   */\n    tag_96:\n        /* \"#utility.yul\":10042:10051   */\n      0x00\n        /* \"#utility.yul\":10075:10128   */\n      tag_211\n        /* \"#utility.yul\":10093:10127   */\n      tag_212\n        /* \"#utility.yul\":10102:10126   */\n      tag_213\n        /* \"#utility.yul\":10120:10125   */\n      dup5\n        /* \"#utility.yul\":10102:10126   */\n      tag_85\n      jump\t// in\n    tag_213:\n        /* \"#utility.yul\":10093:10127   */\n      tag_95\n      jump\t// in\n    tag_212:\n        /* \"#utility.yul\":10075:10128   */\n      tag_85\n      jump\t// in\n    tag_211:\n        /* \"#utility.yul\":10062:10128   */\n      swap1\n      pop\n        /* \"#utility.yul\":9992:10134   */\n      swap2\n      swap1\n      pop\n      jump\t// out\n        /* \"#utility.yul\":10140:10215   */\n    tag_97:\n        /* \"#utility.yul\":10183:10186   */\n      0x00\n        /* \"#utility.yul\":10204:10209   */\n      dup2\n        /* \"#utility.yul\":10197:10209   */\n      swap1\n      pop\n        /* \"#utility.yul\":10140:10215   */\n      swap2\n      swap1\n      pop\n      jump\t// out\n        /* \"#utility.yul\":10221:10490   */\n    tag_98:\n        /* \"#utility.yul\":10331:10370   */\n      tag_216\n        /* \"#utility.yul\":10362:10369   */\n      dup4\n        /* \"#utility.yul\":10331:10370   */\n      tag_96\n      jump\t// in\n    tag_216:\n        /* \"#utility.yul\":10392:10483   */\n      tag_217\n        /* \"#utility.yul\":10441:10482   */\n      tag_218\n        /* \"#utility.yul\":10465:10481   */\n      dup3\n        /* \"#utility.yul\":10441:10482   */\n      tag_97\n      jump\t// in\n    tag_218:\n        /* \"#utility.yul\":10433:10439   */\n      dup5\n        /* \"#utility.yul\":10426:10430   */\n      dup5\n        /* \"#utility.yul\":10420:10431   */\n      sload\n        /* \"#utility.yul\":10392:10483   */\n      tag_94\n      jump\t// in\n    tag_217:\n        /* \"#utility.yul\":10386:10390   */\n      dup3\n        /* \"#utility.yul\":10379:10484   */\n      sstore\n        /* \"#utility.yul\":10297:10490   */\n      pop\n        /* \"#utility.yul\":10221:10490   */\n      pop\n      pop\n      pop\n      jump\t// out\n        /* \"#utility.yul\":10496:10569   */\n    tag_99:\n        /* \"#utility.yul\":10541:10544   */\n      0x00\n        /* \"#utility.yul\":10496:10569   */\n      swap1\n      jump\t// out\n        /* \"#utility.yul\":10575:10764   */\n    tag_100:\n        /* \"#utility.yul\":10652:10684   */\n      tag_221\n      tag_99\n      jump\t// in\n    tag_221:\n        /* \"#utility.yul\":10693:10758   */\n      tag_222\n        /* \"#utility.yul\":10751:10757   */\n      dup2\n        /* \"#utility.yul\":10743:10749   */\n      dup5\n        /* \"#utility.yul\":10737:10741   */\n      dup5\n        /* \"#utility.yul\":10693:10758   */\n      tag_98\n      jump\t// in\n    tag_222:\n        /* \"#utility.yul\":10628:10764   */\n      pop\n        /* \"#utility.yul\":10575:10764   */\n      pop\n      pop\n      jump\t// out\n        /* \"#utility.yul\":10770:10956   */\n    tag_101:\n        /* \"#utility.yul\":10830:10950   */\n    tag_224:\n        /* \"#utility.yul\":10847:10850   */\n      dup2\n        /* \"#utility.yul\":10840:10845   */\n      dup2\n        /* \"#utility.yul\":10837:10851   */\n      lt\n        /* \"#utility.yul\":10830:10950   */\n      iszero\n      tag_226\n      jumpi\n        /* \"#utility.yul\":10901:10940   */\n      tag_227\n        /* \"#utility.yul\":10938:10939   */\n      0x00\n        /* \"#utility.yul\":10931:10936   */\n      dup3\n        /* \"#utility.yul\":10901:10940   */\n      tag_100\n      jump\t// in\n    tag_227:\n        /* \"#utility.yul\":10874:10875   */\n      0x01\n        /* \"#utility.yul\":10867:10872   */\n      dup2\n        /* \"#utility.yul\":10863:10876   */\n      add\n        /* \"#utility.yul\":10854:10876   */\n      swap1\n      pop\n        /* \"#utility.yul\":10830:10950   */\n      jump(tag_224)\n    tag_226:\n        /* \"#utility.yul\":10770:10956   */\n      pop\n      pop\n      jump\t// out\n        /* \"#utility.yul\":10962:11505   */\n    tag_102:\n        /* \"#utility.yul\":11063:11065   */\n      0x1f\n        /* \"#utility.yul\":11058:11061   */\n      dup3\n        /* \"#utility.yul\":11055:11066   */\n      gt\n        /* \"#utility.yul\":11052:11498   */\n      iszero\n      tag_229\n      jumpi\n        /* \"#utility.yul\":11097:11135   */\n      tag_230\n        /* \"#utility.yul\":11129:11134   */\n      dup2\n        /* \"#utility.yul\":11097:11135   */\n      tag_91\n      jump\t// in\n    tag_230:\n        /* \"#utility.yul\":11181:11210   */\n      tag_231\n        /* \"#utility.yul\":11199:11209   */\n      dup5\n        /* \"#utility.yul\":11181:11210   */\n      tag_92\n      jump\t// in\n    tag_231:\n        /* \"#utility.yul\":11171:11179   */\n      dup2\n        /* \"#utility.yul\":11167:11211   */\n      add\n        /* \"#utility.yul\":11364:11366   */\n      0x20\n        /* \"#utility.yul\":11352:11362   */\n      dup6\n        /* \"#utility.yul\":11349:11367   */\n      lt\n        /* \"#utility.yul\":11346:11395   */\n      iszero\n      tag_232\n      jumpi\n        /* \"#utility.yul\":11385:11393   */\n      dup2\n        /* \"#utility.yul\":11370:11393   */\n      swap1\n      pop\n        /* \"#utility.yul\":11346:11395   */\n    tag_232:\n        /* \"#utility.yul\":11408:11488   */\n      tag_233\n        /* \"#utility.yul\":11464:11486   */\n      tag_234\n        /* \"#utility.yul\":11482:11485   */\n      dup6\n        /* \"#utility.yul\":11464:11486   */\n      tag_92\n      jump\t// in\n    tag_234:\n        /* \"#utility.yul\":11454:11462   */\n      dup4\n        /* \"#utility.yul\":11450:11487   */\n      add\n        /* \"#utility.yul\":11437:11448   */\n      dup3\n        /* \"#utility.yul\":11408:11488   */\n      tag_101\n      jump\t// in\n    tag_233:\n        /* \"#utility.yul\":11067:11498   */\n      pop\n      pop\n        /* \"#utility.yul\":11052:11498   */\n    tag_229:\n        /* \"#utility.yul\":10962:11505   */\n      pop\n      pop\n      pop\n      jump\t// out\n        /* \"#utility.yul\":11511:11628   */\n    tag_103:\n        /* \"#utility.yul\":11565:11573   */\n      0x00\n        /* \"#utility.yul\":11615:11620   */\n      dup3\n        /* \"#utility.yul\":11609:11613   */\n      dup3\n        /* \"#utility.yul\":11605:11621   */\n      shr\n        /* \"#utility.yul\":11584:11621   */\n      swap1\n      pop\n        /* \"#utility.yul\":11511:11628   */\n      swap3\n      swap2\n      pop\n      pop\n      jump\t// out\n        /* \"#utility.yul\":11634:11803   */\n    tag_104:\n        /* \"#utility.yul\":11678:11684   */\n      0x00\n        /* \"#utility.yul\":11711:11762   */\n      tag_237\n        /* \"#utility.yul\":11759:11760   */\n      0x00\n        /* \"#utility.yul\":11755:11761   */\n      not\n        /* \"#utility.yul\":11747:11752   */\n      dup5\n        /* \"#utility.yul\":11744:11745   */\n      0x08\n        /* \"#utility.yul\":11740:11753   */\n      mul\n        /* \"#utility.yul\":11711:11762   */\n      tag_103\n      jump\t// in\n    tag_237:\n        /* \"#utility.yul\":11707:11763   */\n      not\n        /* \"#utility.yul\":11792:11796   */\n      dup1\n        /* \"#utility.yul\":11786:11790   */\n      dup4\n        /* \"#utility.yul\":11782:11797   */\n      and\n        /* \"#utility.yul\":11772:11797   */\n      swap2\n      pop\n        /* \"#utility.yul\":11685:11803   */\n      pop\n        /* \"#utility.yul\":11634:11803   */\n      swap3\n      swap2\n      pop\n      pop\n      jump\t// out\n        /* \"#utility.yul\":11808:12103   */\n    tag_105:\n        /* \"#utility.yul\":11884:11888   */\n      0x00\n        /* \"#utility.yul\":12030:12059   */\n      tag_239\n        /* \"#utility.yul\":12055:12058   */\n      dup4\n        /* \"#utility.yul\":12049:12053   */\n      dup4\n        /* \"#utility.yul\":12030:12059   */\n      tag_104\n      jump\t// in\n    tag_239:\n        /* \"#utility.yul\":12022:12059   */\n      swap2\n      pop\n        /* \"#utility.yul\":12092:12095   */\n      dup3\n        /* \"#utility.yul\":12089:12090   */\n      0x02\n        /* \"#utility.yul\":12085:12096   */\n      mul\n        /* \"#utility.yul\":12079:12083   */\n      dup3\n        /* \"#utility.yul\":12076:12097   */\n      or\n        /* \"#utility.yul\":12068:12097   */\n      swap1\n      pop\n        /* \"#utility.yul\":11808:12103   */\n      swap3\n      swap2\n      pop\n      pop\n      jump\t// out\n        /* \"#utility.yul\":12108:13503   */\n    tag_30:\n        /* \"#utility.yul\":12225:12262   */\n      tag_241\n        /* \"#utility.yul\":12258:12261   */\n      dup3\n        /* \"#utility.yul\":12225:12262   */\n      tag_78\n      jump\t// in\n    tag_241:\n        /* \"#utility.yul\":12327:12345   */\n      0xffffffffffffffff\n        /* \"#utility.yul\":12319:12325   */\n      dup2\n        /* \"#utility.yul\":12316:12346   */\n      gt\n        /* \"#utility.yul\":12313:12369   */\n      iszero\n      tag_242\n      jumpi\n        /* \"#utility.yul\":12349:12367   */\n      tag_243\n      tag_64\n      jump\t// in\n    tag_243:\n        /* \"#utility.yul\":12313:12369   */\n    tag_242:\n        /* \"#utility.yul\":12393:12431   */\n      tag_244\n        /* \"#utility.yul\":12425:12429   */\n      dup3\n        /* \"#utility.yul\":12419:12430   */\n      sload\n        /* \"#utility.yul\":12393:12431   */\n      tag_36\n      jump\t// in\n    tag_244:\n        /* \"#utility.yul\":12478:12545   */\n      tag_245\n        /* \"#utility.yul\":12538:12544   */\n      dup3\n        /* \"#utility.yul\":12530:12536   */\n      dup3\n        /* \"#utility.yul\":12524:12528   */\n      dup6\n        /* \"#utility.yul\":12478:12545   */\n      tag_102\n      jump\t// in\n    tag_245:\n        /* \"#utility.yul\":12572:12573   */\n      0x00\n        /* \"#utility.yul\":12596:12600   */\n      0x20\n        /* \"#utility.yul\":12583:12600   */\n      swap1\n      pop\n        /* \"#utility.yul\":12628:12630   */\n      0x1f\n        /* \"#utility.yul\":12620:12626   */\n      dup4\n        /* \"#utility.yul\":12617:12631   */\n      gt\n        /* \"#utility.yul\":12645:12646   */\n      0x01\n        /* \"#utility.yul\":12640:13258   */\n      dup2\n      eq\n      tag_247\n      jumpi\n        /* \"#utility.yul\":13302:13303   */\n      0x00\n        /* \"#utility.yul\":13319:13325   */\n      dup5\n        /* \"#utility.yul\":13316:13393   */\n      iszero\n      tag_248\n      jumpi\n        /* \"#utility.yul\":13368:13377   */\n      dup3\n        /* \"#utility.yul\":13363:13366   */\n      dup8\n        /* \"#utility.yul\":13359:13378   */\n      add\n        /* \"#utility.yul\":13353:13379   */\n      mload\n        /* \"#utility.yul\":13344:13379   */\n      swap1\n      pop\n        /* \"#utility.yul\":13316:13393   */\n    tag_248:\n        /* \"#utility.yul\":13419:13486   */\n      tag_249\n        /* \"#utility.yul\":13479:13485   */\n      dup6\n        /* \"#utility.yul\":13472:13477   */\n      dup3\n        /* \"#utility.yul\":13419:13486   */\n      tag_105\n      jump\t// in\n    tag_249:\n        /* \"#utility.yul\":13413:13417   */\n      dup7\n        /* \"#utility.yul\":13406:13487   */\n      sstore\n        /* \"#utility.yul\":13275:13497   */\n      pop\n        /* \"#utility.yul\":12610:13497   */\n      jump(tag_246)\n        /* \"#utility.yul\":12640:13258   */\n    tag_247:\n        /* \"#utility.yul\":12692:12696   */\n      0x1f\n        /* \"#utility.yul\":12688:12697   */\n      not\n        /* \"#utility.yul\":12680:12686   */\n      dup5\n        /* \"#utility.yul\":12676:12698   */\n      and\n        /* \"#utility.yul\":12726:12763   */\n      tag_250\n        /* \"#utility.yul\":12758:12762   */\n      dup7\n        /* \"#utility.yul\":12726:12763   */\n      tag_91\n      jump\t// in\n    tag_250:\n        /* \"#utility.yul\":12785:12786   */\n      0x00\n        /* \"#utility.yul\":12799:13007   */\n    tag_251:\n        /* \"#utility.yul\":12813:12820   */\n      dup3\n        /* \"#utility.yul\":12810:12811   */\n      dup2\n        /* \"#utility.yul\":12807:12821   */\n      lt\n        /* \"#utility.yul\":12799:13007   */\n      iszero\n      tag_253\n      jumpi\n        /* \"#utility.yul\":12892:12901   */\n      dup5\n        /* \"#utility.yul\":12887:12890   */\n      dup10\n        /* \"#utility.yul\":12883:12902   */\n      add\n        /* \"#utility.yul\":12877:12903   */\n      mload\n        /* \"#utility.yul\":12869:12875   */\n      dup3\n        /* \"#utility.yul\":12862:12904   */\n      sstore\n        /* \"#utility.yul\":12943:12944   */\n      0x01\n        /* \"#utility.yul\":12935:12941   */\n      dup3\n        /* \"#utility.yul\":12931:12945   */\n      add\n        /* \"#utility.yul\":12921:12945   */\n      swap2\n      pop\n        /* \"#utility.yul\":12990:12992   */\n      0x20\n        /* \"#utility.yul\":12979:12988   */\n      dup6\n        /* \"#utility.yul\":12975:12993   */\n      add\n        /* \"#utility.yul\":12962:12993   */\n      swap5\n      pop\n        /* \"#utility.yul\":12836:12840   */\n      0x20\n        /* \"#utility.yul\":12833:12834   */\n      dup2\n        /* \"#utility.yul\":12829:12841   */\n      add\n        /* \"#utility.yul\":12824:12841   */\n      swap1\n      pop\n        /* \"#utility.yul\":12799:13007   */\n      jump(tag_251)\n    tag_253:\n        /* \"#utility.yul\":13035:13041   */\n      dup7\n        /* \"#utility.yul\":13026:13033   */\n      dup4\n        /* \"#utility.yul\":13023:13042   */\n      lt\n        /* \"#utility.yul\":13020:13199   */\n      iszero\n      tag_254\n      jumpi\n        /* \"#utility.yul\":13093:13102   */\n      dup5\n        /* \"#utility.yul\":13088:13091   */\n      dup10\n        /* \"#utility.yul\":13084:13103   */\n      add\n        /* \"#utility.yul\":13078:13104   */\n      mload\n        /* \"#utility.yul\":13136:13184   */\n      tag_255\n        /* \"#utility.yul\":13178:13182   */\n      0x1f\n        /* \"#utility.yul\":13170:13176   */\n      dup10\n        /* \"#utility.yul\":13166:13183   */\n      and\n        /* \"#utility.yul\":13155:13164   */\n      dup3\n        /* \"#utility.yul\":13136:13184   */\n      tag_104\n      jump\t// in\n    tag_255:\n        /* \"#utility.yul\":13128:13134   */\n      dup4\n        /* \"#utility.yul\":13121:13185   */\n      sstore\n        /* \"#utility.yul\":13043:13199   */\n      pop\n        /* \"#utility.yul\":13020:13199   */\n    tag_254:\n        /* \"#utility.yul\":13245:13246   */\n      0x01\n        /* \"#utility.yul\":13241:13242   */\n      0x02\n        /* \"#utility.yul\":13233:13239   */\n      dup9\n        /* \"#utility.yul\":13229:13243   */\n      mul\n        /* \"#utility.yul\":13225:13247   */\n      add\n        /* \"#utility.yul\":13219:13223   */\n      dup9\n        /* \"#utility.yul\":13212:13248   */\n      sstore\n        /* \"#utility.yul\":12647:13258   */\n      pop\n      pop\n      pop\n        /* \"#utility.yul\":12610:13497   */\n    tag_246:\n      pop\n        /* \"#utility.yul\":12200:13503   */\n      pop\n      pop\n      pop\n        /* \"#utility.yul\":12108:13503   */\n      pop\n      pop\n      jump\t// out\n        /* \"#utility.yul\":13509:13689   */\n    tag_51:\n        /* \"#utility.yul\":13557:13634   */\n      0x4e487b7100000000000000000000000000000000000000000000000000000000\n        /* \"#utility.yul\":13554:13555   */\n      0x00\n        /* \"#utility.yul\":13547:13635   */\n      mstore\n        /* \"#utility.yul\":13654:13658   */\n      0x32\n        /* \"#utility.yul\":13651:13652   */\n      0x04\n        /* \"#utility.yul\":13644:13659   */\n      mstore\n        /* \"#utility.yul\":13678:13682   */\n      0x24\n        /* \"#utility.yul\":13675:13676   */\n      0x00\n        /* \"#utility.yul\":13668:13683   */\n      revert\n\n    auxdata: 0xa264697066735822122043ae33c5a1ffb44b0cf8fd71e2d4c5b0fcc4ee02c3e520bedeba1aa253c124e764736f6c634300081a0033\n}\n",
				"bytecode": {
					"linkReferences": {},
					"object": "6080604052348015600e575f80fd5b50610b698061001c5f395ff3fe608060405234801561000f575f80fd5b506004361061004a575f3560e01c80631d4659331461004e5780638456425f1461006a5780638ff41ca11461009a578063e30cf41e146100ca575b5f80fd5b6100686004803603810190610063919061055d565b6100fa565b005b610084600480360381019061007f91906105fe565b610169565b6040516100919190610744565b60405180910390f35b6100b460048036038101906100af9190610797565b610279565b6040516100c1919061081d565b60405180910390f35b6100e460048036038101906100df9190610797565b610329565b6040516100f1919061081d565b60405180910390f35b5f803373ffffffffffffffffffffffffffffffffffffffff1673ffffffffffffffffffffffffffffffffffffffff1681526020019081526020015f2081908060018154018082558091505060019003905f5260205f20015f9091909190915090816101659190610a37565b5050565b60605f808373ffffffffffffffffffffffffffffffffffffffff1673ffffffffffffffffffffffffffffffffffffffff1681526020019081526020015f20805480602002602001604051908101604052809291908181526020015f905b8282101561026e578382905f5260205f200180546101e39061086a565b80601f016020809104026020016040519081016040528092919081815260200182805461020f9061086a565b801561025a5780601f106102315761010080835404028352916020019161025a565b820191905f5260205f20905b81548152906001019060200180831161023d57829003601f168201915b5050505050815260200190600101906101c6565b505050509050919050565b5f602052815f5260405f208181548110610291575f80fd5b905f5260205f20015f915091505080546102aa9061086a565b80601f01602080910402602001604051908101604052809291908181526020018280546102d69061086a565b80156103215780601f106102f857610100808354040283529160200191610321565b820191905f5260205f20905b81548152906001019060200180831161030457829003601f168201915b505050505081565b60605f808473ffffffffffffffffffffffffffffffffffffffff1673ffffffffffffffffffffffffffffffffffffffff1681526020019081526020015f20828154811061037957610378610b06565b5b905f5260205f2001805461038c9061086a565b80601f01602080910402602001604051908101604052809291908181526020018280546103b89061086a565b80156104035780601f106103da57610100808354040283529160200191610403565b820191905f5260205f20905b8154815290600101906020018083116103e657829003601f168201915b5050505050905092915050565b5f604051905090565b5f80fd5b5f80fd5b5f80fd5b5f80fd5b5f601f19601f8301169050919050565b7f4e487b71000000000000000000000000000000000000000000000000000000005f52604160045260245ffd5b61046f82610429565b810181811067ffffffffffffffff8211171561048e5761048d610439565b5b80604052505050565b5f6104a0610410565b90506104ac8282610466565b919050565b5f67ffffffffffffffff8211156104cb576104ca610439565b5b6104d482610429565b9050602081019050919050565b828183375f83830152505050565b5f6105016104fc846104b1565b610497565b90508281526020810184848401111561051d5761051c610425565b5b6105288482856104e1565b509392505050565b5f82601f83011261054457610543610421565b5b81356105548482602086016104ef565b91505092915050565b5f6020828403121561057257610571610419565b5b5f82013567ffffffffffffffff81111561058f5761058e61041d565b5b61059b84828501610530565b91505092915050565b5f73ffffffffffffffffffffffffffffffffffffffff82169050919050565b5f6105cd826105a4565b9050919050565b6105dd816105c3565b81146105e7575f80fd5b50565b5f813590506105f8816105d4565b92915050565b5f6020828403121561061357610612610419565b5b5f610620848285016105ea565b91505092915050565b5f81519050919050565b5f82825260208201905092915050565b5f819050602082019050919050565b5f81519050919050565b5f82825260208201905092915050565b8281835e5f83830152505050565b5f61068482610652565b61068e818561065c565b935061069e81856020860161066c565b6106a781610429565b840191505092915050565b5f6106bd838361067a565b905092915050565b5f602082019050919050565b5f6106db82610629565b6106e58185610633565b9350836020820285016106f785610643565b805f5b85811015610732578484038952815161071385826106b2565b945061071e836106c5565b925060208a019950506001810190506106fa565b50829750879550505050505092915050565b5f6020820190508181035f83015261075c81846106d1565b905092915050565b5f819050919050565b61077681610764565b8114610780575f80fd5b50565b5f813590506107918161076d565b92915050565b5f80604083850312156107ad576107ac610419565b5b5f6107ba858286016105ea565b92505060206107cb85828601610783565b9150509250929050565b5f82825260208201905092915050565b5f6107ef82610652565b6107f981856107d5565b935061080981856020860161066c565b61081281610429565b840191505092915050565b5f6020820190508181035f83015261083581846107e5565b905092915050565b7f4e487b71000000000000000000000000000000000000000000000000000000005f52602260045260245ffd5b5f600282049050600182168061088157607f821691505b6020821081036108945761089361083d565b5b50919050565b5f819050815f5260205f209050919050565b5f6020601f8301049050919050565b5f82821b905092915050565b5f600883026108f67fffffffffffffffffffffffffffffffffffffffffffffffffffffffffffffffff826108bb565b61090086836108bb565b95508019841693508086168417925050509392505050565b5f819050919050565b5f61093b61093661093184610764565b610918565b610764565b9050919050565b5f819050919050565b61095483610921565b61096861096082610942565b8484546108c7565b825550505050565b5f90565b61097c610970565b61098781848461094b565b505050565b5b818110156109aa5761099f5f82610974565b60018101905061098d565b5050565b601f8211156109ef576109c08161089a565b6109c9846108ac565b810160208510156109d8578190505b6109ec6109e4856108ac565b83018261098c565b50505b505050565b5f82821c905092915050565b5f610a0f5f19846008026109f4565b1980831691505092915050565b5f610a278383610a00565b9150826002028217905092915050565b610a4082610652565b67ffffffffffffffff811115610a5957610a58610439565b5b610a63825461086a565b610a6e8282856109ae565b5f60209050601f831160018114610a9f575f8415610a8d578287015190505b610a978582610a1c565b865550610afe565b601f198416610aad8661089a565b5f5b82811015610ad457848901518255600182019150602085019450602081019050610aaf565b86831015610af15784890151610aed601f891682610a00565b8355505b6001600288020188555050505b505050505050565b7f4e487b71000000000000000000000000000000000000000000000000000000005f52603260045260245ffdfea264697066735822122043ae33c5a1ffb44b0cf8fd71e2d4c5b0fcc4ee02c3e520bedeba1aa253c124e764736f6c634300081a0033",
					"opcodes": "PUSH1 0x80 PUSH1 0x40 MSTORE CALLVALUE DUP1 ISZERO PUSH1 0xE JUMPI PUSH0 DUP1 REVERT JUMPDEST POP PUSH2 0xB69 DUP1 PUSH2 0x1C PUSH0 CODECOPY PUSH0 RETURN INVALID PUSH1 0x80 PUSH1 0x40 MSTORE CALLVALUE DUP1 ISZERO PUSH2 0xF JUMPI PUSH0 DUP1 REVERT JUMPDEST POP PUSH1 0x4 CALLDATASIZE LT PUSH2 0x4A JUMPI PUSH0 CALLDATALOAD PUSH1 0xE0 SHR DUP1 PUSH4 0x1D465933 EQ PUSH2 0x4E JUMPI DUP1 PUSH4 0x8456425F EQ PUSH2 0x6A JUMPI DUP1 PUSH4 0x8FF41CA1 EQ PUSH2 0x9A JUMPI DUP1 PUSH4 0xE30CF41E EQ PUSH2 0xCA JUMPI JUMPDEST PUSH0 DUP1 REVERT JUMPDEST PUSH2 0x68 PUSH1 0x4 DUP1 CALLDATASIZE SUB DUP2 ADD SWAP1 PUSH2 0x63 SWAP2 SWAP1 PUSH2 0x55D JUMP JUMPDEST PUSH2 0xFA JUMP JUMPDEST STOP JUMPDEST PUSH2 0x84 PUSH1 0x4 DUP1 CALLDATASIZE SUB DUP2 ADD SWAP1 PUSH2 0x7F SWAP2 SWAP1 PUSH2 0x5FE JUMP JUMPDEST PUSH2 0x169 JUMP JUMPDEST PUSH1 0x40 MLOAD PUSH2 0x91 SWAP2 SWAP1 PUSH2 0x744 JUMP JUMPDEST PUSH1 0x40 MLOAD DUP1 SWAP2 SUB SWAP1 RETURN JUMPDEST PUSH2 0xB4 PUSH1 0x4 DUP1 CALLDATASIZE SUB DUP2 ADD SWAP1 PUSH2 0xAF SWAP2 SWAP1 PUSH2 0x797 JUMP JUMPDEST PUSH2 0x279 JUMP JUMPDEST PUSH1 0x40 MLOAD PUSH2 0xC1 SWAP2 SWAP1 PUSH2 0x81D JUMP JUMPDEST PUSH1 0x40 MLOAD DUP1 SWAP2 SUB SWAP1 RETURN JUMPDEST PUSH2 0xE4 PUSH1 0x4 DUP1 CALLDATASIZE SUB DUP2 ADD SWAP1 PUSH2 0xDF SWAP2 SWAP1 PUSH2 0x797 JUMP JUMPDEST PUSH2 0x329 JUMP JUMPDEST PUSH1 0x40 MLOAD PUSH2 0xF1 SWAP2 SWAP1 PUSH2 0x81D JUMP JUMPDEST PUSH1 0x40 MLOAD DUP1 SWAP2 SUB SWAP1 RETURN JUMPDEST PUSH0 DUP1 CALLER PUSH20 0xFFFFFFFFFFFFFFFFFFFFFFFFFFFFFFFFFFFFFFFF AND PUSH20 0xFFFFFFFFFFFFFFFFFFFFFFFFFFFFFFFFFFFFFFFF AND DUP2 MSTORE PUSH1 0x20 ADD SWAP1 DUP2 MSTORE PUSH1 0x20 ADD PUSH0 KECCAK256 DUP2 SWAP1 DUP1 PUSH1 0x1 DUP2 SLOAD ADD DUP1 DUP3 SSTORE DUP1 SWAP2 POP POP PUSH1 0x1 SWAP1 SUB SWAP1 PUSH0 MSTORE PUSH1 0x20 PUSH0 KECCAK256 ADD PUSH0 SWAP1 SWAP2 SWAP1 SWAP2 SWAP1 SWAP2 POP SWAP1 DUP2 PUSH2 0x165 SWAP2 SWAP1 PUSH2 0xA37 JUMP JUMPDEST POP POP JUMP JUMPDEST PUSH1 0x60 PUSH0 DUP1 DUP4 PUSH20 0xFFFFFFFFFFFFFFFFFFFFFFFFFFFFFFFFFFFFFFFF AND PUSH20 0xFFFFFFFFFFFFFFFFFFFFFFFFFFFFFFFFFFFFFFFF AND DUP2 MSTORE PUSH1 0x20 ADD SWAP1 DUP2 MSTORE PUSH1 0x20 ADD PUSH0 KECCAK256 DUP1 SLOAD DUP1 PUSH1 0x20 MUL PUSH1 0x20 ADD PUSH1 0x40 MLOAD SWAP1 DUP2 ADD PUSH1 0x40 MSTORE DUP1 SWAP3 SWAP2 SWAP1 DUP2 DUP2 MSTORE PUSH1 0x20 ADD PUSH0 SWAP1 JUMPDEST DUP3 DUP3 LT ISZERO PUSH2 0x26E JUMPI DUP4 DUP3 SWAP1 PUSH0 MSTORE PUSH1 0x20 PUSH0 KECCAK256 ADD DUP1 SLOAD PUSH2 0x1E3 SWAP1 PUSH2 0x86A JUMP JUMPDEST DUP1 PUSH1 0x1F ADD PUSH1 0x20 DUP1 SWAP2 DIV MUL PUSH1 0x20 ADD PUSH1 0x40 MLOAD SWAP1 DUP2 ADD PUSH1 0x40 MSTORE DUP1 SWAP3 SWAP2 SWAP1 DUP2 DUP2 MSTORE PUSH1 0x20 ADD DUP3 DUP1 SLOAD PUSH2 0x20F SWAP1 PUSH2 0x86A JUMP JUMPDEST DUP1 ISZERO PUSH2 0x25A JUMPI DUP1 PUSH1 0x1F LT PUSH2 0x231 JUMPI PUSH2 0x100 DUP1 DUP4 SLOAD DIV MUL DUP4 MSTORE SWAP2 PUSH1 0x20 ADD SWAP2 PUSH2 0x25A JUMP JUMPDEST DUP3 ADD SWAP2 SWAP1 PUSH0 MSTORE PUSH1 0x20 PUSH0 KECCAK256 SWAP1 JUMPDEST DUP2 SLOAD DUP2 MSTORE SWAP1 PUSH1 0x1 ADD SWAP1 PUSH1 0x20 ADD DUP1 DUP4 GT PUSH2 0x23D JUMPI DUP3 SWAP1 SUB PUSH1 0x1F AND DUP3 ADD SWAP2 JUMPDEST POP POP POP POP POP DUP2 MSTORE PUSH1 0x20 ADD SWAP1 PUSH1 0x1 ADD SWAP1 PUSH2 0x1C6 JUMP JUMPDEST POP POP POP POP SWAP1 POP SWAP2 SWAP1 POP JUMP JUMPDEST PUSH0 PUSH1 0x20 MSTORE DUP2 PUSH0 MSTORE PUSH1 0x40 PUSH0 KECCAK256 DUP2 DUP2 SLOAD DUP2 LT PUSH2 0x291 JUMPI PUSH0 DUP1 REVERT JUMPDEST SWAP1 PUSH0 MSTORE PUSH1 0x20 PUSH0 KECCAK256 ADD PUSH0 SWAP2 POP SWAP2 POP POP DUP1 SLOAD PUSH2 0x2AA SWAP1 PUSH2 0x86A JUMP JUMPDEST DUP1 PUSH1 0x1F ADD PUSH1 0x20 DUP1 SWAP2 DIV MUL PUSH1 0x20 ADD PUSH1 0x40 MLOAD SWAP1 DUP2 ADD PUSH1 0x40 MSTORE DUP1 SWAP3 SWAP2 SWAP1 DUP2 DUP2 MSTORE PUSH1 0x20 ADD DUP3 DUP1 SLOAD PUSH2 0x2D6 SWAP1 PUSH2 0x86A JUMP JUMPDEST DUP1 ISZERO PUSH2 0x321 JUMPI DUP1 PUSH1 0x1F LT PUSH2 0x2F8 JUMPI PUSH2 0x100 DUP1 DUP4 SLOAD DIV MUL DUP4 MSTORE SWAP2 PUSH1 0x20 ADD SWAP2 PUSH2 0x321 JUMP JUMPDEST DUP3 ADD SWAP2 SWAP1 PUSH0 MSTORE PUSH1 0x20 PUSH0 KECCAK256 SWAP1 JUMPDEST DUP2 SLOAD DUP2 MSTORE SWAP1 PUSH1 0x1 ADD SWAP1 PUSH1 0x20 ADD DUP1 DUP4 GT PUSH2 0x304 JUMPI DUP3 SWAP1 SUB PUSH1 0x1F AND DUP3 ADD SWAP2 JUMPDEST POP POP POP POP POP DUP2 JUMP JUMPDEST PUSH1 0x60 PUSH0 DUP1 DUP5 PUSH20 0xFFFFFFFFFFFFFFFFFFFFFFFFFFFFFFFFFFFFFFFF AND PUSH20 0xFFFFFFFFFFFFFFFFFFFFFFFFFFFFFFFFFFFFFFFF AND DUP2 MSTORE PUSH1 0x20 ADD SWAP1 DUP2 MSTORE PUSH1 0x20 ADD PUSH0 KECCAK256 DUP3 DUP2 SLOAD DUP2 LT PUSH2 0x379 JUMPI PUSH2 0x378 PUSH2 0xB06 JUMP JUMPDEST JUMPDEST SWAP1 PUSH0 MSTORE PUSH1 0x20 PUSH0 KECCAK256 ADD DUP1 SLOAD PUSH2 0x38C SWAP1 PUSH2 0x86A JUMP JUMPDEST DUP1 PUSH1 0x1F ADD PUSH1 0x20 DUP1 SWAP2 DIV MUL PUSH1 0x20 ADD PUSH1 0x40 MLOAD SWAP1 DUP2 ADD PUSH1 0x40 MSTORE DUP1 SWAP3 SWAP2 SWAP1 DUP2 DUP2 MSTORE PUSH1 0x20 ADD DUP3 DUP1 SLOAD PUSH2 0x3B8 SWAP1 PUSH2 0x86A JUMP JUMPDEST DUP1 ISZERO PUSH2 0x403 JUMPI DUP1 PUSH1 0x1F LT PUSH2 0x3DA JUMPI PUSH2 0x100 DUP1 DUP4 SLOAD DIV MUL DUP4 MSTORE SWAP2 PUSH1 0x20 ADD SWAP2 PUSH2 0x403 JUMP JUMPDEST DUP3 ADD SWAP2 SWAP1 PUSH0 MSTORE PUSH1 0x20 PUSH0 KECCAK256 SWAP1 JUMPDEST DUP2 SLOAD DUP2 MSTORE SWAP1 PUSH1 0x1 ADD SWAP1 PUSH1 0x20 ADD DUP1 DUP4 GT PUSH2 0x3E6 JUMPI DUP3 SWAP1 SUB PUSH1 0x1F AND DUP3 ADD SWAP2 JUMPDEST POP POP POP POP POP SWAP1 POP SWAP3 SWAP2 POP POP JUMP JUMPDEST PUSH0 PUSH1 0x40 MLOAD SWAP1 POP SWAP1 JUMP JUMPDEST PUSH0 DUP1 REVERT JUMPDEST PUSH0 DUP1 REVERT JUMPDEST PUSH0 DUP1 REVERT JUMPDEST PUSH0 DUP1 REVERT JUMPDEST PUSH0 PUSH1 0x1F NOT PUSH1 0x1F DUP4 ADD AND SWAP1 POP SWAP2 SWAP1 POP JUMP JUMPDEST PUSH32 0x4E487B7100000000000000000000000000000000000000000000000000000000 PUSH0 MSTORE PUSH1 0x41 PUSH1 0x4 MSTORE PUSH1 0x24 PUSH0 REVERT JUMPDEST PUSH2 0x46F DUP3 PUSH2 0x429 JUMP JUMPDEST DUP2 ADD DUP2 DUP2 LT PUSH8 0xFFFFFFFFFFFFFFFF DUP3 GT OR ISZERO PUSH2 0x48E JUMPI PUSH2 0x48D PUSH2 0x439 JUMP JUMPDEST JUMPDEST DUP1 PUSH1 0x40 MSTORE POP POP POP JUMP JUMPDEST PUSH0 PUSH2 0x4A0 PUSH2 0x410 JUMP JUMPDEST SWAP1 POP PUSH2 0x4AC DUP3 DUP3 PUSH2 0x466 JUMP JUMPDEST SWAP2 SWAP1 POP JUMP JUMPDEST PUSH0 PUSH8 0xFFFFFFFFFFFFFFFF DUP3 GT ISZERO PUSH2 0x4CB JUMPI PUSH2 0x4CA PUSH2 0x439 JUMP JUMPDEST JUMPDEST PUSH2 0x4D4 DUP3 PUSH2 0x429 JUMP JUMPDEST SWAP1 POP PUSH1 0x20 DUP2 ADD SWAP1 POP SWAP2 SWAP1 POP JUMP JUMPDEST DUP3 DUP2 DUP4 CALLDATACOPY PUSH0 DUP4 DUP4 ADD MSTORE POP POP POP JUMP JUMPDEST PUSH0 PUSH2 0x501 PUSH2 0x4FC DUP5 PUSH2 0x4B1 JUMP JUMPDEST PUSH2 0x497 JUMP JUMPDEST SWAP1 POP DUP3 DUP2 MSTORE PUSH1 0x20 DUP2 ADD DUP5 DUP5 DUP5 ADD GT ISZERO PUSH2 0x51D JUMPI PUSH2 0x51C PUSH2 0x425 JUMP JUMPDEST JUMPDEST PUSH2 0x528 DUP5 DUP3 DUP6 PUSH2 0x4E1 JUMP JUMPDEST POP SWAP4 SWAP3 POP POP POP JUMP JUMPDEST PUSH0 DUP3 PUSH1 0x1F DUP4 ADD SLT PUSH2 0x544 JUMPI PUSH2 0x543 PUSH2 0x421 JUMP JUMPDEST JUMPDEST DUP2 CALLDATALOAD PUSH2 0x554 DUP5 DUP3 PUSH1 0x20 DUP7 ADD PUSH2 0x4EF JUMP JUMPDEST SWAP2 POP POP SWAP3 SWAP2 POP POP JUMP JUMPDEST PUSH0 PUSH1 0x20 DUP3 DUP5 SUB SLT ISZERO PUSH2 0x572 JUMPI PUSH2 0x571 PUSH2 0x419 JUMP JUMPDEST JUMPDEST PUSH0 DUP3 ADD CALLDATALOAD PUSH8 0xFFFFFFFFFFFFFFFF DUP2 GT ISZERO PUSH2 0x58F JUMPI PUSH2 0x58E PUSH2 0x41D JUMP JUMPDEST JUMPDEST PUSH2 0x59B DUP5 DUP3 DUP6 ADD PUSH2 0x530 JUMP JUMPDEST SWAP2 POP POP SWAP3 SWAP2 POP POP JUMP JUMPDEST PUSH0 PUSH20 0xFFFFFFFFFFFFFFFFFFFFFFFFFFFFFFFFFFFFFFFF DUP3 AND SWAP1 POP SWAP2 SWAP1 POP JUMP JUMPDEST PUSH0 PUSH2 0x5CD DUP3 PUSH2 0x5A4 JUMP JUMPDEST SWAP1 POP SWAP2 SWAP1 POP JUMP JUMPDEST PUSH2 0x5DD DUP2 PUSH2 0x5C3 JUMP JUMPDEST DUP2 EQ PUSH2 0x5E7 JUMPI PUSH0 DUP1 REVERT JUMPDEST POP JUMP JUMPDEST PUSH0 DUP2 CALLDATALOAD SWAP1 POP PUSH2 0x5F8 DUP2 PUSH2 0x5D4 JUMP JUMPDEST SWAP3 SWAP2 POP POP JUMP JUMPDEST PUSH0 PUSH1 0x20 DUP3 DUP5 SUB SLT ISZERO PUSH2 0x613 JUMPI PUSH2 0x612 PUSH2 0x419 JUMP JUMPDEST JUMPDEST PUSH0 PUSH2 0x620 DUP5 DUP3 DUP6 ADD PUSH2 0x5EA JUMP JUMPDEST SWAP2 POP POP SWAP3 SWAP2 POP POP JUMP JUMPDEST PUSH0 DUP2 MLOAD SWAP1 POP SWAP2 SWAP1 POP JUMP JUMPDEST PUSH0 DUP3 DUP3 MSTORE PUSH1 0x20 DUP3 ADD SWAP1 POP SWAP3 SWAP2 POP POP JUMP JUMPDEST PUSH0 DUP2 SWAP1 POP PUSH1 0x20 DUP3 ADD SWAP1 POP SWAP2 SWAP1 POP JUMP JUMPDEST PUSH0 DUP2 MLOAD SWAP1 POP SWAP2 SWAP1 POP JUMP JUMPDEST PUSH0 DUP3 DUP3 MSTORE PUSH1 0x20 DUP3 ADD SWAP1 POP SWAP3 SWAP2 POP POP JUMP JUMPDEST DUP3 DUP2 DUP4 MCOPY PUSH0 DUP4 DUP4 ADD MSTORE POP POP POP JUMP JUMPDEST PUSH0 PUSH2 0x684 DUP3 PUSH2 0x652 JUMP JUMPDEST PUSH2 0x68E DUP2 DUP6 PUSH2 0x65C JUMP JUMPDEST SWAP4 POP PUSH2 0x69E DUP2 DUP6 PUSH1 0x20 DUP7 ADD PUSH2 0x66C JUMP JUMPDEST PUSH2 0x6A7 DUP2 PUSH2 0x429 JUMP JUMPDEST DUP5 ADD SWAP2 POP POP SWAP3 SWAP2 POP POP JUMP JUMPDEST PUSH0 PUSH2 0x6BD DUP4 DUP4 PUSH2 0x67A JUMP JUMPDEST SWAP1 POP SWAP3 SWAP2 POP POP JUMP JUMPDEST PUSH0 PUSH1 0x20 DUP3 ADD SWAP1 POP SWAP2 SWAP1 POP JUMP JUMPDEST PUSH0 PUSH2 0x6DB DUP3 PUSH2 0x629 JUMP JUMPDEST PUSH2 0x6E5 DUP2 DUP6 PUSH2 0x633 JUMP JUMPDEST SWAP4 POP DUP4 PUSH1 0x20 DUP3 MUL DUP6 ADD PUSH2 0x6F7 DUP6 PUSH2 0x643 JUMP JUMPDEST DUP1 PUSH0 JUMPDEST DUP6 DUP2 LT ISZERO PUSH2 0x732 JUMPI DUP5 DUP5 SUB DUP10 MSTORE DUP2 MLOAD PUSH2 0x713 DUP6 DUP3 PUSH2 0x6B2 JUMP JUMPDEST SWAP5 POP PUSH2 0x71E DUP4 PUSH2 0x6C5 JUMP JUMPDEST SWAP3 POP PUSH1 0x20 DUP11 ADD SWAP10 POP POP PUSH1 0x1 DUP2 ADD SWAP1 POP PUSH2 0x6FA JUMP JUMPDEST POP DUP3 SWAP8 POP DUP8 SWAP6 POP POP POP POP POP POP SWAP3 SWAP2 POP POP JUMP JUMPDEST PUSH0 PUSH1 0x20 DUP3 ADD SWAP1 POP DUP2 DUP2 SUB PUSH0 DUP4 ADD MSTORE PUSH2 0x75C DUP2 DUP5 PUSH2 0x6D1 JUMP JUMPDEST SWAP1 POP SWAP3 SWAP2 POP POP JUMP JUMPDEST PUSH0 DUP2 SWAP1 POP SWAP2 SWAP1 POP JUMP JUMPDEST PUSH2 0x776 DUP2 PUSH2 0x764 JUMP JUMPDEST DUP2 EQ PUSH2 0x780 JUMPI PUSH0 DUP1 REVERT JUMPDEST POP JUMP JUMPDEST PUSH0 DUP2 CALLDATALOAD SWAP1 POP PUSH2 0x791 DUP2 PUSH2 0x76D JUMP JUMPDEST SWAP3 SWAP2 POP POP JUMP JUMPDEST PUSH0 DUP1 PUSH1 0x40 DUP4 DUP6 SUB SLT ISZERO PUSH2 0x7AD JUMPI PUSH2 0x7AC PUSH2 0x419 JUMP JUMPDEST JUMPDEST PUSH0 PUSH2 0x7BA DUP6 DUP3 DUP7 ADD PUSH2 0x5EA JUMP JUMPDEST SWAP3 POP POP PUSH1 0x20 PUSH2 0x7CB DUP6 DUP3 DUP7 ADD PUSH2 0x783 JUMP JUMPDEST SWAP2 POP POP SWAP3 POP SWAP3 SWAP1 POP JUMP JUMPDEST PUSH0 DUP3 DUP3 MSTORE PUSH1 0x20 DUP3 ADD SWAP1 POP SWAP3 SWAP2 POP POP JUMP JUMPDEST PUSH0 PUSH2 0x7EF DUP3 PUSH2 0x652 JUMP JUMPDEST PUSH2 0x7F9 DUP2 DUP6 PUSH2 0x7D5 JUMP JUMPDEST SWAP4 POP PUSH2 0x809 DUP2 DUP6 PUSH1 0x20 DUP7 ADD PUSH2 0x66C JUMP JUMPDEST PUSH2 0x812 DUP2 PUSH2 0x429 JUMP JUMPDEST DUP5 ADD SWAP2 POP POP SWAP3 SWAP2 POP POP JUMP JUMPDEST PUSH0 PUSH1 0x20 DUP3 ADD SWAP1 POP DUP2 DUP2 SUB PUSH0 DUP4 ADD MSTORE PUSH2 0x835 DUP2 DUP5 PUSH2 0x7E5 JUMP JUMPDEST SWAP1 POP SWAP3 SWAP2 POP POP JUMP JUMPDEST PUSH32 0x4E487B7100000000000000000000000000000000000000000000000000000000 PUSH0 MSTORE PUSH1 0x22 PUSH1 0x4 MSTORE PUSH1 0x24 PUSH0 REVERT JUMPDEST PUSH0 PUSH1 0x2 DUP3 DIV SWAP1 POP PUSH1 0x1 DUP3 AND DUP1 PUSH2 0x881 JUMPI PUSH1 0x7F DUP3 AND SWAP2 POP JUMPDEST PUSH1 0x20 DUP3 LT DUP2 SUB PUSH2 0x894 JUMPI PUSH2 0x893 PUSH2 0x83D JUMP JUMPDEST JUMPDEST POP SWAP2 SWAP1 POP JUMP JUMPDEST PUSH0 DUP2 SWAP1 POP DUP2 PUSH0 MSTORE PUSH1 0x20 PUSH0 KECCAK256 SWAP1 POP SWAP2 SWAP1 POP JUMP JUMPDEST PUSH0 PUSH1 0x20 PUSH1 0x1F DUP4 ADD DIV SWAP1 POP SWAP2 SWAP1 POP JUMP JUMPDEST PUSH0 DUP3 DUP3 SHL SWAP1 POP SWAP3 SWAP2 POP POP JUMP JUMPDEST PUSH0 PUSH1 0x8 DUP4 MUL PUSH2 0x8F6 PUSH32 0xFFFFFFFFFFFFFFFFFFFFFFFFFFFFFFFFFFFFFFFFFFFFFFFFFFFFFFFFFFFFFFFF DUP3 PUSH2 0x8BB JUMP JUMPDEST PUSH2 0x900 DUP7 DUP4 PUSH2 0x8BB JUMP JUMPDEST SWAP6 POP DUP1 NOT DUP5 AND SWAP4 POP DUP1 DUP7 AND DUP5 OR SWAP3 POP POP POP SWAP4 SWAP3 POP POP POP JUMP JUMPDEST PUSH0 DUP2 SWAP1 POP SWAP2 SWAP1 POP JUMP JUMPDEST PUSH0 PUSH2 0x93B PUSH2 0x936 PUSH2 0x931 DUP5 PUSH2 0x764 JUMP JUMPDEST PUSH2 0x918 JUMP JUMPDEST PUSH2 0x764 JUMP JUMPDEST SWAP1 POP SWAP2 SWAP1 POP JUMP JUMPDEST PUSH0 DUP2 SWAP1 POP SWAP2 SWAP1 POP JUMP JUMPDEST PUSH2 0x954 DUP4 PUSH2 0x921 JUMP JUMPDEST PUSH2 0x968 PUSH2 0x960 DUP3 PUSH2 0x942 JUMP JUMPDEST DUP5 DUP5 SLOAD PUSH2 0x8C7 JUMP JUMPDEST DUP3 SSTORE POP POP POP POP JUMP JUMPDEST PUSH0 SWAP1 JUMP JUMPDEST PUSH2 0x97C PUSH2 0x970 JUMP JUMPDEST PUSH2 0x987 DUP2 DUP5 DUP5 PUSH2 0x94B JUMP JUMPDEST POP POP POP JUMP JUMPDEST JUMPDEST DUP2 DUP2 LT ISZERO PUSH2 0x9AA JUMPI PUSH2 0x99F PUSH0 DUP3 PUSH2 0x974 JUMP JUMPDEST PUSH1 0x1 DUP2 ADD SWAP1 POP PUSH2 0x98D JUMP JUMPDEST POP POP JUMP JUMPDEST PUSH1 0x1F DUP3 GT ISZERO PUSH2 0x9EF JUMPI PUSH2 0x9C0 DUP2 PUSH2 0x89A JUMP JUMPDEST PUSH2 0x9C9 DUP5 PUSH2 0x8AC JUMP JUMPDEST DUP2 ADD PUSH1 0x20 DUP6 LT ISZERO PUSH2 0x9D8 JUMPI DUP2 SWAP1 POP JUMPDEST PUSH2 0x9EC PUSH2 0x9E4 DUP6 PUSH2 0x8AC JUMP JUMPDEST DUP4 ADD DUP3 PUSH2 0x98C JUMP JUMPDEST POP POP JUMPDEST POP POP POP JUMP JUMPDEST PUSH0 DUP3 DUP3 SHR SWAP1 POP SWAP3 SWAP2 POP POP JUMP JUMPDEST PUSH0 PUSH2 0xA0F PUSH0 NOT DUP5 PUSH1 0x8 MUL PUSH2 0x9F4 JUMP JUMPDEST NOT DUP1 DUP4 AND SWAP2 POP POP SWAP3 SWAP2 POP POP JUMP JUMPDEST PUSH0 PUSH2 0xA27 DUP4 DUP4 PUSH2 0xA00 JUMP JUMPDEST SWAP2 POP DUP3 PUSH1 0x2 MUL DUP3 OR SWAP1 POP SWAP3 SWAP2 POP POP JUMP JUMPDEST PUSH2 0xA40 DUP3 PUSH2 0x652 JUMP JUMPDEST PUSH8 0xFFFFFFFFFFFFFFFF DUP2 GT ISZERO PUSH2 0xA59 JUMPI PUSH2 0xA58 PUSH2 0x439 JUMP JUMPDEST JUMPDEST PUSH2 0xA63 DUP3 SLOAD PUSH2 0x86A JUMP JUMPDEST PUSH2 0xA6E DUP3 DUP3 DUP6 PUSH2 0x9AE JUMP JUMPDEST PUSH0 PUSH1 0x20 SWAP1 POP PUSH1 0x1F DUP4 GT PUSH1 0x1 DUP2 EQ PUSH2 0xA9F JUMPI PUSH0 DUP5 ISZERO PUSH2 0xA8D JUMPI DUP3 DUP8 ADD MLOAD SWAP1 POP JUMPDEST PUSH2 0xA97 DUP6 DUP3 PUSH2 0xA1C JUMP JUMPDEST DUP7 SSTORE POP PUSH2 0xAFE JUMP JUMPDEST PUSH1 0x1F NOT DUP5 AND PUSH2 0xAAD DUP7 PUSH2 0x89A JUMP JUMPDEST PUSH0 JUMPDEST DUP3 DUP2 LT ISZERO PUSH2 0xAD4 JUMPI DUP5 DUP10 ADD MLOAD DUP3 SSTORE PUSH1 0x1 DUP3 ADD SWAP2 POP PUSH1 0x20 DUP6 ADD SWAP5 POP PUSH1 0x20 DUP2 ADD SWAP1 POP PUSH2 0xAAF JUMP JUMPDEST DUP7 DUP4 LT ISZERO PUSH2 0xAF1 JUMPI DUP5 DUP10 ADD MLOAD PUSH2 0xAED PUSH1 0x1F DUP10 AND DUP3 PUSH2 0xA00 JUMP JUMPDEST DUP4 SSTORE POP JUMPDEST PUSH1 0x1 PUSH1 0x2 DUP9 MUL ADD DUP9 SSTORE POP POP POP JUMPDEST POP POP POP POP POP POP JUMP JUMPDEST PUSH32 0x4E487B7100000000000000000000000000000000000000000000000000000000 PUSH0 MSTORE PUSH1 0x32 PUSH1 0x4 MSTORE PUSH1 0x24 PUSH0 REVERT INVALID LOG2 PUSH5 0x6970667358 0x22 SLT KECCAK256 NUMBER 0xAE CALLER 0xC5 LOG1 SELFDESTRUCT 0xB4 0x4B 0xC 0xF8 REVERT PUSH18 0xE2D4C5B0FCC4EE02C3E520BEDEBA1AA253C1 0x24 0xE7 PUSH5 0x736F6C6343 STOP ADDMOD BYTE STOP CALLER "
				},
				"gasEstimates": {
					"creation": {
						"codeDepositCost": "584200",
						"executionCost": "617",
						"totalCost": "584817"
					},
					"external": {
						"AllTwits(address)": "infinite",
						"CreateTwits(string)": "infinite",
						"MyMessage(address,uint256)": "infinite",
						"OneTwits(address,uint256)": "infinite"
					}
				},
				"methodIdentifiers": {
					"AllTwits(address)": "8456425f",
					"CreateTwits(string)": "1d465933",
					"MyMessage(address,uint256)": "8ff41ca1",
					"OneTwits(address,uint256)": "e30cf41e"
				}
			},
			"storageLayout": {
				"storage": [
					{
						"astId": 6,
						"contract": "contracts/TwitterArray.sol:TwitterArray",
						"label": "MyMessage",
						"offset": 0,
						"slot": "0",
						"type": "t_mapping(t_address,t_array(t_string_storage)dyn_storage)"
					}
				],
				"types": {
					"t_address": {
						"encoding": "inplace",
						"label": "address",
						"numberOfBytes": "20"
					},
					"t_array(t_string_storage)dyn_storage": {
						"base": "t_string_storage",
						"encoding": "dynamic_array",
						"label": "string[]",
						"numberOfBytes": "32"
					},
					"t_mapping(t_address,t_array(t_string_storage)dyn_storage)": {
						"encoding": "mapping",
						"key": "t_address",
						"label": "mapping(address => string[])",
						"numberOfBytes": "32",
						"value": "t_array(t_string_storage)dyn_storage"
					},
					"t_string_storage": {
						"encoding": "bytes",
						"label": "string",
						"numberOfBytes": "32"
					}
				}
			},
			"userdoc": {
				"kind": "user",
				"methods": {},
				"version": 1
			}
		}
	}
}