{
	"contracts/twiterwithevents.sol": {
		"Twitter": {
			"abi": [
				{
					"inputs": [],
					"stateMutability": "nonpayable",
					"type": "constructor"
				},
				{
					"anonymous": false,
					"inputs": [
						{
							"indexed": false,
							"internalType": "uint256",
							"name": "id",
							"type": "uint256"
						},
						{
							"indexed": false,
							"internalType": "address",
							"name": "author",
							"type": "address"
						},
						{
							"indexed": false,
							"internalType": "string",
							"name": "content",
							"type": "string"
						},
						{
							"indexed": false,
							"internalType": "uint256",
							"name": "timestamp",
							"type": "uint256"
						}
					],
					"name": "TwitsCreate",
					"type": "event"
				},
				{
					"anonymous": false,
					"inputs": [
						{
							"indexed": false,
							"internalType": "address",
							"name": "liker",
							"type": "address"
						},
						{
							"indexed": false,
							"internalType": "address",
							"name": "author",
							"type": "address"
						},
						{
							"indexed": false,
							"internalType": "uint256",
							"name": "id",
							"type": "uint256"
						},
						{
							"indexed": false,
							"internalType": "uint256",
							"name": "likecount",
							"type": "uint256"
						}
					],
					"name": "TwitsLikes",
					"type": "event"
				},
				{
					"anonymous": false,
					"inputs": [
						{
							"indexed": false,
							"internalType": "address",
							"name": "unliker",
							"type": "address"
						},
						{
							"indexed": false,
							"internalType": "address",
							"name": "author",
							"type": "address"
						},
						{
							"indexed": false,
							"internalType": "uint256",
							"name": "id",
							"type": "uint256"
						},
						{
							"indexed": false,
							"internalType": "uint256",
							"name": "likecount",
							"type": "uint256"
						}
					],
					"name": "TwitsUnlike",
					"type": "event"
				},
				{
					"inputs": [],
					"name": "allTwits",
					"outputs": [
						{
							"components": [
								{
									"internalType": "uint256",
									"name": "id",
									"type": "uint256"
								},
								{
									"internalType": "address",
									"name": "author",
									"type": "address"
								},
								{
									"internalType": "string",
									"name": "content",
									"type": "string"
								},
								{
									"internalType": "uint256",
									"name": "timestamp",
									"type": "uint256"
								},
								{
									"internalType": "uint256",
									"name": "likes",
									"type": "uint256"
								}
							],
							"internalType": "struct Twitter.Twits[]",
							"name": "",
							"type": "tuple[]"
						}
					],
					"stateMutability": "view",
					"type": "function"
				},
				{
					"inputs": [
						{
							"internalType": "string",
							"name": "_content",
							"type": "string"
						}
					],
					"name": "createTwits",
					"outputs": [],
					"stateMutability": "nonpayable",
					"type": "function"
				},
				{
					"inputs": [
						{
							"internalType": "uint256",
							"name": "_id",
							"type": "uint256"
						}
					],
					"name": "getTwits",
					"outputs": [
						{
							"components": [
								{
									"internalType": "uint256",
									"name": "id",
									"type": "uint256"
								},
								{
									"internalType": "address",
									"name": "author",
									"type": "address"
								},
								{
									"internalType": "string",
									"name": "content",
									"type": "string"
								},
								{
									"internalType": "uint256",
									"name": "timestamp",
									"type": "uint256"
								},
								{
									"internalType": "uint256",
									"name": "likes",
									"type": "uint256"
								}
							],
							"internalType": "struct Twitter.Twits",
							"name": "",
							"type": "tuple"
						}
					],
					"stateMutability": "view",
					"type": "function"
				},
				{
					"inputs": [
						{
							"internalType": "address",
							"name": "author",
							"type": "address"
						},
						{
							"internalType": "uint256",
							"name": "_id",
							"type": "uint256"
						}
					],
					"name": "likeTwits",
					"outputs": [],
					"stateMutability": "nonpayable",
					"type": "function"
				},
				{
					"inputs": [],
					"name": "owner",
					"outputs": [
						{
							"internalType": "address",
							"name": "",
							"type": "address"
						}
					],
					"stateMutability": "view",
					"type": "function"
				},
				{
					"inputs": [
						{
							"internalType": "address",
							"name": "",
							"type": "address"
						},
						{
							"internalType": "uint256",
							"name": "",
							"type": "uint256"
						}
					],
					"name": "twitss",
					"outputs": [
						{
							"internalType": "uint256",
							"name": "id",
							"type": "uint256"
						},
						{
							"internalType": "address",
							"name": "author",
							"type": "address"
						},
						{
							"internalType": "string",
							"name": "content",
							"type": "string"
						},
						{
							"internalType": "uint256",
							"name": "timestamp",
							"type": "uint256"
						},
						{
							"internalType": "uint256",
							"name": "likes",
							"type": "uint256"
						}
					],
					"stateMutability": "view",
					"type": "function"
				},
				{
					"inputs": [
						{
							"internalType": "address",
							"name": "author",
							"type": "address"
						},
						{
							"internalType": "uint256",
							"name": "_id",
							"type": "uint256"
						}
					],
					"name": "unlikeTwits",
					"outputs": [],
					"stateMutability": "nonpayable",
					"type": "function"
				}
			],
			"devdoc": {
				"kind": "dev",
				"methods": {},
				"version": 1
			},
			"evm": {
				"assembly": "    /* \"contracts/twiterwithevents.sol\":81:3007  contract Twitter{... */\n  mstore(0x40, 0x80)\n    /* \"contracts/twiterwithevents.sol\":781:827  constructor(){... */\n  callvalue\n  dup1\n  iszero\n  tag_1\n  jumpi\n  0x00\n  dup1\n  revert\ntag_1:\n  pop\n    /* \"contracts/twiterwithevents.sol\":810:820  msg.sender */\n  caller\n    /* \"contracts/twiterwithevents.sol\":804:809  owner */\n  0x01\n  0x00\n    /* \"contracts/twiterwithevents.sol\":804:820  owner=msg.sender */\n  0x0100\n  exp\n  dup2\n  sload\n  dup2\n  0xffffffffffffffffffffffffffffffffffffffff\n  mul\n  not\n  and\n  swap1\n  dup4\n  0xffffffffffffffffffffffffffffffffffffffff\n  and\n  mul\n  or\n  swap1\n  sstore\n  pop\n    /* \"contracts/twiterwithevents.sol\":81:3007  contract Twitter{... */\n  dataSize(sub_0)\n  dup1\n  dataOffset(sub_0)\n  0x00\n  codecopy\n  0x00\n  return\nstop\n\nsub_0: assembly {\n        /* \"contracts/twiterwithevents.sol\":81:3007  contract Twitter{... */\n      mstore(0x40, 0x80)\n      callvalue\n      dup1\n      iszero\n      tag_1\n      jumpi\n      0x00\n      dup1\n      revert\n    tag_1:\n      pop\n      jumpi(tag_2, lt(calldatasize, 0x04))\n      shr(0xe0, calldataload(0x00))\n      dup1\n      0x95a09e96\n      gt\n      tag_10\n      jumpi\n      dup1\n      0x95a09e96\n      eq\n      tag_6\n      jumpi\n      dup1\n      0xcd73e24e\n      eq\n      tag_7\n      jumpi\n      dup1\n      0xda377e24\n      eq\n      tag_8\n      jumpi\n      dup1\n      0xea71429b\n      eq\n      tag_9\n      jumpi\n      jump(tag_2)\n    tag_10:\n      dup1\n      0x1cbf243a\n      eq\n      tag_3\n      jumpi\n      dup1\n      0x8017d930\n      eq\n      tag_4\n      jumpi\n      dup1\n      0x8da5cb5b\n      eq\n      tag_5\n      jumpi\n    tag_2:\n      0x00\n      dup1\n      revert\n        /* \"contracts/twiterwithevents.sol\":2155:2653  function unlikeTwits(address author, uint256 _id) public {... */\n    tag_3:\n      tag_11\n      0x04\n      dup1\n      calldatasize\n      sub\n      dup2\n      add\n      swap1\n      tag_12\n      swap2\n      swap1\n      tag_13\n      jump\t// in\n    tag_12:\n      tag_14\n      jump\t// in\n    tag_11:\n      stop\n        /* \"contracts/twiterwithevents.sol\":2892:3004  function getTwits(uint256 _id) public view returns (Twits memory){... */\n    tag_4:\n      tag_15\n      0x04\n      dup1\n      calldatasize\n      sub\n      dup2\n      add\n      swap1\n      tag_16\n      swap2\n      swap1\n      tag_17\n      jump\t// in\n    tag_16:\n      tag_18\n      jump\t// in\n    tag_15:\n      mload(0x40)\n      tag_19\n      swap2\n      swap1\n      tag_20\n      jump\t// in\n    tag_19:\n      mload(0x40)\n      dup1\n      swap2\n      sub\n      swap1\n      return\n        /* \"contracts/twiterwithevents.sol\":755:775  address public owner */\n    tag_5:\n      tag_21\n      tag_22\n      jump\t// in\n    tag_21:\n      mload(0x40)\n      tag_23\n      swap2\n      swap1\n      tag_24\n      jump\t// in\n    tag_23:\n      mload(0x40)\n      dup1\n      swap2\n      sub\n      swap1\n      return\n        /* \"contracts/twiterwithevents.sol\":1099:1662  function createTwits(string memory _content) public twitsLength(_content){... */\n    tag_6:\n      tag_25\n      0x04\n      dup1\n      calldatasize\n      sub\n      dup2\n      add\n      swap1\n      tag_26\n      swap2\n      swap1\n      tag_27\n      jump\t// in\n    tag_26:\n      tag_28\n      jump\t// in\n    tag_25:\n      stop\n        /* \"contracts/twiterwithevents.sol\":1720:2095  function likeTwits(address author, uint256 _id) public {... */\n    tag_7:\n      tag_29\n      0x04\n      dup1\n      calldatasize\n      sub\n      dup2\n      add\n      swap1\n      tag_30\n      swap2\n      swap1\n      tag_13\n      jump\t// in\n    tag_30:\n      tag_31\n      jump\t// in\n    tag_29:\n      stop\n        /* \"contracts/twiterwithevents.sol\":362:403  mapping(address => Twits[]) public twitss */\n    tag_8:\n      tag_32\n      0x04\n      dup1\n      calldatasize\n      sub\n      dup2\n      add\n      swap1\n      tag_33\n      swap2\n      swap1\n      tag_13\n      jump\t// in\n    tag_33:\n      tag_34\n      jump\t// in\n    tag_32:\n      mload(0x40)\n      tag_35\n      swap6\n      swap5\n      swap4\n      swap3\n      swap2\n      swap1\n      tag_36\n      jump\t// in\n    tag_35:\n      mload(0x40)\n      dup1\n      swap2\n      sub\n      swap1\n      return\n        /* \"contracts/twiterwithevents.sol\":2715:2813  function allTwits() public view returns (Twits[] memory){... */\n    tag_9:\n      tag_37\n      tag_38\n      jump\t// in\n    tag_37:\n      mload(0x40)\n      tag_39\n      swap2\n      swap1\n      tag_40\n      jump\t// in\n    tag_39:\n      mload(0x40)\n      dup1\n      swap2\n      sub\n      swap1\n      return\n        /* \"contracts/twiterwithevents.sol\":2155:2653  function unlikeTwits(address author, uint256 _id) public {... */\n    tag_14:\n        /* \"contracts/twiterwithevents.sol\":2295:2298  _id */\n      dup1\n        /* \"contracts/twiterwithevents.sol\":2269:2275  twitss */\n      0x00\n        /* \"contracts/twiterwithevents.sol\":2269:2283  twitss[author] */\n      dup1\n        /* \"contracts/twiterwithevents.sol\":2276:2282  author */\n      dup5\n        /* \"contracts/twiterwithevents.sol\":2269:2283  twitss[author] */\n      0xffffffffffffffffffffffffffffffffffffffff\n      and\n      0xffffffffffffffffffffffffffffffffffffffff\n      and\n      dup2\n      mstore\n      0x20\n      add\n      swap1\n      dup2\n      mstore\n      0x20\n      add\n      0x00\n      keccak256\n        /* \"contracts/twiterwithevents.sol\":2284:2287  _id */\n      dup3\n        /* \"contracts/twiterwithevents.sol\":2269:2288  twitss[author][_id] */\n      dup2\n      sload\n      dup2\n      lt\n      tag_42\n      jumpi\n      tag_43\n      tag_44\n      jump\t// in\n    tag_43:\n    tag_42:\n      swap1\n      0x00\n      mstore\n      keccak256(0x00, 0x20)\n      swap1\n      0x05\n      mul\n      add\n        /* \"contracts/twiterwithevents.sol\":2269:2291  twitss[author][_id].id */\n      0x00\n      add\n      sload\n        /* \"contracts/twiterwithevents.sol\":2269:2298  twitss[author][_id].id == _id */\n      eq\n        /* \"contracts/twiterwithevents.sol\":2261:2326  require(twitss[author][_id].id == _id,\"The twits is not present\") */\n      tag_46\n      jumpi\n      mload(0x40)\n      0x08c379a000000000000000000000000000000000000000000000000000000000\n      dup2\n      mstore\n      0x04\n      add\n      tag_47\n      swap1\n      tag_48\n      jump\t// in\n    tag_47:\n      mload(0x40)\n      dup1\n      swap2\n      sub\n      swap1\n      revert\n    tag_46:\n        /* \"contracts/twiterwithevents.sol\":2436:2437  0 */\n      0x00\n        /* \"contracts/twiterwithevents.sol\":2408:2414  twitss */\n      dup1\n        /* \"contracts/twiterwithevents.sol\":2408:2422  twitss[author] */\n      0x00\n        /* \"contracts/twiterwithevents.sol\":2415:2421  author */\n      dup5\n        /* \"contracts/twiterwithevents.sol\":2408:2422  twitss[author] */\n      0xffffffffffffffffffffffffffffffffffffffff\n      and\n      0xffffffffffffffffffffffffffffffffffffffff\n      and\n      dup2\n      mstore\n      0x20\n      add\n      swap1\n      dup2\n      mstore\n      0x20\n      add\n      0x00\n      keccak256\n        /* \"contracts/twiterwithevents.sol\":2423:2426  _id */\n      dup3\n        /* \"contracts/twiterwithevents.sol\":2408:2427  twitss[author][_id] */\n      dup2\n      sload\n      dup2\n      lt\n      tag_49\n      jumpi\n      tag_50\n      tag_44\n      jump\t// in\n    tag_50:\n    tag_49:\n      swap1\n      0x00\n      mstore\n      keccak256(0x00, 0x20)\n      swap1\n      0x05\n      mul\n      add\n        /* \"contracts/twiterwithevents.sol\":2408:2433  twitss[author][_id].likes */\n      0x04\n      add\n      sload\n        /* \"contracts/twiterwithevents.sol\":2408:2437  twitss[author][_id].likes > 0 */\n      gt\n        /* \"contracts/twiterwithevents.sol\":2400:2483  require(twitss[author][_id].likes > 0 ,\"some thing went wrong in the unlike twits\") */\n      tag_52\n      jumpi\n      mload(0x40)\n      0x08c379a000000000000000000000000000000000000000000000000000000000\n      dup2\n      mstore\n      0x04\n      add\n      tag_53\n      swap1\n      tag_54\n      jump\t// in\n    tag_53:\n      mload(0x40)\n      dup1\n      swap2\n      sub\n      swap1\n      revert\n    tag_52:\n        /* \"contracts/twiterwithevents.sol\":2493:2499  twitss */\n      0x00\n        /* \"contracts/twiterwithevents.sol\":2493:2507  twitss[author] */\n      dup1\n        /* \"contracts/twiterwithevents.sol\":2500:2506  author */\n      dup4\n        /* \"contracts/twiterwithevents.sol\":2493:2507  twitss[author] */\n      0xffffffffffffffffffffffffffffffffffffffff\n      and\n      0xffffffffffffffffffffffffffffffffffffffff\n      and\n      dup2\n      mstore\n      0x20\n      add\n      swap1\n      dup2\n      mstore\n      0x20\n      add\n      0x00\n      keccak256\n        /* \"contracts/twiterwithevents.sol\":2508:2511  _id */\n      dup2\n        /* \"contracts/twiterwithevents.sol\":2493:2512  twitss[author][_id] */\n      dup2\n      sload\n      dup2\n      lt\n      tag_55\n      jumpi\n      tag_56\n      tag_44\n      jump\t// in\n    tag_56:\n    tag_55:\n      swap1\n      0x00\n      mstore\n      keccak256(0x00, 0x20)\n      swap1\n      0x05\n      mul\n      add\n        /* \"contracts/twiterwithevents.sol\":2493:2518  twitss[author][_id].likes */\n      0x04\n      add\n      0x00\n        /* \"contracts/twiterwithevents.sol\":2493:2520  twitss[author][_id].likes-- */\n      dup2\n      sload\n      dup1\n      swap3\n      swap2\n      swap1\n      tag_58\n      swap1\n      tag_59\n      jump\t// in\n    tag_58:\n      swap2\n      swap1\n      pop\n      sstore\n      pop\n        /* \"contracts/twiterwithevents.sol\":2583:2646  TwitsUnlike(msg.sender, author, _id, twitss[author][_id].likes) */\n      0x7f48d70c9d7a7277ade15a005f8fc2924ee37e89b60c8bf735d1d6144de83d9c\n        /* \"contracts/twiterwithevents.sol\":2595:2605  msg.sender */\n      caller\n        /* \"contracts/twiterwithevents.sol\":2607:2613  author */\n      dup4\n        /* \"contracts/twiterwithevents.sol\":2615:2618  _id */\n      dup4\n        /* \"contracts/twiterwithevents.sol\":2620:2626  twitss */\n      0x00\n        /* \"contracts/twiterwithevents.sol\":2620:2634  twitss[author] */\n      dup1\n        /* \"contracts/twiterwithevents.sol\":2627:2633  author */\n      dup8\n        /* \"contracts/twiterwithevents.sol\":2620:2634  twitss[author] */\n      0xffffffffffffffffffffffffffffffffffffffff\n      and\n      0xffffffffffffffffffffffffffffffffffffffff\n      and\n      dup2\n      mstore\n      0x20\n      add\n      swap1\n      dup2\n      mstore\n      0x20\n      add\n      0x00\n      keccak256\n        /* \"contracts/twiterwithevents.sol\":2635:2638  _id */\n      dup6\n        /* \"contracts/twiterwithevents.sol\":2620:2639  twitss[author][_id] */\n      dup2\n      sload\n      dup2\n      lt\n      tag_60\n      jumpi\n      tag_61\n      tag_44\n      jump\t// in\n    tag_61:\n    tag_60:\n      swap1\n      0x00\n      mstore\n      keccak256(0x00, 0x20)\n      swap1\n      0x05\n      mul\n      add\n        /* \"contracts/twiterwithevents.sol\":2620:2645  twitss[author][_id].likes */\n      0x04\n      add\n      sload\n        /* \"contracts/twiterwithevents.sol\":2583:2646  TwitsUnlike(msg.sender, author, _id, twitss[author][_id].likes) */\n      mload(0x40)\n      tag_63\n      swap5\n      swap4\n      swap3\n      swap2\n      swap1\n      tag_64\n      jump\t// in\n    tag_63:\n      mload(0x40)\n      dup1\n      swap2\n      sub\n      swap1\n      log1\n        /* \"contracts/twiterwithevents.sol\":2155:2653  function unlikeTwits(address author, uint256 _id) public {... */\n      pop\n      pop\n      jump\t// out\n        /* \"contracts/twiterwithevents.sol\":2892:3004  function getTwits(uint256 _id) public view returns (Twits memory){... */\n    tag_18:\n        /* \"contracts/twiterwithevents.sol\":2944:2956  Twits memory */\n      tag_65\n      tag_66\n      jump\t// in\n    tag_65:\n        /* \"contracts/twiterwithevents.sol\":2974:2980  twitss */\n      0x00\n        /* \"contracts/twiterwithevents.sol\":2974:2992  twitss[msg.sender] */\n      dup1\n        /* \"contracts/twiterwithevents.sol\":2981:2991  msg.sender */\n      caller\n        /* \"contracts/twiterwithevents.sol\":2974:2992  twitss[msg.sender] */\n      0xffffffffffffffffffffffffffffffffffffffff\n      and\n      0xffffffffffffffffffffffffffffffffffffffff\n      and\n      dup2\n      mstore\n      0x20\n      add\n      swap1\n      dup2\n      mstore\n      0x20\n      add\n      0x00\n      keccak256\n        /* \"contracts/twiterwithevents.sol\":2993:2996  _id */\n      dup3\n        /* \"contracts/twiterwithevents.sol\":2974:2997  twitss[msg.sender][_id] */\n      dup2\n      sload\n      dup2\n      lt\n      tag_68\n      jumpi\n      tag_69\n      tag_44\n      jump\t// in\n    tag_69:\n    tag_68:\n      swap1\n      0x00\n      mstore\n      keccak256(0x00, 0x20)\n      swap1\n      0x05\n      mul\n      add\n        /* \"contracts/twiterwithevents.sol\":2967:2997  return twitss[msg.sender][_id] */\n      mload(0x40)\n      dup1\n      0xa0\n      add\n      0x40\n      mstore\n      swap1\n      dup2\n      0x00\n      dup3\n      add\n      sload\n      dup2\n      mstore\n      0x20\n      add\n      0x01\n      dup3\n      add\n      0x00\n      swap1\n      sload\n      swap1\n      0x0100\n      exp\n      swap1\n      div\n      0xffffffffffffffffffffffffffffffffffffffff\n      and\n      0xffffffffffffffffffffffffffffffffffffffff\n      and\n      0xffffffffffffffffffffffffffffffffffffffff\n      and\n      dup2\n      mstore\n      0x20\n      add\n      0x02\n      dup3\n      add\n      dup1\n      sload\n      tag_71\n      swap1\n      tag_72\n      jump\t// in\n    tag_71:\n      dup1\n      0x1f\n      add\n      0x20\n      dup1\n      swap2\n      div\n      mul\n      0x20\n      add\n      mload(0x40)\n      swap1\n      dup2\n      add\n      0x40\n      mstore\n      dup1\n      swap3\n      swap2\n      swap1\n      dup2\n      dup2\n      mstore\n      0x20\n      add\n      dup3\n      dup1\n      sload\n      tag_73\n      swap1\n      tag_72\n      jump\t// in\n    tag_73:\n      dup1\n      iszero\n      tag_74\n      jumpi\n      dup1\n      0x1f\n      lt\n      tag_75\n      jumpi\n      0x0100\n      dup1\n      dup4\n      sload\n      div\n      mul\n      dup4\n      mstore\n      swap2\n      0x20\n      add\n      swap2\n      jump(tag_74)\n    tag_75:\n      dup3\n      add\n      swap2\n      swap1\n      0x00\n      mstore\n      keccak256(0x00, 0x20)\n      swap1\n    tag_76:\n      dup2\n      sload\n      dup2\n      mstore\n      swap1\n      0x01\n      add\n      swap1\n      0x20\n      add\n      dup1\n      dup4\n      gt\n      tag_76\n      jumpi\n      dup3\n      swap1\n      sub\n      0x1f\n      and\n      dup3\n      add\n      swap2\n    tag_74:\n      pop\n      pop\n      pop\n      pop\n      pop\n      dup2\n      mstore\n      0x20\n      add\n      0x03\n      dup3\n      add\n      sload\n      dup2\n      mstore\n      0x20\n      add\n      0x04\n      dup3\n      add\n      sload\n      dup2\n      mstore\n      pop\n      pop\n      swap1\n      pop\n        /* \"contracts/twiterwithevents.sol\":2892:3004  function getTwits(uint256 _id) public view returns (Twits memory){... */\n      swap2\n      swap1\n      pop\n      jump\t// out\n        /* \"contracts/twiterwithevents.sol\":755:775  address public owner */\n    tag_22:\n      0x01\n      0x00\n      swap1\n      sload\n      swap1\n      0x0100\n      exp\n      swap1\n      div\n      0xffffffffffffffffffffffffffffffffffffffff\n      and\n      dup2\n      jump\t// out\n        /* \"contracts/twiterwithevents.sol\":1099:1662  function createTwits(string memory _content) public twitsLength(_content){... */\n    tag_28:\n        /* \"contracts/twiterwithevents.sol\":1163:1171  _content */\n      dup1\n        /* \"contracts/twiterwithevents.sol\":989:992  300 */\n      0x012c\n        /* \"contracts/twiterwithevents.sol\":969:977  _content */\n      dup2\n        /* \"contracts/twiterwithevents.sol\":963:985  bytes(_content).length */\n      mload\n        /* \"contracts/twiterwithevents.sol\":963:992  bytes(_content).length <= 300 */\n      gt\n      iszero\n        /* \"contracts/twiterwithevents.sol\":955:1021  require(bytes(_content).length <= 300,\"The twits is too long bro\") */\n      tag_78\n      jumpi\n      mload(0x40)\n      0x08c379a000000000000000000000000000000000000000000000000000000000\n      dup2\n      mstore\n      0x04\n      add\n      tag_79\n      swap1\n      tag_80\n      jump\t// in\n    tag_79:\n      mload(0x40)\n      dup1\n      swap2\n      sub\n      swap1\n      revert\n    tag_78:\n        /* \"contracts/twiterwithevents.sol\":1182:1211  Twits memory newcontentobject */\n      0x00\n        /* \"contracts/twiterwithevents.sol\":1214:1400  Twits({... */\n      mload(0x40)\n      dup1\n      0xa0\n      add\n      0x40\n      mstore\n      dup1\n        /* \"contracts/twiterwithevents.sol\":1238:1244  twitss */\n      0x00\n        /* \"contracts/twiterwithevents.sol\":1238:1256  twitss[msg.sender] */\n      dup1\n        /* \"contracts/twiterwithevents.sol\":1245:1255  msg.sender */\n      caller\n        /* \"contracts/twiterwithevents.sol\":1238:1256  twitss[msg.sender] */\n      0xffffffffffffffffffffffffffffffffffffffff\n      and\n      0xffffffffffffffffffffffffffffffffffffffff\n      and\n      dup2\n      mstore\n      0x20\n      add\n      swap1\n      dup2\n      mstore\n      0x20\n      add\n      0x00\n      keccak256\n        /* \"contracts/twiterwithevents.sol\":1238:1263  twitss[msg.sender].length */\n      dup1\n      sload\n      swap1\n      pop\n        /* \"contracts/twiterwithevents.sol\":1214:1400  Twits({... */\n      dup2\n      mstore\n      0x20\n      add\n        /* \"contracts/twiterwithevents.sol\":1285:1295  msg.sender */\n      caller\n        /* \"contracts/twiterwithevents.sol\":1214:1400  Twits({... */\n      0xffffffffffffffffffffffffffffffffffffffff\n      and\n      dup2\n      mstore\n      0x20\n      add\n        /* \"contracts/twiterwithevents.sol\":1318:1326  _content */\n      dup5\n        /* \"contracts/twiterwithevents.sol\":1214:1400  Twits({... */\n      dup2\n      mstore\n      0x20\n      add\n        /* \"contracts/twiterwithevents.sol\":1351:1366  block.timestamp */\n      timestamp\n        /* \"contracts/twiterwithevents.sol\":1214:1400  Twits({... */\n      dup2\n      mstore\n      0x20\n      add\n        /* \"contracts/twiterwithevents.sol\":1387:1388  0 */\n      0x00\n        /* \"contracts/twiterwithevents.sol\":1214:1400  Twits({... */\n      dup2\n      mstore\n      pop\n        /* \"contracts/twiterwithevents.sol\":1182:1400  Twits memory newcontentobject = Twits({... */\n      swap1\n      pop\n        /* \"contracts/twiterwithevents.sol\":1410:1416  twitss */\n      0x00\n        /* \"contracts/twiterwithevents.sol\":1410:1428  twitss[msg.sender] */\n      dup1\n        /* \"contracts/twiterwithevents.sol\":1417:1427  msg.sender */\n      caller\n        /* \"contracts/twiterwithevents.sol\":1410:1428  twitss[msg.sender] */\n      0xffffffffffffffffffffffffffffffffffffffff\n      and\n      0xffffffffffffffffffffffffffffffffffffffff\n      and\n      dup2\n      mstore\n      0x20\n      add\n      swap1\n      dup2\n      mstore\n      0x20\n      add\n      0x00\n      keccak256\n        /* \"contracts/twiterwithevents.sol\":1434:1450  newcontentobject */\n      dup2\n        /* \"contracts/twiterwithevents.sol\":1410:1451  twitss[msg.sender].push(newcontentobject) */\n      swap1\n      dup1\n      0x01\n      dup2\n      sload\n      add\n      dup1\n      dup3\n      sstore\n      dup1\n      swap2\n      pop\n      pop\n      0x01\n      swap1\n      sub\n      swap1\n      0x00\n      mstore\n      keccak256(0x00, 0x20)\n      swap1\n      0x05\n      mul\n      add\n      0x00\n      swap1\n      swap2\n      swap1\n      swap2\n      swap1\n      swap2\n      pop\n      0x00\n      dup3\n      add\n      mload\n      dup2\n      0x00\n      add\n      sstore\n      0x20\n      dup3\n      add\n      mload\n      dup2\n      0x01\n      add\n      exp(0x0100, 0x00)\n      dup2\n      sload\n      dup2\n      0xffffffffffffffffffffffffffffffffffffffff\n      mul\n      not\n      and\n      swap1\n      dup4\n      0xffffffffffffffffffffffffffffffffffffffff\n      and\n      mul\n      or\n      swap1\n      sstore\n      pop\n      0x40\n      dup3\n      add\n      mload\n      dup2\n      0x02\n      add\n      swap1\n      dup2\n      tag_83\n      swap2\n      swap1\n      tag_84\n      jump\t// in\n    tag_83:\n      pop\n      0x60\n      dup3\n      add\n      mload\n      dup2\n      0x03\n      add\n      sstore\n      0x80\n      dup3\n      add\n      mload\n      dup2\n      0x04\n      add\n      sstore\n      pop\n      pop\n        /* \"contracts/twiterwithevents.sol\":1544:1655  TwitsCreate(newcontentobject.id, newcontentobject.author, newcontentobject.content, newcontentobject.timestamp) */\n      0x510a64ebf04a5b02533d3c548213b88682eeb19af482f30d80a1c22f1c25b269\n        /* \"contracts/twiterwithevents.sol\":1556:1572  newcontentobject */\n      dup2\n        /* \"contracts/twiterwithevents.sol\":1556:1575  newcontentobject.id */\n      0x00\n      add\n      mload\n        /* \"contracts/twiterwithevents.sol\":1577:1593  newcontentobject */\n      dup3\n        /* \"contracts/twiterwithevents.sol\":1577:1600  newcontentobject.author */\n      0x20\n      add\n      mload\n        /* \"contracts/twiterwithevents.sol\":1602:1618  newcontentobject */\n      dup4\n        /* \"contracts/twiterwithevents.sol\":1602:1626  newcontentobject.content */\n      0x40\n      add\n      mload\n        /* \"contracts/twiterwithevents.sol\":1628:1644  newcontentobject */\n      dup5\n        /* \"contracts/twiterwithevents.sol\":1628:1654  newcontentobject.timestamp */\n      0x60\n      add\n      mload\n        /* \"contracts/twiterwithevents.sol\":1544:1655  TwitsCreate(newcontentobject.id, newcontentobject.author, newcontentobject.content, newcontentobject.timestamp) */\n      mload(0x40)\n      tag_85\n      swap5\n      swap4\n      swap3\n      swap2\n      swap1\n      tag_86\n      jump\t// in\n    tag_85:\n      mload(0x40)\n      dup1\n      swap2\n      sub\n      swap1\n      log1\n        /* \"contracts/twiterwithevents.sol\":1172:1662  {... */\n      pop\n        /* \"contracts/twiterwithevents.sol\":1099:1662  function createTwits(string memory _content) public twitsLength(_content){... */\n      pop\n      pop\n      jump\t// out\n        /* \"contracts/twiterwithevents.sol\":1720:2095  function likeTwits(address author, uint256 _id) public {... */\n    tag_31:\n        /* \"contracts/twiterwithevents.sol\":1874:1877  _id */\n      dup1\n        /* \"contracts/twiterwithevents.sol\":1848:1854  twitss */\n      0x00\n        /* \"contracts/twiterwithevents.sol\":1848:1862  twitss[author] */\n      dup1\n        /* \"contracts/twiterwithevents.sol\":1855:1861  author */\n      dup5\n        /* \"contracts/twiterwithevents.sol\":1848:1862  twitss[author] */\n      0xffffffffffffffffffffffffffffffffffffffff\n      and\n      0xffffffffffffffffffffffffffffffffffffffff\n      and\n      dup2\n      mstore\n      0x20\n      add\n      swap1\n      dup2\n      mstore\n      0x20\n      add\n      0x00\n      keccak256\n        /* \"contracts/twiterwithevents.sol\":1863:1866  _id */\n      dup3\n        /* \"contracts/twiterwithevents.sol\":1848:1867  twitss[author][_id] */\n      dup2\n      sload\n      dup2\n      lt\n      tag_88\n      jumpi\n      tag_89\n      tag_44\n      jump\t// in\n    tag_89:\n    tag_88:\n      swap1\n      0x00\n      mstore\n      keccak256(0x00, 0x20)\n      swap1\n      0x05\n      mul\n      add\n        /* \"contracts/twiterwithevents.sol\":1848:1870  twitss[author][_id].id */\n      0x00\n      add\n      sload\n        /* \"contracts/twiterwithevents.sol\":1848:1877  twitss[author][_id].id == _id */\n      eq\n        /* \"contracts/twiterwithevents.sol\":1840:1905  require(twitss[author][_id].id == _id,\"The twits is not present\") */\n      tag_91\n      jumpi\n      mload(0x40)\n      0x08c379a000000000000000000000000000000000000000000000000000000000\n      dup2\n      mstore\n      0x04\n      add\n      tag_92\n      swap1\n      tag_48\n      jump\t// in\n    tag_92:\n      mload(0x40)\n      dup1\n      swap2\n      sub\n      swap1\n      revert\n    tag_91:\n        /* \"contracts/twiterwithevents.sol\":1915:1921  twitss */\n      0x00\n        /* \"contracts/twiterwithevents.sol\":1915:1929  twitss[author] */\n      dup1\n        /* \"contracts/twiterwithevents.sol\":1922:1928  author */\n      dup4\n        /* \"contracts/twiterwithevents.sol\":1915:1929  twitss[author] */\n      0xffffffffffffffffffffffffffffffffffffffff\n      and\n      0xffffffffffffffffffffffffffffffffffffffff\n      and\n      dup2\n      mstore\n      0x20\n      add\n      swap1\n      dup2\n      mstore\n      0x20\n      add\n      0x00\n      keccak256\n        /* \"contracts/twiterwithevents.sol\":1930:1933  _id */\n      dup2\n        /* \"contracts/twiterwithevents.sol\":1915:1934  twitss[author][_id] */\n      dup2\n      sload\n      dup2\n      lt\n      tag_93\n      jumpi\n      tag_94\n      tag_44\n      jump\t// in\n    tag_94:\n    tag_93:\n      swap1\n      0x00\n      mstore\n      keccak256(0x00, 0x20)\n      swap1\n      0x05\n      mul\n      add\n        /* \"contracts/twiterwithevents.sol\":1915:1940  twitss[author][_id].likes */\n      0x04\n      add\n      0x00\n        /* \"contracts/twiterwithevents.sol\":1915:1942  twitss[author][_id].likes++ */\n      dup2\n      sload\n      dup1\n      swap3\n      swap2\n      swap1\n      tag_96\n      swap1\n      tag_97\n      jump\t// in\n    tag_96:\n      swap2\n      swap1\n      pop\n      sstore\n      pop\n        /* \"contracts/twiterwithevents.sol\":2026:2088  TwitsLikes(msg.sender, author, _id, twitss[author][_id].likes) */\n      0x367f13736a368eb50e2b247609d9119d23d59292fe875534a6627120512b233f\n        /* \"contracts/twiterwithevents.sol\":2037:2047  msg.sender */\n      caller\n        /* \"contracts/twiterwithevents.sol\":2049:2055  author */\n      dup4\n        /* \"contracts/twiterwithevents.sol\":2057:2060  _id */\n      dup4\n        /* \"contracts/twiterwithevents.sol\":2062:2068  twitss */\n      0x00\n        /* \"contracts/twiterwithevents.sol\":2062:2076  twitss[author] */\n      dup1\n        /* \"contracts/twiterwithevents.sol\":2069:2075  author */\n      dup8\n        /* \"contracts/twiterwithevents.sol\":2062:2076  twitss[author] */\n      0xffffffffffffffffffffffffffffffffffffffff\n      and\n      0xffffffffffffffffffffffffffffffffffffffff\n      and\n      dup2\n      mstore\n      0x20\n      add\n      swap1\n      dup2\n      mstore\n      0x20\n      add\n      0x00\n      keccak256\n        /* \"contracts/twiterwithevents.sol\":2077:2080  _id */\n      dup6\n        /* \"contracts/twiterwithevents.sol\":2062:2081  twitss[author][_id] */\n      dup2\n      sload\n      dup2\n      lt\n      tag_98\n      jumpi\n      tag_99\n      tag_44\n      jump\t// in\n    tag_99:\n    tag_98:\n      swap1\n      0x00\n      mstore\n      keccak256(0x00, 0x20)\n      swap1\n      0x05\n      mul\n      add\n        /* \"contracts/twiterwithevents.sol\":2062:2087  twitss[author][_id].likes */\n      0x04\n      add\n      sload\n        /* \"contracts/twiterwithevents.sol\":2026:2088  TwitsLikes(msg.sender, author, _id, twitss[author][_id].likes) */\n      mload(0x40)\n      tag_101\n      swap5\n      swap4\n      swap3\n      swap2\n      swap1\n      tag_64\n      jump\t// in\n    tag_101:\n      mload(0x40)\n      dup1\n      swap2\n      sub\n      swap1\n      log1\n        /* \"contracts/twiterwithevents.sol\":1720:2095  function likeTwits(address author, uint256 _id) public {... */\n      pop\n      pop\n      jump\t// out\n        /* \"contracts/twiterwithevents.sol\":362:403  mapping(address => Twits[]) public twitss */\n    tag_34:\n      mstore(0x20, 0x00)\n      dup2\n      0x00\n      mstore\n      keccak256(0x00, 0x40)\n      dup2\n      dup2\n      sload\n      dup2\n      lt\n      tag_102\n      jumpi\n      0x00\n      dup1\n      revert\n    tag_102:\n      swap1\n      0x00\n      mstore\n      keccak256(0x00, 0x20)\n      swap1\n      0x05\n      mul\n      add\n      0x00\n      swap2\n      pop\n      swap2\n      pop\n      pop\n      dup1\n      0x00\n      add\n      sload\n      swap1\n      dup1\n      0x01\n      add\n      0x00\n      swap1\n      sload\n      swap1\n      0x0100\n      exp\n      swap1\n      div\n      0xffffffffffffffffffffffffffffffffffffffff\n      and\n      swap1\n      dup1\n      0x02\n      add\n      dup1\n      sload\n      tag_104\n      swap1\n      tag_72\n      jump\t// in\n    tag_104:\n      dup1\n      0x1f\n      add\n      0x20\n      dup1\n      swap2\n      div\n      mul\n      0x20\n      add\n      mload(0x40)\n      swap1\n      dup2\n      add\n      0x40\n      mstore\n      dup1\n      swap3\n      swap2\n      swap1\n      dup2\n      dup2\n      mstore\n      0x20\n      add\n      dup3\n      dup1\n      sload\n      tag_105\n      swap1\n      tag_72\n      jump\t// in\n    tag_105:\n      dup1\n      iszero\n      tag_106\n      jumpi\n      dup1\n      0x1f\n      lt\n      tag_107\n      jumpi\n      0x0100\n      dup1\n      dup4\n      sload\n      div\n      mul\n      dup4\n      mstore\n      swap2\n      0x20\n      add\n      swap2\n      jump(tag_106)\n    tag_107:\n      dup3\n      add\n      swap2\n      swap1\n      0x00\n      mstore\n      keccak256(0x00, 0x20)\n      swap1\n    tag_108:\n      dup2\n      sload\n      dup2\n      mstore\n      swap1\n      0x01\n      add\n      swap1\n      0x20\n      add\n      dup1\n      dup4\n      gt\n      tag_108\n      jumpi\n      dup3\n      swap1\n      sub\n      0x1f\n      and\n      dup3\n      add\n      swap2\n    tag_106:\n      pop\n      pop\n      pop\n      pop\n      pop\n      swap1\n      dup1\n      0x03\n      add\n      sload\n      swap1\n      dup1\n      0x04\n      add\n      sload\n      swap1\n      pop\n      dup6\n      jump\t// out\n        /* \"contracts/twiterwithevents.sol\":2715:2813  function allTwits() public view returns (Twits[] memory){... */\n    tag_38:\n        /* \"contracts/twiterwithevents.sol\":2756:2770  Twits[] memory */\n      0x60\n        /* \"contracts/twiterwithevents.sol\":2788:2794  twitss */\n      0x00\n        /* \"contracts/twiterwithevents.sol\":2788:2806  twitss[msg.sender] */\n      dup1\n        /* \"contracts/twiterwithevents.sol\":2795:2805  msg.sender */\n      caller\n        /* \"contracts/twiterwithevents.sol\":2788:2806  twitss[msg.sender] */\n      0xffffffffffffffffffffffffffffffffffffffff\n      and\n      0xffffffffffffffffffffffffffffffffffffffff\n      and\n      dup2\n      mstore\n      0x20\n      add\n      swap1\n      dup2\n      mstore\n      0x20\n      add\n      0x00\n      keccak256\n        /* \"contracts/twiterwithevents.sol\":2781:2806  return twitss[msg.sender] */\n      dup1\n      sload\n      dup1\n      0x20\n      mul\n      0x20\n      add\n      mload(0x40)\n      swap1\n      dup2\n      add\n      0x40\n      mstore\n      dup1\n      swap3\n      swap2\n      swap1\n      dup2\n      dup2\n      mstore\n      0x20\n      add\n      0x00\n      swap1\n    tag_110:\n      dup3\n      dup3\n      lt\n      iszero\n      tag_111\n      jumpi\n      dup4\n      dup3\n      swap1\n      0x00\n      mstore\n      keccak256(0x00, 0x20)\n      swap1\n      0x05\n      mul\n      add\n      mload(0x40)\n      dup1\n      0xa0\n      add\n      0x40\n      mstore\n      swap1\n      dup2\n      0x00\n      dup3\n      add\n      sload\n      dup2\n      mstore\n      0x20\n      add\n      0x01\n      dup3\n      add\n      0x00\n      swap1\n      sload\n      swap1\n      0x0100\n      exp\n      swap1\n      div\n      0xffffffffffffffffffffffffffffffffffffffff\n      and\n      0xffffffffffffffffffffffffffffffffffffffff\n      and\n      0xffffffffffffffffffffffffffffffffffffffff\n      and\n      dup2\n      mstore\n      0x20\n      add\n      0x02\n      dup3\n      add\n      dup1\n      sload\n      tag_113\n      swap1\n      tag_72\n      jump\t// in\n    tag_113:\n      dup1\n      0x1f\n      add\n      0x20\n      dup1\n      swap2\n      div\n      mul\n      0x20\n      add\n      mload(0x40)\n      swap1\n      dup2\n      add\n      0x40\n      mstore\n      dup1\n      swap3\n      swap2\n      swap1\n      dup2\n      dup2\n      mstore\n      0x20\n      add\n      dup3\n      dup1\n      sload\n      tag_114\n      swap1\n      tag_72\n      jump\t// in\n    tag_114:\n      dup1\n      iszero\n      tag_115\n      jumpi\n      dup1\n      0x1f\n      lt\n      tag_116\n      jumpi\n      0x0100\n      dup1\n      dup4\n      sload\n      div\n      mul\n      dup4\n      mstore\n      swap2\n      0x20\n      add\n      swap2\n      jump(tag_115)\n    tag_116:\n      dup3\n      add\n      swap2\n      swap1\n      0x00\n      mstore\n      keccak256(0x00, 0x20)\n      swap1\n    tag_117:\n      dup2\n      sload\n      dup2\n      mstore\n      swap1\n      0x01\n      add\n      swap1\n      0x20\n      add\n      dup1\n      dup4\n      gt\n      tag_117\n      jumpi\n      dup3\n      swap1\n      sub\n      0x1f\n      and\n      dup3\n      add\n      swap2\n    tag_115:\n      pop\n      pop\n      pop\n      pop\n      pop\n      dup2\n      mstore\n      0x20\n      add\n      0x03\n      dup3\n      add\n      sload\n      dup2\n      mstore\n      0x20\n      add\n      0x04\n      dup3\n      add\n      sload\n      dup2\n      mstore\n      pop\n      pop\n      dup2\n      mstore\n      0x20\n      add\n      swap1\n      0x01\n      add\n      swap1\n      jump(tag_110)\n    tag_111:\n      pop\n      pop\n      pop\n      pop\n      swap1\n      pop\n        /* \"contracts/twiterwithevents.sol\":2715:2813  function allTwits() public view returns (Twits[] memory){... */\n      swap1\n      jump\t// out\n    tag_66:\n      mload(0x40)\n      dup1\n      0xa0\n      add\n      0x40\n      mstore\n      dup1\n      0x00\n      dup2\n      mstore\n      0x20\n      add\n      and(0xffffffffffffffffffffffffffffffffffffffff, 0x00)\n      dup2\n      mstore\n      0x20\n      add\n      0x60\n      dup2\n      mstore\n      0x20\n      add\n      0x00\n      dup2\n      mstore\n      0x20\n      add\n      0x00\n      dup2\n      mstore\n      pop\n      swap1\n      jump\t// out\n        /* \"#utility.yul\":7:82   */\n    tag_118:\n        /* \"#utility.yul\":40:46   */\n      0x00\n        /* \"#utility.yul\":73:75   */\n      0x40\n        /* \"#utility.yul\":67:76   */\n      mload\n        /* \"#utility.yul\":57:76   */\n      swap1\n      pop\n        /* \"#utility.yul\":7:82   */\n      swap1\n      jump\t// out\n        /* \"#utility.yul\":88:205   */\n    tag_119:\n        /* \"#utility.yul\":197:198   */\n      0x00\n        /* \"#utility.yul\":194:195   */\n      dup1\n        /* \"#utility.yul\":187:199   */\n      revert\n        /* \"#utility.yul\":211:328   */\n    tag_120:\n        /* \"#utility.yul\":320:321   */\n      0x00\n        /* \"#utility.yul\":317:318   */\n      dup1\n        /* \"#utility.yul\":310:322   */\n      revert\n        /* \"#utility.yul\":334:460   */\n    tag_121:\n        /* \"#utility.yul\":371:378   */\n      0x00\n        /* \"#utility.yul\":411:453   */\n      0xffffffffffffffffffffffffffffffffffffffff\n        /* \"#utility.yul\":404:409   */\n      dup3\n        /* \"#utility.yul\":400:454   */\n      and\n        /* \"#utility.yul\":389:454   */\n      swap1\n      pop\n        /* \"#utility.yul\":334:460   */\n      swap2\n      swap1\n      pop\n      jump\t// out\n        /* \"#utility.yul\":466:562   */\n    tag_122:\n        /* \"#utility.yul\":503:510   */\n      0x00\n        /* \"#utility.yul\":532:556   */\n      tag_185\n        /* \"#utility.yul\":550:555   */\n      dup3\n        /* \"#utility.yul\":532:556   */\n      tag_121\n      jump\t// in\n    tag_185:\n        /* \"#utility.yul\":521:556   */\n      swap1\n      pop\n        /* \"#utility.yul\":466:562   */\n      swap2\n      swap1\n      pop\n      jump\t// out\n        /* \"#utility.yul\":568:690   */\n    tag_123:\n        /* \"#utility.yul\":641:665   */\n      tag_187\n        /* \"#utility.yul\":659:664   */\n      dup2\n        /* \"#utility.yul\":641:665   */\n      tag_122\n      jump\t// in\n    tag_187:\n        /* \"#utility.yul\":634:639   */\n      dup2\n        /* \"#utility.yul\":631:666   */\n      eq\n        /* \"#utility.yul\":621:684   */\n      tag_188\n      jumpi\n        /* \"#utility.yul\":680:681   */\n      0x00\n        /* \"#utility.yul\":677:678   */\n      dup1\n        /* \"#utility.yul\":670:682   */\n      revert\n        /* \"#utility.yul\":621:684   */\n    tag_188:\n        /* \"#utility.yul\":568:690   */\n      pop\n      jump\t// out\n        /* \"#utility.yul\":696:835   */\n    tag_124:\n        /* \"#utility.yul\":742:747   */\n      0x00\n        /* \"#utility.yul\":780:786   */\n      dup2\n        /* \"#utility.yul\":767:787   */\n      calldataload\n        /* \"#utility.yul\":758:787   */\n      swap1\n      pop\n        /* \"#utility.yul\":796:829   */\n      tag_190\n        /* \"#utility.yul\":823:828   */\n      dup2\n        /* \"#utility.yul\":796:829   */\n      tag_123\n      jump\t// in\n    tag_190:\n        /* \"#utility.yul\":696:835   */\n      swap3\n      swap2\n      pop\n      pop\n      jump\t// out\n        /* \"#utility.yul\":841:918   */\n    tag_125:\n        /* \"#utility.yul\":878:885   */\n      0x00\n        /* \"#utility.yul\":907:912   */\n      dup2\n        /* \"#utility.yul\":896:912   */\n      swap1\n      pop\n        /* \"#utility.yul\":841:918   */\n      swap2\n      swap1\n      pop\n      jump\t// out\n        /* \"#utility.yul\":924:1046   */\n    tag_126:\n        /* \"#utility.yul\":997:1021   */\n      tag_193\n        /* \"#utility.yul\":1015:1020   */\n      dup2\n        /* \"#utility.yul\":997:1021   */\n      tag_125\n      jump\t// in\n    tag_193:\n        /* \"#utility.yul\":990:995   */\n      dup2\n        /* \"#utility.yul\":987:1022   */\n      eq\n        /* \"#utility.yul\":977:1040   */\n      tag_194\n      jumpi\n        /* \"#utility.yul\":1036:1037   */\n      0x00\n        /* \"#utility.yul\":1033:1034   */\n      dup1\n        /* \"#utility.yul\":1026:1038   */\n      revert\n        /* \"#utility.yul\":977:1040   */\n    tag_194:\n        /* \"#utility.yul\":924:1046   */\n      pop\n      jump\t// out\n        /* \"#utility.yul\":1052:1191   */\n    tag_127:\n        /* \"#utility.yul\":1098:1103   */\n      0x00\n        /* \"#utility.yul\":1136:1142   */\n      dup2\n        /* \"#utility.yul\":1123:1143   */\n      calldataload\n        /* \"#utility.yul\":1114:1143   */\n      swap1\n      pop\n        /* \"#utility.yul\":1152:1185   */\n      tag_196\n        /* \"#utility.yul\":1179:1184   */\n      dup2\n        /* \"#utility.yul\":1152:1185   */\n      tag_126\n      jump\t// in\n    tag_196:\n        /* \"#utility.yul\":1052:1191   */\n      swap3\n      swap2\n      pop\n      pop\n      jump\t// out\n        /* \"#utility.yul\":1197:1671   */\n    tag_13:\n        /* \"#utility.yul\":1265:1271   */\n      0x00\n        /* \"#utility.yul\":1273:1279   */\n      dup1\n        /* \"#utility.yul\":1322:1324   */\n      0x40\n        /* \"#utility.yul\":1310:1319   */\n      dup4\n        /* \"#utility.yul\":1301:1308   */\n      dup6\n        /* \"#utility.yul\":1297:1320   */\n      sub\n        /* \"#utility.yul\":1293:1325   */\n      slt\n        /* \"#utility.yul\":1290:1409   */\n      iszero\n      tag_198\n      jumpi\n        /* \"#utility.yul\":1328:1407   */\n      tag_199\n      tag_119\n      jump\t// in\n    tag_199:\n        /* \"#utility.yul\":1290:1409   */\n    tag_198:\n        /* \"#utility.yul\":1448:1449   */\n      0x00\n        /* \"#utility.yul\":1473:1526   */\n      tag_200\n        /* \"#utility.yul\":1518:1525   */\n      dup6\n        /* \"#utility.yul\":1509:1515   */\n      dup3\n        /* \"#utility.yul\":1498:1507   */\n      dup7\n        /* \"#utility.yul\":1494:1516   */\n      add\n        /* \"#utility.yul\":1473:1526   */\n      tag_124\n      jump\t// in\n    tag_200:\n        /* \"#utility.yul\":1463:1526   */\n      swap3\n      pop\n        /* \"#utility.yul\":1419:1536   */\n      pop\n        /* \"#utility.yul\":1575:1577   */\n      0x20\n        /* \"#utility.yul\":1601:1654   */\n      tag_201\n        /* \"#utility.yul\":1646:1653   */\n      dup6\n        /* \"#utility.yul\":1637:1643   */\n      dup3\n        /* \"#utility.yul\":1626:1635   */\n      dup7\n        /* \"#utility.yul\":1622:1644   */\n      add\n        /* \"#utility.yul\":1601:1654   */\n      tag_127\n      jump\t// in\n    tag_201:\n        /* \"#utility.yul\":1591:1654   */\n      swap2\n      pop\n        /* \"#utility.yul\":1546:1664   */\n      pop\n        /* \"#utility.yul\":1197:1671   */\n      swap3\n      pop\n      swap3\n      swap1\n      pop\n      jump\t// out\n        /* \"#utility.yul\":1677:2006   */\n    tag_17:\n        /* \"#utility.yul\":1736:1742   */\n      0x00\n        /* \"#utility.yul\":1785:1787   */\n      0x20\n        /* \"#utility.yul\":1773:1782   */\n      dup3\n        /* \"#utility.yul\":1764:1771   */\n      dup5\n        /* \"#utility.yul\":1760:1783   */\n      sub\n        /* \"#utility.yul\":1756:1788   */\n      slt\n        /* \"#utility.yul\":1753:1872   */\n      iszero\n      tag_203\n      jumpi\n        /* \"#utility.yul\":1791:1870   */\n      tag_204\n      tag_119\n      jump\t// in\n    tag_204:\n        /* \"#utility.yul\":1753:1872   */\n    tag_203:\n        /* \"#utility.yul\":1911:1912   */\n      0x00\n        /* \"#utility.yul\":1936:1989   */\n      tag_205\n        /* \"#utility.yul\":1981:1988   */\n      dup5\n        /* \"#utility.yul\":1972:1978   */\n      dup3\n        /* \"#utility.yul\":1961:1970   */\n      dup6\n        /* \"#utility.yul\":1957:1979   */\n      add\n        /* \"#utility.yul\":1936:1989   */\n      tag_127\n      jump\t// in\n    tag_205:\n        /* \"#utility.yul\":1926:1989   */\n      swap2\n      pop\n        /* \"#utility.yul\":1882:1999   */\n      pop\n        /* \"#utility.yul\":1677:2006   */\n      swap3\n      swap2\n      pop\n      pop\n      jump\t// out\n        /* \"#utility.yul\":2012:2120   */\n    tag_128:\n        /* \"#utility.yul\":2089:2113   */\n      tag_207\n        /* \"#utility.yul\":2107:2112   */\n      dup2\n        /* \"#utility.yul\":2089:2113   */\n      tag_125\n      jump\t// in\n    tag_207:\n        /* \"#utility.yul\":2084:2087   */\n      dup3\n        /* \"#utility.yul\":2077:2114   */\n      mstore\n        /* \"#utility.yul\":2012:2120   */\n      pop\n      pop\n      jump\t// out\n        /* \"#utility.yul\":2126:2234   */\n    tag_129:\n        /* \"#utility.yul\":2203:2227   */\n      tag_209\n        /* \"#utility.yul\":2221:2226   */\n      dup2\n        /* \"#utility.yul\":2203:2227   */\n      tag_122\n      jump\t// in\n    tag_209:\n        /* \"#utility.yul\":2198:2201   */\n      dup3\n        /* \"#utility.yul\":2191:2228   */\n      mstore\n        /* \"#utility.yul\":2126:2234   */\n      pop\n      pop\n      jump\t// out\n        /* \"#utility.yul\":2240:2339   */\n    tag_130:\n        /* \"#utility.yul\":2292:2298   */\n      0x00\n        /* \"#utility.yul\":2326:2331   */\n      dup2\n        /* \"#utility.yul\":2320:2332   */\n      mload\n        /* \"#utility.yul\":2310:2332   */\n      swap1\n      pop\n        /* \"#utility.yul\":2240:2339   */\n      swap2\n      swap1\n      pop\n      jump\t// out\n        /* \"#utility.yul\":2345:2504   */\n    tag_131:\n        /* \"#utility.yul\":2419:2430   */\n      0x00\n        /* \"#utility.yul\":2453:2459   */\n      dup3\n        /* \"#utility.yul\":2448:2451   */\n      dup3\n        /* \"#utility.yul\":2441:2460   */\n      mstore\n        /* \"#utility.yul\":2493:2497   */\n      0x20\n        /* \"#utility.yul\":2488:2491   */\n      dup3\n        /* \"#utility.yul\":2484:2498   */\n      add\n        /* \"#utility.yul\":2469:2498   */\n      swap1\n      pop\n        /* \"#utility.yul\":2345:2504   */\n      swap3\n      swap2\n      pop\n      pop\n      jump\t// out\n        /* \"#utility.yul\":2510:2649   */\n    tag_132:\n        /* \"#utility.yul\":2599:2605   */\n      dup3\n        /* \"#utility.yul\":2594:2597   */\n      dup2\n        /* \"#utility.yul\":2589:2592   */\n      dup4\n        /* \"#utility.yul\":2583:2606   */\n      mcopy\n        /* \"#utility.yul\":2640:2641   */\n      0x00\n        /* \"#utility.yul\":2631:2637   */\n      dup4\n        /* \"#utility.yul\":2626:2629   */\n      dup4\n        /* \"#utility.yul\":2622:2638   */\n      add\n        /* \"#utility.yul\":2615:2642   */\n      mstore\n        /* \"#utility.yul\":2510:2649   */\n      pop\n      pop\n      pop\n      jump\t// out\n        /* \"#utility.yul\":2655:2757   */\n    tag_133:\n        /* \"#utility.yul\":2696:2702   */\n      0x00\n        /* \"#utility.yul\":2747:2749   */\n      0x1f\n        /* \"#utility.yul\":2743:2750   */\n      not\n        /* \"#utility.yul\":2738:2740   */\n      0x1f\n        /* \"#utility.yul\":2731:2736   */\n      dup4\n        /* \"#utility.yul\":2727:2741   */\n      add\n        /* \"#utility.yul\":2723:2751   */\n      and\n        /* \"#utility.yul\":2713:2751   */\n      swap1\n      pop\n        /* \"#utility.yul\":2655:2757   */\n      swap2\n      swap1\n      pop\n      jump\t// out\n        /* \"#utility.yul\":2763:3120   */\n    tag_134:\n        /* \"#utility.yul\":2841:2844   */\n      0x00\n        /* \"#utility.yul\":2869:2908   */\n      tag_215\n        /* \"#utility.yul\":2902:2907   */\n      dup3\n        /* \"#utility.yul\":2869:2908   */\n      tag_130\n      jump\t// in\n    tag_215:\n        /* \"#utility.yul\":2924:2985   */\n      tag_216\n        /* \"#utility.yul\":2978:2984   */\n      dup2\n        /* \"#utility.yul\":2973:2976   */\n      dup6\n        /* \"#utility.yul\":2924:2985   */\n      tag_131\n      jump\t// in\n    tag_216:\n        /* \"#utility.yul\":2917:2985   */\n      swap4\n      pop\n        /* \"#utility.yul\":2994:3059   */\n      tag_217\n        /* \"#utility.yul\":3052:3058   */\n      dup2\n        /* \"#utility.yul\":3047:3050   */\n      dup6\n        /* \"#utility.yul\":3040:3044   */\n      0x20\n        /* \"#utility.yul\":3033:3038   */\n      dup7\n        /* \"#utility.yul\":3029:3045   */\n      add\n        /* \"#utility.yul\":2994:3059   */\n      tag_132\n      jump\t// in\n    tag_217:\n        /* \"#utility.yul\":3084:3113   */\n      tag_218\n        /* \"#utility.yul\":3106:3112   */\n      dup2\n        /* \"#utility.yul\":3084:3113   */\n      tag_133\n      jump\t// in\n    tag_218:\n        /* \"#utility.yul\":3079:3082   */\n      dup5\n        /* \"#utility.yul\":3075:3114   */\n      add\n        /* \"#utility.yul\":3068:3114   */\n      swap2\n      pop\n        /* \"#utility.yul\":2845:3120   */\n      pop\n        /* \"#utility.yul\":2763:3120   */\n      swap3\n      swap2\n      pop\n      pop\n      jump\t// out\n        /* \"#utility.yul\":3178:4307   */\n    tag_135:\n        /* \"#utility.yul\":3289:3292   */\n      0x00\n        /* \"#utility.yul\":3325:3329   */\n      0xa0\n        /* \"#utility.yul\":3320:3323   */\n      dup4\n        /* \"#utility.yul\":3316:3330   */\n      add\n        /* \"#utility.yul\":3410:3414   */\n      0x00\n        /* \"#utility.yul\":3403:3408   */\n      dup4\n        /* \"#utility.yul\":3399:3415   */\n      add\n        /* \"#utility.yul\":3393:3416   */\n      mload\n        /* \"#utility.yul\":3429:3492   */\n      tag_220\n        /* \"#utility.yul\":3486:3490   */\n      0x00\n        /* \"#utility.yul\":3481:3484   */\n      dup7\n        /* \"#utility.yul\":3477:3491   */\n      add\n        /* \"#utility.yul\":3463:3475   */\n      dup3\n        /* \"#utility.yul\":3429:3492   */\n      tag_128\n      jump\t// in\n    tag_220:\n        /* \"#utility.yul\":3340:3502   */\n      pop\n        /* \"#utility.yul\":3586:3590   */\n      0x20\n        /* \"#utility.yul\":3579:3584   */\n      dup4\n        /* \"#utility.yul\":3575:3591   */\n      add\n        /* \"#utility.yul\":3569:3592   */\n      mload\n        /* \"#utility.yul\":3605:3668   */\n      tag_221\n        /* \"#utility.yul\":3662:3666   */\n      0x20\n        /* \"#utility.yul\":3657:3660   */\n      dup7\n        /* \"#utility.yul\":3653:3667   */\n      add\n        /* \"#utility.yul\":3639:3651   */\n      dup3\n        /* \"#utility.yul\":3605:3668   */\n      tag_129\n      jump\t// in\n    tag_221:\n        /* \"#utility.yul\":3512:3678   */\n      pop\n        /* \"#utility.yul\":3763:3767   */\n      0x40\n        /* \"#utility.yul\":3756:3761   */\n      dup4\n        /* \"#utility.yul\":3752:3768   */\n      add\n        /* \"#utility.yul\":3746:3769   */\n      mload\n        /* \"#utility.yul\":3816:3819   */\n      dup5\n        /* \"#utility.yul\":3810:3814   */\n      dup3\n        /* \"#utility.yul\":3806:3820   */\n      sub\n        /* \"#utility.yul\":3799:3803   */\n      0x40\n        /* \"#utility.yul\":3794:3797   */\n      dup7\n        /* \"#utility.yul\":3790:3804   */\n      add\n        /* \"#utility.yul\":3783:3821   */\n      mstore\n        /* \"#utility.yul\":3842:3915   */\n      tag_222\n        /* \"#utility.yul\":3910:3914   */\n      dup3\n        /* \"#utility.yul\":3896:3908   */\n      dup3\n        /* \"#utility.yul\":3842:3915   */\n      tag_134\n      jump\t// in\n    tag_222:\n        /* \"#utility.yul\":3834:3915   */\n      swap2\n      pop\n        /* \"#utility.yul\":3688:3926   */\n      pop\n        /* \"#utility.yul\":4013:4017   */\n      0x60\n        /* \"#utility.yul\":4006:4011   */\n      dup4\n        /* \"#utility.yul\":4002:4018   */\n      add\n        /* \"#utility.yul\":3996:4019   */\n      mload\n        /* \"#utility.yul\":4032:4095   */\n      tag_223\n        /* \"#utility.yul\":4089:4093   */\n      0x60\n        /* \"#utility.yul\":4084:4087   */\n      dup7\n        /* \"#utility.yul\":4080:4094   */\n      add\n        /* \"#utility.yul\":4066:4078   */\n      dup3\n        /* \"#utility.yul\":4032:4095   */\n      tag_128\n      jump\t// in\n    tag_223:\n        /* \"#utility.yul\":3936:4105   */\n      pop\n        /* \"#utility.yul\":4188:4192   */\n      0x80\n        /* \"#utility.yul\":4181:4186   */\n      dup4\n        /* \"#utility.yul\":4177:4193   */\n      add\n        /* \"#utility.yul\":4171:4194   */\n      mload\n        /* \"#utility.yul\":4207:4270   */\n      tag_224\n        /* \"#utility.yul\":4264:4268   */\n      0x80\n        /* \"#utility.yul\":4259:4262   */\n      dup7\n        /* \"#utility.yul\":4255:4269   */\n      add\n        /* \"#utility.yul\":4241:4253   */\n      dup3\n        /* \"#utility.yul\":4207:4270   */\n      tag_128\n      jump\t// in\n    tag_224:\n        /* \"#utility.yul\":4115:4280   */\n      pop\n        /* \"#utility.yul\":4297:4301   */\n      dup1\n        /* \"#utility.yul\":4290:4301   */\n      swap2\n      pop\n        /* \"#utility.yul\":3294:4307   */\n      pop\n        /* \"#utility.yul\":3178:4307   */\n      swap3\n      swap2\n      pop\n      pop\n      jump\t// out\n        /* \"#utility.yul\":4313:4670   */\n    tag_20:\n        /* \"#utility.yul\":4448:4452   */\n      0x00\n        /* \"#utility.yul\":4486:4488   */\n      0x20\n        /* \"#utility.yul\":4475:4484   */\n      dup3\n        /* \"#utility.yul\":4471:4489   */\n      add\n        /* \"#utility.yul\":4463:4489   */\n      swap1\n      pop\n        /* \"#utility.yul\":4535:4544   */\n      dup2\n        /* \"#utility.yul\":4529:4533   */\n      dup2\n        /* \"#utility.yul\":4525:4545   */\n      sub\n        /* \"#utility.yul\":4521:4522   */\n      0x00\n        /* \"#utility.yul\":4510:4519   */\n      dup4\n        /* \"#utility.yul\":4506:4523   */\n      add\n        /* \"#utility.yul\":4499:4546   */\n      mstore\n        /* \"#utility.yul\":4563:4663   */\n      tag_226\n        /* \"#utility.yul\":4658:4662   */\n      dup2\n        /* \"#utility.yul\":4649:4655   */\n      dup5\n        /* \"#utility.yul\":4563:4663   */\n      tag_135\n      jump\t// in\n    tag_226:\n        /* \"#utility.yul\":4555:4663   */\n      swap1\n      pop\n        /* \"#utility.yul\":4313:4670   */\n      swap3\n      swap2\n      pop\n      pop\n      jump\t// out\n        /* \"#utility.yul\":4676:4794   */\n    tag_136:\n        /* \"#utility.yul\":4763:4787   */\n      tag_228\n        /* \"#utility.yul\":4781:4786   */\n      dup2\n        /* \"#utility.yul\":4763:4787   */\n      tag_122\n      jump\t// in\n    tag_228:\n        /* \"#utility.yul\":4758:4761   */\n      dup3\n        /* \"#utility.yul\":4751:4788   */\n      mstore\n        /* \"#utility.yul\":4676:4794   */\n      pop\n      pop\n      jump\t// out\n        /* \"#utility.yul\":4800:5022   */\n    tag_24:\n        /* \"#utility.yul\":4893:4897   */\n      0x00\n        /* \"#utility.yul\":4931:4933   */\n      0x20\n        /* \"#utility.yul\":4920:4929   */\n      dup3\n        /* \"#utility.yul\":4916:4934   */\n      add\n        /* \"#utility.yul\":4908:4934   */\n      swap1\n      pop\n        /* \"#utility.yul\":4944:5015   */\n      tag_230\n        /* \"#utility.yul\":5012:5013   */\n      0x00\n        /* \"#utility.yul\":5001:5010   */\n      dup4\n        /* \"#utility.yul\":4997:5014   */\n      add\n        /* \"#utility.yul\":4988:4994   */\n      dup5\n        /* \"#utility.yul\":4944:5015   */\n      tag_136\n      jump\t// in\n    tag_230:\n        /* \"#utility.yul\":4800:5022   */\n      swap3\n      swap2\n      pop\n      pop\n      jump\t// out\n        /* \"#utility.yul\":5028:5145   */\n    tag_137:\n        /* \"#utility.yul\":5137:5138   */\n      0x00\n        /* \"#utility.yul\":5134:5135   */\n      dup1\n        /* \"#utility.yul\":5127:5139   */\n      revert\n        /* \"#utility.yul\":5151:5268   */\n    tag_138:\n        /* \"#utility.yul\":5260:5261   */\n      0x00\n        /* \"#utility.yul\":5257:5258   */\n      dup1\n        /* \"#utility.yul\":5250:5262   */\n      revert\n        /* \"#utility.yul\":5274:5454   */\n    tag_139:\n        /* \"#utility.yul\":5322:5399   */\n      0x4e487b7100000000000000000000000000000000000000000000000000000000\n        /* \"#utility.yul\":5319:5320   */\n      0x00\n        /* \"#utility.yul\":5312:5400   */\n      mstore\n        /* \"#utility.yul\":5419:5423   */\n      0x41\n        /* \"#utility.yul\":5416:5417   */\n      0x04\n        /* \"#utility.yul\":5409:5424   */\n      mstore\n        /* \"#utility.yul\":5443:5447   */\n      0x24\n        /* \"#utility.yul\":5440:5441   */\n      0x00\n        /* \"#utility.yul\":5433:5448   */\n      revert\n        /* \"#utility.yul\":5460:5741   */\n    tag_140:\n        /* \"#utility.yul\":5543:5570   */\n      tag_235\n        /* \"#utility.yul\":5565:5569   */\n      dup3\n        /* \"#utility.yul\":5543:5570   */\n      tag_133\n      jump\t// in\n    tag_235:\n        /* \"#utility.yul\":5535:5541   */\n      dup2\n        /* \"#utility.yul\":5531:5571   */\n      add\n        /* \"#utility.yul\":5673:5679   */\n      dup2\n        /* \"#utility.yul\":5661:5671   */\n      dup2\n        /* \"#utility.yul\":5658:5680   */\n      lt\n        /* \"#utility.yul\":5637:5655   */\n      0xffffffffffffffff\n        /* \"#utility.yul\":5625:5635   */\n      dup3\n        /* \"#utility.yul\":5622:5656   */\n      gt\n        /* \"#utility.yul\":5619:5681   */\n      or\n        /* \"#utility.yul\":5616:5704   */\n      iszero\n      tag_236\n      jumpi\n        /* \"#utility.yul\":5684:5702   */\n      tag_237\n      tag_139\n      jump\t// in\n    tag_237:\n        /* \"#utility.yul\":5616:5704   */\n    tag_236:\n        /* \"#utility.yul\":5724:5734   */\n      dup1\n        /* \"#utility.yul\":5720:5722   */\n      0x40\n        /* \"#utility.yul\":5713:5735   */\n      mstore\n        /* \"#utility.yul\":5503:5741   */\n      pop\n        /* \"#utility.yul\":5460:5741   */\n      pop\n      pop\n      jump\t// out\n        /* \"#utility.yul\":5747:5876   */\n    tag_141:\n        /* \"#utility.yul\":5781:5787   */\n      0x00\n        /* \"#utility.yul\":5808:5828   */\n      tag_239\n      tag_118\n      jump\t// in\n    tag_239:\n        /* \"#utility.yul\":5798:5828   */\n      swap1\n      pop\n        /* \"#utility.yul\":5837:5870   */\n      tag_240\n        /* \"#utility.yul\":5865:5869   */\n      dup3\n        /* \"#utility.yul\":5857:5863   */\n      dup3\n        /* \"#utility.yul\":5837:5870   */\n      tag_140\n      jump\t// in\n    tag_240:\n        /* \"#utility.yul\":5747:5876   */\n      swap2\n      swap1\n      pop\n      jump\t// out\n        /* \"#utility.yul\":5882:6190   */\n    tag_142:\n        /* \"#utility.yul\":5944:5948   */\n      0x00\n        /* \"#utility.yul\":6034:6052   */\n      0xffffffffffffffff\n        /* \"#utility.yul\":6026:6032   */\n      dup3\n        /* \"#utility.yul\":6023:6053   */\n      gt\n        /* \"#utility.yul\":6020:6076   */\n      iszero\n      tag_242\n      jumpi\n        /* \"#utility.yul\":6056:6074   */\n      tag_243\n      tag_139\n      jump\t// in\n    tag_243:\n        /* \"#utility.yul\":6020:6076   */\n    tag_242:\n        /* \"#utility.yul\":6094:6123   */\n      tag_244\n        /* \"#utility.yul\":6116:6122   */\n      dup3\n        /* \"#utility.yul\":6094:6123   */\n      tag_133\n      jump\t// in\n    tag_244:\n        /* \"#utility.yul\":6086:6123   */\n      swap1\n      pop\n        /* \"#utility.yul\":6178:6182   */\n      0x20\n        /* \"#utility.yul\":6172:6176   */\n      dup2\n        /* \"#utility.yul\":6168:6183   */\n      add\n        /* \"#utility.yul\":6160:6183   */\n      swap1\n      pop\n        /* \"#utility.yul\":5882:6190   */\n      swap2\n      swap1\n      pop\n      jump\t// out\n        /* \"#utility.yul\":6196:6344   */\n    tag_143:\n        /* \"#utility.yul\":6294:6300   */\n      dup3\n        /* \"#utility.yul\":6289:6292   */\n      dup2\n        /* \"#utility.yul\":6284:6287   */\n      dup4\n        /* \"#utility.yul\":6271:6301   */\n      calldatacopy\n        /* \"#utility.yul\":6335:6336   */\n      0x00\n        /* \"#utility.yul\":6326:6332   */\n      dup4\n        /* \"#utility.yul\":6321:6324   */\n      dup4\n        /* \"#utility.yul\":6317:6333   */\n      add\n        /* \"#utility.yul\":6310:6337   */\n      mstore\n        /* \"#utility.yul\":6196:6344   */\n      pop\n      pop\n      pop\n      jump\t// out\n        /* \"#utility.yul\":6350:6775   */\n    tag_144:\n        /* \"#utility.yul\":6428:6433   */\n      0x00\n        /* \"#utility.yul\":6453:6519   */\n      tag_247\n        /* \"#utility.yul\":6469:6518   */\n      tag_248\n        /* \"#utility.yul\":6511:6517   */\n      dup5\n        /* \"#utility.yul\":6469:6518   */\n      tag_142\n      jump\t// in\n    tag_248:\n        /* \"#utility.yul\":6453:6519   */\n      tag_141\n      jump\t// in\n    tag_247:\n        /* \"#utility.yul\":6444:6519   */\n      swap1\n      pop\n        /* \"#utility.yul\":6542:6548   */\n      dup3\n        /* \"#utility.yul\":6535:6540   */\n      dup2\n        /* \"#utility.yul\":6528:6549   */\n      mstore\n        /* \"#utility.yul\":6580:6584   */\n      0x20\n        /* \"#utility.yul\":6573:6578   */\n      dup2\n        /* \"#utility.yul\":6569:6585   */\n      add\n        /* \"#utility.yul\":6618:6621   */\n      dup5\n        /* \"#utility.yul\":6609:6615   */\n      dup5\n        /* \"#utility.yul\":6604:6607   */\n      dup5\n        /* \"#utility.yul\":6600:6616   */\n      add\n        /* \"#utility.yul\":6597:6622   */\n      gt\n        /* \"#utility.yul\":6594:6706   */\n      iszero\n      tag_249\n      jumpi\n        /* \"#utility.yul\":6625:6704   */\n      tag_250\n      tag_138\n      jump\t// in\n    tag_250:\n        /* \"#utility.yul\":6594:6706   */\n    tag_249:\n        /* \"#utility.yul\":6715:6769   */\n      tag_251\n        /* \"#utility.yul\":6762:6768   */\n      dup5\n        /* \"#utility.yul\":6757:6760   */\n      dup3\n        /* \"#utility.yul\":6752:6755   */\n      dup6\n        /* \"#utility.yul\":6715:6769   */\n      tag_143\n      jump\t// in\n    tag_251:\n        /* \"#utility.yul\":6434:6775   */\n      pop\n        /* \"#utility.yul\":6350:6775   */\n      swap4\n      swap3\n      pop\n      pop\n      pop\n      jump\t// out\n        /* \"#utility.yul\":6795:7135   */\n    tag_145:\n        /* \"#utility.yul\":6851:6856   */\n      0x00\n        /* \"#utility.yul\":6900:6903   */\n      dup3\n        /* \"#utility.yul\":6893:6897   */\n      0x1f\n        /* \"#utility.yul\":6885:6891   */\n      dup4\n        /* \"#utility.yul\":6881:6898   */\n      add\n        /* \"#utility.yul\":6877:6904   */\n      slt\n        /* \"#utility.yul\":6867:6989   */\n      tag_253\n      jumpi\n        /* \"#utility.yul\":6908:6987   */\n      tag_254\n      tag_137\n      jump\t// in\n    tag_254:\n        /* \"#utility.yul\":6867:6989   */\n    tag_253:\n        /* \"#utility.yul\":7025:7031   */\n      dup2\n        /* \"#utility.yul\":7012:7032   */\n      calldataload\n        /* \"#utility.yul\":7050:7129   */\n      tag_255\n        /* \"#utility.yul\":7125:7128   */\n      dup5\n        /* \"#utility.yul\":7117:7123   */\n      dup3\n        /* \"#utility.yul\":7110:7114   */\n      0x20\n        /* \"#utility.yul\":7102:7108   */\n      dup7\n        /* \"#utility.yul\":7098:7115   */\n      add\n        /* \"#utility.yul\":7050:7129   */\n      tag_144\n      jump\t// in\n    tag_255:\n        /* \"#utility.yul\":7041:7129   */\n      swap2\n      pop\n        /* \"#utility.yul\":6857:7135   */\n      pop\n        /* \"#utility.yul\":6795:7135   */\n      swap3\n      swap2\n      pop\n      pop\n      jump\t// out\n        /* \"#utility.yul\":7141:7650   */\n    tag_27:\n        /* \"#utility.yul\":7210:7216   */\n      0x00\n        /* \"#utility.yul\":7259:7261   */\n      0x20\n        /* \"#utility.yul\":7247:7256   */\n      dup3\n        /* \"#utility.yul\":7238:7245   */\n      dup5\n        /* \"#utility.yul\":7234:7257   */\n      sub\n        /* \"#utility.yul\":7230:7262   */\n      slt\n        /* \"#utility.yul\":7227:7346   */\n      iszero\n      tag_257\n      jumpi\n        /* \"#utility.yul\":7265:7344   */\n      tag_258\n      tag_119\n      jump\t// in\n    tag_258:\n        /* \"#utility.yul\":7227:7346   */\n    tag_257:\n        /* \"#utility.yul\":7413:7414   */\n      0x00\n        /* \"#utility.yul\":7402:7411   */\n      dup3\n        /* \"#utility.yul\":7398:7415   */\n      add\n        /* \"#utility.yul\":7385:7416   */\n      calldataload\n        /* \"#utility.yul\":7443:7461   */\n      0xffffffffffffffff\n        /* \"#utility.yul\":7435:7441   */\n      dup2\n        /* \"#utility.yul\":7432:7462   */\n      gt\n        /* \"#utility.yul\":7429:7546   */\n      iszero\n      tag_259\n      jumpi\n        /* \"#utility.yul\":7465:7544   */\n      tag_260\n      tag_120\n      jump\t// in\n    tag_260:\n        /* \"#utility.yul\":7429:7546   */\n    tag_259:\n        /* \"#utility.yul\":7570:7633   */\n      tag_261\n        /* \"#utility.yul\":7625:7632   */\n      dup5\n        /* \"#utility.yul\":7616:7622   */\n      dup3\n        /* \"#utility.yul\":7605:7614   */\n      dup6\n        /* \"#utility.yul\":7601:7623   */\n      add\n        /* \"#utility.yul\":7570:7633   */\n      tag_145\n      jump\t// in\n    tag_261:\n        /* \"#utility.yul\":7560:7633   */\n      swap2\n      pop\n        /* \"#utility.yul\":7356:7643   */\n      pop\n        /* \"#utility.yul\":7141:7650   */\n      swap3\n      swap2\n      pop\n      pop\n      jump\t// out\n        /* \"#utility.yul\":7656:7774   */\n    tag_146:\n        /* \"#utility.yul\":7743:7767   */\n      tag_263\n        /* \"#utility.yul\":7761:7766   */\n      dup2\n        /* \"#utility.yul\":7743:7767   */\n      tag_125\n      jump\t// in\n    tag_263:\n        /* \"#utility.yul\":7738:7741   */\n      dup3\n        /* \"#utility.yul\":7731:7768   */\n      mstore\n        /* \"#utility.yul\":7656:7774   */\n      pop\n      pop\n      jump\t// out\n        /* \"#utility.yul\":7780:7949   */\n    tag_147:\n        /* \"#utility.yul\":7864:7875   */\n      0x00\n        /* \"#utility.yul\":7898:7904   */\n      dup3\n        /* \"#utility.yul\":7893:7896   */\n      dup3\n        /* \"#utility.yul\":7886:7905   */\n      mstore\n        /* \"#utility.yul\":7938:7942   */\n      0x20\n        /* \"#utility.yul\":7933:7936   */\n      dup3\n        /* \"#utility.yul\":7929:7943   */\n      add\n        /* \"#utility.yul\":7914:7943   */\n      swap1\n      pop\n        /* \"#utility.yul\":7780:7949   */\n      swap3\n      swap2\n      pop\n      pop\n      jump\t// out\n        /* \"#utility.yul\":7955:8332   */\n    tag_148:\n        /* \"#utility.yul\":8043:8046   */\n      0x00\n        /* \"#utility.yul\":8071:8110   */\n      tag_266\n        /* \"#utility.yul\":8104:8109   */\n      dup3\n        /* \"#utility.yul\":8071:8110   */\n      tag_130\n      jump\t// in\n    tag_266:\n        /* \"#utility.yul\":8126:8197   */\n      tag_267\n        /* \"#utility.yul\":8190:8196   */\n      dup2\n        /* \"#utility.yul\":8185:8188   */\n      dup6\n        /* \"#utility.yul\":8126:8197   */\n      tag_147\n      jump\t// in\n    tag_267:\n        /* \"#utility.yul\":8119:8197   */\n      swap4\n      pop\n        /* \"#utility.yul\":8206:8271   */\n      tag_268\n        /* \"#utility.yul\":8264:8270   */\n      dup2\n        /* \"#utility.yul\":8259:8262   */\n      dup6\n        /* \"#utility.yul\":8252:8256   */\n      0x20\n        /* \"#utility.yul\":8245:8250   */\n      dup7\n        /* \"#utility.yul\":8241:8257   */\n      add\n        /* \"#utility.yul\":8206:8271   */\n      tag_132\n      jump\t// in\n    tag_268:\n        /* \"#utility.yul\":8296:8325   */\n      tag_269\n        /* \"#utility.yul\":8318:8324   */\n      dup2\n        /* \"#utility.yul\":8296:8325   */\n      tag_133\n      jump\t// in\n    tag_269:\n        /* \"#utility.yul\":8291:8294   */\n      dup5\n        /* \"#utility.yul\":8287:8326   */\n      add\n        /* \"#utility.yul\":8280:8326   */\n      swap2\n      pop\n        /* \"#utility.yul\":8047:8332   */\n      pop\n        /* \"#utility.yul\":7955:8332   */\n      swap3\n      swap2\n      pop\n      pop\n      jump\t// out\n        /* \"#utility.yul\":8338:9093   */\n    tag_36:\n        /* \"#utility.yul\":8563:8567   */\n      0x00\n        /* \"#utility.yul\":8601:8604   */\n      0xa0\n        /* \"#utility.yul\":8590:8599   */\n      dup3\n        /* \"#utility.yul\":8586:8605   */\n      add\n        /* \"#utility.yul\":8578:8605   */\n      swap1\n      pop\n        /* \"#utility.yul\":8615:8686   */\n      tag_271\n        /* \"#utility.yul\":8683:8684   */\n      0x00\n        /* \"#utility.yul\":8672:8681   */\n      dup4\n        /* \"#utility.yul\":8668:8685   */\n      add\n        /* \"#utility.yul\":8659:8665   */\n      dup9\n        /* \"#utility.yul\":8615:8686   */\n      tag_146\n      jump\t// in\n    tag_271:\n        /* \"#utility.yul\":8696:8768   */\n      tag_272\n        /* \"#utility.yul\":8764:8766   */\n      0x20\n        /* \"#utility.yul\":8753:8762   */\n      dup4\n        /* \"#utility.yul\":8749:8767   */\n      add\n        /* \"#utility.yul\":8740:8746   */\n      dup8\n        /* \"#utility.yul\":8696:8768   */\n      tag_136\n      jump\t// in\n    tag_272:\n        /* \"#utility.yul\":8815:8824   */\n      dup2\n        /* \"#utility.yul\":8809:8813   */\n      dup2\n        /* \"#utility.yul\":8805:8825   */\n      sub\n        /* \"#utility.yul\":8800:8802   */\n      0x40\n        /* \"#utility.yul\":8789:8798   */\n      dup4\n        /* \"#utility.yul\":8785:8803   */\n      add\n        /* \"#utility.yul\":8778:8826   */\n      mstore\n        /* \"#utility.yul\":8843:8921   */\n      tag_273\n        /* \"#utility.yul\":8916:8920   */\n      dup2\n        /* \"#utility.yul\":8907:8913   */\n      dup7\n        /* \"#utility.yul\":8843:8921   */\n      tag_148\n      jump\t// in\n    tag_273:\n        /* \"#utility.yul\":8835:8921   */\n      swap1\n      pop\n        /* \"#utility.yul\":8931:9003   */\n      tag_274\n        /* \"#utility.yul\":8999:9001   */\n      0x60\n        /* \"#utility.yul\":8988:8997   */\n      dup4\n        /* \"#utility.yul\":8984:9002   */\n      add\n        /* \"#utility.yul\":8975:8981   */\n      dup6\n        /* \"#utility.yul\":8931:9003   */\n      tag_146\n      jump\t// in\n    tag_274:\n        /* \"#utility.yul\":9013:9086   */\n      tag_275\n        /* \"#utility.yul\":9081:9084   */\n      0x80\n        /* \"#utility.yul\":9070:9079   */\n      dup4\n        /* \"#utility.yul\":9066:9085   */\n      add\n        /* \"#utility.yul\":9057:9063   */\n      dup5\n        /* \"#utility.yul\":9013:9086   */\n      tag_146\n      jump\t// in\n    tag_275:\n        /* \"#utility.yul\":8338:9093   */\n      swap7\n      swap6\n      pop\n      pop\n      pop\n      pop\n      pop\n      pop\n      jump\t// out\n        /* \"#utility.yul\":9099:9234   */\n    tag_149:\n        /* \"#utility.yul\":9187:9193   */\n      0x00\n        /* \"#utility.yul\":9221:9226   */\n      dup2\n        /* \"#utility.yul\":9215:9227   */\n      mload\n        /* \"#utility.yul\":9205:9227   */\n      swap1\n      pop\n        /* \"#utility.yul\":9099:9234   */\n      swap2\n      swap1\n      pop\n      jump\t// out\n        /* \"#utility.yul\":9240:9445   */\n    tag_150:\n        /* \"#utility.yul\":9360:9371   */\n      0x00\n        /* \"#utility.yul\":9394:9400   */\n      dup3\n        /* \"#utility.yul\":9389:9392   */\n      dup3\n        /* \"#utility.yul\":9382:9401   */\n      mstore\n        /* \"#utility.yul\":9434:9438   */\n      0x20\n        /* \"#utility.yul\":9429:9432   */\n      dup3\n        /* \"#utility.yul\":9425:9439   */\n      add\n        /* \"#utility.yul\":9410:9439   */\n      swap1\n      pop\n        /* \"#utility.yul\":9240:9445   */\n      swap3\n      swap2\n      pop\n      pop\n      jump\t// out\n        /* \"#utility.yul\":9451:9604   */\n    tag_151:\n        /* \"#utility.yul\":9539:9543   */\n      0x00\n        /* \"#utility.yul\":9562:9565   */\n      dup2\n        /* \"#utility.yul\":9554:9565   */\n      swap1\n      pop\n        /* \"#utility.yul\":9592:9596   */\n      0x20\n        /* \"#utility.yul\":9587:9590   */\n      dup3\n        /* \"#utility.yul\":9583:9597   */\n      add\n        /* \"#utility.yul\":9575:9597   */\n      swap1\n      pop\n        /* \"#utility.yul\":9451:9604   */\n      swap2\n      swap1\n      pop\n      jump\t// out\n        /* \"#utility.yul\":9662:10781   */\n    tag_152:\n        /* \"#utility.yul\":9763:9766   */\n      0x00\n        /* \"#utility.yul\":9799:9803   */\n      0xa0\n        /* \"#utility.yul\":9794:9797   */\n      dup4\n        /* \"#utility.yul\":9790:9804   */\n      add\n        /* \"#utility.yul\":9884:9888   */\n      0x00\n        /* \"#utility.yul\":9877:9882   */\n      dup4\n        /* \"#utility.yul\":9873:9889   */\n      add\n        /* \"#utility.yul\":9867:9890   */\n      mload\n        /* \"#utility.yul\":9903:9966   */\n      tag_280\n        /* \"#utility.yul\":9960:9964   */\n      0x00\n        /* \"#utility.yul\":9955:9958   */\n      dup7\n        /* \"#utility.yul\":9951:9965   */\n      add\n        /* \"#utility.yul\":9937:9949   */\n      dup3\n        /* \"#utility.yul\":9903:9966   */\n      tag_128\n      jump\t// in\n    tag_280:\n        /* \"#utility.yul\":9814:9976   */\n      pop\n        /* \"#utility.yul\":10060:10064   */\n      0x20\n        /* \"#utility.yul\":10053:10058   */\n      dup4\n        /* \"#utility.yul\":10049:10065   */\n      add\n        /* \"#utility.yul\":10043:10066   */\n      mload\n        /* \"#utility.yul\":10079:10142   */\n      tag_281\n        /* \"#utility.yul\":10136:10140   */\n      0x20\n        /* \"#utility.yul\":10131:10134   */\n      dup7\n        /* \"#utility.yul\":10127:10141   */\n      add\n        /* \"#utility.yul\":10113:10125   */\n      dup3\n        /* \"#utility.yul\":10079:10142   */\n      tag_129\n      jump\t// in\n    tag_281:\n        /* \"#utility.yul\":9986:10152   */\n      pop\n        /* \"#utility.yul\":10237:10241   */\n      0x40\n        /* \"#utility.yul\":10230:10235   */\n      dup4\n        /* \"#utility.yul\":10226:10242   */\n      add\n        /* \"#utility.yul\":10220:10243   */\n      mload\n        /* \"#utility.yul\":10290:10293   */\n      dup5\n        /* \"#utility.yul\":10284:10288   */\n      dup3\n        /* \"#utility.yul\":10280:10294   */\n      sub\n        /* \"#utility.yul\":10273:10277   */\n      0x40\n        /* \"#utility.yul\":10268:10271   */\n      dup7\n        /* \"#utility.yul\":10264:10278   */\n      add\n        /* \"#utility.yul\":10257:10295   */\n      mstore\n        /* \"#utility.yul\":10316:10389   */\n      tag_282\n        /* \"#utility.yul\":10384:10388   */\n      dup3\n        /* \"#utility.yul\":10370:10382   */\n      dup3\n        /* \"#utility.yul\":10316:10389   */\n      tag_134\n      jump\t// in\n    tag_282:\n        /* \"#utility.yul\":10308:10389   */\n      swap2\n      pop\n        /* \"#utility.yul\":10162:10400   */\n      pop\n        /* \"#utility.yul\":10487:10491   */\n      0x60\n        /* \"#utility.yul\":10480:10485   */\n      dup4\n        /* \"#utility.yul\":10476:10492   */\n      add\n        /* \"#utility.yul\":10470:10493   */\n      mload\n        /* \"#utility.yul\":10506:10569   */\n      tag_283\n        /* \"#utility.yul\":10563:10567   */\n      0x60\n        /* \"#utility.yul\":10558:10561   */\n      dup7\n        /* \"#utility.yul\":10554:10568   */\n      add\n        /* \"#utility.yul\":10540:10552   */\n      dup3\n        /* \"#utility.yul\":10506:10569   */\n      tag_128\n      jump\t// in\n    tag_283:\n        /* \"#utility.yul\":10410:10579   */\n      pop\n        /* \"#utility.yul\":10662:10666   */\n      0x80\n        /* \"#utility.yul\":10655:10660   */\n      dup4\n        /* \"#utility.yul\":10651:10667   */\n      add\n        /* \"#utility.yul\":10645:10668   */\n      mload\n        /* \"#utility.yul\":10681:10744   */\n      tag_284\n        /* \"#utility.yul\":10738:10742   */\n      0x80\n        /* \"#utility.yul\":10733:10736   */\n      dup7\n        /* \"#utility.yul\":10729:10743   */\n      add\n        /* \"#utility.yul\":10715:10727   */\n      dup3\n        /* \"#utility.yul\":10681:10744   */\n      tag_128\n      jump\t// in\n    tag_284:\n        /* \"#utility.yul\":10589:10754   */\n      pop\n        /* \"#utility.yul\":10771:10775   */\n      dup1\n        /* \"#utility.yul\":10764:10775   */\n      swap2\n      pop\n        /* \"#utility.yul\":9768:10781   */\n      pop\n        /* \"#utility.yul\":9662:10781   */\n      swap3\n      swap2\n      pop\n      pop\n      jump\t// out\n        /* \"#utility.yul\":10787:11027   */\n    tag_153:\n        /* \"#utility.yul\":10898:10908   */\n      0x00\n        /* \"#utility.yul\":10933:11021   */\n      tag_286\n        /* \"#utility.yul\":11017:11020   */\n      dup4\n        /* \"#utility.yul\":11009:11015   */\n      dup4\n        /* \"#utility.yul\":10933:11021   */\n      tag_152\n      jump\t// in\n    tag_286:\n        /* \"#utility.yul\":10919:11021   */\n      swap1\n      pop\n        /* \"#utility.yul\":10787:11027   */\n      swap3\n      swap2\n      pop\n      pop\n      jump\t// out\n        /* \"#utility.yul\":11033:11167   */\n    tag_154:\n        /* \"#utility.yul\":11124:11128   */\n      0x00\n        /* \"#utility.yul\":11156:11160   */\n      0x20\n        /* \"#utility.yul\":11151:11154   */\n      dup3\n        /* \"#utility.yul\":11147:11161   */\n      add\n        /* \"#utility.yul\":11139:11161   */\n      swap1\n      pop\n        /* \"#utility.yul\":11033:11167   */\n      swap2\n      swap1\n      pop\n      jump\t// out\n        /* \"#utility.yul\":11229:12308   */\n    tag_155:\n        /* \"#utility.yul\":11390:11393   */\n      0x00\n        /* \"#utility.yul\":11419:11494   */\n      tag_289\n        /* \"#utility.yul\":11488:11493   */\n      dup3\n        /* \"#utility.yul\":11419:11494   */\n      tag_149\n      jump\t// in\n    tag_289:\n        /* \"#utility.yul\":11510:11617   */\n      tag_290\n        /* \"#utility.yul\":11610:11616   */\n      dup2\n        /* \"#utility.yul\":11605:11608   */\n      dup6\n        /* \"#utility.yul\":11510:11617   */\n      tag_150\n      jump\t// in\n    tag_290:\n        /* \"#utility.yul\":11503:11617   */\n      swap4\n      pop\n        /* \"#utility.yul\":11643:11646   */\n      dup4\n        /* \"#utility.yul\":11688:11692   */\n      0x20\n        /* \"#utility.yul\":11680:11686   */\n      dup3\n        /* \"#utility.yul\":11676:11693   */\n      mul\n        /* \"#utility.yul\":11671:11674   */\n      dup6\n        /* \"#utility.yul\":11667:11694   */\n      add\n        /* \"#utility.yul\":11718:11795   */\n      tag_291\n        /* \"#utility.yul\":11789:11794   */\n      dup6\n        /* \"#utility.yul\":11718:11795   */\n      tag_151\n      jump\t// in\n    tag_291:\n        /* \"#utility.yul\":11818:11825   */\n      dup1\n        /* \"#utility.yul\":11849:11850   */\n      0x00\n        /* \"#utility.yul\":11834:12263   */\n    tag_292:\n        /* \"#utility.yul\":11859:11865   */\n      dup6\n        /* \"#utility.yul\":11856:11857   */\n      dup2\n        /* \"#utility.yul\":11853:11866   */\n      lt\n        /* \"#utility.yul\":11834:12263   */\n      iszero\n      tag_294\n      jumpi\n        /* \"#utility.yul\":11930:11939   */\n      dup5\n        /* \"#utility.yul\":11924:11928   */\n      dup5\n        /* \"#utility.yul\":11920:11940   */\n      sub\n        /* \"#utility.yul\":11915:11918   */\n      dup10\n        /* \"#utility.yul\":11908:11941   */\n      mstore\n        /* \"#utility.yul\":11981:11987   */\n      dup2\n        /* \"#utility.yul\":11975:11988   */\n      mload\n        /* \"#utility.yul\":12009:12115   */\n      tag_295\n        /* \"#utility.yul\":12110:12114   */\n      dup6\n        /* \"#utility.yul\":12095:12108   */\n      dup3\n        /* \"#utility.yul\":12009:12115   */\n      tag_153\n      jump\t// in\n    tag_295:\n        /* \"#utility.yul\":12001:12115   */\n      swap5\n      pop\n        /* \"#utility.yul\":12138:12219   */\n      tag_296\n        /* \"#utility.yul\":12212:12218   */\n      dup4\n        /* \"#utility.yul\":12138:12219   */\n      tag_154\n      jump\t// in\n    tag_296:\n        /* \"#utility.yul\":12128:12219   */\n      swap3\n      pop\n        /* \"#utility.yul\":12248:12252   */\n      0x20\n        /* \"#utility.yul\":12243:12246   */\n      dup11\n        /* \"#utility.yul\":12239:12253   */\n      add\n        /* \"#utility.yul\":12232:12253   */\n      swap10\n      pop\n        /* \"#utility.yul\":11894:12263   */\n      pop\n        /* \"#utility.yul\":11881:11882   */\n      0x01\n        /* \"#utility.yul\":11878:11879   */\n      dup2\n        /* \"#utility.yul\":11874:11883   */\n      add\n        /* \"#utility.yul\":11869:11883   */\n      swap1\n      pop\n        /* \"#utility.yul\":11834:12263   */\n      jump(tag_292)\n    tag_294:\n        /* \"#utility.yul\":11838:11852   */\n      pop\n        /* \"#utility.yul\":12279:12283   */\n      dup3\n        /* \"#utility.yul\":12272:12283   */\n      swap8\n      pop\n        /* \"#utility.yul\":12299:12302   */\n      dup8\n        /* \"#utility.yul\":12292:12302   */\n      swap6\n      pop\n        /* \"#utility.yul\":11395:12308   */\n      pop\n      pop\n      pop\n      pop\n      pop\n        /* \"#utility.yul\":11229:12308   */\n      swap3\n      swap2\n      pop\n      pop\n      jump\t// out\n        /* \"#utility.yul\":12314:12771   */\n    tag_40:\n        /* \"#utility.yul\":12499:12503   */\n      0x00\n        /* \"#utility.yul\":12537:12539   */\n      0x20\n        /* \"#utility.yul\":12526:12535   */\n      dup3\n        /* \"#utility.yul\":12522:12540   */\n      add\n        /* \"#utility.yul\":12514:12540   */\n      swap1\n      pop\n        /* \"#utility.yul\":12586:12595   */\n      dup2\n        /* \"#utility.yul\":12580:12584   */\n      dup2\n        /* \"#utility.yul\":12576:12596   */\n      sub\n        /* \"#utility.yul\":12572:12573   */\n      0x00\n        /* \"#utility.yul\":12561:12570   */\n      dup4\n        /* \"#utility.yul\":12557:12574   */\n      add\n        /* \"#utility.yul\":12550:12597   */\n      mstore\n        /* \"#utility.yul\":12614:12764   */\n      tag_298\n        /* \"#utility.yul\":12759:12763   */\n      dup2\n        /* \"#utility.yul\":12750:12756   */\n      dup5\n        /* \"#utility.yul\":12614:12764   */\n      tag_155\n      jump\t// in\n    tag_298:\n        /* \"#utility.yul\":12606:12764   */\n      swap1\n      pop\n        /* \"#utility.yul\":12314:12771   */\n      swap3\n      swap2\n      pop\n      pop\n      jump\t// out\n        /* \"#utility.yul\":12777:12957   */\n    tag_44:\n        /* \"#utility.yul\":12825:12902   */\n      0x4e487b7100000000000000000000000000000000000000000000000000000000\n        /* \"#utility.yul\":12822:12823   */\n      0x00\n        /* \"#utility.yul\":12815:12903   */\n      mstore\n        /* \"#utility.yul\":12922:12926   */\n      0x32\n        /* \"#utility.yul\":12919:12920   */\n      0x04\n        /* \"#utility.yul\":12912:12927   */\n      mstore\n        /* \"#utility.yul\":12946:12950   */\n      0x24\n        /* \"#utility.yul\":12943:12944   */\n      0x00\n        /* \"#utility.yul\":12936:12951   */\n      revert\n        /* \"#utility.yul\":12963:13137   */\n    tag_156:\n        /* \"#utility.yul\":13103:13129   */\n      0x546865207477697473206973206e6f742070726573656e740000000000000000\n        /* \"#utility.yul\":13099:13100   */\n      0x00\n        /* \"#utility.yul\":13091:13097   */\n      dup3\n        /* \"#utility.yul\":13087:13101   */\n      add\n        /* \"#utility.yul\":13080:13130   */\n      mstore\n        /* \"#utility.yul\":12963:13137   */\n      pop\n      jump\t// out\n        /* \"#utility.yul\":13143:13509   */\n    tag_157:\n        /* \"#utility.yul\":13285:13288   */\n      0x00\n        /* \"#utility.yul\":13306:13373   */\n      tag_302\n        /* \"#utility.yul\":13370:13372   */\n      0x18\n        /* \"#utility.yul\":13365:13368   */\n      dup4\n        /* \"#utility.yul\":13306:13373   */\n      tag_147\n      jump\t// in\n    tag_302:\n        /* \"#utility.yul\":13299:13373   */\n      swap2\n      pop\n        /* \"#utility.yul\":13382:13475   */\n      tag_303\n        /* \"#utility.yul\":13471:13474   */\n      dup3\n        /* \"#utility.yul\":13382:13475   */\n      tag_156\n      jump\t// in\n    tag_303:\n        /* \"#utility.yul\":13500:13502   */\n      0x20\n        /* \"#utility.yul\":13495:13498   */\n      dup3\n        /* \"#utility.yul\":13491:13503   */\n      add\n        /* \"#utility.yul\":13484:13503   */\n      swap1\n      pop\n        /* \"#utility.yul\":13143:13509   */\n      swap2\n      swap1\n      pop\n      jump\t// out\n        /* \"#utility.yul\":13515:13934   */\n    tag_48:\n        /* \"#utility.yul\":13681:13685   */\n      0x00\n        /* \"#utility.yul\":13719:13721   */\n      0x20\n        /* \"#utility.yul\":13708:13717   */\n      dup3\n        /* \"#utility.yul\":13704:13722   */\n      add\n        /* \"#utility.yul\":13696:13722   */\n      swap1\n      pop\n        /* \"#utility.yul\":13768:13777   */\n      dup2\n        /* \"#utility.yul\":13762:13766   */\n      dup2\n        /* \"#utility.yul\":13758:13778   */\n      sub\n        /* \"#utility.yul\":13754:13755   */\n      0x00\n        /* \"#utility.yul\":13743:13752   */\n      dup4\n        /* \"#utility.yul\":13739:13756   */\n      add\n        /* \"#utility.yul\":13732:13779   */\n      mstore\n        /* \"#utility.yul\":13796:13927   */\n      tag_305\n        /* \"#utility.yul\":13922:13926   */\n      dup2\n        /* \"#utility.yul\":13796:13927   */\n      tag_157\n      jump\t// in\n    tag_305:\n        /* \"#utility.yul\":13788:13927   */\n      swap1\n      pop\n        /* \"#utility.yul\":13515:13934   */\n      swap2\n      swap1\n      pop\n      jump\t// out\n        /* \"#utility.yul\":13940:14168   */\n    tag_158:\n        /* \"#utility.yul\":14080:14114   */\n      0x736f6d65207468696e672077656e742077726f6e6720696e2074686520756e6c\n        /* \"#utility.yul\":14076:14077   */\n      0x00\n        /* \"#utility.yul\":14068:14074   */\n      dup3\n        /* \"#utility.yul\":14064:14078   */\n      add\n        /* \"#utility.yul\":14057:14115   */\n      mstore\n        /* \"#utility.yul\":14149:14160   */\n      0x696b652074776974730000000000000000000000000000000000000000000000\n        /* \"#utility.yul\":14144:14146   */\n      0x20\n        /* \"#utility.yul\":14136:14142   */\n      dup3\n        /* \"#utility.yul\":14132:14147   */\n      add\n        /* \"#utility.yul\":14125:14161   */\n      mstore\n        /* \"#utility.yul\":13940:14168   */\n      pop\n      jump\t// out\n        /* \"#utility.yul\":14174:14540   */\n    tag_159:\n        /* \"#utility.yul\":14316:14319   */\n      0x00\n        /* \"#utility.yul\":14337:14404   */\n      tag_308\n        /* \"#utility.yul\":14401:14403   */\n      0x29\n        /* \"#utility.yul\":14396:14399   */\n      dup4\n        /* \"#utility.yul\":14337:14404   */\n      tag_147\n      jump\t// in\n    tag_308:\n        /* \"#utility.yul\":14330:14404   */\n      swap2\n      pop\n        /* \"#utility.yul\":14413:14506   */\n      tag_309\n        /* \"#utility.yul\":14502:14505   */\n      dup3\n        /* \"#utility.yul\":14413:14506   */\n      tag_158\n      jump\t// in\n    tag_309:\n        /* \"#utility.yul\":14531:14533   */\n      0x40\n        /* \"#utility.yul\":14526:14529   */\n      dup3\n        /* \"#utility.yul\":14522:14534   */\n      add\n        /* \"#utility.yul\":14515:14534   */\n      swap1\n      pop\n        /* \"#utility.yul\":14174:14540   */\n      swap2\n      swap1\n      pop\n      jump\t// out\n        /* \"#utility.yul\":14546:14965   */\n    tag_54:\n        /* \"#utility.yul\":14712:14716   */\n      0x00\n        /* \"#utility.yul\":14750:14752   */\n      0x20\n        /* \"#utility.yul\":14739:14748   */\n      dup3\n        /* \"#utility.yul\":14735:14753   */\n      add\n        /* \"#utility.yul\":14727:14753   */\n      swap1\n      pop\n        /* \"#utility.yul\":14799:14808   */\n      dup2\n        /* \"#utility.yul\":14793:14797   */\n      dup2\n        /* \"#utility.yul\":14789:14809   */\n      sub\n        /* \"#utility.yul\":14785:14786   */\n      0x00\n        /* \"#utility.yul\":14774:14783   */\n      dup4\n        /* \"#utility.yul\":14770:14787   */\n      add\n        /* \"#utility.yul\":14763:14810   */\n      mstore\n        /* \"#utility.yul\":14827:14958   */\n      tag_311\n        /* \"#utility.yul\":14953:14957   */\n      dup2\n        /* \"#utility.yul\":14827:14958   */\n      tag_159\n      jump\t// in\n    tag_311:\n        /* \"#utility.yul\":14819:14958   */\n      swap1\n      pop\n        /* \"#utility.yul\":14546:14965   */\n      swap2\n      swap1\n      pop\n      jump\t// out\n        /* \"#utility.yul\":14971:15151   */\n    tag_160:\n        /* \"#utility.yul\":15019:15096   */\n      0x4e487b7100000000000000000000000000000000000000000000000000000000\n        /* \"#utility.yul\":15016:15017   */\n      0x00\n        /* \"#utility.yul\":15009:15097   */\n      mstore\n        /* \"#utility.yul\":15116:15120   */\n      0x11\n        /* \"#utility.yul\":15113:15114   */\n      0x04\n        /* \"#utility.yul\":15106:15121   */\n      mstore\n        /* \"#utility.yul\":15140:15144   */\n      0x24\n        /* \"#utility.yul\":15137:15138   */\n      0x00\n        /* \"#utility.yul\":15130:15145   */\n      revert\n        /* \"#utility.yul\":15157:15328   */\n    tag_59:\n        /* \"#utility.yul\":15196:15199   */\n      0x00\n        /* \"#utility.yul\":15219:15243   */\n      tag_314\n        /* \"#utility.yul\":15237:15242   */\n      dup3\n        /* \"#utility.yul\":15219:15243   */\n      tag_125\n      jump\t// in\n    tag_314:\n        /* \"#utility.yul\":15210:15243   */\n      swap2\n      pop\n        /* \"#utility.yul\":15265:15269   */\n      0x00\n        /* \"#utility.yul\":15258:15263   */\n      dup3\n        /* \"#utility.yul\":15255:15270   */\n      sub\n        /* \"#utility.yul\":15252:15293   */\n      tag_315\n      jumpi\n        /* \"#utility.yul\":15273:15291   */\n      tag_316\n      tag_160\n      jump\t// in\n    tag_316:\n        /* \"#utility.yul\":15252:15293   */\n    tag_315:\n        /* \"#utility.yul\":15320:15321   */\n      0x01\n        /* \"#utility.yul\":15313:15318   */\n      dup3\n        /* \"#utility.yul\":15309:15322   */\n      sub\n        /* \"#utility.yul\":15302:15322   */\n      swap1\n      pop\n        /* \"#utility.yul\":15157:15328   */\n      swap2\n      swap1\n      pop\n      jump\t// out\n        /* \"#utility.yul\":15334:15887   */\n    tag_64:\n        /* \"#utility.yul\":15511:15515   */\n      0x00\n        /* \"#utility.yul\":15549:15552   */\n      0x80\n        /* \"#utility.yul\":15538:15547   */\n      dup3\n        /* \"#utility.yul\":15534:15553   */\n      add\n        /* \"#utility.yul\":15526:15553   */\n      swap1\n      pop\n        /* \"#utility.yul\":15563:15634   */\n      tag_318\n        /* \"#utility.yul\":15631:15632   */\n      0x00\n        /* \"#utility.yul\":15620:15629   */\n      dup4\n        /* \"#utility.yul\":15616:15633   */\n      add\n        /* \"#utility.yul\":15607:15613   */\n      dup8\n        /* \"#utility.yul\":15563:15634   */\n      tag_136\n      jump\t// in\n    tag_318:\n        /* \"#utility.yul\":15644:15716   */\n      tag_319\n        /* \"#utility.yul\":15712:15714   */\n      0x20\n        /* \"#utility.yul\":15701:15710   */\n      dup4\n        /* \"#utility.yul\":15697:15715   */\n      add\n        /* \"#utility.yul\":15688:15694   */\n      dup7\n        /* \"#utility.yul\":15644:15716   */\n      tag_136\n      jump\t// in\n    tag_319:\n        /* \"#utility.yul\":15726:15798   */\n      tag_320\n        /* \"#utility.yul\":15794:15796   */\n      0x40\n        /* \"#utility.yul\":15783:15792   */\n      dup4\n        /* \"#utility.yul\":15779:15797   */\n      add\n        /* \"#utility.yul\":15770:15776   */\n      dup6\n        /* \"#utility.yul\":15726:15798   */\n      tag_146\n      jump\t// in\n    tag_320:\n        /* \"#utility.yul\":15808:15880   */\n      tag_321\n        /* \"#utility.yul\":15876:15878   */\n      0x60\n        /* \"#utility.yul\":15865:15874   */\n      dup4\n        /* \"#utility.yul\":15861:15879   */\n      add\n        /* \"#utility.yul\":15852:15858   */\n      dup5\n        /* \"#utility.yul\":15808:15880   */\n      tag_146\n      jump\t// in\n    tag_321:\n        /* \"#utility.yul\":15334:15887   */\n      swap6\n      swap5\n      pop\n      pop\n      pop\n      pop\n      pop\n      jump\t// out\n        /* \"#utility.yul\":15893:16073   */\n    tag_161:\n        /* \"#utility.yul\":15941:16018   */\n      0x4e487b7100000000000000000000000000000000000000000000000000000000\n        /* \"#utility.yul\":15938:15939   */\n      0x00\n        /* \"#utility.yul\":15931:16019   */\n      mstore\n        /* \"#utility.yul\":16038:16042   */\n      0x22\n        /* \"#utility.yul\":16035:16036   */\n      0x04\n        /* \"#utility.yul\":16028:16043   */\n      mstore\n        /* \"#utility.yul\":16062:16066   */\n      0x24\n        /* \"#utility.yul\":16059:16060   */\n      0x00\n        /* \"#utility.yul\":16052:16067   */\n      revert\n        /* \"#utility.yul\":16079:16399   */\n    tag_72:\n        /* \"#utility.yul\":16123:16129   */\n      0x00\n        /* \"#utility.yul\":16160:16161   */\n      0x02\n        /* \"#utility.yul\":16154:16158   */\n      dup3\n        /* \"#utility.yul\":16150:16162   */\n      div\n        /* \"#utility.yul\":16140:16162   */\n      swap1\n      pop\n        /* \"#utility.yul\":16207:16208   */\n      0x01\n        /* \"#utility.yul\":16201:16205   */\n      dup3\n        /* \"#utility.yul\":16197:16209   */\n      and\n        /* \"#utility.yul\":16228:16246   */\n      dup1\n        /* \"#utility.yul\":16218:16299   */\n      tag_324\n      jumpi\n        /* \"#utility.yul\":16284:16288   */\n      0x7f\n        /* \"#utility.yul\":16276:16282   */\n      dup3\n        /* \"#utility.yul\":16272:16289   */\n      and\n        /* \"#utility.yul\":16262:16289   */\n      swap2\n      pop\n        /* \"#utility.yul\":16218:16299   */\n    tag_324:\n        /* \"#utility.yul\":16346:16348   */\n      0x20\n        /* \"#utility.yul\":16338:16344   */\n      dup3\n        /* \"#utility.yul\":16335:16349   */\n      lt\n        /* \"#utility.yul\":16315:16333   */\n      dup2\n        /* \"#utility.yul\":16312:16350   */\n      sub\n        /* \"#utility.yul\":16309:16393   */\n      tag_325\n      jumpi\n        /* \"#utility.yul\":16365:16383   */\n      tag_326\n      tag_161\n      jump\t// in\n    tag_326:\n        /* \"#utility.yul\":16309:16393   */\n    tag_325:\n        /* \"#utility.yul\":16130:16399   */\n      pop\n        /* \"#utility.yul\":16079:16399   */\n      swap2\n      swap1\n      pop\n      jump\t// out\n        /* \"#utility.yul\":16405:16580   */\n    tag_162:\n        /* \"#utility.yul\":16545:16572   */\n      0x54686520747769747320697320746f6f206c6f6e672062726f00000000000000\n        /* \"#utility.yul\":16541:16542   */\n      0x00\n        /* \"#utility.yul\":16533:16539   */\n      dup3\n        /* \"#utility.yul\":16529:16543   */\n      add\n        /* \"#utility.yul\":16522:16573   */\n      mstore\n        /* \"#utility.yul\":16405:16580   */\n      pop\n      jump\t// out\n        /* \"#utility.yul\":16586:16952   */\n    tag_163:\n        /* \"#utility.yul\":16728:16731   */\n      0x00\n        /* \"#utility.yul\":16749:16816   */\n      tag_329\n        /* \"#utility.yul\":16813:16815   */\n      0x19\n        /* \"#utility.yul\":16808:16811   */\n      dup4\n        /* \"#utility.yul\":16749:16816   */\n      tag_147\n      jump\t// in\n    tag_329:\n        /* \"#utility.yul\":16742:16816   */\n      swap2\n      pop\n        /* \"#utility.yul\":16825:16918   */\n      tag_330\n        /* \"#utility.yul\":16914:16917   */\n      dup3\n        /* \"#utility.yul\":16825:16918   */\n      tag_162\n      jump\t// in\n    tag_330:\n        /* \"#utility.yul\":16943:16945   */\n      0x20\n        /* \"#utility.yul\":16938:16941   */\n      dup3\n        /* \"#utility.yul\":16934:16946   */\n      add\n        /* \"#utility.yul\":16927:16946   */\n      swap1\n      pop\n        /* \"#utility.yul\":16586:16952   */\n      swap2\n      swap1\n      pop\n      jump\t// out\n        /* \"#utility.yul\":16958:17377   */\n    tag_80:\n        /* \"#utility.yul\":17124:17128   */\n      0x00\n        /* \"#utility.yul\":17162:17164   */\n      0x20\n        /* \"#utility.yul\":17151:17160   */\n      dup3\n        /* \"#utility.yul\":17147:17165   */\n      add\n        /* \"#utility.yul\":17139:17165   */\n      swap1\n      pop\n        /* \"#utility.yul\":17211:17220   */\n      dup2\n        /* \"#utility.yul\":17205:17209   */\n      dup2\n        /* \"#utility.yul\":17201:17221   */\n      sub\n        /* \"#utility.yul\":17197:17198   */\n      0x00\n        /* \"#utility.yul\":17186:17195   */\n      dup4\n        /* \"#utility.yul\":17182:17199   */\n      add\n        /* \"#utility.yul\":17175:17222   */\n      mstore\n        /* \"#utility.yul\":17239:17370   */\n      tag_332\n        /* \"#utility.yul\":17365:17369   */\n      dup2\n        /* \"#utility.yul\":17239:17370   */\n      tag_163\n      jump\t// in\n    tag_332:\n        /* \"#utility.yul\":17231:17370   */\n      swap1\n      pop\n        /* \"#utility.yul\":16958:17377   */\n      swap2\n      swap1\n      pop\n      jump\t// out\n        /* \"#utility.yul\":17383:17524   */\n    tag_164:\n        /* \"#utility.yul\":17432:17436   */\n      0x00\n        /* \"#utility.yul\":17455:17458   */\n      dup2\n        /* \"#utility.yul\":17447:17458   */\n      swap1\n      pop\n        /* \"#utility.yul\":17478:17481   */\n      dup2\n        /* \"#utility.yul\":17475:17476   */\n      0x00\n        /* \"#utility.yul\":17468:17482   */\n      mstore\n        /* \"#utility.yul\":17512:17516   */\n      0x20\n        /* \"#utility.yul\":17509:17510   */\n      0x00\n        /* \"#utility.yul\":17499:17517   */\n      keccak256\n        /* \"#utility.yul\":17491:17517   */\n      swap1\n      pop\n        /* \"#utility.yul\":17383:17524   */\n      swap2\n      swap1\n      pop\n      jump\t// out\n        /* \"#utility.yul\":17530:17623   */\n    tag_165:\n        /* \"#utility.yul\":17567:17573   */\n      0x00\n        /* \"#utility.yul\":17614:17616   */\n      0x20\n        /* \"#utility.yul\":17609:17611   */\n      0x1f\n        /* \"#utility.yul\":17602:17607   */\n      dup4\n        /* \"#utility.yul\":17598:17612   */\n      add\n        /* \"#utility.yul\":17594:17617   */\n      div\n        /* \"#utility.yul\":17584:17617   */\n      swap1\n      pop\n        /* \"#utility.yul\":17530:17623   */\n      swap2\n      swap1\n      pop\n      jump\t// out\n        /* \"#utility.yul\":17629:17736   */\n    tag_166:\n        /* \"#utility.yul\":17673:17681   */\n      0x00\n        /* \"#utility.yul\":17723:17728   */\n      dup3\n        /* \"#utility.yul\":17717:17721   */\n      dup3\n        /* \"#utility.yul\":17713:17729   */\n      shl\n        /* \"#utility.yul\":17692:17729   */\n      swap1\n      pop\n        /* \"#utility.yul\":17629:17736   */\n      swap3\n      swap2\n      pop\n      pop\n      jump\t// out\n        /* \"#utility.yul\":17742:18135   */\n    tag_167:\n        /* \"#utility.yul\":17811:17817   */\n      0x00\n        /* \"#utility.yul\":17861:17862   */\n      0x08\n        /* \"#utility.yul\":17849:17859   */\n      dup4\n        /* \"#utility.yul\":17845:17863   */\n      mul\n        /* \"#utility.yul\":17884:17981   */\n      tag_337\n        /* \"#utility.yul\":17914:17980   */\n      0xffffffffffffffffffffffffffffffffffffffffffffffffffffffffffffffff\n        /* \"#utility.yul\":17903:17912   */\n      dup3\n        /* \"#utility.yul\":17884:17981   */\n      tag_166\n      jump\t// in\n    tag_337:\n        /* \"#utility.yul\":18002:18041   */\n      tag_338\n        /* \"#utility.yul\":18032:18040   */\n      dup7\n        /* \"#utility.yul\":18021:18030   */\n      dup4\n        /* \"#utility.yul\":18002:18041   */\n      tag_166\n      jump\t// in\n    tag_338:\n        /* \"#utility.yul\":17990:18041   */\n      swap6\n      pop\n        /* \"#utility.yul\":18074:18078   */\n      dup1\n        /* \"#utility.yul\":18070:18079   */\n      not\n        /* \"#utility.yul\":18063:18068   */\n      dup5\n        /* \"#utility.yul\":18059:18080   */\n      and\n        /* \"#utility.yul\":18050:18080   */\n      swap4\n      pop\n        /* \"#utility.yul\":18123:18127   */\n      dup1\n        /* \"#utility.yul\":18113:18121   */\n      dup7\n        /* \"#utility.yul\":18109:18128   */\n      and\n        /* \"#utility.yul\":18102:18107   */\n      dup5\n        /* \"#utility.yul\":18099:18129   */\n      or\n        /* \"#utility.yul\":18089:18129   */\n      swap3\n      pop\n        /* \"#utility.yul\":17818:18135   */\n      pop\n      pop\n        /* \"#utility.yul\":17742:18135   */\n      swap4\n      swap3\n      pop\n      pop\n      pop\n      jump\t// out\n        /* \"#utility.yul\":18141:18201   */\n    tag_168:\n        /* \"#utility.yul\":18169:18172   */\n      0x00\n        /* \"#utility.yul\":18190:18195   */\n      dup2\n        /* \"#utility.yul\":18183:18195   */\n      swap1\n      pop\n        /* \"#utility.yul\":18141:18201   */\n      swap2\n      swap1\n      pop\n      jump\t// out\n        /* \"#utility.yul\":18207:18349   */\n    tag_169:\n        /* \"#utility.yul\":18257:18266   */\n      0x00\n        /* \"#utility.yul\":18290:18343   */\n      tag_341\n        /* \"#utility.yul\":18308:18342   */\n      tag_342\n        /* \"#utility.yul\":18317:18341   */\n      tag_343\n        /* \"#utility.yul\":18335:18340   */\n      dup5\n        /* \"#utility.yul\":18317:18341   */\n      tag_125\n      jump\t// in\n    tag_343:\n        /* \"#utility.yul\":18308:18342   */\n      tag_168\n      jump\t// in\n    tag_342:\n        /* \"#utility.yul\":18290:18343   */\n      tag_125\n      jump\t// in\n    tag_341:\n        /* \"#utility.yul\":18277:18343   */\n      swap1\n      pop\n        /* \"#utility.yul\":18207:18349   */\n      swap2\n      swap1\n      pop\n      jump\t// out\n        /* \"#utility.yul\":18355:18430   */\n    tag_170:\n        /* \"#utility.yul\":18398:18401   */\n      0x00\n        /* \"#utility.yul\":18419:18424   */\n      dup2\n        /* \"#utility.yul\":18412:18424   */\n      swap1\n      pop\n        /* \"#utility.yul\":18355:18430   */\n      swap2\n      swap1\n      pop\n      jump\t// out\n        /* \"#utility.yul\":18436:18705   */\n    tag_171:\n        /* \"#utility.yul\":18546:18585   */\n      tag_346\n        /* \"#utility.yul\":18577:18584   */\n      dup4\n        /* \"#utility.yul\":18546:18585   */\n      tag_169\n      jump\t// in\n    tag_346:\n        /* \"#utility.yul\":18607:18698   */\n      tag_347\n        /* \"#utility.yul\":18656:18697   */\n      tag_348\n        /* \"#utility.yul\":18680:18696   */\n      dup3\n        /* \"#utility.yul\":18656:18697   */\n      tag_170\n      jump\t// in\n    tag_348:\n        /* \"#utility.yul\":18648:18654   */\n      dup5\n        /* \"#utility.yul\":18641:18645   */\n      dup5\n        /* \"#utility.yul\":18635:18646   */\n      sload\n        /* \"#utility.yul\":18607:18698   */\n      tag_167\n      jump\t// in\n    tag_347:\n        /* \"#utility.yul\":18601:18605   */\n      dup3\n        /* \"#utility.yul\":18594:18699   */\n      sstore\n        /* \"#utility.yul\":18512:18705   */\n      pop\n        /* \"#utility.yul\":18436:18705   */\n      pop\n      pop\n      pop\n      jump\t// out\n        /* \"#utility.yul\":18711:18784   */\n    tag_172:\n        /* \"#utility.yul\":18756:18759   */\n      0x00\n        /* \"#utility.yul\":18711:18784   */\n      swap1\n      jump\t// out\n        /* \"#utility.yul\":18790:18979   */\n    tag_173:\n        /* \"#utility.yul\":18867:18899   */\n      tag_351\n      tag_172\n      jump\t// in\n    tag_351:\n        /* \"#utility.yul\":18908:18973   */\n      tag_352\n        /* \"#utility.yul\":18966:18972   */\n      dup2\n        /* \"#utility.yul\":18958:18964   */\n      dup5\n        /* \"#utility.yul\":18952:18956   */\n      dup5\n        /* \"#utility.yul\":18908:18973   */\n      tag_171\n      jump\t// in\n    tag_352:\n        /* \"#utility.yul\":18843:18979   */\n      pop\n        /* \"#utility.yul\":18790:18979   */\n      pop\n      pop\n      jump\t// out\n        /* \"#utility.yul\":18985:19171   */\n    tag_174:\n        /* \"#utility.yul\":19045:19165   */\n    tag_354:\n        /* \"#utility.yul\":19062:19065   */\n      dup2\n        /* \"#utility.yul\":19055:19060   */\n      dup2\n        /* \"#utility.yul\":19052:19066   */\n      lt\n        /* \"#utility.yul\":19045:19165   */\n      iszero\n      tag_356\n      jumpi\n        /* \"#utility.yul\":19116:19155   */\n      tag_357\n        /* \"#utility.yul\":19153:19154   */\n      0x00\n        /* \"#utility.yul\":19146:19151   */\n      dup3\n        /* \"#utility.yul\":19116:19155   */\n      tag_173\n      jump\t// in\n    tag_357:\n        /* \"#utility.yul\":19089:19090   */\n      0x01\n        /* \"#utility.yul\":19082:19087   */\n      dup2\n        /* \"#utility.yul\":19078:19091   */\n      add\n        /* \"#utility.yul\":19069:19091   */\n      swap1\n      pop\n        /* \"#utility.yul\":19045:19165   */\n      jump(tag_354)\n    tag_356:\n        /* \"#utility.yul\":18985:19171   */\n      pop\n      pop\n      jump\t// out\n        /* \"#utility.yul\":19177:19720   */\n    tag_175:\n        /* \"#utility.yul\":19278:19280   */\n      0x1f\n        /* \"#utility.yul\":19273:19276   */\n      dup3\n        /* \"#utility.yul\":19270:19281   */\n      gt\n        /* \"#utility.yul\":19267:19713   */\n      iszero\n      tag_359\n      jumpi\n        /* \"#utility.yul\":19312:19350   */\n      tag_360\n        /* \"#utility.yul\":19344:19349   */\n      dup2\n        /* \"#utility.yul\":19312:19350   */\n      tag_164\n      jump\t// in\n    tag_360:\n        /* \"#utility.yul\":19396:19425   */\n      tag_361\n        /* \"#utility.yul\":19414:19424   */\n      dup5\n        /* \"#utility.yul\":19396:19425   */\n      tag_165\n      jump\t// in\n    tag_361:\n        /* \"#utility.yul\":19386:19394   */\n      dup2\n        /* \"#utility.yul\":19382:19426   */\n      add\n        /* \"#utility.yul\":19579:19581   */\n      0x20\n        /* \"#utility.yul\":19567:19577   */\n      dup6\n        /* \"#utility.yul\":19564:19582   */\n      lt\n        /* \"#utility.yul\":19561:19610   */\n      iszero\n      tag_362\n      jumpi\n        /* \"#utility.yul\":19600:19608   */\n      dup2\n        /* \"#utility.yul\":19585:19608   */\n      swap1\n      pop\n        /* \"#utility.yul\":19561:19610   */\n    tag_362:\n        /* \"#utility.yul\":19623:19703   */\n      tag_363\n        /* \"#utility.yul\":19679:19701   */\n      tag_364\n        /* \"#utility.yul\":19697:19700   */\n      dup6\n        /* \"#utility.yul\":19679:19701   */\n      tag_165\n      jump\t// in\n    tag_364:\n        /* \"#utility.yul\":19669:19677   */\n      dup4\n        /* \"#utility.yul\":19665:19702   */\n      add\n        /* \"#utility.yul\":19652:19663   */\n      dup3\n        /* \"#utility.yul\":19623:19703   */\n      tag_174\n      jump\t// in\n    tag_363:\n        /* \"#utility.yul\":19282:19713   */\n      pop\n      pop\n        /* \"#utility.yul\":19267:19713   */\n    tag_359:\n        /* \"#utility.yul\":19177:19720   */\n      pop\n      pop\n      pop\n      jump\t// out\n        /* \"#utility.yul\":19726:19843   */\n    tag_176:\n        /* \"#utility.yul\":19780:19788   */\n      0x00\n        /* \"#utility.yul\":19830:19835   */\n      dup3\n        /* \"#utility.yul\":19824:19828   */\n      dup3\n        /* \"#utility.yul\":19820:19836   */\n      shr\n        /* \"#utility.yul\":19799:19836   */\n      swap1\n      pop\n        /* \"#utility.yul\":19726:19843   */\n      swap3\n      swap2\n      pop\n      pop\n      jump\t// out\n        /* \"#utility.yul\":19849:20018   */\n    tag_177:\n        /* \"#utility.yul\":19893:19899   */\n      0x00\n        /* \"#utility.yul\":19926:19977   */\n      tag_367\n        /* \"#utility.yul\":19974:19975   */\n      0x00\n        /* \"#utility.yul\":19970:19976   */\n      not\n        /* \"#utility.yul\":19962:19967   */\n      dup5\n        /* \"#utility.yul\":19959:19960   */\n      0x08\n        /* \"#utility.yul\":19955:19968   */\n      mul\n        /* \"#utility.yul\":19926:19977   */\n      tag_176\n      jump\t// in\n    tag_367:\n        /* \"#utility.yul\":19922:19978   */\n      not\n        /* \"#utility.yul\":20007:20011   */\n      dup1\n        /* \"#utility.yul\":20001:20005   */\n      dup4\n        /* \"#utility.yul\":19997:20012   */\n      and\n        /* \"#utility.yul\":19987:20012   */\n      swap2\n      pop\n        /* \"#utility.yul\":19900:20018   */\n      pop\n        /* \"#utility.yul\":19849:20018   */\n      swap3\n      swap2\n      pop\n      pop\n      jump\t// out\n        /* \"#utility.yul\":20023:20318   */\n    tag_178:\n        /* \"#utility.yul\":20099:20103   */\n      0x00\n        /* \"#utility.yul\":20245:20274   */\n      tag_369\n        /* \"#utility.yul\":20270:20273   */\n      dup4\n        /* \"#utility.yul\":20264:20268   */\n      dup4\n        /* \"#utility.yul\":20245:20274   */\n      tag_177\n      jump\t// in\n    tag_369:\n        /* \"#utility.yul\":20237:20274   */\n      swap2\n      pop\n        /* \"#utility.yul\":20307:20310   */\n      dup3\n        /* \"#utility.yul\":20304:20305   */\n      0x02\n        /* \"#utility.yul\":20300:20311   */\n      mul\n        /* \"#utility.yul\":20294:20298   */\n      dup3\n        /* \"#utility.yul\":20291:20312   */\n      or\n        /* \"#utility.yul\":20283:20312   */\n      swap1\n      pop\n        /* \"#utility.yul\":20023:20318   */\n      swap3\n      swap2\n      pop\n      pop\n      jump\t// out\n        /* \"#utility.yul\":20323:21718   */\n    tag_84:\n        /* \"#utility.yul\":20440:20477   */\n      tag_371\n        /* \"#utility.yul\":20473:20476   */\n      dup3\n        /* \"#utility.yul\":20440:20477   */\n      tag_130\n      jump\t// in\n    tag_371:\n        /* \"#utility.yul\":20542:20560   */\n      0xffffffffffffffff\n        /* \"#utility.yul\":20534:20540   */\n      dup2\n        /* \"#utility.yul\":20531:20561   */\n      gt\n        /* \"#utility.yul\":20528:20584   */\n      iszero\n      tag_372\n      jumpi\n        /* \"#utility.yul\":20564:20582   */\n      tag_373\n      tag_139\n      jump\t// in\n    tag_373:\n        /* \"#utility.yul\":20528:20584   */\n    tag_372:\n        /* \"#utility.yul\":20608:20646   */\n      tag_374\n        /* \"#utility.yul\":20640:20644   */\n      dup3\n        /* \"#utility.yul\":20634:20645   */\n      sload\n        /* \"#utility.yul\":20608:20646   */\n      tag_72\n      jump\t// in\n    tag_374:\n        /* \"#utility.yul\":20693:20760   */\n      tag_375\n        /* \"#utility.yul\":20753:20759   */\n      dup3\n        /* \"#utility.yul\":20745:20751   */\n      dup3\n        /* \"#utility.yul\":20739:20743   */\n      dup6\n        /* \"#utility.yul\":20693:20760   */\n      tag_175\n      jump\t// in\n    tag_375:\n        /* \"#utility.yul\":20787:20788   */\n      0x00\n        /* \"#utility.yul\":20811:20815   */\n      0x20\n        /* \"#utility.yul\":20798:20815   */\n      swap1\n      pop\n        /* \"#utility.yul\":20843:20845   */\n      0x1f\n        /* \"#utility.yul\":20835:20841   */\n      dup4\n        /* \"#utility.yul\":20832:20846   */\n      gt\n        /* \"#utility.yul\":20860:20861   */\n      0x01\n        /* \"#utility.yul\":20855:21473   */\n      dup2\n      eq\n      tag_377\n      jumpi\n        /* \"#utility.yul\":21517:21518   */\n      0x00\n        /* \"#utility.yul\":21534:21540   */\n      dup5\n        /* \"#utility.yul\":21531:21608   */\n      iszero\n      tag_378\n      jumpi\n        /* \"#utility.yul\":21583:21592   */\n      dup3\n        /* \"#utility.yul\":21578:21581   */\n      dup8\n        /* \"#utility.yul\":21574:21593   */\n      add\n        /* \"#utility.yul\":21568:21594   */\n      mload\n        /* \"#utility.yul\":21559:21594   */\n      swap1\n      pop\n        /* \"#utility.yul\":21531:21608   */\n    tag_378:\n        /* \"#utility.yul\":21634:21701   */\n      tag_379\n        /* \"#utility.yul\":21694:21700   */\n      dup6\n        /* \"#utility.yul\":21687:21692   */\n      dup3\n        /* \"#utility.yul\":21634:21701   */\n      tag_178\n      jump\t// in\n    tag_379:\n        /* \"#utility.yul\":21628:21632   */\n      dup7\n        /* \"#utility.yul\":21621:21702   */\n      sstore\n        /* \"#utility.yul\":21490:21712   */\n      pop\n        /* \"#utility.yul\":20825:21712   */\n      jump(tag_376)\n        /* \"#utility.yul\":20855:21473   */\n    tag_377:\n        /* \"#utility.yul\":20907:20911   */\n      0x1f\n        /* \"#utility.yul\":20903:20912   */\n      not\n        /* \"#utility.yul\":20895:20901   */\n      dup5\n        /* \"#utility.yul\":20891:20913   */\n      and\n        /* \"#utility.yul\":20941:20978   */\n      tag_380\n        /* \"#utility.yul\":20973:20977   */\n      dup7\n        /* \"#utility.yul\":20941:20978   */\n      tag_164\n      jump\t// in\n    tag_380:\n        /* \"#utility.yul\":21000:21001   */\n      0x00\n        /* \"#utility.yul\":21014:21222   */\n    tag_381:\n        /* \"#utility.yul\":21028:21035   */\n      dup3\n        /* \"#utility.yul\":21025:21026   */\n      dup2\n        /* \"#utility.yul\":21022:21036   */\n      lt\n        /* \"#utility.yul\":21014:21222   */\n      iszero\n      tag_383\n      jumpi\n        /* \"#utility.yul\":21107:21116   */\n      dup5\n        /* \"#utility.yul\":21102:21105   */\n      dup10\n        /* \"#utility.yul\":21098:21117   */\n      add\n        /* \"#utility.yul\":21092:21118   */\n      mload\n        /* \"#utility.yul\":21084:21090   */\n      dup3\n        /* \"#utility.yul\":21077:21119   */\n      sstore\n        /* \"#utility.yul\":21158:21159   */\n      0x01\n        /* \"#utility.yul\":21150:21156   */\n      dup3\n        /* \"#utility.yul\":21146:21160   */\n      add\n        /* \"#utility.yul\":21136:21160   */\n      swap2\n      pop\n        /* \"#utility.yul\":21205:21207   */\n      0x20\n        /* \"#utility.yul\":21194:21203   */\n      dup6\n        /* \"#utility.yul\":21190:21208   */\n      add\n        /* \"#utility.yul\":21177:21208   */\n      swap5\n      pop\n        /* \"#utility.yul\":21051:21055   */\n      0x20\n        /* \"#utility.yul\":21048:21049   */\n      dup2\n        /* \"#utility.yul\":21044:21056   */\n      add\n        /* \"#utility.yul\":21039:21056   */\n      swap1\n      pop\n        /* \"#utility.yul\":21014:21222   */\n      jump(tag_381)\n    tag_383:\n        /* \"#utility.yul\":21250:21256   */\n      dup7\n        /* \"#utility.yul\":21241:21248   */\n      dup4\n        /* \"#utility.yul\":21238:21257   */\n      lt\n        /* \"#utility.yul\":21235:21414   */\n      iszero\n      tag_384\n      jumpi\n        /* \"#utility.yul\":21308:21317   */\n      dup5\n        /* \"#utility.yul\":21303:21306   */\n      dup10\n        /* \"#utility.yul\":21299:21318   */\n      add\n        /* \"#utility.yul\":21293:21319   */\n      mload\n        /* \"#utility.yul\":21351:21399   */\n      tag_385\n        /* \"#utility.yul\":21393:21397   */\n      0x1f\n        /* \"#utility.yul\":21385:21391   */\n      dup10\n        /* \"#utility.yul\":21381:21398   */\n      and\n        /* \"#utility.yul\":21370:21379   */\n      dup3\n        /* \"#utility.yul\":21351:21399   */\n      tag_177\n      jump\t// in\n    tag_385:\n        /* \"#utility.yul\":21343:21349   */\n      dup4\n        /* \"#utility.yul\":21336:21400   */\n      sstore\n        /* \"#utility.yul\":21258:21414   */\n      pop\n        /* \"#utility.yul\":21235:21414   */\n    tag_384:\n        /* \"#utility.yul\":21460:21461   */\n      0x01\n        /* \"#utility.yul\":21456:21457   */\n      0x02\n        /* \"#utility.yul\":21448:21454   */\n      dup9\n        /* \"#utility.yul\":21444:21458   */\n      mul\n        /* \"#utility.yul\":21440:21462   */\n      add\n        /* \"#utility.yul\":21434:21438   */\n      dup9\n        /* \"#utility.yul\":21427:21463   */\n      sstore\n        /* \"#utility.yul\":20862:21473   */\n      pop\n      pop\n      pop\n        /* \"#utility.yul\":20825:21712   */\n    tag_376:\n      pop\n        /* \"#utility.yul\":20415:21718   */\n      pop\n      pop\n      pop\n        /* \"#utility.yul\":20323:21718   */\n      pop\n      pop\n      jump\t// out\n        /* \"#utility.yul\":21724:22368   */\n    tag_86:\n        /* \"#utility.yul\":21921:21925   */\n      0x00\n        /* \"#utility.yul\":21959:21962   */\n      0x80\n        /* \"#utility.yul\":21948:21957   */\n      dup3\n        /* \"#utility.yul\":21944:21963   */\n      add\n        /* \"#utility.yul\":21936:21963   */\n      swap1\n      pop\n        /* \"#utility.yul\":21973:22044   */\n      tag_387\n        /* \"#utility.yul\":22041:22042   */\n      0x00\n        /* \"#utility.yul\":22030:22039   */\n      dup4\n        /* \"#utility.yul\":22026:22043   */\n      add\n        /* \"#utility.yul\":22017:22023   */\n      dup8\n        /* \"#utility.yul\":21973:22044   */\n      tag_146\n      jump\t// in\n    tag_387:\n        /* \"#utility.yul\":22054:22126   */\n      tag_388\n        /* \"#utility.yul\":22122:22124   */\n      0x20\n        /* \"#utility.yul\":22111:22120   */\n      dup4\n        /* \"#utility.yul\":22107:22125   */\n      add\n        /* \"#utility.yul\":22098:22104   */\n      dup7\n        /* \"#utility.yul\":22054:22126   */\n      tag_136\n      jump\t// in\n    tag_388:\n        /* \"#utility.yul\":22173:22182   */\n      dup2\n        /* \"#utility.yul\":22167:22171   */\n      dup2\n        /* \"#utility.yul\":22163:22183   */\n      sub\n        /* \"#utility.yul\":22158:22160   */\n      0x40\n        /* \"#utility.yul\":22147:22156   */\n      dup4\n        /* \"#utility.yul\":22143:22161   */\n      add\n        /* \"#utility.yul\":22136:22184   */\n      mstore\n        /* \"#utility.yul\":22201:22279   */\n      tag_389\n        /* \"#utility.yul\":22274:22278   */\n      dup2\n        /* \"#utility.yul\":22265:22271   */\n      dup6\n        /* \"#utility.yul\":22201:22279   */\n      tag_148\n      jump\t// in\n    tag_389:\n        /* \"#utility.yul\":22193:22279   */\n      swap1\n      pop\n        /* \"#utility.yul\":22289:22361   */\n      tag_390\n        /* \"#utility.yul\":22357:22359   */\n      0x60\n        /* \"#utility.yul\":22346:22355   */\n      dup4\n        /* \"#utility.yul\":22342:22360   */\n      add\n        /* \"#utility.yul\":22333:22339   */\n      dup5\n        /* \"#utility.yul\":22289:22361   */\n      tag_146\n      jump\t// in\n    tag_390:\n        /* \"#utility.yul\":21724:22368   */\n      swap6\n      swap5\n      pop\n      pop\n      pop\n      pop\n      pop\n      jump\t// out\n        /* \"#utility.yul\":22374:22607   */\n    tag_97:\n        /* \"#utility.yul\":22413:22416   */\n      0x00\n        /* \"#utility.yul\":22436:22460   */\n      tag_392\n        /* \"#utility.yul\":22454:22459   */\n      dup3\n        /* \"#utility.yul\":22436:22460   */\n      tag_125\n      jump\t// in\n    tag_392:\n        /* \"#utility.yul\":22427:22460   */\n      swap2\n      pop\n        /* \"#utility.yul\":22482:22548   */\n      0xffffffffffffffffffffffffffffffffffffffffffffffffffffffffffffffff\n        /* \"#utility.yul\":22475:22480   */\n      dup3\n        /* \"#utility.yul\":22472:22549   */\n      sub\n        /* \"#utility.yul\":22469:22572   */\n      tag_393\n      jumpi\n        /* \"#utility.yul\":22552:22570   */\n      tag_394\n      tag_160\n      jump\t// in\n    tag_394:\n        /* \"#utility.yul\":22469:22572   */\n    tag_393:\n        /* \"#utility.yul\":22599:22600   */\n      0x01\n        /* \"#utility.yul\":22592:22597   */\n      dup3\n        /* \"#utility.yul\":22588:22601   */\n      add\n        /* \"#utility.yul\":22581:22601   */\n      swap1\n      pop\n        /* \"#utility.yul\":22374:22607   */\n      swap2\n      swap1\n      pop\n      jump\t// out\n\n    auxdata: 0xa2646970667358221220951f890dea581fd9307e71e66752bcb45131d17ae484cf7748ae1cc9574cde6f64736f6c634300081a0033\n}\n",
				"bytecode": {
					"linkReferences": {},
					"object": "6080604052348015600e575f80fd5b503360015f6101000a81548173ffffffffffffffffffffffffffffffffffffffff021916908373ffffffffffffffffffffffffffffffffffffffff1602179055506117388061005c5f395ff3fe608060405234801561000f575f80fd5b506004361061007b575f3560e01c806395a09e961161005957806395a09e96146100e9578063cd73e24e14610105578063da377e2414610121578063ea71429b146101555761007b565b80631cbf243a1461007f5780638017d9301461009b5780638da5cb5b146100cb575b5f80fd5b61009960048036038101906100949190610c64565b610173565b005b6100b560048036038101906100b09190610ca2565b6103c0565b6040516100c29190610dce565b60405180910390f35b6100d3610536565b6040516100e09190610dfd565b60405180910390f35b61010360048036038101906100fe9190610f42565b61055b565b005b61011f600480360381019061011a9190610c64565b61074f565b005b61013b60048036038101906101369190610c64565b6108fd565b60405161014c959493929190610fe0565b60405180910390f35b61015d6109ed565b60405161016a9190611166565b60405180910390f35b805f808473ffffffffffffffffffffffffffffffffffffffff1673ffffffffffffffffffffffffffffffffffffffff1681526020019081526020015f2082815481106101c2576101c1611186565b5b905f5260205f2090600502015f015414610211576040517f08c379a0000000000000000000000000000000000000000000000000000000008152600401610208906111fd565b60405180910390fd5b5f805f8473ffffffffffffffffffffffffffffffffffffffff1673ffffffffffffffffffffffffffffffffffffffff1681526020019081526020015f2082815481106102605761025f611186565b5b905f5260205f20906005020160040154116102b0576040517f08c379a00000000000000000000000000000000000000000000000000000000081526004016102a79061128b565b60405180910390fd5b5f808373ffffffffffffffffffffffffffffffffffffffff1673ffffffffffffffffffffffffffffffffffffffff1681526020019081526020015f2081815481106102fe576102fd611186565b5b905f5260205f2090600502016004015f81548092919061031d906112d6565b91905055507f7f48d70c9d7a7277ade15a005f8fc2924ee37e89b60c8bf735d1d6144de83d9c3383835f808773ffffffffffffffffffffffffffffffffffffffff1673ffffffffffffffffffffffffffffffffffffffff1681526020019081526020015f20858154811061039457610393611186565b5b905f5260205f209060050201600401546040516103b494939291906112fd565b60405180910390a15050565b6103c8610b85565b5f803373ffffffffffffffffffffffffffffffffffffffff1673ffffffffffffffffffffffffffffffffffffffff1681526020019081526020015f20828154811061041657610415611186565b5b905f5260205f2090600502016040518060a00160405290815f8201548152602001600182015f9054906101000a900473ffffffffffffffffffffffffffffffffffffffff1673ffffffffffffffffffffffffffffffffffffffff1673ffffffffffffffffffffffffffffffffffffffff16815260200160028201805461049b9061136d565b80601f01602080910402602001604051908101604052809291908181526020018280546104c79061136d565b80156105125780601f106104e957610100808354040283529160200191610512565b820191905f5260205f20905b8154815290600101906020018083116104f557829003601f168201915b50505050508152602001600382015481526020016004820154815250509050919050565b60015f9054906101000a900473ffffffffffffffffffffffffffffffffffffffff1681565b8061012c815111156105a2576040517f08c379a0000000000000000000000000000000000000000000000000000000008152600401610599906113e7565b60405180910390fd5b5f6040518060a001604052805f803373ffffffffffffffffffffffffffffffffffffffff1673ffffffffffffffffffffffffffffffffffffffff1681526020019081526020015f208054905081526020013373ffffffffffffffffffffffffffffffffffffffff1681526020018481526020014281526020015f81525090505f803373ffffffffffffffffffffffffffffffffffffffff1673ffffffffffffffffffffffffffffffffffffffff1681526020019081526020015f2081908060018154018082558091505060019003905f5260205f2090600502015f909190919091505f820151815f01556020820151816001015f6101000a81548173ffffffffffffffffffffffffffffffffffffffff021916908373ffffffffffffffffffffffffffffffffffffffff16021790555060408201518160020190816106e791906115a2565b50606082015181600301556080820151816004015550507f510a64ebf04a5b02533d3c548213b88682eeb19af482f30d80a1c22f1c25b269815f01518260200151836040015184606001516040516107429493929190611671565b60405180910390a1505050565b805f808473ffffffffffffffffffffffffffffffffffffffff1673ffffffffffffffffffffffffffffffffffffffff1681526020019081526020015f20828154811061079e5761079d611186565b5b905f5260205f2090600502015f0154146107ed576040517f08c379a00000000000000000000000000000000000000000000000000000000081526004016107e4906111fd565b60405180910390fd5b5f808373ffffffffffffffffffffffffffffffffffffffff1673ffffffffffffffffffffffffffffffffffffffff1681526020019081526020015f20818154811061083b5761083a611186565b5b905f5260205f2090600502016004015f81548092919061085a906116bb565b91905055507f367f13736a368eb50e2b247609d9119d23d59292fe875534a6627120512b233f3383835f808773ffffffffffffffffffffffffffffffffffffffff1673ffffffffffffffffffffffffffffffffffffffff1681526020019081526020015f2085815481106108d1576108d0611186565b5b905f5260205f209060050201600401546040516108f194939291906112fd565b60405180910390a15050565b5f602052815f5260405f208181548110610915575f80fd5b905f5260205f2090600502015f9150915050805f015490806001015f9054906101000a900473ffffffffffffffffffffffffffffffffffffffff16908060020180546109609061136d565b80601f016020809104026020016040519081016040528092919081815260200182805461098c9061136d565b80156109d75780601f106109ae576101008083540402835291602001916109d7565b820191905f5260205f20905b8154815290600101906020018083116109ba57829003601f168201915b5050505050908060030154908060040154905085565b60605f803373ffffffffffffffffffffffffffffffffffffffff1673ffffffffffffffffffffffffffffffffffffffff1681526020019081526020015f20805480602002602001604051908101604052809291908181526020015f905b82821015610b7c578382905f5260205f2090600502016040518060a00160405290815f8201548152602001600182015f9054906101000a900473ffffffffffffffffffffffffffffffffffffffff1673ffffffffffffffffffffffffffffffffffffffff1673ffffffffffffffffffffffffffffffffffffffff168152602001600282018054610ad99061136d565b80601f0160208091040260200160405190810160405280929190818152602001828054610b059061136d565b8015610b505780601f10610b2757610100808354040283529160200191610b50565b820191905f5260205f20905b815481529060010190602001808311610b3357829003601f168201915b505050505081526020016003820154815260200160048201548152505081526020019060010190610a4a565b50505050905090565b6040518060a001604052805f81526020015f73ffffffffffffffffffffffffffffffffffffffff168152602001606081526020015f81526020015f81525090565b5f604051905090565b5f80fd5b5f80fd5b5f73ffffffffffffffffffffffffffffffffffffffff82169050919050565b5f610c0082610bd7565b9050919050565b610c1081610bf6565b8114610c1a575f80fd5b50565b5f81359050610c2b81610c07565b92915050565b5f819050919050565b610c4381610c31565b8114610c4d575f80fd5b50565b5f81359050610c5e81610c3a565b92915050565b5f8060408385031215610c7a57610c79610bcf565b5b5f610c8785828601610c1d565b9250506020610c9885828601610c50565b9150509250929050565b5f60208284031215610cb757610cb6610bcf565b5b5f610cc484828501610c50565b91505092915050565b610cd681610c31565b82525050565b610ce581610bf6565b82525050565b5f81519050919050565b5f82825260208201905092915050565b8281835e5f83830152505050565b5f601f19601f8301169050919050565b5f610d2d82610ceb565b610d378185610cf5565b9350610d47818560208601610d05565b610d5081610d13565b840191505092915050565b5f60a083015f830151610d705f860182610ccd565b506020830151610d836020860182610cdc565b5060408301518482036040860152610d9b8282610d23565b9150506060830151610db06060860182610ccd565b506080830151610dc36080860182610ccd565b508091505092915050565b5f6020820190508181035f830152610de68184610d5b565b905092915050565b610df781610bf6565b82525050565b5f602082019050610e105f830184610dee565b92915050565b5f80fd5b5f80fd5b7f4e487b71000000000000000000000000000000000000000000000000000000005f52604160045260245ffd5b610e5482610d13565b810181811067ffffffffffffffff82111715610e7357610e72610e1e565b5b80604052505050565b5f610e85610bc6565b9050610e918282610e4b565b919050565b5f67ffffffffffffffff821115610eb057610eaf610e1e565b5b610eb982610d13565b9050602081019050919050565b828183375f83830152505050565b5f610ee6610ee184610e96565b610e7c565b905082815260208101848484011115610f0257610f01610e1a565b5b610f0d848285610ec6565b509392505050565b5f82601f830112610f2957610f28610e16565b5b8135610f39848260208601610ed4565b91505092915050565b5f60208284031215610f5757610f56610bcf565b5b5f82013567ffffffffffffffff811115610f7457610f73610bd3565b5b610f8084828501610f15565b91505092915050565b610f9281610c31565b82525050565b5f82825260208201905092915050565b5f610fb282610ceb565b610fbc8185610f98565b9350610fcc818560208601610d05565b610fd581610d13565b840191505092915050565b5f60a082019050610ff35f830188610f89565b6110006020830187610dee565b81810360408301526110128186610fa8565b90506110216060830185610f89565b61102e6080830184610f89565b9695505050505050565b5f81519050919050565b5f82825260208201905092915050565b5f819050602082019050919050565b5f60a083015f8301516110765f860182610ccd565b5060208301516110896020860182610cdc565b50604083015184820360408601526110a18282610d23565b91505060608301516110b66060860182610ccd565b5060808301516110c96080860182610ccd565b508091505092915050565b5f6110df8383611061565b905092915050565b5f602082019050919050565b5f6110fd82611038565b6111078185611042565b93508360208202850161111985611052565b805f5b85811015611154578484038952815161113585826110d4565b9450611140836110e7565b925060208a0199505060018101905061111c565b50829750879550505050505092915050565b5f6020820190508181035f83015261117e81846110f3565b905092915050565b7f4e487b71000000000000000000000000000000000000000000000000000000005f52603260045260245ffd5b7f546865207477697473206973206e6f742070726573656e7400000000000000005f82015250565b5f6111e7601883610f98565b91506111f2826111b3565b602082019050919050565b5f6020820190508181035f830152611214816111db565b9050919050565b7f736f6d65207468696e672077656e742077726f6e6720696e2074686520756e6c5f8201527f696b652074776974730000000000000000000000000000000000000000000000602082015250565b5f611275602983610f98565b91506112808261121b565b604082019050919050565b5f6020820190508181035f8301526112a281611269565b9050919050565b7f4e487b71000000000000000000000000000000000000000000000000000000005f52601160045260245ffd5b5f6112e082610c31565b91505f82036112f2576112f16112a9565b5b600182039050919050565b5f6080820190506113105f830187610dee565b61131d6020830186610dee565b61132a6040830185610f89565b6113376060830184610f89565b95945050505050565b7f4e487b71000000000000000000000000000000000000000000000000000000005f52602260045260245ffd5b5f600282049050600182168061138457607f821691505b60208210810361139757611396611340565b5b50919050565b7f54686520747769747320697320746f6f206c6f6e672062726f000000000000005f82015250565b5f6113d1601983610f98565b91506113dc8261139d565b602082019050919050565b5f6020820190508181035f8301526113fe816113c5565b9050919050565b5f819050815f5260205f209050919050565b5f6020601f8301049050919050565b5f82821b905092915050565b5f600883026114617fffffffffffffffffffffffffffffffffffffffffffffffffffffffffffffffff82611426565b61146b8683611426565b95508019841693508086168417925050509392505050565b5f819050919050565b5f6114a66114a161149c84610c31565b611483565b610c31565b9050919050565b5f819050919050565b6114bf8361148c565b6114d36114cb826114ad565b848454611432565b825550505050565b5f90565b6114e76114db565b6114f28184846114b6565b505050565b5b818110156115155761150a5f826114df565b6001810190506114f8565b5050565b601f82111561155a5761152b81611405565b61153484611417565b81016020851015611543578190505b61155761154f85611417565b8301826114f7565b50505b505050565b5f82821c905092915050565b5f61157a5f198460080261155f565b1980831691505092915050565b5f611592838361156b565b9150826002028217905092915050565b6115ab82610ceb565b67ffffffffffffffff8111156115c4576115c3610e1e565b5b6115ce825461136d565b6115d9828285611519565b5f60209050601f83116001811461160a575f84156115f8578287015190505b6116028582611587565b865550611669565b601f19841661161886611405565b5f5b8281101561163f5784890151825560018201915060208501945060208101905061161a565b8683101561165c5784890151611658601f89168261156b565b8355505b6001600288020188555050505b505050505050565b5f6080820190506116845f830187610f89565b6116916020830186610dee565b81810360408301526116a38185610fa8565b90506116b26060830184610f89565b95945050505050565b5f6116c582610c31565b91507fffffffffffffffffffffffffffffffffffffffffffffffffffffffffffffffff82036116f7576116f66112a9565b5b60018201905091905056fea2646970667358221220951f890dea581fd9307e71e66752bcb45131d17ae484cf7748ae1cc9574cde6f64736f6c634300081a0033",
					"opcodes": "PUSH1 0x80 PUSH1 0x40 MSTORE CALLVALUE DUP1 ISZERO PUSH1 0xE JUMPI PUSH0 DUP1 REVERT JUMPDEST POP CALLER PUSH1 0x1 PUSH0 PUSH2 0x100 EXP DUP2 SLOAD DUP2 PUSH20 0xFFFFFFFFFFFFFFFFFFFFFFFFFFFFFFFFFFFFFFFF MUL NOT AND SWAP1 DUP4 PUSH20 0xFFFFFFFFFFFFFFFFFFFFFFFFFFFFFFFFFFFFFFFF AND MUL OR SWAP1 SSTORE POP PUSH2 0x1738 DUP1 PUSH2 0x5C PUSH0 CODECOPY PUSH0 RETURN INVALID PUSH1 0x80 PUSH1 0x40 MSTORE CALLVALUE DUP1 ISZERO PUSH2 0xF JUMPI PUSH0 DUP1 REVERT JUMPDEST POP PUSH1 0x4 CALLDATASIZE LT PUSH2 0x7B JUMPI PUSH0 CALLDATALOAD PUSH1 0xE0 SHR DUP1 PUSH4 0x95A09E96 GT PUSH2 0x59 JUMPI DUP1 PUSH4 0x95A09E96 EQ PUSH2 0xE9 JUMPI DUP1 PUSH4 0xCD73E24E EQ PUSH2 0x105 JUMPI DUP1 PUSH4 0xDA377E24 EQ PUSH2 0x121 JUMPI DUP1 PUSH4 0xEA71429B EQ PUSH2 0x155 JUMPI PUSH2 0x7B JUMP JUMPDEST DUP1 PUSH4 0x1CBF243A EQ PUSH2 0x7F JUMPI DUP1 PUSH4 0x8017D930 EQ PUSH2 0x9B JUMPI DUP1 PUSH4 0x8DA5CB5B EQ PUSH2 0xCB JUMPI JUMPDEST PUSH0 DUP1 REVERT JUMPDEST PUSH2 0x99 PUSH1 0x4 DUP1 CALLDATASIZE SUB DUP2 ADD SWAP1 PUSH2 0x94 SWAP2 SWAP1 PUSH2 0xC64 JUMP JUMPDEST PUSH2 0x173 JUMP JUMPDEST STOP JUMPDEST PUSH2 0xB5 PUSH1 0x4 DUP1 CALLDATASIZE SUB DUP2 ADD SWAP1 PUSH2 0xB0 SWAP2 SWAP1 PUSH2 0xCA2 JUMP JUMPDEST PUSH2 0x3C0 JUMP JUMPDEST PUSH1 0x40 MLOAD PUSH2 0xC2 SWAP2 SWAP1 PUSH2 0xDCE JUMP JUMPDEST PUSH1 0x40 MLOAD DUP1 SWAP2 SUB SWAP1 RETURN JUMPDEST PUSH2 0xD3 PUSH2 0x536 JUMP JUMPDEST PUSH1 0x40 MLOAD PUSH2 0xE0 SWAP2 SWAP1 PUSH2 0xDFD JUMP JUMPDEST PUSH1 0x40 MLOAD DUP1 SWAP2 SUB SWAP1 RETURN JUMPDEST PUSH2 0x103 PUSH1 0x4 DUP1 CALLDATASIZE SUB DUP2 ADD SWAP1 PUSH2 0xFE SWAP2 SWAP1 PUSH2 0xF42 JUMP JUMPDEST PUSH2 0x55B JUMP JUMPDEST STOP JUMPDEST PUSH2 0x11F PUSH1 0x4 DUP1 CALLDATASIZE SUB DUP2 ADD SWAP1 PUSH2 0x11A SWAP2 SWAP1 PUSH2 0xC64 JUMP JUMPDEST PUSH2 0x74F JUMP JUMPDEST STOP JUMPDEST PUSH2 0x13B PUSH1 0x4 DUP1 CALLDATASIZE SUB DUP2 ADD SWAP1 PUSH2 0x136 SWAP2 SWAP1 PUSH2 0xC64 JUMP JUMPDEST PUSH2 0x8FD JUMP JUMPDEST PUSH1 0x40 MLOAD PUSH2 0x14C SWAP6 SWAP5 SWAP4 SWAP3 SWAP2 SWAP1 PUSH2 0xFE0 JUMP JUMPDEST PUSH1 0x40 MLOAD DUP1 SWAP2 SUB SWAP1 RETURN JUMPDEST PUSH2 0x15D PUSH2 0x9ED JUMP JUMPDEST PUSH1 0x40 MLOAD PUSH2 0x16A SWAP2 SWAP1 PUSH2 0x1166 JUMP JUMPDEST PUSH1 0x40 MLOAD DUP1 SWAP2 SUB SWAP1 RETURN JUMPDEST DUP1 PUSH0 DUP1 DUP5 PUSH20 0xFFFFFFFFFFFFFFFFFFFFFFFFFFFFFFFFFFFFFFFF AND PUSH20 0xFFFFFFFFFFFFFFFFFFFFFFFFFFFFFFFFFFFFFFFF AND DUP2 MSTORE PUSH1 0x20 ADD SWAP1 DUP2 MSTORE PUSH1 0x20 ADD PUSH0 KECCAK256 DUP3 DUP2 SLOAD DUP2 LT PUSH2 0x1C2 JUMPI PUSH2 0x1C1 PUSH2 0x1186 JUMP JUMPDEST JUMPDEST SWAP1 PUSH0 MSTORE PUSH1 0x20 PUSH0 KECCAK256 SWAP1 PUSH1 0x5 MUL ADD PUSH0 ADD SLOAD EQ PUSH2 0x211 JUMPI PUSH1 0x40 MLOAD PUSH32 0x8C379A000000000000000000000000000000000000000000000000000000000 DUP2 MSTORE PUSH1 0x4 ADD PUSH2 0x208 SWAP1 PUSH2 0x11FD JUMP JUMPDEST PUSH1 0x40 MLOAD DUP1 SWAP2 SUB SWAP1 REVERT JUMPDEST PUSH0 DUP1 PUSH0 DUP5 PUSH20 0xFFFFFFFFFFFFFFFFFFFFFFFFFFFFFFFFFFFFFFFF AND PUSH20 0xFFFFFFFFFFFFFFFFFFFFFFFFFFFFFFFFFFFFFFFF AND DUP2 MSTORE PUSH1 0x20 ADD SWAP1 DUP2 MSTORE PUSH1 0x20 ADD PUSH0 KECCAK256 DUP3 DUP2 SLOAD DUP2 LT PUSH2 0x260 JUMPI PUSH2 0x25F PUSH2 0x1186 JUMP JUMPDEST JUMPDEST SWAP1 PUSH0 MSTORE PUSH1 0x20 PUSH0 KECCAK256 SWAP1 PUSH1 0x5 MUL ADD PUSH1 0x4 ADD SLOAD GT PUSH2 0x2B0 JUMPI PUSH1 0x40 MLOAD PUSH32 0x8C379A000000000000000000000000000000000000000000000000000000000 DUP2 MSTORE PUSH1 0x4 ADD PUSH2 0x2A7 SWAP1 PUSH2 0x128B JUMP JUMPDEST PUSH1 0x40 MLOAD DUP1 SWAP2 SUB SWAP1 REVERT JUMPDEST PUSH0 DUP1 DUP4 PUSH20 0xFFFFFFFFFFFFFFFFFFFFFFFFFFFFFFFFFFFFFFFF AND PUSH20 0xFFFFFFFFFFFFFFFFFFFFFFFFFFFFFFFFFFFFFFFF AND DUP2 MSTORE PUSH1 0x20 ADD SWAP1 DUP2 MSTORE PUSH1 0x20 ADD PUSH0 KECCAK256 DUP2 DUP2 SLOAD DUP2 LT PUSH2 0x2FE JUMPI PUSH2 0x2FD PUSH2 0x1186 JUMP JUMPDEST JUMPDEST SWAP1 PUSH0 MSTORE PUSH1 0x20 PUSH0 KECCAK256 SWAP1 PUSH1 0x5 MUL ADD PUSH1 0x4 ADD PUSH0 DUP2 SLOAD DUP1 SWAP3 SWAP2 SWAP1 PUSH2 0x31D SWAP1 PUSH2 0x12D6 JUMP JUMPDEST SWAP2 SWAP1 POP SSTORE POP PUSH32 0x7F48D70C9D7A7277ADE15A005F8FC2924EE37E89B60C8BF735D1D6144DE83D9C CALLER DUP4 DUP4 PUSH0 DUP1 DUP8 PUSH20 0xFFFFFFFFFFFFFFFFFFFFFFFFFFFFFFFFFFFFFFFF AND PUSH20 0xFFFFFFFFFFFFFFFFFFFFFFFFFFFFFFFFFFFFFFFF AND DUP2 MSTORE PUSH1 0x20 ADD SWAP1 DUP2 MSTORE PUSH1 0x20 ADD PUSH0 KECCAK256 DUP6 DUP2 SLOAD DUP2 LT PUSH2 0x394 JUMPI PUSH2 0x393 PUSH2 0x1186 JUMP JUMPDEST JUMPDEST SWAP1 PUSH0 MSTORE PUSH1 0x20 PUSH0 KECCAK256 SWAP1 PUSH1 0x5 MUL ADD PUSH1 0x4 ADD SLOAD PUSH1 0x40 MLOAD PUSH2 0x3B4 SWAP5 SWAP4 SWAP3 SWAP2 SWAP1 PUSH2 0x12FD JUMP JUMPDEST PUSH1 0x40 MLOAD DUP1 SWAP2 SUB SWAP1 LOG1 POP POP JUMP JUMPDEST PUSH2 0x3C8 PUSH2 0xB85 JUMP JUMPDEST PUSH0 DUP1 CALLER PUSH20 0xFFFFFFFFFFFFFFFFFFFFFFFFFFFFFFFFFFFFFFFF AND PUSH20 0xFFFFFFFFFFFFFFFFFFFFFFFFFFFFFFFFFFFFFFFF AND DUP2 MSTORE PUSH1 0x20 ADD SWAP1 DUP2 MSTORE PUSH1 0x20 ADD PUSH0 KECCAK256 DUP3 DUP2 SLOAD DUP2 LT PUSH2 0x416 JUMPI PUSH2 0x415 PUSH2 0x1186 JUMP JUMPDEST JUMPDEST SWAP1 PUSH0 MSTORE PUSH1 0x20 PUSH0 KECCAK256 SWAP1 PUSH1 0x5 MUL ADD PUSH1 0x40 MLOAD DUP1 PUSH1 0xA0 ADD PUSH1 0x40 MSTORE SWAP1 DUP2 PUSH0 DUP3 ADD SLOAD DUP2 MSTORE PUSH1 0x20 ADD PUSH1 0x1 DUP3 ADD PUSH0 SWAP1 SLOAD SWAP1 PUSH2 0x100 EXP SWAP1 DIV PUSH20 0xFFFFFFFFFFFFFFFFFFFFFFFFFFFFFFFFFFFFFFFF AND PUSH20 0xFFFFFFFFFFFFFFFFFFFFFFFFFFFFFFFFFFFFFFFF AND PUSH20 0xFFFFFFFFFFFFFFFFFFFFFFFFFFFFFFFFFFFFFFFF AND DUP2 MSTORE PUSH1 0x20 ADD PUSH1 0x2 DUP3 ADD DUP1 SLOAD PUSH2 0x49B SWAP1 PUSH2 0x136D JUMP JUMPDEST DUP1 PUSH1 0x1F ADD PUSH1 0x20 DUP1 SWAP2 DIV MUL PUSH1 0x20 ADD PUSH1 0x40 MLOAD SWAP1 DUP2 ADD PUSH1 0x40 MSTORE DUP1 SWAP3 SWAP2 SWAP1 DUP2 DUP2 MSTORE PUSH1 0x20 ADD DUP3 DUP1 SLOAD PUSH2 0x4C7 SWAP1 PUSH2 0x136D JUMP JUMPDEST DUP1 ISZERO PUSH2 0x512 JUMPI DUP1 PUSH1 0x1F LT PUSH2 0x4E9 JUMPI PUSH2 0x100 DUP1 DUP4 SLOAD DIV MUL DUP4 MSTORE SWAP2 PUSH1 0x20 ADD SWAP2 PUSH2 0x512 JUMP JUMPDEST DUP3 ADD SWAP2 SWAP1 PUSH0 MSTORE PUSH1 0x20 PUSH0 KECCAK256 SWAP1 JUMPDEST DUP2 SLOAD DUP2 MSTORE SWAP1 PUSH1 0x1 ADD SWAP1 PUSH1 0x20 ADD DUP1 DUP4 GT PUSH2 0x4F5 JUMPI DUP3 SWAP1 SUB PUSH1 0x1F AND DUP3 ADD SWAP2 JUMPDEST POP POP POP POP POP DUP2 MSTORE PUSH1 0x20 ADD PUSH1 0x3 DUP3 ADD SLOAD DUP2 MSTORE PUSH1 0x20 ADD PUSH1 0x4 DUP3 ADD SLOAD DUP2 MSTORE POP POP SWAP1 POP SWAP2 SWAP1 POP JUMP JUMPDEST PUSH1 0x1 PUSH0 SWAP1 SLOAD SWAP1 PUSH2 0x100 EXP SWAP1 DIV PUSH20 0xFFFFFFFFFFFFFFFFFFFFFFFFFFFFFFFFFFFFFFFF AND DUP2 JUMP JUMPDEST DUP1 PUSH2 0x12C DUP2 MLOAD GT ISZERO PUSH2 0x5A2 JUMPI PUSH1 0x40 MLOAD PUSH32 0x8C379A000000000000000000000000000000000000000000000000000000000 DUP2 MSTORE PUSH1 0x4 ADD PUSH2 0x599 SWAP1 PUSH2 0x13E7 JUMP JUMPDEST PUSH1 0x40 MLOAD DUP1 SWAP2 SUB SWAP1 REVERT JUMPDEST PUSH0 PUSH1 0x40 MLOAD DUP1 PUSH1 0xA0 ADD PUSH1 0x40 MSTORE DUP1 PUSH0 DUP1 CALLER PUSH20 0xFFFFFFFFFFFFFFFFFFFFFFFFFFFFFFFFFFFFFFFF AND PUSH20 0xFFFFFFFFFFFFFFFFFFFFFFFFFFFFFFFFFFFFFFFF AND DUP2 MSTORE PUSH1 0x20 ADD SWAP1 DUP2 MSTORE PUSH1 0x20 ADD PUSH0 KECCAK256 DUP1 SLOAD SWAP1 POP DUP2 MSTORE PUSH1 0x20 ADD CALLER PUSH20 0xFFFFFFFFFFFFFFFFFFFFFFFFFFFFFFFFFFFFFFFF AND DUP2 MSTORE PUSH1 0x20 ADD DUP5 DUP2 MSTORE PUSH1 0x20 ADD TIMESTAMP DUP2 MSTORE PUSH1 0x20 ADD PUSH0 DUP2 MSTORE POP SWAP1 POP PUSH0 DUP1 CALLER PUSH20 0xFFFFFFFFFFFFFFFFFFFFFFFFFFFFFFFFFFFFFFFF AND PUSH20 0xFFFFFFFFFFFFFFFFFFFFFFFFFFFFFFFFFFFFFFFF AND DUP2 MSTORE PUSH1 0x20 ADD SWAP1 DUP2 MSTORE PUSH1 0x20 ADD PUSH0 KECCAK256 DUP2 SWAP1 DUP1 PUSH1 0x1 DUP2 SLOAD ADD DUP1 DUP3 SSTORE DUP1 SWAP2 POP POP PUSH1 0x1 SWAP1 SUB SWAP1 PUSH0 MSTORE PUSH1 0x20 PUSH0 KECCAK256 SWAP1 PUSH1 0x5 MUL ADD PUSH0 SWAP1 SWAP2 SWAP1 SWAP2 SWAP1 SWAP2 POP PUSH0 DUP3 ADD MLOAD DUP2 PUSH0 ADD SSTORE PUSH1 0x20 DUP3 ADD MLOAD DUP2 PUSH1 0x1 ADD PUSH0 PUSH2 0x100 EXP DUP2 SLOAD DUP2 PUSH20 0xFFFFFFFFFFFFFFFFFFFFFFFFFFFFFFFFFFFFFFFF MUL NOT AND SWAP1 DUP4 PUSH20 0xFFFFFFFFFFFFFFFFFFFFFFFFFFFFFFFFFFFFFFFF AND MUL OR SWAP1 SSTORE POP PUSH1 0x40 DUP3 ADD MLOAD DUP2 PUSH1 0x2 ADD SWAP1 DUP2 PUSH2 0x6E7 SWAP2 SWAP1 PUSH2 0x15A2 JUMP JUMPDEST POP PUSH1 0x60 DUP3 ADD MLOAD DUP2 PUSH1 0x3 ADD SSTORE PUSH1 0x80 DUP3 ADD MLOAD DUP2 PUSH1 0x4 ADD SSTORE POP POP PUSH32 0x510A64EBF04A5B02533D3C548213B88682EEB19AF482F30D80A1C22F1C25B269 DUP2 PUSH0 ADD MLOAD DUP3 PUSH1 0x20 ADD MLOAD DUP4 PUSH1 0x40 ADD MLOAD DUP5 PUSH1 0x60 ADD MLOAD PUSH1 0x40 MLOAD PUSH2 0x742 SWAP5 SWAP4 SWAP3 SWAP2 SWAP1 PUSH2 0x1671 JUMP JUMPDEST PUSH1 0x40 MLOAD DUP1 SWAP2 SUB SWAP1 LOG1 POP POP POP JUMP JUMPDEST DUP1 PUSH0 DUP1 DUP5 PUSH20 0xFFFFFFFFFFFFFFFFFFFFFFFFFFFFFFFFFFFFFFFF AND PUSH20 0xFFFFFFFFFFFFFFFFFFFFFFFFFFFFFFFFFFFFFFFF AND DUP2 MSTORE PUSH1 0x20 ADD SWAP1 DUP2 MSTORE PUSH1 0x20 ADD PUSH0 KECCAK256 DUP3 DUP2 SLOAD DUP2 LT PUSH2 0x79E JUMPI PUSH2 0x79D PUSH2 0x1186 JUMP JUMPDEST JUMPDEST SWAP1 PUSH0 MSTORE PUSH1 0x20 PUSH0 KECCAK256 SWAP1 PUSH1 0x5 MUL ADD PUSH0 ADD SLOAD EQ PUSH2 0x7ED JUMPI PUSH1 0x40 MLOAD PUSH32 0x8C379A000000000000000000000000000000000000000000000000000000000 DUP2 MSTORE PUSH1 0x4 ADD PUSH2 0x7E4 SWAP1 PUSH2 0x11FD JUMP JUMPDEST PUSH1 0x40 MLOAD DUP1 SWAP2 SUB SWAP1 REVERT JUMPDEST PUSH0 DUP1 DUP4 PUSH20 0xFFFFFFFFFFFFFFFFFFFFFFFFFFFFFFFFFFFFFFFF AND PUSH20 0xFFFFFFFFFFFFFFFFFFFFFFFFFFFFFFFFFFFFFFFF AND DUP2 MSTORE PUSH1 0x20 ADD SWAP1 DUP2 MSTORE PUSH1 0x20 ADD PUSH0 KECCAK256 DUP2 DUP2 SLOAD DUP2 LT PUSH2 0x83B JUMPI PUSH2 0x83A PUSH2 0x1186 JUMP JUMPDEST JUMPDEST SWAP1 PUSH0 MSTORE PUSH1 0x20 PUSH0 KECCAK256 SWAP1 PUSH1 0x5 MUL ADD PUSH1 0x4 ADD PUSH0 DUP2 SLOAD DUP1 SWAP3 SWAP2 SWAP1 PUSH2 0x85A SWAP1 PUSH2 0x16BB JUMP JUMPDEST SWAP2 SWAP1 POP SSTORE POP PUSH32 0x367F13736A368EB50E2B247609D9119D23D59292FE875534A6627120512B233F CALLER DUP4 DUP4 PUSH0 DUP1 DUP8 PUSH20 0xFFFFFFFFFFFFFFFFFFFFFFFFFFFFFFFFFFFFFFFF AND PUSH20 0xFFFFFFFFFFFFFFFFFFFFFFFFFFFFFFFFFFFFFFFF AND DUP2 MSTORE PUSH1 0x20 ADD SWAP1 DUP2 MSTORE PUSH1 0x20 ADD PUSH0 KECCAK256 DUP6 DUP2 SLOAD DUP2 LT PUSH2 0x8D1 JUMPI PUSH2 0x8D0 PUSH2 0x1186 JUMP JUMPDEST JUMPDEST SWAP1 PUSH0 MSTORE PUSH1 0x20 PUSH0 KECCAK256 SWAP1 PUSH1 0x5 MUL ADD PUSH1 0x4 ADD SLOAD PUSH1 0x40 MLOAD PUSH2 0x8F1 SWAP5 SWAP4 SWAP3 SWAP2 SWAP1 PUSH2 0x12FD JUMP JUMPDEST PUSH1 0x40 MLOAD DUP1 SWAP2 SUB SWAP1 LOG1 POP POP JUMP JUMPDEST PUSH0 PUSH1 0x20 MSTORE DUP2 PUSH0 MSTORE PUSH1 0x40 PUSH0 KECCAK256 DUP2 DUP2 SLOAD DUP2 LT PUSH2 0x915 JUMPI PUSH0 DUP1 REVERT JUMPDEST SWAP1 PUSH0 MSTORE PUSH1 0x20 PUSH0 KECCAK256 SWAP1 PUSH1 0x5 MUL ADD PUSH0 SWAP2 POP SWAP2 POP POP DUP1 PUSH0 ADD SLOAD SWAP1 DUP1 PUSH1 0x1 ADD PUSH0 SWAP1 SLOAD SWAP1 PUSH2 0x100 EXP SWAP1 DIV PUSH20 0xFFFFFFFFFFFFFFFFFFFFFFFFFFFFFFFFFFFFFFFF AND SWAP1 DUP1 PUSH1 0x2 ADD DUP1 SLOAD PUSH2 0x960 SWAP1 PUSH2 0x136D JUMP JUMPDEST DUP1 PUSH1 0x1F ADD PUSH1 0x20 DUP1 SWAP2 DIV MUL PUSH1 0x20 ADD PUSH1 0x40 MLOAD SWAP1 DUP2 ADD PUSH1 0x40 MSTORE DUP1 SWAP3 SWAP2 SWAP1 DUP2 DUP2 MSTORE PUSH1 0x20 ADD DUP3 DUP1 SLOAD PUSH2 0x98C SWAP1 PUSH2 0x136D JUMP JUMPDEST DUP1 ISZERO PUSH2 0x9D7 JUMPI DUP1 PUSH1 0x1F LT PUSH2 0x9AE JUMPI PUSH2 0x100 DUP1 DUP4 SLOAD DIV MUL DUP4 MSTORE SWAP2 PUSH1 0x20 ADD SWAP2 PUSH2 0x9D7 JUMP JUMPDEST DUP3 ADD SWAP2 SWAP1 PUSH0 MSTORE PUSH1 0x20 PUSH0 KECCAK256 SWAP1 JUMPDEST DUP2 SLOAD DUP2 MSTORE SWAP1 PUSH1 0x1 ADD SWAP1 PUSH1 0x20 ADD DUP1 DUP4 GT PUSH2 0x9BA JUMPI DUP3 SWAP1 SUB PUSH1 0x1F AND DUP3 ADD SWAP2 JUMPDEST POP POP POP POP POP SWAP1 DUP1 PUSH1 0x3 ADD SLOAD SWAP1 DUP1 PUSH1 0x4 ADD SLOAD SWAP1 POP DUP6 JUMP JUMPDEST PUSH1 0x60 PUSH0 DUP1 CALLER PUSH20 0xFFFFFFFFFFFFFFFFFFFFFFFFFFFFFFFFFFFFFFFF AND PUSH20 0xFFFFFFFFFFFFFFFFFFFFFFFFFFFFFFFFFFFFFFFF AND DUP2 MSTORE PUSH1 0x20 ADD SWAP1 DUP2 MSTORE PUSH1 0x20 ADD PUSH0 KECCAK256 DUP1 SLOAD DUP1 PUSH1 0x20 MUL PUSH1 0x20 ADD PUSH1 0x40 MLOAD SWAP1 DUP2 ADD PUSH1 0x40 MSTORE DUP1 SWAP3 SWAP2 SWAP1 DUP2 DUP2 MSTORE PUSH1 0x20 ADD PUSH0 SWAP1 JUMPDEST DUP3 DUP3 LT ISZERO PUSH2 0xB7C JUMPI DUP4 DUP3 SWAP1 PUSH0 MSTORE PUSH1 0x20 PUSH0 KECCAK256 SWAP1 PUSH1 0x5 MUL ADD PUSH1 0x40 MLOAD DUP1 PUSH1 0xA0 ADD PUSH1 0x40 MSTORE SWAP1 DUP2 PUSH0 DUP3 ADD SLOAD DUP2 MSTORE PUSH1 0x20 ADD PUSH1 0x1 DUP3 ADD PUSH0 SWAP1 SLOAD SWAP1 PUSH2 0x100 EXP SWAP1 DIV PUSH20 0xFFFFFFFFFFFFFFFFFFFFFFFFFFFFFFFFFFFFFFFF AND PUSH20 0xFFFFFFFFFFFFFFFFFFFFFFFFFFFFFFFFFFFFFFFF AND PUSH20 0xFFFFFFFFFFFFFFFFFFFFFFFFFFFFFFFFFFFFFFFF AND DUP2 MSTORE PUSH1 0x20 ADD PUSH1 0x2 DUP3 ADD DUP1 SLOAD PUSH2 0xAD9 SWAP1 PUSH2 0x136D JUMP JUMPDEST DUP1 PUSH1 0x1F ADD PUSH1 0x20 DUP1 SWAP2 DIV MUL PUSH1 0x20 ADD PUSH1 0x40 MLOAD SWAP1 DUP2 ADD PUSH1 0x40 MSTORE DUP1 SWAP3 SWAP2 SWAP1 DUP2 DUP2 MSTORE PUSH1 0x20 ADD DUP3 DUP1 SLOAD PUSH2 0xB05 SWAP1 PUSH2 0x136D JUMP JUMPDEST DUP1 ISZERO PUSH2 0xB50 JUMPI DUP1 PUSH1 0x1F LT PUSH2 0xB27 JUMPI PUSH2 0x100 DUP1 DUP4 SLOAD DIV MUL DUP4 MSTORE SWAP2 PUSH1 0x20 ADD SWAP2 PUSH2 0xB50 JUMP JUMPDEST DUP3 ADD SWAP2 SWAP1 PUSH0 MSTORE PUSH1 0x20 PUSH0 KECCAK256 SWAP1 JUMPDEST DUP2 SLOAD DUP2 MSTORE SWAP1 PUSH1 0x1 ADD SWAP1 PUSH1 0x20 ADD DUP1 DUP4 GT PUSH2 0xB33 JUMPI DUP3 SWAP1 SUB PUSH1 0x1F AND DUP3 ADD SWAP2 JUMPDEST POP POP POP POP POP DUP2 MSTORE PUSH1 0x20 ADD PUSH1 0x3 DUP3 ADD SLOAD DUP2 MSTORE PUSH1 0x20 ADD PUSH1 0x4 DUP3 ADD SLOAD DUP2 MSTORE POP POP DUP2 MSTORE PUSH1 0x20 ADD SWAP1 PUSH1 0x1 ADD SWAP1 PUSH2 0xA4A JUMP JUMPDEST POP POP POP POP SWAP1 POP SWAP1 JUMP JUMPDEST PUSH1 0x40 MLOAD DUP1 PUSH1 0xA0 ADD PUSH1 0x40 MSTORE DUP1 PUSH0 DUP2 MSTORE PUSH1 0x20 ADD PUSH0 PUSH20 0xFFFFFFFFFFFFFFFFFFFFFFFFFFFFFFFFFFFFFFFF AND DUP2 MSTORE PUSH1 0x20 ADD PUSH1 0x60 DUP2 MSTORE PUSH1 0x20 ADD PUSH0 DUP2 MSTORE PUSH1 0x20 ADD PUSH0 DUP2 MSTORE POP SWAP1 JUMP JUMPDEST PUSH0 PUSH1 0x40 MLOAD SWAP1 POP SWAP1 JUMP JUMPDEST PUSH0 DUP1 REVERT JUMPDEST PUSH0 DUP1 REVERT JUMPDEST PUSH0 PUSH20 0xFFFFFFFFFFFFFFFFFFFFFFFFFFFFFFFFFFFFFFFF DUP3 AND SWAP1 POP SWAP2 SWAP1 POP JUMP JUMPDEST PUSH0 PUSH2 0xC00 DUP3 PUSH2 0xBD7 JUMP JUMPDEST SWAP1 POP SWAP2 SWAP1 POP JUMP JUMPDEST PUSH2 0xC10 DUP2 PUSH2 0xBF6 JUMP JUMPDEST DUP2 EQ PUSH2 0xC1A JUMPI PUSH0 DUP1 REVERT JUMPDEST POP JUMP JUMPDEST PUSH0 DUP2 CALLDATALOAD SWAP1 POP PUSH2 0xC2B DUP2 PUSH2 0xC07 JUMP JUMPDEST SWAP3 SWAP2 POP POP JUMP JUMPDEST PUSH0 DUP2 SWAP1 POP SWAP2 SWAP1 POP JUMP JUMPDEST PUSH2 0xC43 DUP2 PUSH2 0xC31 JUMP JUMPDEST DUP2 EQ PUSH2 0xC4D JUMPI PUSH0 DUP1 REVERT JUMPDEST POP JUMP JUMPDEST PUSH0 DUP2 CALLDATALOAD SWAP1 POP PUSH2 0xC5E DUP2 PUSH2 0xC3A JUMP JUMPDEST SWAP3 SWAP2 POP POP JUMP JUMPDEST PUSH0 DUP1 PUSH1 0x40 DUP4 DUP6 SUB SLT ISZERO PUSH2 0xC7A JUMPI PUSH2 0xC79 PUSH2 0xBCF JUMP JUMPDEST JUMPDEST PUSH0 PUSH2 0xC87 DUP6 DUP3 DUP7 ADD PUSH2 0xC1D JUMP JUMPDEST SWAP3 POP POP PUSH1 0x20 PUSH2 0xC98 DUP6 DUP3 DUP7 ADD PUSH2 0xC50 JUMP JUMPDEST SWAP2 POP POP SWAP3 POP SWAP3 SWAP1 POP JUMP JUMPDEST PUSH0 PUSH1 0x20 DUP3 DUP5 SUB SLT ISZERO PUSH2 0xCB7 JUMPI PUSH2 0xCB6 PUSH2 0xBCF JUMP JUMPDEST JUMPDEST PUSH0 PUSH2 0xCC4 DUP5 DUP3 DUP6 ADD PUSH2 0xC50 JUMP JUMPDEST SWAP2 POP POP SWAP3 SWAP2 POP POP JUMP JUMPDEST PUSH2 0xCD6 DUP2 PUSH2 0xC31 JUMP JUMPDEST DUP3 MSTORE POP POP JUMP JUMPDEST PUSH2 0xCE5 DUP2 PUSH2 0xBF6 JUMP JUMPDEST DUP3 MSTORE POP POP JUMP JUMPDEST PUSH0 DUP2 MLOAD SWAP1 POP SWAP2 SWAP1 POP JUMP JUMPDEST PUSH0 DUP3 DUP3 MSTORE PUSH1 0x20 DUP3 ADD SWAP1 POP SWAP3 SWAP2 POP POP JUMP JUMPDEST DUP3 DUP2 DUP4 MCOPY PUSH0 DUP4 DUP4 ADD MSTORE POP POP POP JUMP JUMPDEST PUSH0 PUSH1 0x1F NOT PUSH1 0x1F DUP4 ADD AND SWAP1 POP SWAP2 SWAP1 POP JUMP JUMPDEST PUSH0 PUSH2 0xD2D DUP3 PUSH2 0xCEB JUMP JUMPDEST PUSH2 0xD37 DUP2 DUP6 PUSH2 0xCF5 JUMP JUMPDEST SWAP4 POP PUSH2 0xD47 DUP2 DUP6 PUSH1 0x20 DUP7 ADD PUSH2 0xD05 JUMP JUMPDEST PUSH2 0xD50 DUP2 PUSH2 0xD13 JUMP JUMPDEST DUP5 ADD SWAP2 POP POP SWAP3 SWAP2 POP POP JUMP JUMPDEST PUSH0 PUSH1 0xA0 DUP4 ADD PUSH0 DUP4 ADD MLOAD PUSH2 0xD70 PUSH0 DUP7 ADD DUP3 PUSH2 0xCCD JUMP JUMPDEST POP PUSH1 0x20 DUP4 ADD MLOAD PUSH2 0xD83 PUSH1 0x20 DUP7 ADD DUP3 PUSH2 0xCDC JUMP JUMPDEST POP PUSH1 0x40 DUP4 ADD MLOAD DUP5 DUP3 SUB PUSH1 0x40 DUP7 ADD MSTORE PUSH2 0xD9B DUP3 DUP3 PUSH2 0xD23 JUMP JUMPDEST SWAP2 POP POP PUSH1 0x60 DUP4 ADD MLOAD PUSH2 0xDB0 PUSH1 0x60 DUP7 ADD DUP3 PUSH2 0xCCD JUMP JUMPDEST POP PUSH1 0x80 DUP4 ADD MLOAD PUSH2 0xDC3 PUSH1 0x80 DUP7 ADD DUP3 PUSH2 0xCCD JUMP JUMPDEST POP DUP1 SWAP2 POP POP SWAP3 SWAP2 POP POP JUMP JUMPDEST PUSH0 PUSH1 0x20 DUP3 ADD SWAP1 POP DUP2 DUP2 SUB PUSH0 DUP4 ADD MSTORE PUSH2 0xDE6 DUP2 DUP5 PUSH2 0xD5B JUMP JUMPDEST SWAP1 POP SWAP3 SWAP2 POP POP JUMP JUMPDEST PUSH2 0xDF7 DUP2 PUSH2 0xBF6 JUMP JUMPDEST DUP3 MSTORE POP POP JUMP JUMPDEST PUSH0 PUSH1 0x20 DUP3 ADD SWAP1 POP PUSH2 0xE10 PUSH0 DUP4 ADD DUP5 PUSH2 0xDEE JUMP JUMPDEST SWAP3 SWAP2 POP POP JUMP JUMPDEST PUSH0 DUP1 REVERT JUMPDEST PUSH0 DUP1 REVERT JUMPDEST PUSH32 0x4E487B7100000000000000000000000000000000000000000000000000000000 PUSH0 MSTORE PUSH1 0x41 PUSH1 0x4 MSTORE PUSH1 0x24 PUSH0 REVERT JUMPDEST PUSH2 0xE54 DUP3 PUSH2 0xD13 JUMP JUMPDEST DUP2 ADD DUP2 DUP2 LT PUSH8 0xFFFFFFFFFFFFFFFF DUP3 GT OR ISZERO PUSH2 0xE73 JUMPI PUSH2 0xE72 PUSH2 0xE1E JUMP JUMPDEST JUMPDEST DUP1 PUSH1 0x40 MSTORE POP POP POP JUMP JUMPDEST PUSH0 PUSH2 0xE85 PUSH2 0xBC6 JUMP JUMPDEST SWAP1 POP PUSH2 0xE91 DUP3 DUP3 PUSH2 0xE4B JUMP JUMPDEST SWAP2 SWAP1 POP JUMP JUMPDEST PUSH0 PUSH8 0xFFFFFFFFFFFFFFFF DUP3 GT ISZERO PUSH2 0xEB0 JUMPI PUSH2 0xEAF PUSH2 0xE1E JUMP JUMPDEST JUMPDEST PUSH2 0xEB9 DUP3 PUSH2 0xD13 JUMP JUMPDEST SWAP1 POP PUSH1 0x20 DUP2 ADD SWAP1 POP SWAP2 SWAP1 POP JUMP JUMPDEST DUP3 DUP2 DUP4 CALLDATACOPY PUSH0 DUP4 DUP4 ADD MSTORE POP POP POP JUMP JUMPDEST PUSH0 PUSH2 0xEE6 PUSH2 0xEE1 DUP5 PUSH2 0xE96 JUMP JUMPDEST PUSH2 0xE7C JUMP JUMPDEST SWAP1 POP DUP3 DUP2 MSTORE PUSH1 0x20 DUP2 ADD DUP5 DUP5 DUP5 ADD GT ISZERO PUSH2 0xF02 JUMPI PUSH2 0xF01 PUSH2 0xE1A JUMP JUMPDEST JUMPDEST PUSH2 0xF0D DUP5 DUP3 DUP6 PUSH2 0xEC6 JUMP JUMPDEST POP SWAP4 SWAP3 POP POP POP JUMP JUMPDEST PUSH0 DUP3 PUSH1 0x1F DUP4 ADD SLT PUSH2 0xF29 JUMPI PUSH2 0xF28 PUSH2 0xE16 JUMP JUMPDEST JUMPDEST DUP2 CALLDATALOAD PUSH2 0xF39 DUP5 DUP3 PUSH1 0x20 DUP7 ADD PUSH2 0xED4 JUMP JUMPDEST SWAP2 POP POP SWAP3 SWAP2 POP POP JUMP JUMPDEST PUSH0 PUSH1 0x20 DUP3 DUP5 SUB SLT ISZERO PUSH2 0xF57 JUMPI PUSH2 0xF56 PUSH2 0xBCF JUMP JUMPDEST JUMPDEST PUSH0 DUP3 ADD CALLDATALOAD PUSH8 0xFFFFFFFFFFFFFFFF DUP2 GT ISZERO PUSH2 0xF74 JUMPI PUSH2 0xF73 PUSH2 0xBD3 JUMP JUMPDEST JUMPDEST PUSH2 0xF80 DUP5 DUP3 DUP6 ADD PUSH2 0xF15 JUMP JUMPDEST SWAP2 POP POP SWAP3 SWAP2 POP POP JUMP JUMPDEST PUSH2 0xF92 DUP2 PUSH2 0xC31 JUMP JUMPDEST DUP3 MSTORE POP POP JUMP JUMPDEST PUSH0 DUP3 DUP3 MSTORE PUSH1 0x20 DUP3 ADD SWAP1 POP SWAP3 SWAP2 POP POP JUMP JUMPDEST PUSH0 PUSH2 0xFB2 DUP3 PUSH2 0xCEB JUMP JUMPDEST PUSH2 0xFBC DUP2 DUP6 PUSH2 0xF98 JUMP JUMPDEST SWAP4 POP PUSH2 0xFCC DUP2 DUP6 PUSH1 0x20 DUP7 ADD PUSH2 0xD05 JUMP JUMPDEST PUSH2 0xFD5 DUP2 PUSH2 0xD13 JUMP JUMPDEST DUP5 ADD SWAP2 POP POP SWAP3 SWAP2 POP POP JUMP JUMPDEST PUSH0 PUSH1 0xA0 DUP3 ADD SWAP1 POP PUSH2 0xFF3 PUSH0 DUP4 ADD DUP9 PUSH2 0xF89 JUMP JUMPDEST PUSH2 0x1000 PUSH1 0x20 DUP4 ADD DUP8 PUSH2 0xDEE JUMP JUMPDEST DUP2 DUP2 SUB PUSH1 0x40 DUP4 ADD MSTORE PUSH2 0x1012 DUP2 DUP7 PUSH2 0xFA8 JUMP JUMPDEST SWAP1 POP PUSH2 0x1021 PUSH1 0x60 DUP4 ADD DUP6 PUSH2 0xF89 JUMP JUMPDEST PUSH2 0x102E PUSH1 0x80 DUP4 ADD DUP5 PUSH2 0xF89 JUMP JUMPDEST SWAP7 SWAP6 POP POP POP POP POP POP JUMP JUMPDEST PUSH0 DUP2 MLOAD SWAP1 POP SWAP2 SWAP1 POP JUMP JUMPDEST PUSH0 DUP3 DUP3 MSTORE PUSH1 0x20 DUP3 ADD SWAP1 POP SWAP3 SWAP2 POP POP JUMP JUMPDEST PUSH0 DUP2 SWAP1 POP PUSH1 0x20 DUP3 ADD SWAP1 POP SWAP2 SWAP1 POP JUMP JUMPDEST PUSH0 PUSH1 0xA0 DUP4 ADD PUSH0 DUP4 ADD MLOAD PUSH2 0x1076 PUSH0 DUP7 ADD DUP3 PUSH2 0xCCD JUMP JUMPDEST POP PUSH1 0x20 DUP4 ADD MLOAD PUSH2 0x1089 PUSH1 0x20 DUP7 ADD DUP3 PUSH2 0xCDC JUMP JUMPDEST POP PUSH1 0x40 DUP4 ADD MLOAD DUP5 DUP3 SUB PUSH1 0x40 DUP7 ADD MSTORE PUSH2 0x10A1 DUP3 DUP3 PUSH2 0xD23 JUMP JUMPDEST SWAP2 POP POP PUSH1 0x60 DUP4 ADD MLOAD PUSH2 0x10B6 PUSH1 0x60 DUP7 ADD DUP3 PUSH2 0xCCD JUMP JUMPDEST POP PUSH1 0x80 DUP4 ADD MLOAD PUSH2 0x10C9 PUSH1 0x80 DUP7 ADD DUP3 PUSH2 0xCCD JUMP JUMPDEST POP DUP1 SWAP2 POP POP SWAP3 SWAP2 POP POP JUMP JUMPDEST PUSH0 PUSH2 0x10DF DUP4 DUP4 PUSH2 0x1061 JUMP JUMPDEST SWAP1 POP SWAP3 SWAP2 POP POP JUMP JUMPDEST PUSH0 PUSH1 0x20 DUP3 ADD SWAP1 POP SWAP2 SWAP1 POP JUMP JUMPDEST PUSH0 PUSH2 0x10FD DUP3 PUSH2 0x1038 JUMP JUMPDEST PUSH2 0x1107 DUP2 DUP6 PUSH2 0x1042 JUMP JUMPDEST SWAP4 POP DUP4 PUSH1 0x20 DUP3 MUL DUP6 ADD PUSH2 0x1119 DUP6 PUSH2 0x1052 JUMP JUMPDEST DUP1 PUSH0 JUMPDEST DUP6 DUP2 LT ISZERO PUSH2 0x1154 JUMPI DUP5 DUP5 SUB DUP10 MSTORE DUP2 MLOAD PUSH2 0x1135 DUP6 DUP3 PUSH2 0x10D4 JUMP JUMPDEST SWAP5 POP PUSH2 0x1140 DUP4 PUSH2 0x10E7 JUMP JUMPDEST SWAP3 POP PUSH1 0x20 DUP11 ADD SWAP10 POP POP PUSH1 0x1 DUP2 ADD SWAP1 POP PUSH2 0x111C JUMP JUMPDEST POP DUP3 SWAP8 POP DUP8 SWAP6 POP POP POP POP POP POP SWAP3 SWAP2 POP POP JUMP JUMPDEST PUSH0 PUSH1 0x20 DUP3 ADD SWAP1 POP DUP2 DUP2 SUB PUSH0 DUP4 ADD MSTORE PUSH2 0x117E DUP2 DUP5 PUSH2 0x10F3 JUMP JUMPDEST SWAP1 POP SWAP3 SWAP2 POP POP JUMP JUMPDEST PUSH32 0x4E487B7100000000000000000000000000000000000000000000000000000000 PUSH0 MSTORE PUSH1 0x32 PUSH1 0x4 MSTORE PUSH1 0x24 PUSH0 REVERT JUMPDEST PUSH32 0x546865207477697473206973206E6F742070726573656E740000000000000000 PUSH0 DUP3 ADD MSTORE POP JUMP JUMPDEST PUSH0 PUSH2 0x11E7 PUSH1 0x18 DUP4 PUSH2 0xF98 JUMP JUMPDEST SWAP2 POP PUSH2 0x11F2 DUP3 PUSH2 0x11B3 JUMP JUMPDEST PUSH1 0x20 DUP3 ADD SWAP1 POP SWAP2 SWAP1 POP JUMP JUMPDEST PUSH0 PUSH1 0x20 DUP3 ADD SWAP1 POP DUP2 DUP2 SUB PUSH0 DUP4 ADD MSTORE PUSH2 0x1214 DUP2 PUSH2 0x11DB JUMP JUMPDEST SWAP1 POP SWAP2 SWAP1 POP JUMP JUMPDEST PUSH32 0x736F6D65207468696E672077656E742077726F6E6720696E2074686520756E6C PUSH0 DUP3 ADD MSTORE PUSH32 0x696B652074776974730000000000000000000000000000000000000000000000 PUSH1 0x20 DUP3 ADD MSTORE POP JUMP JUMPDEST PUSH0 PUSH2 0x1275 PUSH1 0x29 DUP4 PUSH2 0xF98 JUMP JUMPDEST SWAP2 POP PUSH2 0x1280 DUP3 PUSH2 0x121B JUMP JUMPDEST PUSH1 0x40 DUP3 ADD SWAP1 POP SWAP2 SWAP1 POP JUMP JUMPDEST PUSH0 PUSH1 0x20 DUP3 ADD SWAP1 POP DUP2 DUP2 SUB PUSH0 DUP4 ADD MSTORE PUSH2 0x12A2 DUP2 PUSH2 0x1269 JUMP JUMPDEST SWAP1 POP SWAP2 SWAP1 POP JUMP JUMPDEST PUSH32 0x4E487B7100000000000000000000000000000000000000000000000000000000 PUSH0 MSTORE PUSH1 0x11 PUSH1 0x4 MSTORE PUSH1 0x24 PUSH0 REVERT JUMPDEST PUSH0 PUSH2 0x12E0 DUP3 PUSH2 0xC31 JUMP JUMPDEST SWAP2 POP PUSH0 DUP3 SUB PUSH2 0x12F2 JUMPI PUSH2 0x12F1 PUSH2 0x12A9 JUMP JUMPDEST JUMPDEST PUSH1 0x1 DUP3 SUB SWAP1 POP SWAP2 SWAP1 POP JUMP JUMPDEST PUSH0 PUSH1 0x80 DUP3 ADD SWAP1 POP PUSH2 0x1310 PUSH0 DUP4 ADD DUP8 PUSH2 0xDEE JUMP JUMPDEST PUSH2 0x131D PUSH1 0x20 DUP4 ADD DUP7 PUSH2 0xDEE JUMP JUMPDEST PUSH2 0x132A PUSH1 0x40 DUP4 ADD DUP6 PUSH2 0xF89 JUMP JUMPDEST PUSH2 0x1337 PUSH1 0x60 DUP4 ADD DUP5 PUSH2 0xF89 JUMP JUMPDEST SWAP6 SWAP5 POP POP POP POP POP JUMP JUMPDEST PUSH32 0x4E487B7100000000000000000000000000000000000000000000000000000000 PUSH0 MSTORE PUSH1 0x22 PUSH1 0x4 MSTORE PUSH1 0x24 PUSH0 REVERT JUMPDEST PUSH0 PUSH1 0x2 DUP3 DIV SWAP1 POP PUSH1 0x1 DUP3 AND DUP1 PUSH2 0x1384 JUMPI PUSH1 0x7F DUP3 AND SWAP2 POP JUMPDEST PUSH1 0x20 DUP3 LT DUP2 SUB PUSH2 0x1397 JUMPI PUSH2 0x1396 PUSH2 0x1340 JUMP JUMPDEST JUMPDEST POP SWAP2 SWAP1 POP JUMP JUMPDEST PUSH32 0x54686520747769747320697320746F6F206C6F6E672062726F00000000000000 PUSH0 DUP3 ADD MSTORE POP JUMP JUMPDEST PUSH0 PUSH2 0x13D1 PUSH1 0x19 DUP4 PUSH2 0xF98 JUMP JUMPDEST SWAP2 POP PUSH2 0x13DC DUP3 PUSH2 0x139D JUMP JUMPDEST PUSH1 0x20 DUP3 ADD SWAP1 POP SWAP2 SWAP1 POP JUMP JUMPDEST PUSH0 PUSH1 0x20 DUP3 ADD SWAP1 POP DUP2 DUP2 SUB PUSH0 DUP4 ADD MSTORE PUSH2 0x13FE DUP2 PUSH2 0x13C5 JUMP JUMPDEST SWAP1 POP SWAP2 SWAP1 POP JUMP JUMPDEST PUSH0 DUP2 SWAP1 POP DUP2 PUSH0 MSTORE PUSH1 0x20 PUSH0 KECCAK256 SWAP1 POP SWAP2 SWAP1 POP JUMP JUMPDEST PUSH0 PUSH1 0x20 PUSH1 0x1F DUP4 ADD DIV SWAP1 POP SWAP2 SWAP1 POP JUMP JUMPDEST PUSH0 DUP3 DUP3 SHL SWAP1 POP SWAP3 SWAP2 POP POP JUMP JUMPDEST PUSH0 PUSH1 0x8 DUP4 MUL PUSH2 0x1461 PUSH32 0xFFFFFFFFFFFFFFFFFFFFFFFFFFFFFFFFFFFFFFFFFFFFFFFFFFFFFFFFFFFFFFFF DUP3 PUSH2 0x1426 JUMP JUMPDEST PUSH2 0x146B DUP7 DUP4 PUSH2 0x1426 JUMP JUMPDEST SWAP6 POP DUP1 NOT DUP5 AND SWAP4 POP DUP1 DUP7 AND DUP5 OR SWAP3 POP POP POP SWAP4 SWAP3 POP POP POP JUMP JUMPDEST PUSH0 DUP2 SWAP1 POP SWAP2 SWAP1 POP JUMP JUMPDEST PUSH0 PUSH2 0x14A6 PUSH2 0x14A1 PUSH2 0x149C DUP5 PUSH2 0xC31 JUMP JUMPDEST PUSH2 0x1483 JUMP JUMPDEST PUSH2 0xC31 JUMP JUMPDEST SWAP1 POP SWAP2 SWAP1 POP JUMP JUMPDEST PUSH0 DUP2 SWAP1 POP SWAP2 SWAP1 POP JUMP JUMPDEST PUSH2 0x14BF DUP4 PUSH2 0x148C JUMP JUMPDEST PUSH2 0x14D3 PUSH2 0x14CB DUP3 PUSH2 0x14AD JUMP JUMPDEST DUP5 DUP5 SLOAD PUSH2 0x1432 JUMP JUMPDEST DUP3 SSTORE POP POP POP POP JUMP JUMPDEST PUSH0 SWAP1 JUMP JUMPDEST PUSH2 0x14E7 PUSH2 0x14DB JUMP JUMPDEST PUSH2 0x14F2 DUP2 DUP5 DUP5 PUSH2 0x14B6 JUMP JUMPDEST POP POP POP JUMP JUMPDEST JUMPDEST DUP2 DUP2 LT ISZERO PUSH2 0x1515 JUMPI PUSH2 0x150A PUSH0 DUP3 PUSH2 0x14DF JUMP JUMPDEST PUSH1 0x1 DUP2 ADD SWAP1 POP PUSH2 0x14F8 JUMP JUMPDEST POP POP JUMP JUMPDEST PUSH1 0x1F DUP3 GT ISZERO PUSH2 0x155A JUMPI PUSH2 0x152B DUP2 PUSH2 0x1405 JUMP JUMPDEST PUSH2 0x1534 DUP5 PUSH2 0x1417 JUMP JUMPDEST DUP2 ADD PUSH1 0x20 DUP6 LT ISZERO PUSH2 0x1543 JUMPI DUP2 SWAP1 POP JUMPDEST PUSH2 0x1557 PUSH2 0x154F DUP6 PUSH2 0x1417 JUMP JUMPDEST DUP4 ADD DUP3 PUSH2 0x14F7 JUMP JUMPDEST POP POP JUMPDEST POP POP POP JUMP JUMPDEST PUSH0 DUP3 DUP3 SHR SWAP1 POP SWAP3 SWAP2 POP POP JUMP JUMPDEST PUSH0 PUSH2 0x157A PUSH0 NOT DUP5 PUSH1 0x8 MUL PUSH2 0x155F JUMP JUMPDEST NOT DUP1 DUP4 AND SWAP2 POP POP SWAP3 SWAP2 POP POP JUMP JUMPDEST PUSH0 PUSH2 0x1592 DUP4 DUP4 PUSH2 0x156B JUMP JUMPDEST SWAP2 POP DUP3 PUSH1 0x2 MUL DUP3 OR SWAP1 POP SWAP3 SWAP2 POP POP JUMP JUMPDEST PUSH2 0x15AB DUP3 PUSH2 0xCEB JUMP JUMPDEST PUSH8 0xFFFFFFFFFFFFFFFF DUP2 GT ISZERO PUSH2 0x15C4 JUMPI PUSH2 0x15C3 PUSH2 0xE1E JUMP JUMPDEST JUMPDEST PUSH2 0x15CE DUP3 SLOAD PUSH2 0x136D JUMP JUMPDEST PUSH2 0x15D9 DUP3 DUP3 DUP6 PUSH2 0x1519 JUMP JUMPDEST PUSH0 PUSH1 0x20 SWAP1 POP PUSH1 0x1F DUP4 GT PUSH1 0x1 DUP2 EQ PUSH2 0x160A JUMPI PUSH0 DUP5 ISZERO PUSH2 0x15F8 JUMPI DUP3 DUP8 ADD MLOAD SWAP1 POP JUMPDEST PUSH2 0x1602 DUP6 DUP3 PUSH2 0x1587 JUMP JUMPDEST DUP7 SSTORE POP PUSH2 0x1669 JUMP JUMPDEST PUSH1 0x1F NOT DUP5 AND PUSH2 0x1618 DUP7 PUSH2 0x1405 JUMP JUMPDEST PUSH0 JUMPDEST DUP3 DUP2 LT ISZERO PUSH2 0x163F JUMPI DUP5 DUP10 ADD MLOAD DUP3 SSTORE PUSH1 0x1 DUP3 ADD SWAP2 POP PUSH1 0x20 DUP6 ADD SWAP5 POP PUSH1 0x20 DUP2 ADD SWAP1 POP PUSH2 0x161A JUMP JUMPDEST DUP7 DUP4 LT ISZERO PUSH2 0x165C JUMPI DUP5 DUP10 ADD MLOAD PUSH2 0x1658 PUSH1 0x1F DUP10 AND DUP3 PUSH2 0x156B JUMP JUMPDEST DUP4 SSTORE POP JUMPDEST PUSH1 0x1 PUSH1 0x2 DUP9 MUL ADD DUP9 SSTORE POP POP POP JUMPDEST POP POP POP POP POP POP JUMP JUMPDEST PUSH0 PUSH1 0x80 DUP3 ADD SWAP1 POP PUSH2 0x1684 PUSH0 DUP4 ADD DUP8 PUSH2 0xF89 JUMP JUMPDEST PUSH2 0x1691 PUSH1 0x20 DUP4 ADD DUP7 PUSH2 0xDEE JUMP JUMPDEST DUP2 DUP2 SUB PUSH1 0x40 DUP4 ADD MSTORE PUSH2 0x16A3 DUP2 DUP6 PUSH2 0xFA8 JUMP JUMPDEST SWAP1 POP PUSH2 0x16B2 PUSH1 0x60 DUP4 ADD DUP5 PUSH2 0xF89 JUMP JUMPDEST SWAP6 SWAP5 POP POP POP POP POP JUMP JUMPDEST PUSH0 PUSH2 0x16C5 DUP3 PUSH2 0xC31 JUMP JUMPDEST SWAP2 POP PUSH32 0xFFFFFFFFFFFFFFFFFFFFFFFFFFFFFFFFFFFFFFFFFFFFFFFFFFFFFFFFFFFFFFFF DUP3 SUB PUSH2 0x16F7 JUMPI PUSH2 0x16F6 PUSH2 0x12A9 JUMP JUMPDEST JUMPDEST PUSH1 0x1 DUP3 ADD SWAP1 POP SWAP2 SWAP1 POP JUMP INVALID LOG2 PUSH5 0x6970667358 0x22 SLT KECCAK256 SWAP6 0x1F DUP10 0xD 0xEA PC 0x1F 0xD9 ADDRESS PUSH31 0x71E66752BCB45131D17AE484CF7748AE1CC9574CDE6F64736F6C634300081A STOP CALLER "
				},
				"gasEstimates": {
					"creation": {
						"codeDepositCost": "1188800",
						"executionCost": "25497",
						"totalCost": "1214297"
					},
					"external": {
						"allTwits()": "infinite",
						"createTwits(string)": "infinite",
						"getTwits(uint256)": "infinite",
						"likeTwits(address,uint256)": "infinite",
						"owner()": "2553",
						"twitss(address,uint256)": "infinite",
						"unlikeTwits(address,uint256)": "infinite"
					}
				},
				"methodIdentifiers": {
					"allTwits()": "ea71429b",
					"createTwits(string)": "95a09e96",
					"getTwits(uint256)": "8017d930",
					"likeTwits(address,uint256)": "cd73e24e",
					"owner()": "8da5cb5b",
					"twitss(address,uint256)": "da377e24",
					"unlikeTwits(address,uint256)": "1cbf243a"
				}
			},
			"storageLayout": {
				"storage": [
					{
						"astId": 18,
						"contract": "contracts/twiterwithevents.sol:Twitter",
						"label": "twitss",
						"offset": 0,
						"slot": "0",
						"type": "t_mapping(t_address,t_array(t_struct(Twits)12_storage)dyn_storage)"
					},
					{
						"astId": 50,
						"contract": "contracts/twiterwithevents.sol:Twitter",
						"label": "owner",
						"offset": 0,
						"slot": "1",
						"type": "t_address"
					}
				],
				"types": {
					"t_address": {
						"encoding": "inplace",
						"label": "address",
						"numberOfBytes": "20"
					},
					"t_array(t_struct(Twits)12_storage)dyn_storage": {
						"base": "t_struct(Twits)12_storage",
						"encoding": "dynamic_array",
						"label": "struct Twitter.Twits[]",
						"numberOfBytes": "32"
					},
					"t_mapping(t_address,t_array(t_struct(Twits)12_storage)dyn_storage)": {
						"encoding": "mapping",
						"key": "t_address",
						"label": "mapping(address => struct Twitter.Twits[])",
						"numberOfBytes": "32",
						"value": "t_array(t_struct(Twits)12_storage)dyn_storage"
					},
					"t_string_storage": {
						"encoding": "bytes",
						"label": "string",
						"numberOfBytes": "32"
					},
					"t_struct(Twits)12_storage": {
						"encoding": "inplace",
						"label": "struct Twitter.Twits",
						"members": [
							{
								"astId": 3,
								"contract": "contracts/twiterwithevents.sol:Twitter",
								"label": "id",
								"offset": 0,
								"slot": "0",
								"type": "t_uint256"
							},
							{
								"astId": 5,
								"contract": "contracts/twiterwithevents.sol:Twitter",
								"label": "author",
								"offset": 0,
								"slot": "1",
								"type": "t_address"
							},
							{
								"astId": 7,
								"contract": "contracts/twiterwithevents.sol:Twitter",
								"label": "content",
								"offset": 0,
								"slot": "2",
								"type": "t_string_storage"
							},
							{
								"astId": 9,
								"contract": "contracts/twiterwithevents.sol:Twitter",
								"label": "timestamp",
								"offset": 0,
								"slot": "3",
								"type": "t_uint256"
							},
							{
								"astId": 11,
								"contract": "contracts/twiterwithevents.sol:Twitter",
								"label": "likes",
								"offset": 0,
								"slot": "4",
								"type": "t_uint256"
							}
						],
						"numberOfBytes": "160"
					},
					"t_uint256": {
						"encoding": "inplace",
						"label": "uint256",
						"numberOfBytes": "32"
					}
				}
			},
			"userdoc": {
				"kind": "user",
				"methods": {},
				"version": 1
			}
		}
	}
}