{
	"contracts/TwitterNotificationModifier.sol": {
		"TwitterNotificatonModifier": {
			"abi": [
				{
					"inputs": [],
					"stateMutability": "nonpayable",
					"type": "constructor"
				},
				{
					"inputs": [
						{
							"internalType": "string",
							"name": "_notdata",
							"type": "string"
						}
					],
					"name": "CreateNotifictioin",
					"outputs": [],
					"stateMutability": "nonpayable",
					"type": "function"
				},
				{
					"inputs": [
						{
							"internalType": "uint256",
							"name": "_niotificationlenght",
							"type": "uint256"
						}
					],
					"name": "NotificationLengthFunction",
					"outputs": [],
					"stateMutability": "nonpayable",
					"type": "function"
				},
				{
					"inputs": [
						{
							"internalType": "address",
							"name": "",
							"type": "address"
						},
						{
							"internalType": "uint256",
							"name": "",
							"type": "uint256"
						}
					],
					"name": "NotificationTwitter",
					"outputs": [
						{
							"internalType": "address",
							"name": "author",
							"type": "address"
						},
						{
							"internalType": "string",
							"name": "notificationcontent",
							"type": "string"
						},
						{
							"internalType": "uint256",
							"name": "timestamp",
							"type": "uint256"
						}
					],
					"stateMutability": "view",
					"type": "function"
				},
				{
					"inputs": [],
					"name": "owner",
					"outputs": [
						{
							"internalType": "address",
							"name": "",
							"type": "address"
						}
					],
					"stateMutability": "view",
					"type": "function"
				},
				{
					"inputs": [],
					"name": "twitterLength",
					"outputs": [
						{
							"internalType": "uint256",
							"name": "",
							"type": "uint256"
						}
					],
					"stateMutability": "view",
					"type": "function"
				}
			],
			"devdoc": {
				"kind": "dev",
				"methods": {},
				"version": 1
			},
			"evm": {
				"assembly": "    /* \"contracts/TwitterNotificationModifier.sol\":81:1820  contract TwitterNotificatonModifier{... */\n  mstore(0x40, 0x80)\n    /* \"contracts/TwitterNotificationModifier.sol\":661:709  constructor(){... */\n  callvalue\n  dup1\n  iszero\n  tag_1\n  jumpi\n  0x00\n  dup1\n  revert\ntag_1:\n  pop\n    /* \"contracts/TwitterNotificationModifier.sol\":692:702  msg.sender */\n  caller\n    /* \"contracts/TwitterNotificationModifier.sol\":684:689  owner */\n  0x02\n  0x00\n    /* \"contracts/TwitterNotificationModifier.sol\":684:702  owner = msg.sender */\n  0x0100\n  exp\n  dup2\n  sload\n  dup2\n  0xffffffffffffffffffffffffffffffffffffffff\n  mul\n  not\n  and\n  swap1\n  dup4\n  0xffffffffffffffffffffffffffffffffffffffff\n  and\n  mul\n  or\n  swap1\n  sstore\n  pop\n    /* \"contracts/TwitterNotificationModifier.sol\":81:1820  contract TwitterNotificatonModifier{... */\n  dataSize(sub_0)\n  dup1\n  dataOffset(sub_0)\n  0x00\n  codecopy\n  0x00\n  return\nstop\n\nsub_0: assembly {\n        /* \"contracts/TwitterNotificationModifier.sol\":81:1820  contract TwitterNotificatonModifier{... */\n      mstore(0x40, 0x80)\n      callvalue\n      dup1\n      iszero\n      tag_1\n      jumpi\n      0x00\n      dup1\n      revert\n    tag_1:\n      pop\n      jumpi(tag_2, lt(calldatasize, 0x04))\n      shr(0xe0, calldataload(0x00))\n      dup1\n      0x23e81a69\n      eq\n      tag_3\n      jumpi\n      dup1\n      0x271d6cc3\n      eq\n      tag_4\n      jumpi\n      dup1\n      0x51a984fb\n      eq\n      tag_5\n      jumpi\n      dup1\n      0x8da5cb5b\n      eq\n      tag_6\n      jumpi\n      dup1\n      0xbe0c0164\n      eq\n      tag_7\n      jumpi\n    tag_2:\n      0x00\n      dup1\n      revert\n        /* \"contracts/TwitterNotificationModifier.sol\":198:226  uint256 public twitterLength */\n    tag_3:\n      tag_8\n      tag_9\n      jump\t// in\n    tag_8:\n      mload(0x40)\n      tag_10\n      swap2\n      swap1\n      tag_11\n      jump\t// in\n    tag_10:\n      mload(0x40)\n      dup1\n      swap2\n      sub\n      swap1\n      return\n        /* \"contracts/TwitterNotificationModifier.sol\":1233:1818  function CreateNotifictioin(string memory _notdata) public  {... */\n    tag_4:\n      tag_12\n      0x04\n      dup1\n      calldatasize\n      sub\n      dup2\n      add\n      swap1\n      tag_13\n      swap2\n      swap1\n      tag_14\n      jump\t// in\n    tag_13:\n      tag_15\n      jump\t// in\n    tag_12:\n      stop\n        /* \"contracts/TwitterNotificationModifier.sol\":1019:1155  function NotificationLengthFunction(uint256 _niotificationlenght) public onlyOwner(){... */\n    tag_5:\n      tag_16\n      0x04\n      dup1\n      calldatasize\n      sub\n      dup2\n      add\n      swap1\n      tag_17\n      swap2\n      swap1\n      tag_18\n      jump\t// in\n    tag_17:\n      tag_19\n      jump\t// in\n    tag_16:\n      stop\n        /* \"contracts/TwitterNotificationModifier.sol\":635:655  address public owner */\n    tag_6:\n      tag_20\n      tag_21\n      jump\t// in\n    tag_20:\n      mload(0x40)\n      tag_22\n      swap2\n      swap1\n      tag_23\n      jump\t// in\n    tag_22:\n      mload(0x40)\n      dup1\n      swap2\n      sub\n      swap1\n      return\n        /* \"contracts/TwitterNotificationModifier.sol\":489:551  mapping (address => Notification[]) public NotificationTwitter */\n    tag_7:\n      tag_24\n      0x04\n      dup1\n      calldatasize\n      sub\n      dup2\n      add\n      swap1\n      tag_25\n      swap2\n      swap1\n      tag_26\n      jump\t// in\n    tag_25:\n      tag_27\n      jump\t// in\n    tag_24:\n      mload(0x40)\n      tag_28\n      swap4\n      swap3\n      swap2\n      swap1\n      tag_29\n      jump\t// in\n    tag_28:\n      mload(0x40)\n      dup1\n      swap2\n      sub\n      swap1\n      return\n        /* \"contracts/TwitterNotificationModifier.sol\":198:226  uint256 public twitterLength */\n    tag_9:\n      sload(0x00)\n      dup2\n      jump\t// out\n        /* \"contracts/TwitterNotificationModifier.sol\":1233:1818  function CreateNotifictioin(string memory _notdata) public  {... */\n    tag_15:\n        /* \"contracts/TwitterNotificationModifier.sol\":1387:1400  twitterLength */\n      sload(0x00)\n        /* \"contracts/TwitterNotificationModifier.sol\":1367:1375  _notdata */\n      dup2\n        /* \"contracts/TwitterNotificationModifier.sol\":1361:1383  bytes(_notdata).length */\n      mload\n        /* \"contracts/TwitterNotificationModifier.sol\":1361:1400  bytes(_notdata).length <= twitterLength */\n      gt\n      iszero\n        /* \"contracts/TwitterNotificationModifier.sol\":1353:1450  require(bytes(_notdata).length <= twitterLength, \"this content is too long please make it short\") */\n      tag_31\n      jumpi\n      mload(0x40)\n      0x08c379a000000000000000000000000000000000000000000000000000000000\n      dup2\n      mstore\n      0x04\n      add\n      tag_32\n      swap1\n      tag_33\n      jump\t// in\n    tag_32:\n      mload(0x40)\n      dup1\n      swap2\n      sub\n      swap1\n      revert\n    tag_31:\n        /* \"contracts/TwitterNotificationModifier.sol\":1515:1553  Notification memory notificationobject */\n      0x00\n        /* \"contracts/TwitterNotificationModifier.sol\":1556:1695  Notification({... */\n      mload(0x40)\n      dup1\n      0x60\n      add\n      0x40\n      mstore\n      dup1\n        /* \"contracts/TwitterNotificationModifier.sol\":1591:1601  msg.sender */\n      caller\n        /* \"contracts/TwitterNotificationModifier.sol\":1556:1695  Notification({... */\n      0xffffffffffffffffffffffffffffffffffffffff\n      and\n      dup2\n      mstore\n      0x20\n      add\n        /* \"contracts/TwitterNotificationModifier.sol\":1636:1644  _notdata */\n      dup4\n        /* \"contracts/TwitterNotificationModifier.sol\":1556:1695  Notification({... */\n      dup2\n      mstore\n      0x20\n      add\n        /* \"contracts/TwitterNotificationModifier.sol\":1669:1684  block.timestamp */\n      timestamp\n        /* \"contracts/TwitterNotificationModifier.sol\":1556:1695  Notification({... */\n      dup2\n      mstore\n      pop\n        /* \"contracts/TwitterNotificationModifier.sol\":1515:1695  Notification memory notificationobject = Notification({... */\n      swap1\n      pop\n        /* \"contracts/TwitterNotificationModifier.sol\":1754:1773  NotificationTwitter */\n      0x01\n        /* \"contracts/TwitterNotificationModifier.sol\":1754:1785  NotificationTwitter[msg.sender] */\n      0x00\n        /* \"contracts/TwitterNotificationModifier.sol\":1774:1784  msg.sender */\n      caller\n        /* \"contracts/TwitterNotificationModifier.sol\":1754:1785  NotificationTwitter[msg.sender] */\n      0xffffffffffffffffffffffffffffffffffffffff\n      and\n      0xffffffffffffffffffffffffffffffffffffffff\n      and\n      dup2\n      mstore\n      0x20\n      add\n      swap1\n      dup2\n      mstore\n      0x20\n      add\n      0x00\n      keccak256\n        /* \"contracts/TwitterNotificationModifier.sol\":1791:1809  notificationobject */\n      dup2\n        /* \"contracts/TwitterNotificationModifier.sol\":1754:1810  NotificationTwitter[msg.sender].push(notificationobject) */\n      swap1\n      dup1\n      0x01\n      dup2\n      sload\n      add\n      dup1\n      dup3\n      sstore\n      dup1\n      swap2\n      pop\n      pop\n      0x01\n      swap1\n      sub\n      swap1\n      0x00\n      mstore\n      keccak256(0x00, 0x20)\n      swap1\n      0x03\n      mul\n      add\n      0x00\n      swap1\n      swap2\n      swap1\n      swap2\n      swap1\n      swap2\n      pop\n      0x00\n      dup3\n      add\n      mload\n      dup2\n      0x00\n      add\n      exp(0x0100, 0x00)\n      dup2\n      sload\n      dup2\n      0xffffffffffffffffffffffffffffffffffffffff\n      mul\n      not\n      and\n      swap1\n      dup4\n      0xffffffffffffffffffffffffffffffffffffffff\n      and\n      mul\n      or\n      swap1\n      sstore\n      pop\n      0x20\n      dup3\n      add\n      mload\n      dup2\n      0x01\n      add\n      swap1\n      dup2\n      tag_35\n      swap2\n      swap1\n      tag_36\n      jump\t// in\n    tag_35:\n      pop\n      0x40\n      dup3\n      add\n      mload\n      dup2\n      0x02\n      add\n      sstore\n      pop\n      pop\n        /* \"contracts/TwitterNotificationModifier.sol\":1293:1818  {... */\n      pop\n        /* \"contracts/TwitterNotificationModifier.sol\":1233:1818  function CreateNotifictioin(string memory _notdata) public  {... */\n      pop\n      jump\t// out\n        /* \"contracts/TwitterNotificationModifier.sol\":1019:1155  function NotificationLengthFunction(uint256 _niotificationlenght) public onlyOwner(){... */\n    tag_19:\n        /* \"contracts/TwitterNotificationModifier.sol\":837:842  owner */\n      0x02\n      0x00\n      swap1\n      sload\n      swap1\n      0x0100\n      exp\n      swap1\n      div\n      0xffffffffffffffffffffffffffffffffffffffff\n      and\n        /* \"contracts/TwitterNotificationModifier.sol\":823:842  msg.sender == owner */\n      0xffffffffffffffffffffffffffffffffffffffff\n      and\n        /* \"contracts/TwitterNotificationModifier.sol\":823:833  msg.sender */\n      caller\n        /* \"contracts/TwitterNotificationModifier.sol\":823:842  msg.sender == owner */\n      0xffffffffffffffffffffffffffffffffffffffff\n      and\n      eq\n        /* \"contracts/TwitterNotificationModifier.sol\":814:905  require( msg.sender == owner,\"you are not the owner you cannot set the twitter max length\") */\n      tag_38\n      jumpi\n      mload(0x40)\n      0x08c379a000000000000000000000000000000000000000000000000000000000\n      dup2\n      mstore\n      0x04\n      add\n      tag_39\n      swap1\n      tag_40\n      jump\t// in\n    tag_39:\n      mload(0x40)\n      dup1\n      swap2\n      sub\n      swap1\n      revert\n    tag_38:\n        /* \"contracts/TwitterNotificationModifier.sol\":1128:1148  _niotificationlenght */\n      dup1\n        /* \"contracts/TwitterNotificationModifier.sol\":1113:1126  twitterLength */\n      0x00\n        /* \"contracts/TwitterNotificationModifier.sol\":1113:1148  twitterLength= _niotificationlenght */\n      dup2\n      swap1\n      sstore\n      pop\n        /* \"contracts/TwitterNotificationModifier.sol\":1019:1155  function NotificationLengthFunction(uint256 _niotificationlenght) public onlyOwner(){... */\n      pop\n      jump\t// out\n        /* \"contracts/TwitterNotificationModifier.sol\":635:655  address public owner */\n    tag_21:\n      0x02\n      0x00\n      swap1\n      sload\n      swap1\n      0x0100\n      exp\n      swap1\n      div\n      0xffffffffffffffffffffffffffffffffffffffff\n      and\n      dup2\n      jump\t// out\n        /* \"contracts/TwitterNotificationModifier.sol\":489:551  mapping (address => Notification[]) public NotificationTwitter */\n    tag_27:\n      mstore(0x20, 0x01)\n      dup2\n      0x00\n      mstore\n      keccak256(0x00, 0x40)\n      dup2\n      dup2\n      sload\n      dup2\n      lt\n      tag_42\n      jumpi\n      0x00\n      dup1\n      revert\n    tag_42:\n      swap1\n      0x00\n      mstore\n      keccak256(0x00, 0x20)\n      swap1\n      0x03\n      mul\n      add\n      0x00\n      swap2\n      pop\n      swap2\n      pop\n      pop\n      dup1\n      0x00\n      add\n      0x00\n      swap1\n      sload\n      swap1\n      0x0100\n      exp\n      swap1\n      div\n      0xffffffffffffffffffffffffffffffffffffffff\n      and\n      swap1\n      dup1\n      0x01\n      add\n      dup1\n      sload\n      tag_44\n      swap1\n      tag_45\n      jump\t// in\n    tag_44:\n      dup1\n      0x1f\n      add\n      0x20\n      dup1\n      swap2\n      div\n      mul\n      0x20\n      add\n      mload(0x40)\n      swap1\n      dup2\n      add\n      0x40\n      mstore\n      dup1\n      swap3\n      swap2\n      swap1\n      dup2\n      dup2\n      mstore\n      0x20\n      add\n      dup3\n      dup1\n      sload\n      tag_46\n      swap1\n      tag_45\n      jump\t// in\n    tag_46:\n      dup1\n      iszero\n      tag_47\n      jumpi\n      dup1\n      0x1f\n      lt\n      tag_48\n      jumpi\n      0x0100\n      dup1\n      dup4\n      sload\n      div\n      mul\n      dup4\n      mstore\n      swap2\n      0x20\n      add\n      swap2\n      jump(tag_47)\n    tag_48:\n      dup3\n      add\n      swap2\n      swap1\n      0x00\n      mstore\n      keccak256(0x00, 0x20)\n      swap1\n    tag_49:\n      dup2\n      sload\n      dup2\n      mstore\n      swap1\n      0x01\n      add\n      swap1\n      0x20\n      add\n      dup1\n      dup4\n      gt\n      tag_49\n      jumpi\n      dup3\n      swap1\n      sub\n      0x1f\n      and\n      dup3\n      add\n      swap2\n    tag_47:\n      pop\n      pop\n      pop\n      pop\n      pop\n      swap1\n      dup1\n      0x02\n      add\n      sload\n      swap1\n      pop\n      dup4\n      jump\t// out\n        /* \"#utility.yul\":7:84   */\n    tag_50:\n        /* \"#utility.yul\":44:51   */\n      0x00\n        /* \"#utility.yul\":73:78   */\n      dup2\n        /* \"#utility.yul\":62:78   */\n      swap1\n      pop\n        /* \"#utility.yul\":7:84   */\n      swap2\n      swap1\n      pop\n      jump\t// out\n        /* \"#utility.yul\":90:208   */\n    tag_51:\n        /* \"#utility.yul\":177:201   */\n      tag_99\n        /* \"#utility.yul\":195:200   */\n      dup2\n        /* \"#utility.yul\":177:201   */\n      tag_50\n      jump\t// in\n    tag_99:\n        /* \"#utility.yul\":172:175   */\n      dup3\n        /* \"#utility.yul\":165:202   */\n      mstore\n        /* \"#utility.yul\":90:208   */\n      pop\n      pop\n      jump\t// out\n        /* \"#utility.yul\":214:436   */\n    tag_11:\n        /* \"#utility.yul\":307:311   */\n      0x00\n        /* \"#utility.yul\":345:347   */\n      0x20\n        /* \"#utility.yul\":334:343   */\n      dup3\n        /* \"#utility.yul\":330:348   */\n      add\n        /* \"#utility.yul\":322:348   */\n      swap1\n      pop\n        /* \"#utility.yul\":358:429   */\n      tag_101\n        /* \"#utility.yul\":426:427   */\n      0x00\n        /* \"#utility.yul\":415:424   */\n      dup4\n        /* \"#utility.yul\":411:428   */\n      add\n        /* \"#utility.yul\":402:408   */\n      dup5\n        /* \"#utility.yul\":358:429   */\n      tag_51\n      jump\t// in\n    tag_101:\n        /* \"#utility.yul\":214:436   */\n      swap3\n      swap2\n      pop\n      pop\n      jump\t// out\n        /* \"#utility.yul\":442:517   */\n    tag_52:\n        /* \"#utility.yul\":475:481   */\n      0x00\n        /* \"#utility.yul\":508:510   */\n      0x40\n        /* \"#utility.yul\":502:511   */\n      mload\n        /* \"#utility.yul\":492:511   */\n      swap1\n      pop\n        /* \"#utility.yul\":442:517   */\n      swap1\n      jump\t// out\n        /* \"#utility.yul\":523:640   */\n    tag_53:\n        /* \"#utility.yul\":632:633   */\n      0x00\n        /* \"#utility.yul\":629:630   */\n      dup1\n        /* \"#utility.yul\":622:634   */\n      revert\n        /* \"#utility.yul\":646:763   */\n    tag_54:\n        /* \"#utility.yul\":755:756   */\n      0x00\n        /* \"#utility.yul\":752:753   */\n      dup1\n        /* \"#utility.yul\":745:757   */\n      revert\n        /* \"#utility.yul\":769:886   */\n    tag_55:\n        /* \"#utility.yul\":878:879   */\n      0x00\n        /* \"#utility.yul\":875:876   */\n      dup1\n        /* \"#utility.yul\":868:880   */\n      revert\n        /* \"#utility.yul\":892:1009   */\n    tag_56:\n        /* \"#utility.yul\":1001:1002   */\n      0x00\n        /* \"#utility.yul\":998:999   */\n      dup1\n        /* \"#utility.yul\":991:1003   */\n      revert\n        /* \"#utility.yul\":1015:1117   */\n    tag_57:\n        /* \"#utility.yul\":1056:1062   */\n      0x00\n        /* \"#utility.yul\":1107:1109   */\n      0x1f\n        /* \"#utility.yul\":1103:1110   */\n      not\n        /* \"#utility.yul\":1098:1100   */\n      0x1f\n        /* \"#utility.yul\":1091:1096   */\n      dup4\n        /* \"#utility.yul\":1087:1101   */\n      add\n        /* \"#utility.yul\":1083:1111   */\n      and\n        /* \"#utility.yul\":1073:1111   */\n      swap1\n      pop\n        /* \"#utility.yul\":1015:1117   */\n      swap2\n      swap1\n      pop\n      jump\t// out\n        /* \"#utility.yul\":1123:1303   */\n    tag_58:\n        /* \"#utility.yul\":1171:1248   */\n      0x4e487b7100000000000000000000000000000000000000000000000000000000\n        /* \"#utility.yul\":1168:1169   */\n      0x00\n        /* \"#utility.yul\":1161:1249   */\n      mstore\n        /* \"#utility.yul\":1268:1272   */\n      0x41\n        /* \"#utility.yul\":1265:1266   */\n      0x04\n        /* \"#utility.yul\":1258:1273   */\n      mstore\n        /* \"#utility.yul\":1292:1296   */\n      0x24\n        /* \"#utility.yul\":1289:1290   */\n      0x00\n        /* \"#utility.yul\":1282:1297   */\n      revert\n        /* \"#utility.yul\":1309:1590   */\n    tag_59:\n        /* \"#utility.yul\":1392:1419   */\n      tag_110\n        /* \"#utility.yul\":1414:1418   */\n      dup3\n        /* \"#utility.yul\":1392:1419   */\n      tag_57\n      jump\t// in\n    tag_110:\n        /* \"#utility.yul\":1384:1390   */\n      dup2\n        /* \"#utility.yul\":1380:1420   */\n      add\n        /* \"#utility.yul\":1522:1528   */\n      dup2\n        /* \"#utility.yul\":1510:1520   */\n      dup2\n        /* \"#utility.yul\":1507:1529   */\n      lt\n        /* \"#utility.yul\":1486:1504   */\n      0xffffffffffffffff\n        /* \"#utility.yul\":1474:1484   */\n      dup3\n        /* \"#utility.yul\":1471:1505   */\n      gt\n        /* \"#utility.yul\":1468:1530   */\n      or\n        /* \"#utility.yul\":1465:1553   */\n      iszero\n      tag_111\n      jumpi\n        /* \"#utility.yul\":1533:1551   */\n      tag_112\n      tag_58\n      jump\t// in\n    tag_112:\n        /* \"#utility.yul\":1465:1553   */\n    tag_111:\n        /* \"#utility.yul\":1573:1583   */\n      dup1\n        /* \"#utility.yul\":1569:1571   */\n      0x40\n        /* \"#utility.yul\":1562:1584   */\n      mstore\n        /* \"#utility.yul\":1352:1590   */\n      pop\n        /* \"#utility.yul\":1309:1590   */\n      pop\n      pop\n      jump\t// out\n        /* \"#utility.yul\":1596:1725   */\n    tag_60:\n        /* \"#utility.yul\":1630:1636   */\n      0x00\n        /* \"#utility.yul\":1657:1677   */\n      tag_114\n      tag_52\n      jump\t// in\n    tag_114:\n        /* \"#utility.yul\":1647:1677   */\n      swap1\n      pop\n        /* \"#utility.yul\":1686:1719   */\n      tag_115\n        /* \"#utility.yul\":1714:1718   */\n      dup3\n        /* \"#utility.yul\":1706:1712   */\n      dup3\n        /* \"#utility.yul\":1686:1719   */\n      tag_59\n      jump\t// in\n    tag_115:\n        /* \"#utility.yul\":1596:1725   */\n      swap2\n      swap1\n      pop\n      jump\t// out\n        /* \"#utility.yul\":1731:2039   */\n    tag_61:\n        /* \"#utility.yul\":1793:1797   */\n      0x00\n        /* \"#utility.yul\":1883:1901   */\n      0xffffffffffffffff\n        /* \"#utility.yul\":1875:1881   */\n      dup3\n        /* \"#utility.yul\":1872:1902   */\n      gt\n        /* \"#utility.yul\":1869:1925   */\n      iszero\n      tag_117\n      jumpi\n        /* \"#utility.yul\":1905:1923   */\n      tag_118\n      tag_58\n      jump\t// in\n    tag_118:\n        /* \"#utility.yul\":1869:1925   */\n    tag_117:\n        /* \"#utility.yul\":1943:1972   */\n      tag_119\n        /* \"#utility.yul\":1965:1971   */\n      dup3\n        /* \"#utility.yul\":1943:1972   */\n      tag_57\n      jump\t// in\n    tag_119:\n        /* \"#utility.yul\":1935:1972   */\n      swap1\n      pop\n        /* \"#utility.yul\":2027:2031   */\n      0x20\n        /* \"#utility.yul\":2021:2025   */\n      dup2\n        /* \"#utility.yul\":2017:2032   */\n      add\n        /* \"#utility.yul\":2009:2032   */\n      swap1\n      pop\n        /* \"#utility.yul\":1731:2039   */\n      swap2\n      swap1\n      pop\n      jump\t// out\n        /* \"#utility.yul\":2045:2193   */\n    tag_62:\n        /* \"#utility.yul\":2143:2149   */\n      dup3\n        /* \"#utility.yul\":2138:2141   */\n      dup2\n        /* \"#utility.yul\":2133:2136   */\n      dup4\n        /* \"#utility.yul\":2120:2150   */\n      calldatacopy\n        /* \"#utility.yul\":2184:2185   */\n      0x00\n        /* \"#utility.yul\":2175:2181   */\n      dup4\n        /* \"#utility.yul\":2170:2173   */\n      dup4\n        /* \"#utility.yul\":2166:2182   */\n      add\n        /* \"#utility.yul\":2159:2186   */\n      mstore\n        /* \"#utility.yul\":2045:2193   */\n      pop\n      pop\n      pop\n      jump\t// out\n        /* \"#utility.yul\":2199:2624   */\n    tag_63:\n        /* \"#utility.yul\":2277:2282   */\n      0x00\n        /* \"#utility.yul\":2302:2368   */\n      tag_122\n        /* \"#utility.yul\":2318:2367   */\n      tag_123\n        /* \"#utility.yul\":2360:2366   */\n      dup5\n        /* \"#utility.yul\":2318:2367   */\n      tag_61\n      jump\t// in\n    tag_123:\n        /* \"#utility.yul\":2302:2368   */\n      tag_60\n      jump\t// in\n    tag_122:\n        /* \"#utility.yul\":2293:2368   */\n      swap1\n      pop\n        /* \"#utility.yul\":2391:2397   */\n      dup3\n        /* \"#utility.yul\":2384:2389   */\n      dup2\n        /* \"#utility.yul\":2377:2398   */\n      mstore\n        /* \"#utility.yul\":2429:2433   */\n      0x20\n        /* \"#utility.yul\":2422:2427   */\n      dup2\n        /* \"#utility.yul\":2418:2434   */\n      add\n        /* \"#utility.yul\":2467:2470   */\n      dup5\n        /* \"#utility.yul\":2458:2464   */\n      dup5\n        /* \"#utility.yul\":2453:2456   */\n      dup5\n        /* \"#utility.yul\":2449:2465   */\n      add\n        /* \"#utility.yul\":2446:2471   */\n      gt\n        /* \"#utility.yul\":2443:2555   */\n      iszero\n      tag_124\n      jumpi\n        /* \"#utility.yul\":2474:2553   */\n      tag_125\n      tag_56\n      jump\t// in\n    tag_125:\n        /* \"#utility.yul\":2443:2555   */\n    tag_124:\n        /* \"#utility.yul\":2564:2618   */\n      tag_126\n        /* \"#utility.yul\":2611:2617   */\n      dup5\n        /* \"#utility.yul\":2606:2609   */\n      dup3\n        /* \"#utility.yul\":2601:2604   */\n      dup6\n        /* \"#utility.yul\":2564:2618   */\n      tag_62\n      jump\t// in\n    tag_126:\n        /* \"#utility.yul\":2283:2624   */\n      pop\n        /* \"#utility.yul\":2199:2624   */\n      swap4\n      swap3\n      pop\n      pop\n      pop\n      jump\t// out\n        /* \"#utility.yul\":2644:2984   */\n    tag_64:\n        /* \"#utility.yul\":2700:2705   */\n      0x00\n        /* \"#utility.yul\":2749:2752   */\n      dup3\n        /* \"#utility.yul\":2742:2746   */\n      0x1f\n        /* \"#utility.yul\":2734:2740   */\n      dup4\n        /* \"#utility.yul\":2730:2747   */\n      add\n        /* \"#utility.yul\":2726:2753   */\n      slt\n        /* \"#utility.yul\":2716:2838   */\n      tag_128\n      jumpi\n        /* \"#utility.yul\":2757:2836   */\n      tag_129\n      tag_55\n      jump\t// in\n    tag_129:\n        /* \"#utility.yul\":2716:2838   */\n    tag_128:\n        /* \"#utility.yul\":2874:2880   */\n      dup2\n        /* \"#utility.yul\":2861:2881   */\n      calldataload\n        /* \"#utility.yul\":2899:2978   */\n      tag_130\n        /* \"#utility.yul\":2974:2977   */\n      dup5\n        /* \"#utility.yul\":2966:2972   */\n      dup3\n        /* \"#utility.yul\":2959:2963   */\n      0x20\n        /* \"#utility.yul\":2951:2957   */\n      dup7\n        /* \"#utility.yul\":2947:2964   */\n      add\n        /* \"#utility.yul\":2899:2978   */\n      tag_63\n      jump\t// in\n    tag_130:\n        /* \"#utility.yul\":2890:2978   */\n      swap2\n      pop\n        /* \"#utility.yul\":2706:2984   */\n      pop\n        /* \"#utility.yul\":2644:2984   */\n      swap3\n      swap2\n      pop\n      pop\n      jump\t// out\n        /* \"#utility.yul\":2990:3499   */\n    tag_14:\n        /* \"#utility.yul\":3059:3065   */\n      0x00\n        /* \"#utility.yul\":3108:3110   */\n      0x20\n        /* \"#utility.yul\":3096:3105   */\n      dup3\n        /* \"#utility.yul\":3087:3094   */\n      dup5\n        /* \"#utility.yul\":3083:3106   */\n      sub\n        /* \"#utility.yul\":3079:3111   */\n      slt\n        /* \"#utility.yul\":3076:3195   */\n      iszero\n      tag_132\n      jumpi\n        /* \"#utility.yul\":3114:3193   */\n      tag_133\n      tag_53\n      jump\t// in\n    tag_133:\n        /* \"#utility.yul\":3076:3195   */\n    tag_132:\n        /* \"#utility.yul\":3262:3263   */\n      0x00\n        /* \"#utility.yul\":3251:3260   */\n      dup3\n        /* \"#utility.yul\":3247:3264   */\n      add\n        /* \"#utility.yul\":3234:3265   */\n      calldataload\n        /* \"#utility.yul\":3292:3310   */\n      0xffffffffffffffff\n        /* \"#utility.yul\":3284:3290   */\n      dup2\n        /* \"#utility.yul\":3281:3311   */\n      gt\n        /* \"#utility.yul\":3278:3395   */\n      iszero\n      tag_134\n      jumpi\n        /* \"#utility.yul\":3314:3393   */\n      tag_135\n      tag_54\n      jump\t// in\n    tag_135:\n        /* \"#utility.yul\":3278:3395   */\n    tag_134:\n        /* \"#utility.yul\":3419:3482   */\n      tag_136\n        /* \"#utility.yul\":3474:3481   */\n      dup5\n        /* \"#utility.yul\":3465:3471   */\n      dup3\n        /* \"#utility.yul\":3454:3463   */\n      dup6\n        /* \"#utility.yul\":3450:3472   */\n      add\n        /* \"#utility.yul\":3419:3482   */\n      tag_64\n      jump\t// in\n    tag_136:\n        /* \"#utility.yul\":3409:3482   */\n      swap2\n      pop\n        /* \"#utility.yul\":3205:3492   */\n      pop\n        /* \"#utility.yul\":2990:3499   */\n      swap3\n      swap2\n      pop\n      pop\n      jump\t// out\n        /* \"#utility.yul\":3505:3627   */\n    tag_65:\n        /* \"#utility.yul\":3578:3602   */\n      tag_138\n        /* \"#utility.yul\":3596:3601   */\n      dup2\n        /* \"#utility.yul\":3578:3602   */\n      tag_50\n      jump\t// in\n    tag_138:\n        /* \"#utility.yul\":3571:3576   */\n      dup2\n        /* \"#utility.yul\":3568:3603   */\n      eq\n        /* \"#utility.yul\":3558:3621   */\n      tag_139\n      jumpi\n        /* \"#utility.yul\":3617:3618   */\n      0x00\n        /* \"#utility.yul\":3614:3615   */\n      dup1\n        /* \"#utility.yul\":3607:3619   */\n      revert\n        /* \"#utility.yul\":3558:3621   */\n    tag_139:\n        /* \"#utility.yul\":3505:3627   */\n      pop\n      jump\t// out\n        /* \"#utility.yul\":3633:3772   */\n    tag_66:\n        /* \"#utility.yul\":3679:3684   */\n      0x00\n        /* \"#utility.yul\":3717:3723   */\n      dup2\n        /* \"#utility.yul\":3704:3724   */\n      calldataload\n        /* \"#utility.yul\":3695:3724   */\n      swap1\n      pop\n        /* \"#utility.yul\":3733:3766   */\n      tag_141\n        /* \"#utility.yul\":3760:3765   */\n      dup2\n        /* \"#utility.yul\":3733:3766   */\n      tag_65\n      jump\t// in\n    tag_141:\n        /* \"#utility.yul\":3633:3772   */\n      swap3\n      swap2\n      pop\n      pop\n      jump\t// out\n        /* \"#utility.yul\":3778:4107   */\n    tag_18:\n        /* \"#utility.yul\":3837:3843   */\n      0x00\n        /* \"#utility.yul\":3886:3888   */\n      0x20\n        /* \"#utility.yul\":3874:3883   */\n      dup3\n        /* \"#utility.yul\":3865:3872   */\n      dup5\n        /* \"#utility.yul\":3861:3884   */\n      sub\n        /* \"#utility.yul\":3857:3889   */\n      slt\n        /* \"#utility.yul\":3854:3973   */\n      iszero\n      tag_143\n      jumpi\n        /* \"#utility.yul\":3892:3971   */\n      tag_144\n      tag_53\n      jump\t// in\n    tag_144:\n        /* \"#utility.yul\":3854:3973   */\n    tag_143:\n        /* \"#utility.yul\":4012:4013   */\n      0x00\n        /* \"#utility.yul\":4037:4090   */\n      tag_145\n        /* \"#utility.yul\":4082:4089   */\n      dup5\n        /* \"#utility.yul\":4073:4079   */\n      dup3\n        /* \"#utility.yul\":4062:4071   */\n      dup6\n        /* \"#utility.yul\":4058:4080   */\n      add\n        /* \"#utility.yul\":4037:4090   */\n      tag_66\n      jump\t// in\n    tag_145:\n        /* \"#utility.yul\":4027:4090   */\n      swap2\n      pop\n        /* \"#utility.yul\":3983:4100   */\n      pop\n        /* \"#utility.yul\":3778:4107   */\n      swap3\n      swap2\n      pop\n      pop\n      jump\t// out\n        /* \"#utility.yul\":4113:4239   */\n    tag_67:\n        /* \"#utility.yul\":4150:4157   */\n      0x00\n        /* \"#utility.yul\":4190:4232   */\n      0xffffffffffffffffffffffffffffffffffffffff\n        /* \"#utility.yul\":4183:4188   */\n      dup3\n        /* \"#utility.yul\":4179:4233   */\n      and\n        /* \"#utility.yul\":4168:4233   */\n      swap1\n      pop\n        /* \"#utility.yul\":4113:4239   */\n      swap2\n      swap1\n      pop\n      jump\t// out\n        /* \"#utility.yul\":4245:4341   */\n    tag_68:\n        /* \"#utility.yul\":4282:4289   */\n      0x00\n        /* \"#utility.yul\":4311:4335   */\n      tag_148\n        /* \"#utility.yul\":4329:4334   */\n      dup3\n        /* \"#utility.yul\":4311:4335   */\n      tag_67\n      jump\t// in\n    tag_148:\n        /* \"#utility.yul\":4300:4335   */\n      swap1\n      pop\n        /* \"#utility.yul\":4245:4341   */\n      swap2\n      swap1\n      pop\n      jump\t// out\n        /* \"#utility.yul\":4347:4465   */\n    tag_69:\n        /* \"#utility.yul\":4434:4458   */\n      tag_150\n        /* \"#utility.yul\":4452:4457   */\n      dup2\n        /* \"#utility.yul\":4434:4458   */\n      tag_68\n      jump\t// in\n    tag_150:\n        /* \"#utility.yul\":4429:4432   */\n      dup3\n        /* \"#utility.yul\":4422:4459   */\n      mstore\n        /* \"#utility.yul\":4347:4465   */\n      pop\n      pop\n      jump\t// out\n        /* \"#utility.yul\":4471:4693   */\n    tag_23:\n        /* \"#utility.yul\":4564:4568   */\n      0x00\n        /* \"#utility.yul\":4602:4604   */\n      0x20\n        /* \"#utility.yul\":4591:4600   */\n      dup3\n        /* \"#utility.yul\":4587:4605   */\n      add\n        /* \"#utility.yul\":4579:4605   */\n      swap1\n      pop\n        /* \"#utility.yul\":4615:4686   */\n      tag_152\n        /* \"#utility.yul\":4683:4684   */\n      0x00\n        /* \"#utility.yul\":4672:4681   */\n      dup4\n        /* \"#utility.yul\":4668:4685   */\n      add\n        /* \"#utility.yul\":4659:4665   */\n      dup5\n        /* \"#utility.yul\":4615:4686   */\n      tag_69\n      jump\t// in\n    tag_152:\n        /* \"#utility.yul\":4471:4693   */\n      swap3\n      swap2\n      pop\n      pop\n      jump\t// out\n        /* \"#utility.yul\":4699:4821   */\n    tag_70:\n        /* \"#utility.yul\":4772:4796   */\n      tag_154\n        /* \"#utility.yul\":4790:4795   */\n      dup2\n        /* \"#utility.yul\":4772:4796   */\n      tag_68\n      jump\t// in\n    tag_154:\n        /* \"#utility.yul\":4765:4770   */\n      dup2\n        /* \"#utility.yul\":4762:4797   */\n      eq\n        /* \"#utility.yul\":4752:4815   */\n      tag_155\n      jumpi\n        /* \"#utility.yul\":4811:4812   */\n      0x00\n        /* \"#utility.yul\":4808:4809   */\n      dup1\n        /* \"#utility.yul\":4801:4813   */\n      revert\n        /* \"#utility.yul\":4752:4815   */\n    tag_155:\n        /* \"#utility.yul\":4699:4821   */\n      pop\n      jump\t// out\n        /* \"#utility.yul\":4827:4966   */\n    tag_71:\n        /* \"#utility.yul\":4873:4878   */\n      0x00\n        /* \"#utility.yul\":4911:4917   */\n      dup2\n        /* \"#utility.yul\":4898:4918   */\n      calldataload\n        /* \"#utility.yul\":4889:4918   */\n      swap1\n      pop\n        /* \"#utility.yul\":4927:4960   */\n      tag_157\n        /* \"#utility.yul\":4954:4959   */\n      dup2\n        /* \"#utility.yul\":4927:4960   */\n      tag_70\n      jump\t// in\n    tag_157:\n        /* \"#utility.yul\":4827:4966   */\n      swap3\n      swap2\n      pop\n      pop\n      jump\t// out\n        /* \"#utility.yul\":4972:5446   */\n    tag_26:\n        /* \"#utility.yul\":5040:5046   */\n      0x00\n        /* \"#utility.yul\":5048:5054   */\n      dup1\n        /* \"#utility.yul\":5097:5099   */\n      0x40\n        /* \"#utility.yul\":5085:5094   */\n      dup4\n        /* \"#utility.yul\":5076:5083   */\n      dup6\n        /* \"#utility.yul\":5072:5095   */\n      sub\n        /* \"#utility.yul\":5068:5100   */\n      slt\n        /* \"#utility.yul\":5065:5184   */\n      iszero\n      tag_159\n      jumpi\n        /* \"#utility.yul\":5103:5182   */\n      tag_160\n      tag_53\n      jump\t// in\n    tag_160:\n        /* \"#utility.yul\":5065:5184   */\n    tag_159:\n        /* \"#utility.yul\":5223:5224   */\n      0x00\n        /* \"#utility.yul\":5248:5301   */\n      tag_161\n        /* \"#utility.yul\":5293:5300   */\n      dup6\n        /* \"#utility.yul\":5284:5290   */\n      dup3\n        /* \"#utility.yul\":5273:5282   */\n      dup7\n        /* \"#utility.yul\":5269:5291   */\n      add\n        /* \"#utility.yul\":5248:5301   */\n      tag_71\n      jump\t// in\n    tag_161:\n        /* \"#utility.yul\":5238:5301   */\n      swap3\n      pop\n        /* \"#utility.yul\":5194:5311   */\n      pop\n        /* \"#utility.yul\":5350:5352   */\n      0x20\n        /* \"#utility.yul\":5376:5429   */\n      tag_162\n        /* \"#utility.yul\":5421:5428   */\n      dup6\n        /* \"#utility.yul\":5412:5418   */\n      dup3\n        /* \"#utility.yul\":5401:5410   */\n      dup7\n        /* \"#utility.yul\":5397:5419   */\n      add\n        /* \"#utility.yul\":5376:5429   */\n      tag_66\n      jump\t// in\n    tag_162:\n        /* \"#utility.yul\":5366:5429   */\n      swap2\n      pop\n        /* \"#utility.yul\":5321:5439   */\n      pop\n        /* \"#utility.yul\":4972:5446   */\n      swap3\n      pop\n      swap3\n      swap1\n      pop\n      jump\t// out\n        /* \"#utility.yul\":5452:5551   */\n    tag_72:\n        /* \"#utility.yul\":5504:5510   */\n      0x00\n        /* \"#utility.yul\":5538:5543   */\n      dup2\n        /* \"#utility.yul\":5532:5544   */\n      mload\n        /* \"#utility.yul\":5522:5544   */\n      swap1\n      pop\n        /* \"#utility.yul\":5452:5551   */\n      swap2\n      swap1\n      pop\n      jump\t// out\n        /* \"#utility.yul\":5557:5726   */\n    tag_73:\n        /* \"#utility.yul\":5641:5652   */\n      0x00\n        /* \"#utility.yul\":5675:5681   */\n      dup3\n        /* \"#utility.yul\":5670:5673   */\n      dup3\n        /* \"#utility.yul\":5663:5682   */\n      mstore\n        /* \"#utility.yul\":5715:5719   */\n      0x20\n        /* \"#utility.yul\":5710:5713   */\n      dup3\n        /* \"#utility.yul\":5706:5720   */\n      add\n        /* \"#utility.yul\":5691:5720   */\n      swap1\n      pop\n        /* \"#utility.yul\":5557:5726   */\n      swap3\n      swap2\n      pop\n      pop\n      jump\t// out\n        /* \"#utility.yul\":5732:5871   */\n    tag_74:\n        /* \"#utility.yul\":5821:5827   */\n      dup3\n        /* \"#utility.yul\":5816:5819   */\n      dup2\n        /* \"#utility.yul\":5811:5814   */\n      dup4\n        /* \"#utility.yul\":5805:5828   */\n      mcopy\n        /* \"#utility.yul\":5862:5863   */\n      0x00\n        /* \"#utility.yul\":5853:5859   */\n      dup4\n        /* \"#utility.yul\":5848:5851   */\n      dup4\n        /* \"#utility.yul\":5844:5860   */\n      add\n        /* \"#utility.yul\":5837:5864   */\n      mstore\n        /* \"#utility.yul\":5732:5871   */\n      pop\n      pop\n      pop\n      jump\t// out\n        /* \"#utility.yul\":5877:6254   */\n    tag_75:\n        /* \"#utility.yul\":5965:5968   */\n      0x00\n        /* \"#utility.yul\":5993:6032   */\n      tag_167\n        /* \"#utility.yul\":6026:6031   */\n      dup3\n        /* \"#utility.yul\":5993:6032   */\n      tag_72\n      jump\t// in\n    tag_167:\n        /* \"#utility.yul\":6048:6119   */\n      tag_168\n        /* \"#utility.yul\":6112:6118   */\n      dup2\n        /* \"#utility.yul\":6107:6110   */\n      dup6\n        /* \"#utility.yul\":6048:6119   */\n      tag_73\n      jump\t// in\n    tag_168:\n        /* \"#utility.yul\":6041:6119   */\n      swap4\n      pop\n        /* \"#utility.yul\":6128:6193   */\n      tag_169\n        /* \"#utility.yul\":6186:6192   */\n      dup2\n        /* \"#utility.yul\":6181:6184   */\n      dup6\n        /* \"#utility.yul\":6174:6178   */\n      0x20\n        /* \"#utility.yul\":6167:6172   */\n      dup7\n        /* \"#utility.yul\":6163:6179   */\n      add\n        /* \"#utility.yul\":6128:6193   */\n      tag_74\n      jump\t// in\n    tag_169:\n        /* \"#utility.yul\":6218:6247   */\n      tag_170\n        /* \"#utility.yul\":6240:6246   */\n      dup2\n        /* \"#utility.yul\":6218:6247   */\n      tag_57\n      jump\t// in\n    tag_170:\n        /* \"#utility.yul\":6213:6216   */\n      dup5\n        /* \"#utility.yul\":6209:6248   */\n      add\n        /* \"#utility.yul\":6202:6248   */\n      swap2\n      pop\n        /* \"#utility.yul\":5969:6254   */\n      pop\n        /* \"#utility.yul\":5877:6254   */\n      swap3\n      swap2\n      pop\n      pop\n      jump\t// out\n        /* \"#utility.yul\":6260:6793   */\n    tag_29:\n        /* \"#utility.yul\":6429:6433   */\n      0x00\n        /* \"#utility.yul\":6467:6469   */\n      0x60\n        /* \"#utility.yul\":6456:6465   */\n      dup3\n        /* \"#utility.yul\":6452:6470   */\n      add\n        /* \"#utility.yul\":6444:6470   */\n      swap1\n      pop\n        /* \"#utility.yul\":6480:6551   */\n      tag_172\n        /* \"#utility.yul\":6548:6549   */\n      0x00\n        /* \"#utility.yul\":6537:6546   */\n      dup4\n        /* \"#utility.yul\":6533:6550   */\n      add\n        /* \"#utility.yul\":6524:6530   */\n      dup7\n        /* \"#utility.yul\":6480:6551   */\n      tag_69\n      jump\t// in\n    tag_172:\n        /* \"#utility.yul\":6598:6607   */\n      dup2\n        /* \"#utility.yul\":6592:6596   */\n      dup2\n        /* \"#utility.yul\":6588:6608   */\n      sub\n        /* \"#utility.yul\":6583:6585   */\n      0x20\n        /* \"#utility.yul\":6572:6581   */\n      dup4\n        /* \"#utility.yul\":6568:6586   */\n      add\n        /* \"#utility.yul\":6561:6609   */\n      mstore\n        /* \"#utility.yul\":6626:6704   */\n      tag_173\n        /* \"#utility.yul\":6699:6703   */\n      dup2\n        /* \"#utility.yul\":6690:6696   */\n      dup6\n        /* \"#utility.yul\":6626:6704   */\n      tag_75\n      jump\t// in\n    tag_173:\n        /* \"#utility.yul\":6618:6704   */\n      swap1\n      pop\n        /* \"#utility.yul\":6714:6786   */\n      tag_174\n        /* \"#utility.yul\":6782:6784   */\n      0x40\n        /* \"#utility.yul\":6771:6780   */\n      dup4\n        /* \"#utility.yul\":6767:6785   */\n      add\n        /* \"#utility.yul\":6758:6764   */\n      dup5\n        /* \"#utility.yul\":6714:6786   */\n      tag_51\n      jump\t// in\n    tag_174:\n        /* \"#utility.yul\":6260:6793   */\n      swap5\n      swap4\n      pop\n      pop\n      pop\n      pop\n      jump\t// out\n        /* \"#utility.yul\":6799:7031   */\n    tag_76:\n        /* \"#utility.yul\":6939:6973   */\n      0x7468697320636f6e74656e7420697320746f6f206c6f6e6720706c6561736520\n        /* \"#utility.yul\":6935:6936   */\n      0x00\n        /* \"#utility.yul\":6927:6933   */\n      dup3\n        /* \"#utility.yul\":6923:6937   */\n      add\n        /* \"#utility.yul\":6916:6974   */\n      mstore\n        /* \"#utility.yul\":7008:7023   */\n      0x6d616b652069742073686f727400000000000000000000000000000000000000\n        /* \"#utility.yul\":7003:7005   */\n      0x20\n        /* \"#utility.yul\":6995:7001   */\n      dup3\n        /* \"#utility.yul\":6991:7006   */\n      add\n        /* \"#utility.yul\":6984:7024   */\n      mstore\n        /* \"#utility.yul\":6799:7031   */\n      pop\n      jump\t// out\n        /* \"#utility.yul\":7037:7403   */\n    tag_77:\n        /* \"#utility.yul\":7179:7182   */\n      0x00\n        /* \"#utility.yul\":7200:7267   */\n      tag_177\n        /* \"#utility.yul\":7264:7266   */\n      0x2d\n        /* \"#utility.yul\":7259:7262   */\n      dup4\n        /* \"#utility.yul\":7200:7267   */\n      tag_73\n      jump\t// in\n    tag_177:\n        /* \"#utility.yul\":7193:7267   */\n      swap2\n      pop\n        /* \"#utility.yul\":7276:7369   */\n      tag_178\n        /* \"#utility.yul\":7365:7368   */\n      dup3\n        /* \"#utility.yul\":7276:7369   */\n      tag_76\n      jump\t// in\n    tag_178:\n        /* \"#utility.yul\":7394:7396   */\n      0x40\n        /* \"#utility.yul\":7389:7392   */\n      dup3\n        /* \"#utility.yul\":7385:7397   */\n      add\n        /* \"#utility.yul\":7378:7397   */\n      swap1\n      pop\n        /* \"#utility.yul\":7037:7403   */\n      swap2\n      swap1\n      pop\n      jump\t// out\n        /* \"#utility.yul\":7409:7828   */\n    tag_33:\n        /* \"#utility.yul\":7575:7579   */\n      0x00\n        /* \"#utility.yul\":7613:7615   */\n      0x20\n        /* \"#utility.yul\":7602:7611   */\n      dup3\n        /* \"#utility.yul\":7598:7616   */\n      add\n        /* \"#utility.yul\":7590:7616   */\n      swap1\n      pop\n        /* \"#utility.yul\":7662:7671   */\n      dup2\n        /* \"#utility.yul\":7656:7660   */\n      dup2\n        /* \"#utility.yul\":7652:7672   */\n      sub\n        /* \"#utility.yul\":7648:7649   */\n      0x00\n        /* \"#utility.yul\":7637:7646   */\n      dup4\n        /* \"#utility.yul\":7633:7650   */\n      add\n        /* \"#utility.yul\":7626:7673   */\n      mstore\n        /* \"#utility.yul\":7690:7821   */\n      tag_180\n        /* \"#utility.yul\":7816:7820   */\n      dup2\n        /* \"#utility.yul\":7690:7821   */\n      tag_77\n      jump\t// in\n    tag_180:\n        /* \"#utility.yul\":7682:7821   */\n      swap1\n      pop\n        /* \"#utility.yul\":7409:7828   */\n      swap2\n      swap1\n      pop\n      jump\t// out\n        /* \"#utility.yul\":7834:8014   */\n    tag_78:\n        /* \"#utility.yul\":7882:7959   */\n      0x4e487b7100000000000000000000000000000000000000000000000000000000\n        /* \"#utility.yul\":7879:7880   */\n      0x00\n        /* \"#utility.yul\":7872:7960   */\n      mstore\n        /* \"#utility.yul\":7979:7983   */\n      0x22\n        /* \"#utility.yul\":7976:7977   */\n      0x04\n        /* \"#utility.yul\":7969:7984   */\n      mstore\n        /* \"#utility.yul\":8003:8007   */\n      0x24\n        /* \"#utility.yul\":8000:8001   */\n      0x00\n        /* \"#utility.yul\":7993:8008   */\n      revert\n        /* \"#utility.yul\":8020:8340   */\n    tag_45:\n        /* \"#utility.yul\":8064:8070   */\n      0x00\n        /* \"#utility.yul\":8101:8102   */\n      0x02\n        /* \"#utility.yul\":8095:8099   */\n      dup3\n        /* \"#utility.yul\":8091:8103   */\n      div\n        /* \"#utility.yul\":8081:8103   */\n      swap1\n      pop\n        /* \"#utility.yul\":8148:8149   */\n      0x01\n        /* \"#utility.yul\":8142:8146   */\n      dup3\n        /* \"#utility.yul\":8138:8150   */\n      and\n        /* \"#utility.yul\":8169:8187   */\n      dup1\n        /* \"#utility.yul\":8159:8240   */\n      tag_183\n      jumpi\n        /* \"#utility.yul\":8225:8229   */\n      0x7f\n        /* \"#utility.yul\":8217:8223   */\n      dup3\n        /* \"#utility.yul\":8213:8230   */\n      and\n        /* \"#utility.yul\":8203:8230   */\n      swap2\n      pop\n        /* \"#utility.yul\":8159:8240   */\n    tag_183:\n        /* \"#utility.yul\":8287:8289   */\n      0x20\n        /* \"#utility.yul\":8279:8285   */\n      dup3\n        /* \"#utility.yul\":8276:8290   */\n      lt\n        /* \"#utility.yul\":8256:8274   */\n      dup2\n        /* \"#utility.yul\":8253:8291   */\n      sub\n        /* \"#utility.yul\":8250:8334   */\n      tag_184\n      jumpi\n        /* \"#utility.yul\":8306:8324   */\n      tag_185\n      tag_78\n      jump\t// in\n    tag_185:\n        /* \"#utility.yul\":8250:8334   */\n    tag_184:\n        /* \"#utility.yul\":8071:8340   */\n      pop\n        /* \"#utility.yul\":8020:8340   */\n      swap2\n      swap1\n      pop\n      jump\t// out\n        /* \"#utility.yul\":8346:8487   */\n    tag_79:\n        /* \"#utility.yul\":8395:8399   */\n      0x00\n        /* \"#utility.yul\":8418:8421   */\n      dup2\n        /* \"#utility.yul\":8410:8421   */\n      swap1\n      pop\n        /* \"#utility.yul\":8441:8444   */\n      dup2\n        /* \"#utility.yul\":8438:8439   */\n      0x00\n        /* \"#utility.yul\":8431:8445   */\n      mstore\n        /* \"#utility.yul\":8475:8479   */\n      0x20\n        /* \"#utility.yul\":8472:8473   */\n      0x00\n        /* \"#utility.yul\":8462:8480   */\n      keccak256\n        /* \"#utility.yul\":8454:8480   */\n      swap1\n      pop\n        /* \"#utility.yul\":8346:8487   */\n      swap2\n      swap1\n      pop\n      jump\t// out\n        /* \"#utility.yul\":8493:8586   */\n    tag_80:\n        /* \"#utility.yul\":8530:8536   */\n      0x00\n        /* \"#utility.yul\":8577:8579   */\n      0x20\n        /* \"#utility.yul\":8572:8574   */\n      0x1f\n        /* \"#utility.yul\":8565:8570   */\n      dup4\n        /* \"#utility.yul\":8561:8575   */\n      add\n        /* \"#utility.yul\":8557:8580   */\n      div\n        /* \"#utility.yul\":8547:8580   */\n      swap1\n      pop\n        /* \"#utility.yul\":8493:8586   */\n      swap2\n      swap1\n      pop\n      jump\t// out\n        /* \"#utility.yul\":8592:8699   */\n    tag_81:\n        /* \"#utility.yul\":8636:8644   */\n      0x00\n        /* \"#utility.yul\":8686:8691   */\n      dup3\n        /* \"#utility.yul\":8680:8684   */\n      dup3\n        /* \"#utility.yul\":8676:8692   */\n      shl\n        /* \"#utility.yul\":8655:8692   */\n      swap1\n      pop\n        /* \"#utility.yul\":8592:8699   */\n      swap3\n      swap2\n      pop\n      pop\n      jump\t// out\n        /* \"#utility.yul\":8705:9098   */\n    tag_82:\n        /* \"#utility.yul\":8774:8780   */\n      0x00\n        /* \"#utility.yul\":8824:8825   */\n      0x08\n        /* \"#utility.yul\":8812:8822   */\n      dup4\n        /* \"#utility.yul\":8808:8826   */\n      mul\n        /* \"#utility.yul\":8847:8944   */\n      tag_190\n        /* \"#utility.yul\":8877:8943   */\n      0xffffffffffffffffffffffffffffffffffffffffffffffffffffffffffffffff\n        /* \"#utility.yul\":8866:8875   */\n      dup3\n        /* \"#utility.yul\":8847:8944   */\n      tag_81\n      jump\t// in\n    tag_190:\n        /* \"#utility.yul\":8965:9004   */\n      tag_191\n        /* \"#utility.yul\":8995:9003   */\n      dup7\n        /* \"#utility.yul\":8984:8993   */\n      dup4\n        /* \"#utility.yul\":8965:9004   */\n      tag_81\n      jump\t// in\n    tag_191:\n        /* \"#utility.yul\":8953:9004   */\n      swap6\n      pop\n        /* \"#utility.yul\":9037:9041   */\n      dup1\n        /* \"#utility.yul\":9033:9042   */\n      not\n        /* \"#utility.yul\":9026:9031   */\n      dup5\n        /* \"#utility.yul\":9022:9043   */\n      and\n        /* \"#utility.yul\":9013:9043   */\n      swap4\n      pop\n        /* \"#utility.yul\":9086:9090   */\n      dup1\n        /* \"#utility.yul\":9076:9084   */\n      dup7\n        /* \"#utility.yul\":9072:9091   */\n      and\n        /* \"#utility.yul\":9065:9070   */\n      dup5\n        /* \"#utility.yul\":9062:9092   */\n      or\n        /* \"#utility.yul\":9052:9092   */\n      swap3\n      pop\n        /* \"#utility.yul\":8781:9098   */\n      pop\n      pop\n        /* \"#utility.yul\":8705:9098   */\n      swap4\n      swap3\n      pop\n      pop\n      pop\n      jump\t// out\n        /* \"#utility.yul\":9104:9164   */\n    tag_83:\n        /* \"#utility.yul\":9132:9135   */\n      0x00\n        /* \"#utility.yul\":9153:9158   */\n      dup2\n        /* \"#utility.yul\":9146:9158   */\n      swap1\n      pop\n        /* \"#utility.yul\":9104:9164   */\n      swap2\n      swap1\n      pop\n      jump\t// out\n        /* \"#utility.yul\":9170:9312   */\n    tag_84:\n        /* \"#utility.yul\":9220:9229   */\n      0x00\n        /* \"#utility.yul\":9253:9306   */\n      tag_194\n        /* \"#utility.yul\":9271:9305   */\n      tag_195\n        /* \"#utility.yul\":9280:9304   */\n      tag_196\n        /* \"#utility.yul\":9298:9303   */\n      dup5\n        /* \"#utility.yul\":9280:9304   */\n      tag_50\n      jump\t// in\n    tag_196:\n        /* \"#utility.yul\":9271:9305   */\n      tag_83\n      jump\t// in\n    tag_195:\n        /* \"#utility.yul\":9253:9306   */\n      tag_50\n      jump\t// in\n    tag_194:\n        /* \"#utility.yul\":9240:9306   */\n      swap1\n      pop\n        /* \"#utility.yul\":9170:9312   */\n      swap2\n      swap1\n      pop\n      jump\t// out\n        /* \"#utility.yul\":9318:9393   */\n    tag_85:\n        /* \"#utility.yul\":9361:9364   */\n      0x00\n        /* \"#utility.yul\":9382:9387   */\n      dup2\n        /* \"#utility.yul\":9375:9387   */\n      swap1\n      pop\n        /* \"#utility.yul\":9318:9393   */\n      swap2\n      swap1\n      pop\n      jump\t// out\n        /* \"#utility.yul\":9399:9668   */\n    tag_86:\n        /* \"#utility.yul\":9509:9548   */\n      tag_199\n        /* \"#utility.yul\":9540:9547   */\n      dup4\n        /* \"#utility.yul\":9509:9548   */\n      tag_84\n      jump\t// in\n    tag_199:\n        /* \"#utility.yul\":9570:9661   */\n      tag_200\n        /* \"#utility.yul\":9619:9660   */\n      tag_201\n        /* \"#utility.yul\":9643:9659   */\n      dup3\n        /* \"#utility.yul\":9619:9660   */\n      tag_85\n      jump\t// in\n    tag_201:\n        /* \"#utility.yul\":9611:9617   */\n      dup5\n        /* \"#utility.yul\":9604:9608   */\n      dup5\n        /* \"#utility.yul\":9598:9609   */\n      sload\n        /* \"#utility.yul\":9570:9661   */\n      tag_82\n      jump\t// in\n    tag_200:\n        /* \"#utility.yul\":9564:9568   */\n      dup3\n        /* \"#utility.yul\":9557:9662   */\n      sstore\n        /* \"#utility.yul\":9475:9668   */\n      pop\n        /* \"#utility.yul\":9399:9668   */\n      pop\n      pop\n      pop\n      jump\t// out\n        /* \"#utility.yul\":9674:9747   */\n    tag_87:\n        /* \"#utility.yul\":9719:9722   */\n      0x00\n        /* \"#utility.yul\":9674:9747   */\n      swap1\n      jump\t// out\n        /* \"#utility.yul\":9753:9942   */\n    tag_88:\n        /* \"#utility.yul\":9830:9862   */\n      tag_204\n      tag_87\n      jump\t// in\n    tag_204:\n        /* \"#utility.yul\":9871:9936   */\n      tag_205\n        /* \"#utility.yul\":9929:9935   */\n      dup2\n        /* \"#utility.yul\":9921:9927   */\n      dup5\n        /* \"#utility.yul\":9915:9919   */\n      dup5\n        /* \"#utility.yul\":9871:9936   */\n      tag_86\n      jump\t// in\n    tag_205:\n        /* \"#utility.yul\":9806:9942   */\n      pop\n        /* \"#utility.yul\":9753:9942   */\n      pop\n      pop\n      jump\t// out\n        /* \"#utility.yul\":9948:10134   */\n    tag_89:\n        /* \"#utility.yul\":10008:10128   */\n    tag_207:\n        /* \"#utility.yul\":10025:10028   */\n      dup2\n        /* \"#utility.yul\":10018:10023   */\n      dup2\n        /* \"#utility.yul\":10015:10029   */\n      lt\n        /* \"#utility.yul\":10008:10128   */\n      iszero\n      tag_209\n      jumpi\n        /* \"#utility.yul\":10079:10118   */\n      tag_210\n        /* \"#utility.yul\":10116:10117   */\n      0x00\n        /* \"#utility.yul\":10109:10114   */\n      dup3\n        /* \"#utility.yul\":10079:10118   */\n      tag_88\n      jump\t// in\n    tag_210:\n        /* \"#utility.yul\":10052:10053   */\n      0x01\n        /* \"#utility.yul\":10045:10050   */\n      dup2\n        /* \"#utility.yul\":10041:10054   */\n      add\n        /* \"#utility.yul\":10032:10054   */\n      swap1\n      pop\n        /* \"#utility.yul\":10008:10128   */\n      jump(tag_207)\n    tag_209:\n        /* \"#utility.yul\":9948:10134   */\n      pop\n      pop\n      jump\t// out\n        /* \"#utility.yul\":10140:10683   */\n    tag_90:\n        /* \"#utility.yul\":10241:10243   */\n      0x1f\n        /* \"#utility.yul\":10236:10239   */\n      dup3\n        /* \"#utility.yul\":10233:10244   */\n      gt\n        /* \"#utility.yul\":10230:10676   */\n      iszero\n      tag_212\n      jumpi\n        /* \"#utility.yul\":10275:10313   */\n      tag_213\n        /* \"#utility.yul\":10307:10312   */\n      dup2\n        /* \"#utility.yul\":10275:10313   */\n      tag_79\n      jump\t// in\n    tag_213:\n        /* \"#utility.yul\":10359:10388   */\n      tag_214\n        /* \"#utility.yul\":10377:10387   */\n      dup5\n        /* \"#utility.yul\":10359:10388   */\n      tag_80\n      jump\t// in\n    tag_214:\n        /* \"#utility.yul\":10349:10357   */\n      dup2\n        /* \"#utility.yul\":10345:10389   */\n      add\n        /* \"#utility.yul\":10542:10544   */\n      0x20\n        /* \"#utility.yul\":10530:10540   */\n      dup6\n        /* \"#utility.yul\":10527:10545   */\n      lt\n        /* \"#utility.yul\":10524:10573   */\n      iszero\n      tag_215\n      jumpi\n        /* \"#utility.yul\":10563:10571   */\n      dup2\n        /* \"#utility.yul\":10548:10571   */\n      swap1\n      pop\n        /* \"#utility.yul\":10524:10573   */\n    tag_215:\n        /* \"#utility.yul\":10586:10666   */\n      tag_216\n        /* \"#utility.yul\":10642:10664   */\n      tag_217\n        /* \"#utility.yul\":10660:10663   */\n      dup6\n        /* \"#utility.yul\":10642:10664   */\n      tag_80\n      jump\t// in\n    tag_217:\n        /* \"#utility.yul\":10632:10640   */\n      dup4\n        /* \"#utility.yul\":10628:10665   */\n      add\n        /* \"#utility.yul\":10615:10626   */\n      dup3\n        /* \"#utility.yul\":10586:10666   */\n      tag_89\n      jump\t// in\n    tag_216:\n        /* \"#utility.yul\":10245:10676   */\n      pop\n      pop\n        /* \"#utility.yul\":10230:10676   */\n    tag_212:\n        /* \"#utility.yul\":10140:10683   */\n      pop\n      pop\n      pop\n      jump\t// out\n        /* \"#utility.yul\":10689:10806   */\n    tag_91:\n        /* \"#utility.yul\":10743:10751   */\n      0x00\n        /* \"#utility.yul\":10793:10798   */\n      dup3\n        /* \"#utility.yul\":10787:10791   */\n      dup3\n        /* \"#utility.yul\":10783:10799   */\n      shr\n        /* \"#utility.yul\":10762:10799   */\n      swap1\n      pop\n        /* \"#utility.yul\":10689:10806   */\n      swap3\n      swap2\n      pop\n      pop\n      jump\t// out\n        /* \"#utility.yul\":10812:10981   */\n    tag_92:\n        /* \"#utility.yul\":10856:10862   */\n      0x00\n        /* \"#utility.yul\":10889:10940   */\n      tag_220\n        /* \"#utility.yul\":10937:10938   */\n      0x00\n        /* \"#utility.yul\":10933:10939   */\n      not\n        /* \"#utility.yul\":10925:10930   */\n      dup5\n        /* \"#utility.yul\":10922:10923   */\n      0x08\n        /* \"#utility.yul\":10918:10931   */\n      mul\n        /* \"#utility.yul\":10889:10940   */\n      tag_91\n      jump\t// in\n    tag_220:\n        /* \"#utility.yul\":10885:10941   */\n      not\n        /* \"#utility.yul\":10970:10974   */\n      dup1\n        /* \"#utility.yul\":10964:10968   */\n      dup4\n        /* \"#utility.yul\":10960:10975   */\n      and\n        /* \"#utility.yul\":10950:10975   */\n      swap2\n      pop\n        /* \"#utility.yul\":10863:10981   */\n      pop\n        /* \"#utility.yul\":10812:10981   */\n      swap3\n      swap2\n      pop\n      pop\n      jump\t// out\n        /* \"#utility.yul\":10986:11281   */\n    tag_93:\n        /* \"#utility.yul\":11062:11066   */\n      0x00\n        /* \"#utility.yul\":11208:11237   */\n      tag_222\n        /* \"#utility.yul\":11233:11236   */\n      dup4\n        /* \"#utility.yul\":11227:11231   */\n      dup4\n        /* \"#utility.yul\":11208:11237   */\n      tag_92\n      jump\t// in\n    tag_222:\n        /* \"#utility.yul\":11200:11237   */\n      swap2\n      pop\n        /* \"#utility.yul\":11270:11273   */\n      dup3\n        /* \"#utility.yul\":11267:11268   */\n      0x02\n        /* \"#utility.yul\":11263:11274   */\n      mul\n        /* \"#utility.yul\":11257:11261   */\n      dup3\n        /* \"#utility.yul\":11254:11275   */\n      or\n        /* \"#utility.yul\":11246:11275   */\n      swap1\n      pop\n        /* \"#utility.yul\":10986:11281   */\n      swap3\n      swap2\n      pop\n      pop\n      jump\t// out\n        /* \"#utility.yul\":11286:12681   */\n    tag_36:\n        /* \"#utility.yul\":11403:11440   */\n      tag_224\n        /* \"#utility.yul\":11436:11439   */\n      dup3\n        /* \"#utility.yul\":11403:11440   */\n      tag_72\n      jump\t// in\n    tag_224:\n        /* \"#utility.yul\":11505:11523   */\n      0xffffffffffffffff\n        /* \"#utility.yul\":11497:11503   */\n      dup2\n        /* \"#utility.yul\":11494:11524   */\n      gt\n        /* \"#utility.yul\":11491:11547   */\n      iszero\n      tag_225\n      jumpi\n        /* \"#utility.yul\":11527:11545   */\n      tag_226\n      tag_58\n      jump\t// in\n    tag_226:\n        /* \"#utility.yul\":11491:11547   */\n    tag_225:\n        /* \"#utility.yul\":11571:11609   */\n      tag_227\n        /* \"#utility.yul\":11603:11607   */\n      dup3\n        /* \"#utility.yul\":11597:11608   */\n      sload\n        /* \"#utility.yul\":11571:11609   */\n      tag_45\n      jump\t// in\n    tag_227:\n        /* \"#utility.yul\":11656:11723   */\n      tag_228\n        /* \"#utility.yul\":11716:11722   */\n      dup3\n        /* \"#utility.yul\":11708:11714   */\n      dup3\n        /* \"#utility.yul\":11702:11706   */\n      dup6\n        /* \"#utility.yul\":11656:11723   */\n      tag_90\n      jump\t// in\n    tag_228:\n        /* \"#utility.yul\":11750:11751   */\n      0x00\n        /* \"#utility.yul\":11774:11778   */\n      0x20\n        /* \"#utility.yul\":11761:11778   */\n      swap1\n      pop\n        /* \"#utility.yul\":11806:11808   */\n      0x1f\n        /* \"#utility.yul\":11798:11804   */\n      dup4\n        /* \"#utility.yul\":11795:11809   */\n      gt\n        /* \"#utility.yul\":11823:11824   */\n      0x01\n        /* \"#utility.yul\":11818:12436   */\n      dup2\n      eq\n      tag_230\n      jumpi\n        /* \"#utility.yul\":12480:12481   */\n      0x00\n        /* \"#utility.yul\":12497:12503   */\n      dup5\n        /* \"#utility.yul\":12494:12571   */\n      iszero\n      tag_231\n      jumpi\n        /* \"#utility.yul\":12546:12555   */\n      dup3\n        /* \"#utility.yul\":12541:12544   */\n      dup8\n        /* \"#utility.yul\":12537:12556   */\n      add\n        /* \"#utility.yul\":12531:12557   */\n      mload\n        /* \"#utility.yul\":12522:12557   */\n      swap1\n      pop\n        /* \"#utility.yul\":12494:12571   */\n    tag_231:\n        /* \"#utility.yul\":12597:12664   */\n      tag_232\n        /* \"#utility.yul\":12657:12663   */\n      dup6\n        /* \"#utility.yul\":12650:12655   */\n      dup3\n        /* \"#utility.yul\":12597:12664   */\n      tag_93\n      jump\t// in\n    tag_232:\n        /* \"#utility.yul\":12591:12595   */\n      dup7\n        /* \"#utility.yul\":12584:12665   */\n      sstore\n        /* \"#utility.yul\":12453:12675   */\n      pop\n        /* \"#utility.yul\":11788:12675   */\n      jump(tag_229)\n        /* \"#utility.yul\":11818:12436   */\n    tag_230:\n        /* \"#utility.yul\":11870:11874   */\n      0x1f\n        /* \"#utility.yul\":11866:11875   */\n      not\n        /* \"#utility.yul\":11858:11864   */\n      dup5\n        /* \"#utility.yul\":11854:11876   */\n      and\n        /* \"#utility.yul\":11904:11941   */\n      tag_233\n        /* \"#utility.yul\":11936:11940   */\n      dup7\n        /* \"#utility.yul\":11904:11941   */\n      tag_79\n      jump\t// in\n    tag_233:\n        /* \"#utility.yul\":11963:11964   */\n      0x00\n        /* \"#utility.yul\":11977:12185   */\n    tag_234:\n        /* \"#utility.yul\":11991:11998   */\n      dup3\n        /* \"#utility.yul\":11988:11989   */\n      dup2\n        /* \"#utility.yul\":11985:11999   */\n      lt\n        /* \"#utility.yul\":11977:12185   */\n      iszero\n      tag_236\n      jumpi\n        /* \"#utility.yul\":12070:12079   */\n      dup5\n        /* \"#utility.yul\":12065:12068   */\n      dup10\n        /* \"#utility.yul\":12061:12080   */\n      add\n        /* \"#utility.yul\":12055:12081   */\n      mload\n        /* \"#utility.yul\":12047:12053   */\n      dup3\n        /* \"#utility.yul\":12040:12082   */\n      sstore\n        /* \"#utility.yul\":12121:12122   */\n      0x01\n        /* \"#utility.yul\":12113:12119   */\n      dup3\n        /* \"#utility.yul\":12109:12123   */\n      add\n        /* \"#utility.yul\":12099:12123   */\n      swap2\n      pop\n        /* \"#utility.yul\":12168:12170   */\n      0x20\n        /* \"#utility.yul\":12157:12166   */\n      dup6\n        /* \"#utility.yul\":12153:12171   */\n      add\n        /* \"#utility.yul\":12140:12171   */\n      swap5\n      pop\n        /* \"#utility.yul\":12014:12018   */\n      0x20\n        /* \"#utility.yul\":12011:12012   */\n      dup2\n        /* \"#utility.yul\":12007:12019   */\n      add\n        /* \"#utility.yul\":12002:12019   */\n      swap1\n      pop\n        /* \"#utility.yul\":11977:12185   */\n      jump(tag_234)\n    tag_236:\n        /* \"#utility.yul\":12213:12219   */\n      dup7\n        /* \"#utility.yul\":12204:12211   */\n      dup4\n        /* \"#utility.yul\":12201:12220   */\n      lt\n        /* \"#utility.yul\":12198:12377   */\n      iszero\n      tag_237\n      jumpi\n        /* \"#utility.yul\":12271:12280   */\n      dup5\n        /* \"#utility.yul\":12266:12269   */\n      dup10\n        /* \"#utility.yul\":12262:12281   */\n      add\n        /* \"#utility.yul\":12256:12282   */\n      mload\n        /* \"#utility.yul\":12314:12362   */\n      tag_238\n        /* \"#utility.yul\":12356:12360   */\n      0x1f\n        /* \"#utility.yul\":12348:12354   */\n      dup10\n        /* \"#utility.yul\":12344:12361   */\n      and\n        /* \"#utility.yul\":12333:12342   */\n      dup3\n        /* \"#utility.yul\":12314:12362   */\n      tag_92\n      jump\t// in\n    tag_238:\n        /* \"#utility.yul\":12306:12312   */\n      dup4\n        /* \"#utility.yul\":12299:12363   */\n      sstore\n        /* \"#utility.yul\":12221:12377   */\n      pop\n        /* \"#utility.yul\":12198:12377   */\n    tag_237:\n        /* \"#utility.yul\":12423:12424   */\n      0x01\n        /* \"#utility.yul\":12419:12420   */\n      0x02\n        /* \"#utility.yul\":12411:12417   */\n      dup9\n        /* \"#utility.yul\":12407:12421   */\n      mul\n        /* \"#utility.yul\":12403:12425   */\n      add\n        /* \"#utility.yul\":12397:12401   */\n      dup9\n        /* \"#utility.yul\":12390:12426   */\n      sstore\n        /* \"#utility.yul\":11825:12436   */\n      pop\n      pop\n      pop\n        /* \"#utility.yul\":11788:12675   */\n    tag_229:\n      pop\n        /* \"#utility.yul\":11378:12681   */\n      pop\n      pop\n      pop\n        /* \"#utility.yul\":11286:12681   */\n      pop\n      pop\n      jump\t// out\n        /* \"#utility.yul\":12687:12933   */\n    tag_94:\n        /* \"#utility.yul\":12827:12861   */\n      0x796f7520617265206e6f7420746865206f776e657220796f752063616e6e6f74\n        /* \"#utility.yul\":12823:12824   */\n      0x00\n        /* \"#utility.yul\":12815:12821   */\n      dup3\n        /* \"#utility.yul\":12811:12825   */\n      add\n        /* \"#utility.yul\":12804:12862   */\n      mstore\n        /* \"#utility.yul\":12896:12925   */\n      0x20736574207468652074776974746572206d6178206c656e6774680000000000\n        /* \"#utility.yul\":12891:12893   */\n      0x20\n        /* \"#utility.yul\":12883:12889   */\n      dup3\n        /* \"#utility.yul\":12879:12894   */\n      add\n        /* \"#utility.yul\":12872:12926   */\n      mstore\n        /* \"#utility.yul\":12687:12933   */\n      pop\n      jump\t// out\n        /* \"#utility.yul\":12939:13305   */\n    tag_95:\n        /* \"#utility.yul\":13081:13084   */\n      0x00\n        /* \"#utility.yul\":13102:13169   */\n      tag_241\n        /* \"#utility.yul\":13166:13168   */\n      0x3b\n        /* \"#utility.yul\":13161:13164   */\n      dup4\n        /* \"#utility.yul\":13102:13169   */\n      tag_73\n      jump\t// in\n    tag_241:\n        /* \"#utility.yul\":13095:13169   */\n      swap2\n      pop\n        /* \"#utility.yul\":13178:13271   */\n      tag_242\n        /* \"#utility.yul\":13267:13270   */\n      dup3\n        /* \"#utility.yul\":13178:13271   */\n      tag_94\n      jump\t// in\n    tag_242:\n        /* \"#utility.yul\":13296:13298   */\n      0x40\n        /* \"#utility.yul\":13291:13294   */\n      dup3\n        /* \"#utility.yul\":13287:13299   */\n      add\n        /* \"#utility.yul\":13280:13299   */\n      swap1\n      pop\n        /* \"#utility.yul\":12939:13305   */\n      swap2\n      swap1\n      pop\n      jump\t// out\n        /* \"#utility.yul\":13311:13730   */\n    tag_40:\n        /* \"#utility.yul\":13477:13481   */\n      0x00\n        /* \"#utility.yul\":13515:13517   */\n      0x20\n        /* \"#utility.yul\":13504:13513   */\n      dup3\n        /* \"#utility.yul\":13500:13518   */\n      add\n        /* \"#utility.yul\":13492:13518   */\n      swap1\n      pop\n        /* \"#utility.yul\":13564:13573   */\n      dup2\n        /* \"#utility.yul\":13558:13562   */\n      dup2\n        /* \"#utility.yul\":13554:13574   */\n      sub\n        /* \"#utility.yul\":13550:13551   */\n      0x00\n        /* \"#utility.yul\":13539:13548   */\n      dup4\n        /* \"#utility.yul\":13535:13552   */\n      add\n        /* \"#utility.yul\":13528:13575   */\n      mstore\n        /* \"#utility.yul\":13592:13723   */\n      tag_244\n        /* \"#utility.yul\":13718:13722   */\n      dup2\n        /* \"#utility.yul\":13592:13723   */\n      tag_95\n      jump\t// in\n    tag_244:\n        /* \"#utility.yul\":13584:13723   */\n      swap1\n      pop\n        /* \"#utility.yul\":13311:13730   */\n      swap2\n      swap1\n      pop\n      jump\t// out\n\n    auxdata: 0xa2646970667358221220670d575d5b4f4892165fe8f49d2fb279569de2b7fc43a0135056e78bfd6354b064736f6c634300081a0033\n}\n",
				"bytecode": {
					"linkReferences": {},
					"object": "6080604052348015600e575f80fd5b503360025f6101000a81548173ffffffffffffffffffffffffffffffffffffffff021916908373ffffffffffffffffffffffffffffffffffffffff160217905550610b7e8061005c5f395ff3fe608060405234801561000f575f80fd5b5060043610610055575f3560e01c806323e81a6914610059578063271d6cc31461007757806351a984fb146100935780638da5cb5b146100af578063be0c0164146100cd575b5f80fd5b6100616100ff565b60405161006e9190610405565b60405180910390f35b610091600480360381019061008c919061056b565b610104565b005b6100ad60048036038101906100a891906105dc565b61024b565b005b6100b76102e3565b6040516100c49190610646565b60405180910390f35b6100e760048036038101906100e29190610689565b610308565b6040516100f693929190610727565b60405180910390f35b5f5481565b5f5481511115610149576040517f08c379a0000000000000000000000000000000000000000000000000000000008152600401610140906107d3565b60405180910390fd5b5f60405180606001604052803373ffffffffffffffffffffffffffffffffffffffff16815260200183815260200142815250905060015f3373ffffffffffffffffffffffffffffffffffffffff1673ffffffffffffffffffffffffffffffffffffffff1681526020019081526020015f2081908060018154018082558091505060019003905f5260205f2090600302015f909190919091505f820151815f015f6101000a81548173ffffffffffffffffffffffffffffffffffffffff021916908373ffffffffffffffffffffffffffffffffffffffff160217905550602082015181600101908161023a91906109eb565b506040820151816002015550505050565b60025f9054906101000a900473ffffffffffffffffffffffffffffffffffffffff1673ffffffffffffffffffffffffffffffffffffffff163373ffffffffffffffffffffffffffffffffffffffff16146102da576040517f08c379a00000000000000000000000000000000000000000000000000000000081526004016102d190610b2a565b60405180910390fd5b805f8190555050565b60025f9054906101000a900473ffffffffffffffffffffffffffffffffffffffff1681565b6001602052815f5260405f208181548110610321575f80fd5b905f5260205f2090600302015f9150915050805f015f9054906101000a900473ffffffffffffffffffffffffffffffffffffffff16908060010180546103669061081e565b80601f01602080910402602001604051908101604052809291908181526020018280546103929061081e565b80156103dd5780601f106103b4576101008083540402835291602001916103dd565b820191905f5260205f20905b8154815290600101906020018083116103c057829003601f168201915b5050505050908060020154905083565b5f819050919050565b6103ff816103ed565b82525050565b5f6020820190506104185f8301846103f6565b92915050565b5f604051905090565b5f80fd5b5f80fd5b5f80fd5b5f80fd5b5f601f19601f8301169050919050565b7f4e487b71000000000000000000000000000000000000000000000000000000005f52604160045260245ffd5b61047d82610437565b810181811067ffffffffffffffff8211171561049c5761049b610447565b5b80604052505050565b5f6104ae61041e565b90506104ba8282610474565b919050565b5f67ffffffffffffffff8211156104d9576104d8610447565b5b6104e282610437565b9050602081019050919050565b828183375f83830152505050565b5f61050f61050a846104bf565b6104a5565b90508281526020810184848401111561052b5761052a610433565b5b6105368482856104ef565b509392505050565b5f82601f8301126105525761055161042f565b5b81356105628482602086016104fd565b91505092915050565b5f602082840312156105805761057f610427565b5b5f82013567ffffffffffffffff81111561059d5761059c61042b565b5b6105a98482850161053e565b91505092915050565b6105bb816103ed565b81146105c5575f80fd5b50565b5f813590506105d6816105b2565b92915050565b5f602082840312156105f1576105f0610427565b5b5f6105fe848285016105c8565b91505092915050565b5f73ffffffffffffffffffffffffffffffffffffffff82169050919050565b5f61063082610607565b9050919050565b61064081610626565b82525050565b5f6020820190506106595f830184610637565b92915050565b61066881610626565b8114610672575f80fd5b50565b5f813590506106838161065f565b92915050565b5f806040838503121561069f5761069e610427565b5b5f6106ac85828601610675565b92505060206106bd858286016105c8565b9150509250929050565b5f81519050919050565b5f82825260208201905092915050565b8281835e5f83830152505050565b5f6106f9826106c7565b61070381856106d1565b93506107138185602086016106e1565b61071c81610437565b840191505092915050565b5f60608201905061073a5f830186610637565b818103602083015261074c81856106ef565b905061075b60408301846103f6565b949350505050565b7f7468697320636f6e74656e7420697320746f6f206c6f6e6720706c65617365205f8201527f6d616b652069742073686f727400000000000000000000000000000000000000602082015250565b5f6107bd602d836106d1565b91506107c882610763565b604082019050919050565b5f6020820190508181035f8301526107ea816107b1565b9050919050565b7f4e487b71000000000000000000000000000000000000000000000000000000005f52602260045260245ffd5b5f600282049050600182168061083557607f821691505b602082108103610848576108476107f1565b5b50919050565b5f819050815f5260205f209050919050565b5f6020601f8301049050919050565b5f82821b905092915050565b5f600883026108aa7fffffffffffffffffffffffffffffffffffffffffffffffffffffffffffffffff8261086f565b6108b4868361086f565b95508019841693508086168417925050509392505050565b5f819050919050565b5f6108ef6108ea6108e5846103ed565b6108cc565b6103ed565b9050919050565b5f819050919050565b610908836108d5565b61091c610914826108f6565b84845461087b565b825550505050565b5f90565b610930610924565b61093b8184846108ff565b505050565b5b8181101561095e576109535f82610928565b600181019050610941565b5050565b601f8211156109a3576109748161084e565b61097d84610860565b8101602085101561098c578190505b6109a061099885610860565b830182610940565b50505b505050565b5f82821c905092915050565b5f6109c35f19846008026109a8565b1980831691505092915050565b5f6109db83836109b4565b9150826002028217905092915050565b6109f4826106c7565b67ffffffffffffffff811115610a0d57610a0c610447565b5b610a17825461081e565b610a22828285610962565b5f60209050601f831160018114610a53575f8415610a41578287015190505b610a4b85826109d0565b865550610ab2565b601f198416610a618661084e565b5f5b82811015610a8857848901518255600182019150602085019450602081019050610a63565b86831015610aa55784890151610aa1601f8916826109b4565b8355505b6001600288020188555050505b505050505050565b7f796f7520617265206e6f7420746865206f776e657220796f752063616e6e6f745f8201527f20736574207468652074776974746572206d6178206c656e6774680000000000602082015250565b5f610b14603b836106d1565b9150610b1f82610aba565b604082019050919050565b5f6020820190508181035f830152610b4181610b08565b905091905056fea2646970667358221220670d575d5b4f4892165fe8f49d2fb279569de2b7fc43a0135056e78bfd6354b064736f6c634300081a0033",
					"opcodes": "PUSH1 0x80 PUSH1 0x40 MSTORE CALLVALUE DUP1 ISZERO PUSH1 0xE JUMPI PUSH0 DUP1 REVERT JUMPDEST POP CALLER PUSH1 0x2 PUSH0 PUSH2 0x100 EXP DUP2 SLOAD DUP2 PUSH20 0xFFFFFFFFFFFFFFFFFFFFFFFFFFFFFFFFFFFFFFFF MUL NOT AND SWAP1 DUP4 PUSH20 0xFFFFFFFFFFFFFFFFFFFFFFFFFFFFFFFFFFFFFFFF AND MUL OR SWAP1 SSTORE POP PUSH2 0xB7E DUP1 PUSH2 0x5C PUSH0 CODECOPY PUSH0 RETURN INVALID PUSH1 0x80 PUSH1 0x40 MSTORE CALLVALUE DUP1 ISZERO PUSH2 0xF JUMPI PUSH0 DUP1 REVERT JUMPDEST POP PUSH1 0x4 CALLDATASIZE LT PUSH2 0x55 JUMPI PUSH0 CALLDATALOAD PUSH1 0xE0 SHR DUP1 PUSH4 0x23E81A69 EQ PUSH2 0x59 JUMPI DUP1 PUSH4 0x271D6CC3 EQ PUSH2 0x77 JUMPI DUP1 PUSH4 0x51A984FB EQ PUSH2 0x93 JUMPI DUP1 PUSH4 0x8DA5CB5B EQ PUSH2 0xAF JUMPI DUP1 PUSH4 0xBE0C0164 EQ PUSH2 0xCD JUMPI JUMPDEST PUSH0 DUP1 REVERT JUMPDEST PUSH2 0x61 PUSH2 0xFF JUMP JUMPDEST PUSH1 0x40 MLOAD PUSH2 0x6E SWAP2 SWAP1 PUSH2 0x405 JUMP JUMPDEST PUSH1 0x40 MLOAD DUP1 SWAP2 SUB SWAP1 RETURN JUMPDEST PUSH2 0x91 PUSH1 0x4 DUP1 CALLDATASIZE SUB DUP2 ADD SWAP1 PUSH2 0x8C SWAP2 SWAP1 PUSH2 0x56B JUMP JUMPDEST PUSH2 0x104 JUMP JUMPDEST STOP JUMPDEST PUSH2 0xAD PUSH1 0x4 DUP1 CALLDATASIZE SUB DUP2 ADD SWAP1 PUSH2 0xA8 SWAP2 SWAP1 PUSH2 0x5DC JUMP JUMPDEST PUSH2 0x24B JUMP JUMPDEST STOP JUMPDEST PUSH2 0xB7 PUSH2 0x2E3 JUMP JUMPDEST PUSH1 0x40 MLOAD PUSH2 0xC4 SWAP2 SWAP1 PUSH2 0x646 JUMP JUMPDEST PUSH1 0x40 MLOAD DUP1 SWAP2 SUB SWAP1 RETURN JUMPDEST PUSH2 0xE7 PUSH1 0x4 DUP1 CALLDATASIZE SUB DUP2 ADD SWAP1 PUSH2 0xE2 SWAP2 SWAP1 PUSH2 0x689 JUMP JUMPDEST PUSH2 0x308 JUMP JUMPDEST PUSH1 0x40 MLOAD PUSH2 0xF6 SWAP4 SWAP3 SWAP2 SWAP1 PUSH2 0x727 JUMP JUMPDEST PUSH1 0x40 MLOAD DUP1 SWAP2 SUB SWAP1 RETURN JUMPDEST PUSH0 SLOAD DUP2 JUMP JUMPDEST PUSH0 SLOAD DUP2 MLOAD GT ISZERO PUSH2 0x149 JUMPI PUSH1 0x40 MLOAD PUSH32 0x8C379A000000000000000000000000000000000000000000000000000000000 DUP2 MSTORE PUSH1 0x4 ADD PUSH2 0x140 SWAP1 PUSH2 0x7D3 JUMP JUMPDEST PUSH1 0x40 MLOAD DUP1 SWAP2 SUB SWAP1 REVERT JUMPDEST PUSH0 PUSH1 0x40 MLOAD DUP1 PUSH1 0x60 ADD PUSH1 0x40 MSTORE DUP1 CALLER PUSH20 0xFFFFFFFFFFFFFFFFFFFFFFFFFFFFFFFFFFFFFFFF AND DUP2 MSTORE PUSH1 0x20 ADD DUP4 DUP2 MSTORE PUSH1 0x20 ADD TIMESTAMP DUP2 MSTORE POP SWAP1 POP PUSH1 0x1 PUSH0 CALLER PUSH20 0xFFFFFFFFFFFFFFFFFFFFFFFFFFFFFFFFFFFFFFFF AND PUSH20 0xFFFFFFFFFFFFFFFFFFFFFFFFFFFFFFFFFFFFFFFF AND DUP2 MSTORE PUSH1 0x20 ADD SWAP1 DUP2 MSTORE PUSH1 0x20 ADD PUSH0 KECCAK256 DUP2 SWAP1 DUP1 PUSH1 0x1 DUP2 SLOAD ADD DUP1 DUP3 SSTORE DUP1 SWAP2 POP POP PUSH1 0x1 SWAP1 SUB SWAP1 PUSH0 MSTORE PUSH1 0x20 PUSH0 KECCAK256 SWAP1 PUSH1 0x3 MUL ADD PUSH0 SWAP1 SWAP2 SWAP1 SWAP2 SWAP1 SWAP2 POP PUSH0 DUP3 ADD MLOAD DUP2 PUSH0 ADD PUSH0 PUSH2 0x100 EXP DUP2 SLOAD DUP2 PUSH20 0xFFFFFFFFFFFFFFFFFFFFFFFFFFFFFFFFFFFFFFFF MUL NOT AND SWAP1 DUP4 PUSH20 0xFFFFFFFFFFFFFFFFFFFFFFFFFFFFFFFFFFFFFFFF AND MUL OR SWAP1 SSTORE POP PUSH1 0x20 DUP3 ADD MLOAD DUP2 PUSH1 0x1 ADD SWAP1 DUP2 PUSH2 0x23A SWAP2 SWAP1 PUSH2 0x9EB JUMP JUMPDEST POP PUSH1 0x40 DUP3 ADD MLOAD DUP2 PUSH1 0x2 ADD SSTORE POP POP POP POP JUMP JUMPDEST PUSH1 0x2 PUSH0 SWAP1 SLOAD SWAP1 PUSH2 0x100 EXP SWAP1 DIV PUSH20 0xFFFFFFFFFFFFFFFFFFFFFFFFFFFFFFFFFFFFFFFF AND PUSH20 0xFFFFFFFFFFFFFFFFFFFFFFFFFFFFFFFFFFFFFFFF AND CALLER PUSH20 0xFFFFFFFFFFFFFFFFFFFFFFFFFFFFFFFFFFFFFFFF AND EQ PUSH2 0x2DA JUMPI PUSH1 0x40 MLOAD PUSH32 0x8C379A000000000000000000000000000000000000000000000000000000000 DUP2 MSTORE PUSH1 0x4 ADD PUSH2 0x2D1 SWAP1 PUSH2 0xB2A JUMP JUMPDEST PUSH1 0x40 MLOAD DUP1 SWAP2 SUB SWAP1 REVERT JUMPDEST DUP1 PUSH0 DUP2 SWAP1 SSTORE POP POP JUMP JUMPDEST PUSH1 0x2 PUSH0 SWAP1 SLOAD SWAP1 PUSH2 0x100 EXP SWAP1 DIV PUSH20 0xFFFFFFFFFFFFFFFFFFFFFFFFFFFFFFFFFFFFFFFF AND DUP2 JUMP JUMPDEST PUSH1 0x1 PUSH1 0x20 MSTORE DUP2 PUSH0 MSTORE PUSH1 0x40 PUSH0 KECCAK256 DUP2 DUP2 SLOAD DUP2 LT PUSH2 0x321 JUMPI PUSH0 DUP1 REVERT JUMPDEST SWAP1 PUSH0 MSTORE PUSH1 0x20 PUSH0 KECCAK256 SWAP1 PUSH1 0x3 MUL ADD PUSH0 SWAP2 POP SWAP2 POP POP DUP1 PUSH0 ADD PUSH0 SWAP1 SLOAD SWAP1 PUSH2 0x100 EXP SWAP1 DIV PUSH20 0xFFFFFFFFFFFFFFFFFFFFFFFFFFFFFFFFFFFFFFFF AND SWAP1 DUP1 PUSH1 0x1 ADD DUP1 SLOAD PUSH2 0x366 SWAP1 PUSH2 0x81E JUMP JUMPDEST DUP1 PUSH1 0x1F ADD PUSH1 0x20 DUP1 SWAP2 DIV MUL PUSH1 0x20 ADD PUSH1 0x40 MLOAD SWAP1 DUP2 ADD PUSH1 0x40 MSTORE DUP1 SWAP3 SWAP2 SWAP1 DUP2 DUP2 MSTORE PUSH1 0x20 ADD DUP3 DUP1 SLOAD PUSH2 0x392 SWAP1 PUSH2 0x81E JUMP JUMPDEST DUP1 ISZERO PUSH2 0x3DD JUMPI DUP1 PUSH1 0x1F LT PUSH2 0x3B4 JUMPI PUSH2 0x100 DUP1 DUP4 SLOAD DIV MUL DUP4 MSTORE SWAP2 PUSH1 0x20 ADD SWAP2 PUSH2 0x3DD JUMP JUMPDEST DUP3 ADD SWAP2 SWAP1 PUSH0 MSTORE PUSH1 0x20 PUSH0 KECCAK256 SWAP1 JUMPDEST DUP2 SLOAD DUP2 MSTORE SWAP1 PUSH1 0x1 ADD SWAP1 PUSH1 0x20 ADD DUP1 DUP4 GT PUSH2 0x3C0 JUMPI DUP3 SWAP1 SUB PUSH1 0x1F AND DUP3 ADD SWAP2 JUMPDEST POP POP POP POP POP SWAP1 DUP1 PUSH1 0x2 ADD SLOAD SWAP1 POP DUP4 JUMP JUMPDEST PUSH0 DUP2 SWAP1 POP SWAP2 SWAP1 POP JUMP JUMPDEST PUSH2 0x3FF DUP2 PUSH2 0x3ED JUMP JUMPDEST DUP3 MSTORE POP POP JUMP JUMPDEST PUSH0 PUSH1 0x20 DUP3 ADD SWAP1 POP PUSH2 0x418 PUSH0 DUP4 ADD DUP5 PUSH2 0x3F6 JUMP JUMPDEST SWAP3 SWAP2 POP POP JUMP JUMPDEST PUSH0 PUSH1 0x40 MLOAD SWAP1 POP SWAP1 JUMP JUMPDEST PUSH0 DUP1 REVERT JUMPDEST PUSH0 DUP1 REVERT JUMPDEST PUSH0 DUP1 REVERT JUMPDEST PUSH0 DUP1 REVERT JUMPDEST PUSH0 PUSH1 0x1F NOT PUSH1 0x1F DUP4 ADD AND SWAP1 POP SWAP2 SWAP1 POP JUMP JUMPDEST PUSH32 0x4E487B7100000000000000000000000000000000000000000000000000000000 PUSH0 MSTORE PUSH1 0x41 PUSH1 0x4 MSTORE PUSH1 0x24 PUSH0 REVERT JUMPDEST PUSH2 0x47D DUP3 PUSH2 0x437 JUMP JUMPDEST DUP2 ADD DUP2 DUP2 LT PUSH8 0xFFFFFFFFFFFFFFFF DUP3 GT OR ISZERO PUSH2 0x49C JUMPI PUSH2 0x49B PUSH2 0x447 JUMP JUMPDEST JUMPDEST DUP1 PUSH1 0x40 MSTORE POP POP POP JUMP JUMPDEST PUSH0 PUSH2 0x4AE PUSH2 0x41E JUMP JUMPDEST SWAP1 POP PUSH2 0x4BA DUP3 DUP3 PUSH2 0x474 JUMP JUMPDEST SWAP2 SWAP1 POP JUMP JUMPDEST PUSH0 PUSH8 0xFFFFFFFFFFFFFFFF DUP3 GT ISZERO PUSH2 0x4D9 JUMPI PUSH2 0x4D8 PUSH2 0x447 JUMP JUMPDEST JUMPDEST PUSH2 0x4E2 DUP3 PUSH2 0x437 JUMP JUMPDEST SWAP1 POP PUSH1 0x20 DUP2 ADD SWAP1 POP SWAP2 SWAP1 POP JUMP JUMPDEST DUP3 DUP2 DUP4 CALLDATACOPY PUSH0 DUP4 DUP4 ADD MSTORE POP POP POP JUMP JUMPDEST PUSH0 PUSH2 0x50F PUSH2 0x50A DUP5 PUSH2 0x4BF JUMP JUMPDEST PUSH2 0x4A5 JUMP JUMPDEST SWAP1 POP DUP3 DUP2 MSTORE PUSH1 0x20 DUP2 ADD DUP5 DUP5 DUP5 ADD GT ISZERO PUSH2 0x52B JUMPI PUSH2 0x52A PUSH2 0x433 JUMP JUMPDEST JUMPDEST PUSH2 0x536 DUP5 DUP3 DUP6 PUSH2 0x4EF JUMP JUMPDEST POP SWAP4 SWAP3 POP POP POP JUMP JUMPDEST PUSH0 DUP3 PUSH1 0x1F DUP4 ADD SLT PUSH2 0x552 JUMPI PUSH2 0x551 PUSH2 0x42F JUMP JUMPDEST JUMPDEST DUP2 CALLDATALOAD PUSH2 0x562 DUP5 DUP3 PUSH1 0x20 DUP7 ADD PUSH2 0x4FD JUMP JUMPDEST SWAP2 POP POP SWAP3 SWAP2 POP POP JUMP JUMPDEST PUSH0 PUSH1 0x20 DUP3 DUP5 SUB SLT ISZERO PUSH2 0x580 JUMPI PUSH2 0x57F PUSH2 0x427 JUMP JUMPDEST JUMPDEST PUSH0 DUP3 ADD CALLDATALOAD PUSH8 0xFFFFFFFFFFFFFFFF DUP2 GT ISZERO PUSH2 0x59D JUMPI PUSH2 0x59C PUSH2 0x42B JUMP JUMPDEST JUMPDEST PUSH2 0x5A9 DUP5 DUP3 DUP6 ADD PUSH2 0x53E JUMP JUMPDEST SWAP2 POP POP SWAP3 SWAP2 POP POP JUMP JUMPDEST PUSH2 0x5BB DUP2 PUSH2 0x3ED JUMP JUMPDEST DUP2 EQ PUSH2 0x5C5 JUMPI PUSH0 DUP1 REVERT JUMPDEST POP JUMP JUMPDEST PUSH0 DUP2 CALLDATALOAD SWAP1 POP PUSH2 0x5D6 DUP2 PUSH2 0x5B2 JUMP JUMPDEST SWAP3 SWAP2 POP POP JUMP JUMPDEST PUSH0 PUSH1 0x20 DUP3 DUP5 SUB SLT ISZERO PUSH2 0x5F1 JUMPI PUSH2 0x5F0 PUSH2 0x427 JUMP JUMPDEST JUMPDEST PUSH0 PUSH2 0x5FE DUP5 DUP3 DUP6 ADD PUSH2 0x5C8 JUMP JUMPDEST SWAP2 POP POP SWAP3 SWAP2 POP POP JUMP JUMPDEST PUSH0 PUSH20 0xFFFFFFFFFFFFFFFFFFFFFFFFFFFFFFFFFFFFFFFF DUP3 AND SWAP1 POP SWAP2 SWAP1 POP JUMP JUMPDEST PUSH0 PUSH2 0x630 DUP3 PUSH2 0x607 JUMP JUMPDEST SWAP1 POP SWAP2 SWAP1 POP JUMP JUMPDEST PUSH2 0x640 DUP2 PUSH2 0x626 JUMP JUMPDEST DUP3 MSTORE POP POP JUMP JUMPDEST PUSH0 PUSH1 0x20 DUP3 ADD SWAP1 POP PUSH2 0x659 PUSH0 DUP4 ADD DUP5 PUSH2 0x637 JUMP JUMPDEST SWAP3 SWAP2 POP POP JUMP JUMPDEST PUSH2 0x668 DUP2 PUSH2 0x626 JUMP JUMPDEST DUP2 EQ PUSH2 0x672 JUMPI PUSH0 DUP1 REVERT JUMPDEST POP JUMP JUMPDEST PUSH0 DUP2 CALLDATALOAD SWAP1 POP PUSH2 0x683 DUP2 PUSH2 0x65F JUMP JUMPDEST SWAP3 SWAP2 POP POP JUMP JUMPDEST PUSH0 DUP1 PUSH1 0x40 DUP4 DUP6 SUB SLT ISZERO PUSH2 0x69F JUMPI PUSH2 0x69E PUSH2 0x427 JUMP JUMPDEST JUMPDEST PUSH0 PUSH2 0x6AC DUP6 DUP3 DUP7 ADD PUSH2 0x675 JUMP JUMPDEST SWAP3 POP POP PUSH1 0x20 PUSH2 0x6BD DUP6 DUP3 DUP7 ADD PUSH2 0x5C8 JUMP JUMPDEST SWAP2 POP POP SWAP3 POP SWAP3 SWAP1 POP JUMP JUMPDEST PUSH0 DUP2 MLOAD SWAP1 POP SWAP2 SWAP1 POP JUMP JUMPDEST PUSH0 DUP3 DUP3 MSTORE PUSH1 0x20 DUP3 ADD SWAP1 POP SWAP3 SWAP2 POP POP JUMP JUMPDEST DUP3 DUP2 DUP4 MCOPY PUSH0 DUP4 DUP4 ADD MSTORE POP POP POP JUMP JUMPDEST PUSH0 PUSH2 0x6F9 DUP3 PUSH2 0x6C7 JUMP JUMPDEST PUSH2 0x703 DUP2 DUP6 PUSH2 0x6D1 JUMP JUMPDEST SWAP4 POP PUSH2 0x713 DUP2 DUP6 PUSH1 0x20 DUP7 ADD PUSH2 0x6E1 JUMP JUMPDEST PUSH2 0x71C DUP2 PUSH2 0x437 JUMP JUMPDEST DUP5 ADD SWAP2 POP POP SWAP3 SWAP2 POP POP JUMP JUMPDEST PUSH0 PUSH1 0x60 DUP3 ADD SWAP1 POP PUSH2 0x73A PUSH0 DUP4 ADD DUP7 PUSH2 0x637 JUMP JUMPDEST DUP2 DUP2 SUB PUSH1 0x20 DUP4 ADD MSTORE PUSH2 0x74C DUP2 DUP6 PUSH2 0x6EF JUMP JUMPDEST SWAP1 POP PUSH2 0x75B PUSH1 0x40 DUP4 ADD DUP5 PUSH2 0x3F6 JUMP JUMPDEST SWAP5 SWAP4 POP POP POP POP JUMP JUMPDEST PUSH32 0x7468697320636F6E74656E7420697320746F6F206C6F6E6720706C6561736520 PUSH0 DUP3 ADD MSTORE PUSH32 0x6D616B652069742073686F727400000000000000000000000000000000000000 PUSH1 0x20 DUP3 ADD MSTORE POP JUMP JUMPDEST PUSH0 PUSH2 0x7BD PUSH1 0x2D DUP4 PUSH2 0x6D1 JUMP JUMPDEST SWAP2 POP PUSH2 0x7C8 DUP3 PUSH2 0x763 JUMP JUMPDEST PUSH1 0x40 DUP3 ADD SWAP1 POP SWAP2 SWAP1 POP JUMP JUMPDEST PUSH0 PUSH1 0x20 DUP3 ADD SWAP1 POP DUP2 DUP2 SUB PUSH0 DUP4 ADD MSTORE PUSH2 0x7EA DUP2 PUSH2 0x7B1 JUMP JUMPDEST SWAP1 POP SWAP2 SWAP1 POP JUMP JUMPDEST PUSH32 0x4E487B7100000000000000000000000000000000000000000000000000000000 PUSH0 MSTORE PUSH1 0x22 PUSH1 0x4 MSTORE PUSH1 0x24 PUSH0 REVERT JUMPDEST PUSH0 PUSH1 0x2 DUP3 DIV SWAP1 POP PUSH1 0x1 DUP3 AND DUP1 PUSH2 0x835 JUMPI PUSH1 0x7F DUP3 AND SWAP2 POP JUMPDEST PUSH1 0x20 DUP3 LT DUP2 SUB PUSH2 0x848 JUMPI PUSH2 0x847 PUSH2 0x7F1 JUMP JUMPDEST JUMPDEST POP SWAP2 SWAP1 POP JUMP JUMPDEST PUSH0 DUP2 SWAP1 POP DUP2 PUSH0 MSTORE PUSH1 0x20 PUSH0 KECCAK256 SWAP1 POP SWAP2 SWAP1 POP JUMP JUMPDEST PUSH0 PUSH1 0x20 PUSH1 0x1F DUP4 ADD DIV SWAP1 POP SWAP2 SWAP1 POP JUMP JUMPDEST PUSH0 DUP3 DUP3 SHL SWAP1 POP SWAP3 SWAP2 POP POP JUMP JUMPDEST PUSH0 PUSH1 0x8 DUP4 MUL PUSH2 0x8AA PUSH32 0xFFFFFFFFFFFFFFFFFFFFFFFFFFFFFFFFFFFFFFFFFFFFFFFFFFFFFFFFFFFFFFFF DUP3 PUSH2 0x86F JUMP JUMPDEST PUSH2 0x8B4 DUP7 DUP4 PUSH2 0x86F JUMP JUMPDEST SWAP6 POP DUP1 NOT DUP5 AND SWAP4 POP DUP1 DUP7 AND DUP5 OR SWAP3 POP POP POP SWAP4 SWAP3 POP POP POP JUMP JUMPDEST PUSH0 DUP2 SWAP1 POP SWAP2 SWAP1 POP JUMP JUMPDEST PUSH0 PUSH2 0x8EF PUSH2 0x8EA PUSH2 0x8E5 DUP5 PUSH2 0x3ED JUMP JUMPDEST PUSH2 0x8CC JUMP JUMPDEST PUSH2 0x3ED JUMP JUMPDEST SWAP1 POP SWAP2 SWAP1 POP JUMP JUMPDEST PUSH0 DUP2 SWAP1 POP SWAP2 SWAP1 POP JUMP JUMPDEST PUSH2 0x908 DUP4 PUSH2 0x8D5 JUMP JUMPDEST PUSH2 0x91C PUSH2 0x914 DUP3 PUSH2 0x8F6 JUMP JUMPDEST DUP5 DUP5 SLOAD PUSH2 0x87B JUMP JUMPDEST DUP3 SSTORE POP POP POP POP JUMP JUMPDEST PUSH0 SWAP1 JUMP JUMPDEST PUSH2 0x930 PUSH2 0x924 JUMP JUMPDEST PUSH2 0x93B DUP2 DUP5 DUP5 PUSH2 0x8FF JUMP JUMPDEST POP POP POP JUMP JUMPDEST JUMPDEST DUP2 DUP2 LT ISZERO PUSH2 0x95E JUMPI PUSH2 0x953 PUSH0 DUP3 PUSH2 0x928 JUMP JUMPDEST PUSH1 0x1 DUP2 ADD SWAP1 POP PUSH2 0x941 JUMP JUMPDEST POP POP JUMP JUMPDEST PUSH1 0x1F DUP3 GT ISZERO PUSH2 0x9A3 JUMPI PUSH2 0x974 DUP2 PUSH2 0x84E JUMP JUMPDEST PUSH2 0x97D DUP5 PUSH2 0x860 JUMP JUMPDEST DUP2 ADD PUSH1 0x20 DUP6 LT ISZERO PUSH2 0x98C JUMPI DUP2 SWAP1 POP JUMPDEST PUSH2 0x9A0 PUSH2 0x998 DUP6 PUSH2 0x860 JUMP JUMPDEST DUP4 ADD DUP3 PUSH2 0x940 JUMP JUMPDEST POP POP JUMPDEST POP POP POP JUMP JUMPDEST PUSH0 DUP3 DUP3 SHR SWAP1 POP SWAP3 SWAP2 POP POP JUMP JUMPDEST PUSH0 PUSH2 0x9C3 PUSH0 NOT DUP5 PUSH1 0x8 MUL PUSH2 0x9A8 JUMP JUMPDEST NOT DUP1 DUP4 AND SWAP2 POP POP SWAP3 SWAP2 POP POP JUMP JUMPDEST PUSH0 PUSH2 0x9DB DUP4 DUP4 PUSH2 0x9B4 JUMP JUMPDEST SWAP2 POP DUP3 PUSH1 0x2 MUL DUP3 OR SWAP1 POP SWAP3 SWAP2 POP POP JUMP JUMPDEST PUSH2 0x9F4 DUP3 PUSH2 0x6C7 JUMP JUMPDEST PUSH8 0xFFFFFFFFFFFFFFFF DUP2 GT ISZERO PUSH2 0xA0D JUMPI PUSH2 0xA0C PUSH2 0x447 JUMP JUMPDEST JUMPDEST PUSH2 0xA17 DUP3 SLOAD PUSH2 0x81E JUMP JUMPDEST PUSH2 0xA22 DUP3 DUP3 DUP6 PUSH2 0x962 JUMP JUMPDEST PUSH0 PUSH1 0x20 SWAP1 POP PUSH1 0x1F DUP4 GT PUSH1 0x1 DUP2 EQ PUSH2 0xA53 JUMPI PUSH0 DUP5 ISZERO PUSH2 0xA41 JUMPI DUP3 DUP8 ADD MLOAD SWAP1 POP JUMPDEST PUSH2 0xA4B DUP6 DUP3 PUSH2 0x9D0 JUMP JUMPDEST DUP7 SSTORE POP PUSH2 0xAB2 JUMP JUMPDEST PUSH1 0x1F NOT DUP5 AND PUSH2 0xA61 DUP7 PUSH2 0x84E JUMP JUMPDEST PUSH0 JUMPDEST DUP3 DUP2 LT ISZERO PUSH2 0xA88 JUMPI DUP5 DUP10 ADD MLOAD DUP3 SSTORE PUSH1 0x1 DUP3 ADD SWAP2 POP PUSH1 0x20 DUP6 ADD SWAP5 POP PUSH1 0x20 DUP2 ADD SWAP1 POP PUSH2 0xA63 JUMP JUMPDEST DUP7 DUP4 LT ISZERO PUSH2 0xAA5 JUMPI DUP5 DUP10 ADD MLOAD PUSH2 0xAA1 PUSH1 0x1F DUP10 AND DUP3 PUSH2 0x9B4 JUMP JUMPDEST DUP4 SSTORE POP JUMPDEST PUSH1 0x1 PUSH1 0x2 DUP9 MUL ADD DUP9 SSTORE POP POP POP JUMPDEST POP POP POP POP POP POP JUMP JUMPDEST PUSH32 0x796F7520617265206E6F7420746865206F776E657220796F752063616E6E6F74 PUSH0 DUP3 ADD MSTORE PUSH32 0x20736574207468652074776974746572206D6178206C656E6774680000000000 PUSH1 0x20 DUP3 ADD MSTORE POP JUMP JUMPDEST PUSH0 PUSH2 0xB14 PUSH1 0x3B DUP4 PUSH2 0x6D1 JUMP JUMPDEST SWAP2 POP PUSH2 0xB1F DUP3 PUSH2 0xABA JUMP JUMPDEST PUSH1 0x40 DUP3 ADD SWAP1 POP SWAP2 SWAP1 POP JUMP JUMPDEST PUSH0 PUSH1 0x20 DUP3 ADD SWAP1 POP DUP2 DUP2 SUB PUSH0 DUP4 ADD MSTORE PUSH2 0xB41 DUP2 PUSH2 0xB08 JUMP JUMPDEST SWAP1 POP SWAP2 SWAP1 POP JUMP INVALID LOG2 PUSH5 0x6970667358 0x22 SLT KECCAK256 PUSH8 0xD575D5B4F489216 PUSH0 0xE8 DELEGATECALL SWAP14 0x2F 0xB2 PUSH26 0x569DE2B7FC43A0135056E78BFD6354B064736F6C634300081A00 CALLER "
				},
				"gasEstimates": {
					"creation": {
						"codeDepositCost": "588400",
						"executionCost": "24882",
						"totalCost": "613282"
					},
					"external": {
						"CreateNotifictioin(string)": "infinite",
						"NotificationLengthFunction(uint256)": "24705",
						"NotificationTwitter(address,uint256)": "infinite",
						"owner()": "2552",
						"twitterLength()": "2402"
					}
				},
				"methodIdentifiers": {
					"CreateNotifictioin(string)": "271d6cc3",
					"NotificationLengthFunction(uint256)": "51a984fb",
					"NotificationTwitter(address,uint256)": "be0c0164",
					"owner()": "8da5cb5b",
					"twitterLength()": "23e81a69"
				}
			},
			"storageLayout": {
				"storage": [
					{
						"astId": 3,
						"contract": "contracts/TwitterNotificationModifier.sol:TwitterNotificatonModifier",
						"label": "twitterLength",
						"offset": 0,
						"slot": "0",
						"type": "t_uint256"
					},
					{
						"astId": 16,
						"contract": "contracts/TwitterNotificationModifier.sol:TwitterNotificatonModifier",
						"label": "NotificationTwitter",
						"offset": 0,
						"slot": "1",
						"type": "t_mapping(t_address,t_array(t_struct(Notification)10_storage)dyn_storage)"
					},
					{
						"astId": 18,
						"contract": "contracts/TwitterNotificationModifier.sol:TwitterNotificatonModifier",
						"label": "owner",
						"offset": 0,
						"slot": "2",
						"type": "t_address"
					}
				],
				"types": {
					"t_address": {
						"encoding": "inplace",
						"label": "address",
						"numberOfBytes": "20"
					},
					"t_array(t_struct(Notification)10_storage)dyn_storage": {
						"base": "t_struct(Notification)10_storage",
						"encoding": "dynamic_array",
						"label": "struct TwitterNotificatonModifier.Notification[]",
						"numberOfBytes": "32"
					},
					"t_mapping(t_address,t_array(t_struct(Notification)10_storage)dyn_storage)": {
						"encoding": "mapping",
						"key": "t_address",
						"label": "mapping(address => struct TwitterNotificatonModifier.Notification[])",
						"numberOfBytes": "32",
						"value": "t_array(t_struct(Notification)10_storage)dyn_storage"
					},
					"t_string_storage": {
						"encoding": "bytes",
						"label": "string",
						"numberOfBytes": "32"
					},
					"t_struct(Notification)10_storage": {
						"encoding": "inplace",
						"label": "struct TwitterNotificatonModifier.Notification",
						"members": [
							{
								"astId": 5,
								"contract": "contracts/TwitterNotificationModifier.sol:TwitterNotificatonModifier",
								"label": "author",
								"offset": 0,
								"slot": "0",
								"type": "t_address"
							},
							{
								"astId": 7,
								"contract": "contracts/TwitterNotificationModifier.sol:TwitterNotificatonModifier",
								"label": "notificationcontent",
								"offset": 0,
								"slot": "1",
								"type": "t_string_storage"
							},
							{
								"astId": 9,
								"contract": "contracts/TwitterNotificationModifier.sol:TwitterNotificatonModifier",
								"label": "timestamp",
								"offset": 0,
								"slot": "2",
								"type": "t_uint256"
							}
						],
						"numberOfBytes": "96"
					},
					"t_uint256": {
						"encoding": "inplace",
						"label": "uint256",
						"numberOfBytes": "32"
					}
				}
			},
			"userdoc": {
				"kind": "user",
				"methods": {},
				"version": 1
			}
		}
	}
}